:1000000000000120910100007F0300006105000055
:100010008303000073050000850500000000000058
:100020000000000000000000000000008903000044
:100030008B030000000000008D0300008F03000010
:100040009103000093030000950300009703000054
:10005000990300009B0300009D0300009F03000024
:10006000A1030000A3030000A5030000A7030000F4
:10007000A9030000AB030000AD030000AF030000C4
:10008000B1030000B3030000B5030000B703000094
:10009000B9030000BB030000BD030000BF03000064
:1000A000C1030000C3030000C5030000C703000034
:1000B000C9030000CB030000CD030000CF03000004
:1000C000D1030000D3030000D5030000D7030000D4
:1000D000D9030000DB030000DD030000DF030000A4
:1000E000E1030000E3030000E5030000E703000074
:1000F000E9030000EB030000ED030000EF03000044
:10010000F1030000F3030000F5030000F703000013
:10011000F9030000FB030000FD030000FF030000E3
:1001200001040000030400000504000007040000AF
:10013000090400000B0400000D0400000F0400007F
:10014000110400001304000015040000170400004F
:10015000190400001B0400001D0400001F0400001F
:1001600021040000230400002504000027040000EF
:10017000290400002B0400002D0400002F040000BF
:100180003104000033040000000000000000000003
:100190004FF0000BDFF8BE020068DFF8B612096806
:1001A00001F0030100F01C00142801D14BF0020BF8
:1001B000002901D04BF0010BBBF1000F05D0A7487F
:1001C000A749DFF8722200F09FF8A64880470BF09D
:1001D000020ABAF1000F0CD0DFF86E02DFF86E12DF
:1001E00002680B680FB44FF000024FF0FF0302608B
:1001F0000B609D484FF000024FF00103022808D128
:10020000DFF83A120A60DFF83E120A60DFF83212B5
:100210000B60012808D1DFF82A120A60DFF82612E5
:100220000A60DFF81A120B609048002809D1904844
:100230009049914A00F030F890489149914A00F075
:100240002BF891489149924A00F026F8914892493A
:10025000DFF8E22100F058F8BBF1000F10D08F4812
:100260008F49DFF8D62100F04FF80BF0020ABAF1FF
:10027000000F05D00FBC02600B6000BFAFF3008021
:10028000DFF820020FF2030E00474FF000004FF09E
:100290000001DFF814F2FEE72DE9F841884225D08D
:1002A000B2EB010200D5FEE740EA010313F00303BD
:1002B00002D000F01DF819E04FF000039046121133
:1002C000F7D09A421CBFF0C8F0C103F10103F8D186
:1002D00008F00F08B8F1000F08D004780C7000F196
:1002E000010001F10101B8F10108F6D1BDE8F88182
:1002F00008B54FF0000303780B7000F1010001F125
:100300000101013AF7D108BD884237D000F0030659
:10031000002E14D04FF00405A5EB06044FF008079B
:1003200007FB06F8914669FA08F9002C07D080F817
:10033000009069FA07F900F10100013CF5E74FF080
:1003400000060F46091A88460911914614461546BB
:10035000B14206D018BFA0E8340206F10106B1424E
:10036000F8D108F00F08B8F1000F07D002704FEA7B
:10037000322200F10100B8F10108F4E77047FEE70E
:10038000FEE7FEE7FEE7FEE7FEE7FEE7FEE7FEE745
:10039000FEE7FEE7FEE7FEE7FEE7FEE7FEE7FEE735
:1003A000FEE7FEE7FEE7FEE7FEE7FEE7FEE7FEE725
:1003B000FEE7FEE7FEE7FEE7FEE7FEE7FEE7FEE715
:1003C000FEE7FEE7FEE7FEE7FEE7FEE7FEE7FEE705
:1003D000FEE7FEE7FEE7FEE7FEE7FEE7FEE7FEE7F5
:1003E000FEE7FEE7FEE7FEE7FEE7FEE7FEE7FEE7E5
:1003F000FEE7FEE7FEE7FEE7FEE7FEE7FEE7FEE7D5
:10040000FEE7FEE7FEE7FEE7FEE7FEE7FEE7FEE7C4
:10041000FEE7FEE7FEE7FEE7FEE7FEE7FEE7FEE7B4
:10042000FEE7FEE7FEE7FEE7FEE7FEE7FEE7FEE7A4
:10043000FEE7FEE7704700000000A2A2A2A2008033
:100440000340088003401080034030800340348024
:1004500003403880034018080240000000F00020EC
:10046000000001209D0500000000000000000000C9
:10047000000000000000000090010000B004000037
:10048000B0040000389502004095020000000020F2
:100490007008002070080020106500201065002002
:1004A00000F000202DD10000ADC1000000000000D0
:1004B00010B5054C237833B9044B13B10448AFF39E
:1004C00000800123237010BD700800200000000090
:1004D000BC94020008B5034B1BB103490348AFF3BA
:1004E000008008BD0000000074080020BC940200D9
:1004F000A3F5803A704700BF154B002B08BF114B86
:100500009D46FFF7F5FF00218B460F461148124A22
:10051000121A0CF043FC0C4B002B00D098470B4BED
:10052000002B00D098470020002104000D000B484C
:100530000BF01EFF0CF0FAFD200029000BF036FE38
:100540000BF01CFF0000080000000000000000008D
:100550000000000070080020106500207DD1000020
:100560001EF0040F0CBFEFF30880EFF309800BF0CF
:10057000D7BC1EF0040F0CBFEFF30880EFF3098027
:100580000BF018BD1EF0040F0CBFEFF30880EFF363
:1005900009800BF03FBD0138FDD1704780B500AF39
:1005A00000F0FAF8044B5B69034A43F400735361AB
:1005B000FFF740FF00BF80BD00ED00E080B588B0D0
:1005C00000AF314BD3F8983003F08063FB61FB69D7
:1005D000002B4ED12C4BD3F8983003F480537B6121
:1005E0007B69002B15D1294B294A1A60294B284ACF
:1005F0001A60294B264A1A60284B294A1A60294B4F
:10060000234A1A60284B224A1A60284B204A1A6053
:1006100036E0274A3B1D92E8030083E803001A4BAB
:10062000D3F89C309B0903F007033B613A1D3B69FB
:1006300013441B78FB73FB7B022B12D0022B14DCC0
:10064000002B02D0012B07D00FE000F035F8B86185
:10065000B86900F04FF813E04FF4004000F04AF89A
:100660000EE0144800F046F80AE0124800F042F8A4
:1006700006E000F021F8B861B86900F03BF8FFE748
:1006800000BF2037BD4680BD00800340040000202D
:1006900080651406080000200C00002010000020D7
:1006A0006019850114000020180000201C000020A3
:1006B000F4DE010040420F0080B483B000AF0A4B6B
:1006C000D3F8503103F004033B603B68002B02D1A8
:1006D000064B7B6001E0064B7B607B6818460C375D
:1006E000BD4680BC704700BF0080034040787D015C
:1006F00080F0FA0280B483B000AF78600C4A7B6867
:1007000013600C4A7B6813600B4A7B6813600B4BC9
:100710000B4A1A600B4A7B6813600B4A7B681360B4
:100720000A4A7B68136000BF0C37BD4680BC704727
:1007300004000020080000200C0000201000002011
:100740006019850114000020180000201C00002002
:1007500080B483B000AF0E4BD3F84C313B603B68A4
:100760004FF60202934204D03B680A4A934203D0F8
:1007700005E001237B6005E002237B6002E00023AB
:100780007B6000BF7B6818460C37BD4680BC704755
:100790000080034002F8010080B582B000AFFFF78F
:1007A000D7FF78607B68012B02D100F007F800E0EA
:1007B00000BF00BF0837BD4680BD000080B400AF59
:1007C000094BD3F89830084A43F48073C2F8983044
:1007D000054BD3F89830044A23F08063C2F8983070
:1007E00000BFBD4680BC70470080034080B483B02A
:1007F00000AF78604FF0FF3318460C37BD4680BC21
:10080000704780B584B000AFF860B9607A600CF0D2
:1008100087FC03460C221A604FF0FF33184610374E
:10082000BD4680BD80B483B000AF786000BFFDE7F7
:1008300080B500AF0CF074FC03460B221A604FF039
:10084000FF33184680BD80B483B000AF7860396054
:100850003B684FF400525A60002318460C37BD46DF
:1008600080BC704780B400AF01231846BD4680BCF1
:10087000704780B483B000AF7860012318460C370E
:10088000BD4680BC704780B582B000AF78603960EB
:100890000CF046FC034616221A604FF0FF33184650
:1008A0000837BD4680BD80B582B000AF7860396042
:1008B0000CF036FC03461F221A604FF0FF33184637
:1008C0000837BD4680BD80B485B000AFF860B96020
:1008D0007A60002318461437BD4680BC704780B448
:1008E00085B000AFF860B9607A604FF0FF3318460A
:1008F0001437BD4680BC704780B485B000AFF86047
:10090000B9607A60002318461437BD4680BC704732
:1009100080B485B000AFF860B9607A603B600023B6
:1009200018461437BD4680BC7047000080B586B0BD
:1009300000AF78601F4B1B68002B02D11D4B1E4A75
:100940001A601C4B1B687B61EFF308833B61194BFA
:100950001B683A699A420FD9164B1A687B68134490
:100960003A699A421AD21923144A01210020FFF74A
:10097000CFFF0120FFF756FF114BFB600D4B1A68AC
:100980007B681344FA689A4208D219230D4A012160
:100990000020FFF7BDFF0120FFF744FF054B1A6859
:1009A0007B681344034A13607B6918461837BD46B9
:1009B00080BD00BF9008002010650020FCDE010013
:1009C00000F0002018DF010080B483B000AF786031
:1009D00039603B684FF400525A60002318460C37C8
:1009E000BD4680BC704780B483B000AF78604FF0E4
:1009F000FF3318460C37BD4680BC704780B582B0C7
:100A000000AF78600CF08CFB034602221A604FF0B6
:100A1000FF3318460837BD4680BD80B582B000AFB1
:100A200078600CF07DFB03460A221A604FF0FF331A
:100A300018460837BD4680BD2DE9B04384B000AFED
:100A400078607B68002298469146104BD3E90023DA
:100A500002FB09F008FB03F10144A8FB02454B1916
:100A60001D460B4A4FF00003204629461BF036FF77
:100A700002460B4613460133FB60F868FFF78BFD17
:100A800000BF1037BD46BDE8B08300BF8000002026
:100A900040420F0080B582B000AF78607B684FF4B1
:100AA0007A7202FB03F31846FFF7C6FF00BF083750
:100AB000BD4680BD80B582B000AF78607B684FF4E2
:100AC0007A7202FB03F31846FFF7E4FF00BF083712
:100AD000BD4680BD80B485B000AF786039604FF00E
:100AE000FF33FB603B68BB6012E07B681B781A46F3
:100AF000FB681B0E53400B4A52F82320FB681B0275
:100B00005340FB607B6801337B60BB68013BBB608B
:100B1000BB68002BE9D1FB68DB4318461437BD46A0
:100B200080BC70472CDF010080B500AF30480AF070
:100B3000E7FF304B1B6819462F480AF0E1FF2F4BA7
:100B40001B6819462E480AF0DBFF2E4B1B6819461E
:100B50002D480AF0D5FF2D4B1B6819462C480AF08A
:100B6000CFFF2C4B1B6819462B480AF0C9FF2B4BB3
:100B70001B6819462A480AF0C3FF2A4B1B6819460E
:100B800029480AF0BDFF294B1B68194628480AF07E
:100B9000B7FF284B1B68194627480AF0B1FF274BBF
:100BA0001B68194626480AF0ABFF264B1B681946FE
:100BB00025480AF0A5FF254B1B68194624480AF072
:100BC0009FFF244B1B68194623480AF099FF234BCB
:100BD0001B68194622480AF093FF224B1B681946EE
:100BE00021480AF08DFF21480AF08AFF00BF80BD2E
:100BF0002CE301000000000044E30100900100002C
:100C000064E30100B004000080E3010038950200B5
:100C100098E3010030950200ACE301003895020032
:100C2000C4E3010000000020DCE3010070080020A4
:100C3000F4E301007008002008E4010010650020C2
:100C400020E401001065002030E4010000F00020E5
:100C50004CE4010000F0002060E4010000000120ED
:100C60007CE401001065002090E40100A0E4010094
:100C700080B584B000AFF860B9607A603B603B68D3
:100C800018687B68BA68F968984702463B681A603A
:100C90003B681B68002B02D14FF0FF3300E00023BC
:100CA00018461037BD4680BD80B586B000AFF860ED
:100CB000B9607A603B6014E0BB68102B28BF10233A
:100CC0007B613B687A687969F868FFF7D1FF034672
:100CD000002B02DA4FF0FF3307E0BA687B69D31AC2
:100CE000BB60BB68002BE7D1002318461837BD4610
:100CF00080BD000080B586B000AFF860B9607A6052
:100D00003B6000237B617B68002B0BD0BB68FA68DB
:100D100079683048FFF7C8FF0346002B02DA4FF02E
:100D2000FF3353E07A697B6813447B613B68002B97
:100D300012D03B6A002B0FD0BB68FA68396A38685A
:100D4000FFF796FF0346002B02DA4FF0FF333DE03A
:100D50007A693B6A13447B617B6A002B0BD0BB68CA
:100D6000FA68796A1C48FFF79FFF0346002B02DAF6
:100D70004FF0FF332AE07A697B6A13447B61FB6A98
:100D8000002B0BD0BB68FA68F96AB86AFFF770FFEE
:100D90000346002B02DA4FF0FF3317E07A69FB6A53
:100DA00013447B613B6B002B0BD0BB68FA68396B3B
:100DB0000848FFF779FF0346002B02DA4FF0FF33B4
:100DC00004E07A693B6B13447B617B6918461837F2
:100DD000BD4680BDA4E40100B8E4010080B489B040
:100DE00000AFF860B9607A603B600023FB610023CC
:100DF000BB6100237B61FB689B681A46BB6893421A
:100E000005D2FB689B681A46BB68D31A7B61FB68F6
:100E10005B6803F00403002B02D07B69BB6101E037
:100E20007B69FB61FB685B6803F04003002B15D016
:100E3000FA69BB6913443B61FB685B6803F0040318
:100E4000002B0CBF01230023DBB21A463B6913447D
:100E50005B08FB613A69FB69D31ABB617B68002BB5
:100E600002D07B68FA691A603B68002B02D03B68AD
:100E7000BA691A6000BF2437BD4680BC70470000C5
:100E80002DE9B04FA0B000AFC7E912017A643B640E
:100E9000D7E91223C7E91C23D7E91C231446C3F35F
:100EA0001305C7E91845D7E91C234FF000004FF0A0
:100EB0000001180D00210346C3F30A03BB66D7E9FE
:100EC0001C234FF000004FF00001D80F0021034613
:100ED000FB66BA6E40F2FF739A4209D16FF000438D
:100EE000BB65FB6EFB65D7E91823C7E91423FFE058
:100EF000D7E9182313430DD1BB6E002B0AD1002371
:100F0000BB654FF000024FF00003C7E91423FB6EEE
:100F1000FB65EDE0FB6EFB65BB6E002B21D1012371
:100F2000BB664FF000024FF00003C7E91423002313
:100F3000BB650CE0D7E918239118B9615B41FB61EF
:100F4000D7E90623C7E91823BB6E013BBB66D7E987
:100F500018234FF0000A03F4002B5AEA0B03E9D0E0
:100F600006E075A3D3E90023C7E914230023BB657A
:100F700073A3D3E90023C7E91E23D7E918234FF051
:100F800000004FF00001190341EA12511003C7E9B4
:100F9000180131E0D7E91823002B0CDAD7E9140146
:100FA000D7E91E238418BC6341EB0303FB63D7E935
:100FB0000E34C7E91434D7E91823911839615B411D
:100FC0007B61D7E90423C7E91823D7E91E23511C05
:100FD000396343F100037B634FF000024FF00003DD
:100FE000D7E90C4521464A08204629460C4642EAE4
:100FF000C4724B08C7E91E23D7E918231343C9D18C
:10100000BB6EA3F2FF33BB6629E0D7E91423911826
:10101000B9605B41FB60D7E90223C7E91423D7E934
:10102000142341498A4241498B4115D3D7E91423FE
:10103000511DB96243F10003FB624FF00A024FF009
:101040000003D7E90A011BF049FC02460B46C7E939
:101050001423BB6D0133BB65BB6E013BBB66BB6E2E
:10106000002BD2DC41E0D7E9142331498A423149CF
:101070008B4120D2D7E9144522462B464FF0000081
:101080004FF00001990041EA9271900002460B4630
:1010900012EB040843EB050918EB08033B6049EB2E
:1010A00009037B60D7E9008942464B46C7E9142310
:1010B000BB6D013BBB65D7E91423511C396243F179
:1010C00000037B624FF000024FF00003D7E90845B0
:1010D00021464A08204629460C4642EAC4724B087B
:1010E000C7E91423BB6E0133BB66BB6E002BBADBB2
:1010F0007B6C002B02D0FA6D7B6C1A603B6C002B72
:1011000004D0D7E91423396CC1E90023D7F8A03003
:10111000002B03D0BA6DD7F8A0301A6000BF80371B
:10112000BD46BDE8B08F00BF0000C16FF28623004E
:1011300000008D49FD1A07000080C6A47E8D0300C3
:1011400000406352BFC6010080B586B000AFF860B2
:10115000C7E900233A6A7B6AD31A7B610EE0D7E9BC
:1011600000014FF00A024FF000031BF0B7FB0246EC
:101170000B46C7E900237B69013B7B617B69002B40
:10118000EDDC7B6A7B6122E0D7E900014FF00A02C7
:101190004FF000031BF0A2FB13463B613B69DBB23F
:1011A0003033D9B27B69013BFA6813444AB21A70F2
:1011B000D7E900014FF00A024FF000031BF08EFB4D
:1011C00002460B46C7E900237B69013B7B617B69D3
:1011D000002BD9D17B6A18461837BD4680BD000068
:1011E00080B590B006AFF8607A603B600B46FB724A
:1011F00000237B6100233B613B6C6FF00042934214
:1012000015D1D7E90E23134311D097F90B30662B74
:1012100007D097F90B30652B03D097F90B30672B6C
:1012200002D12F4B3B6213E02E4B3B6210E097F94B
:101230000B30662B07D097F90B30652B03D097F94D
:101240000B30672B02D1284B3B6201E0274B3B62FE
:10125000386A0CF00FF9F8613B6B002B02D0244B7D
:101260007B6219E03B6B002B08D1FB685B6803F0E5
:101270000203002B02D01F4B7B620DE03B6B002B67
:1012800008D1FB685B6803F00103002B02D01A4B06
:101290007B6201E0194B7B62786A0CF0EBF8B86175
:1012A000FA69BB69D11807F1100307F11402F86855
:1012B000FFF794FD7A693B690493FB6903933B6AEA
:1012C000029300230193BB6900937B6A39687868B5
:1012D000FFF710FD034618462837BD4680BD00BF06
:1012E000CCE40100D0E40100D4E40100D8E4010022
:1012F000DCE40100E0E40100E4E40100E8E40100D2
:101300002DE9B0438AB000AFF860B9607A603B6005
:1013100048A3D3E90023C7E908230023FB61BB6886
:101320001B68BB617B6C002B21D0BA693E4B83FBF1
:101330000231D317C91A0B465B000B44D31ABB61A9
:10134000BB69002B02DABB690333BB613B68002B2E
:101350000DD0BB681B68002BB8BF5B427B617B690B
:10136000182B04DD7B69183BBA691344BB613B68E9
:10137000002B0AD1BB69002B02DABB690133BB61C8
:10138000BB69002BB8BF5B42BB61BA697B68134481
:101390000133FB61FB6923EAE373FB610BE0D7E9EF
:1013A00008014FF00A024FF000031BF097FA0246C3
:1013B0000B46C7E90823FB695A1EFA61002BEED1E0
:1013C000FB68D3E90001D7E90823841841EB030542
:1013D000FB68C3E90045FB68D3E9002313498A424F
:1013E00013498B4118D3FB68D3E9002312F1050898
:1013F00043F100094FF00A024FF00003404649460E
:101400001BF06CFA02460B46F968C1E90023BB6881
:101410001B685A1CBB681A6000BF2837BD46BDE870
:10142000B08300BFAFF30080565555550000C16F23
:10143000F28623000080E03779C3110080B5AAB09E
:1014400006AFF8607A603B600B46FB720023C7F87A
:101450008C300023C7F884300023C7F88030002385
:10146000BB6100237B610023FB670023BB67002374
:101470007B6700233B670023FB660023BB660023DA
:10148000BB6500237B6500233B650023FB7497F954
:101490000B30672B03D097F90B30472B23D1012357
:1014A0007B65FB685B6823F02002FB685A60D7F815
:1014B000A83013F1040F05DBFB68DA68D7F8A83011
:1014C0009A4208DC97F90B30672B01D1652300E0C5
:1014D0004523FB7207E097F90B30672B01D1662398
:1014E00000E04623FB7297F90B30662B03D097F987
:1014F0000B30462B01D101233B65FB68DB68002BD9
:1015000002DAFB680622DA607B6D002B06D0FB68EE
:10151000DB68002B02D1FB680122DA60D7F8983033
:10152000002B03D0AB4BC7F888301EE0D7F89830BB
:10153000002B09D1FB685B6803F00203002B03D08A
:10154000A54BC7F8883010E0D7F89830002B09D1A8
:10155000FB685B6803F00103002B03D09F4BC7F8C7
:10156000883002E09E4BC7F88830D7F888000BF02F
:1015700081FF7863FB68DA68FB685B6803F020032F
:1015800007F1A80107F1A00001937B6D00933B6D6B
:10159000FFF7B6FED7E92823134324D01023C7F85A
:1015A0008C301AE0D7E928014FF00A024FF000030F
:1015B0001BF094F9134315D1D7F88C30013BC7F8D1
:1015C0008C30D7E928014FF00A024FF000031BF0DE
:1015D00085F902460B46C7E92823D7F88C30002B43
:1015E000E0D100E000BF3B6D002B37D0FB685B68AB
:1015F00003F02003002B2AD00823FB6419E0D7F85E
:10160000A830022B08DDFB6C0133FB64D7F8A8304F
:10161000033BC7F8A8300CE0D7F8A830002B0FDA4E
:10162000FB6C013BFB64D7F8A8300333C7F8A83044
:1016300000BFFB6C002B04DDFB6C0F2BDFD900E03F
:1016400000BF684AFB6C134493F90030FB74D7F871
:10165000A83043EAE37301337B6623E001237B6612
:10166000FB685B6803F02003002B1BD0D7F8A82091
:101670005D4B83FB0231D317C91A0B465B000B4449
:10168000D31ABB64BB6C002B02DABB6C0333BB64A4
:101690007A6EBB6C13447B66D7F8A820BB6CD31A58
:1016A000C7F8A830FB68DA68D7F88C107B6ECB1AC5
:1016B00023EAE3739342A8BF13463B663B6D002BBE
:1016C0003CD07B6D002B39D0D7E92823C7E9102304
:1016D000D7F88C30FB630EE0FB6B013BFB63D7E973
:1016E00010014FF00A024FF000031BF0F7F802461A
:1016F0000B46C7E910237A6E3B6E1344FA6B9A428D
:10170000EADC0EE0D7E910014FF00A024FF00003C7
:101710001BF0E4F802460B46C7E910233B6E013B81
:101720003B663B6E002B09DDD7E910014FF00A0242
:101730004FF000031BF0D2F81343E3D07A6E7B6BBB
:101740001A443B6E1344C7F880303B6D002B38D0F1
:101750007B6E002B06D10123FB67D7F88030013365
:10176000C7F880307A6ED7F88C309A4204DD7A6EF2
:10177000D7F88C30D31ABB67D7F8A830B3F1FF3F46
:1017800015DAFB68DB68002B11DDD7F8A830DB43E6
:101790007B67FB68DB681A467B6F934228BF134662
:1017A0007B67D7F880207B6F1344C7F8803097F9A8
:1017B0001330002B34D0D7F880300133C7F8803095
:1017C0002EE0D7F8A830002BB8BF5B42FB650023A2
:1017D000BB6516E0DCE40100E0E40100E4E40100A4
:1017E000E8E401002400002056555555BB6D013337
:1017F000BB65FB6D9C4A82FB03129210DB17D31A68
:10180000FB65FB6D002BF1DCBB6D022B38BF0223A7
:10181000BB65BA6DD7F8803013440233C7F8803007
:101820003A6E7B6F1344FA68D268934217D27B6D8D
:10183000002B05D0FB685B6803F00803002B0ED07B
:10184000FB68DB681A467B6FD21A3B6ED31A3B6784
:10185000D7F880203B6F1344C7F880301AE03B6D07
:10186000002B17D03A6E7B6F1344FA68D26893420C
:1018700010D93A6E7B6F1344FA68D2689B1A3B63A7
:101880003B6BD7F88020D31AC7F880303A6E3B6B99
:10189000D31A3B667B6F002B0BD13B6F002B08D11B
:1018A0003B6E002B05DCFB685B6803F00803002B34
:1018B00006D00123BB66D7F880300133C7F88030EB
:1018C00007F1140307F11802D7F88010F868FFF742
:1018D00085FAFB685B6803F01003002B05D0BB6939
:1018E000FA6F1344FB670023BB617B6E002B0ED0A5
:1018F000D7E92823786EB96F411A07F11C000191CE
:10190000D7F88C100091FFF71FFC034600E000237E
:10191000C7F88430D7F88C20D7F88430D31AC7F8AA
:101920008C30BA6900230493D7F88430039307F10D
:101930001C030293FB6F01937B6B0093D7F88830F5
:1019400039687868FFF7D6F9F862FB6AB3F1FF3FB0
:1019500001D1FB6AF4E0FA6EFB6A1344FB660023D4
:1019600004930023039300230293BB6F019300238E
:1019700000930023002239687868FFF7BBF9F8620A
:10198000FB6AB3F1FF3F01D1FB6AD9E0FA6EFB6A53
:101990001344FB663B6E002B0CD0D7E9282307F1DC
:1019A0001C00396E0191D7F88C100091FFF7CCFB29
:1019B000034600E00023C7F88430BB6E002B14BF41
:1019C00001230023DBB21A4600230493D7F88430A6
:1019D000039307F11C0302937B6F01930092234B47
:1019E000002239687868FFF785F9F862FB6AB3F17D
:1019F000FF3F01D1FB6AA3E0FA6EFB6A1344FB666A
:101A00000023049300230393002302933B6F01936D
:101A1000002300930023002239687868FFF76AF9F1
:101A2000F862FB6AB3F1FF3F01D1FB6A88E0FA6E0E
:101A3000FB6A1344FB66BB6D002B5DD0D7F8A83062
:101A4000002BB8BF5B42BB63FB7A3B74D7F8A8306E
:101A5000002B01DA2D2300E02B237B74BB6DFB658B
:101A60000023C7F8843025E067666666ECE4010071
:101A7000B96B354BA3FB0123DA0813469B001344D3
:101A80005B00CA1AD3B23033DAB2FB6D013B52B2FB
:101A900090333B4403F8742CFB6D013BFB65D7F896
:101AA00084300133C7F88430BB6B274AA2FB032381
:101AB000DB08BB63FB6D002BDADC07F110020023AF
:101AC0000493D7F88430039307F11C030293002397
:101AD0000193022300931346002239687868FFF7C8
:101AE00009F9F862FB6AB3F1FF3F01D1FB6A27E015
:101AF000FA6EFB6A1344FB6697F91330002B14BF90
:101B000001230023DBB21A467B690493039207F199
:101B10001303029300230193002300930023002268
:101B200039687868FFF7E6F8F862FB6AB3F1FF3FBF
:101B300001D1FB6A04E0FA6EFB6A1344FB66FB6E9C
:101B400018469037BD4680BDCDCCCCCC90B593B077
:101B500006AFF860B9603B601346FB71FB6893F910
:101B600014304C2B02D14FF0FF334DE0BB681B68A3
:101B7000073323F0070303F10801BA681160D3E9C2
:101B80000023C7E90A2307F1180107F1240207F12E
:101B9000140300930B46D7E90A01FFF771F97B693B
:101BA0006FF00042934203D1D7E90623134308D1D3
:101BB0007B696FF00042934215D1D7E906231343A6
:101BC00011D1796AD7E90623786997F9074004901B
:101BD000CDE9022300913B6C3A682146F868FFF793
:101BE000FFFA034610E0796AD7E90623786997F986
:101BF00007400490CDE9022300913B6C3A682146EE
:101C0000F868FFF71BFC034618463437BD4690BD05
:101C10002DE9B04FAAB006AFF865B9653B6513462C
:101C200087F85730FB6D1A6AFB6D5B6A1344C7F87F
:101C30008430D7F884300733DB08C7F880304FF0A2
:101C400000024FF00003C7E918234FF000024FF0E5
:101C50000003C7E91823D7F88030002B02D14FF0DA
:101C6000FF33EEE0D7F88030042B08D8BB6D19683D
:101C70000A1DBB6D1A600B68C7F88C3007E0BB6D9E
:101C800019680A1DBB6D1A600B68C7F88C30D7F84D
:101C90008C30002B0AD10023FB674FF000024FF07D
:101CA0000003C7E91C230023FB66BAE0D7F88430A1
:101CB0005A1E012303FA02F2D7F88C301340002B8E
:101CC00014BF01230023DBB2FB67FB6F002B04D0A2
:101CD000D7F88C305B42C7F88C30D7F884305A1E66
:101CE000012393405A1ED7F88C301340C7F88C302C
:101CF000D7F88C30DA17BB64FA64D7E91223C7E946
:101D00001C234FF0FF33C7F8883009E0D7F88C3038
:101D10005B10C7F88C30D7F888300133C7F88830AB
:101D2000D7F88C30002BF1D1D7F88820FB6D5B6A97
:101D3000D31AFB6609E0D7E91C23911839605B418F
:101D40007B60D7E90023C7E91C23D7E91C23B3F53F
:101D5000801FF0D3D7E9182300244FEA13554FEA28
:101D60000555D7E91C239246C3F3130B44EA0A0333
:101D70003B6445EA0B037B64D7E91034C7E91834A8
:101D8000D7E91823BA636FF31E53FB63FB6EDA17B0
:101D90003B637A633B6BC3F30A084FF0000940F2E0
:101DA000FF3318EB0303BB6249F10003FB624FF002
:101DB00000024FF00003B96A0B050022D7E90E01BB
:101DC000044614433C6219437962D7E90834C7E9F1
:101DD0001834D7E91823BA6123F00043FB61FB6F85
:101DE00000223B617A614FF000024FF00003396935
:101DF000CB070022D7E9060104461443BC6019430F
:101E0000F960D7E90234C7E91834D7E9180107F1B6
:101E1000700407F17C0207F16C0300932346FFF77F
:101E20002FF8F96FD7E91C23F86E0490CDE902234F
:101E30000091D7F8B0303A6D6621F86DFFF7FEFAE1
:101E4000034618469037BD46BDE8B08FB0B485B0A4
:101E500000AF786039603B681B68191D3A681160F3
:101E60001B68FB60FB68002B48D07B6893F914303B
:101E7000682B05D17B681B681AB2FB681A803DE0AD
:101E80007B6893F91430692B05D17B681B685AB2C3
:101E9000FB681A7032E07B6893F914306C2B05D123
:101EA0007B681B681A46FB681A6027E07B6893F919
:101EB00014306A2B08D17B681B6800221C4615462B
:101EC000FB68C3E9004519E07B6893F914307A2B6D
:101ED00004D17B681A68FB681A600FE07B6893F98D
:101EE0001430742B05D17B681B681A46FB681A6096
:101EF00004E07B681B681A46FB681A6000231846DA
:101F00001437BD46B0BC704780B58EB006AFF860E0
:101F1000B9603B601346FB710023FB6197F9073002
:101F2000632B08D1BB681B68191DBA6811601B6858
:101F30005BB2FB7403E0FB6893F91530FB74FB683C
:101F4000DB68002B02DAFB680122DA60FB68DB68E1
:101F5000012BB8BF0123BB611FE0002304930123C1
:101F6000039307F1130302930023019300230093CB
:101F700000230022B96A3868FEF7BCFE78617B69ED
:101F8000B3F1FF3F02D14FF0FF330AE0FA697B69FA
:101F90001344FB61BB69013BBB61BB69002BDCD116
:101FA000FB6918462037BD4680BD000080B58EB065
:101FB00006AFF860B9603B601346FB710023FB611C
:101FC00000237B6100233B61BB681B68191DBA6855
:101FD00011601B68BB61BB69002B01D1174BBB6152
:101FE000B8690BF047FAF861FB68DB68002B07DB88
:101FF000FB68DB681A46FB69934228BF1346FB6106
:1020000007F1100307F11402F969F868FEF7E6FE1C
:102010007A693B690493FB690393BB6902930023CC
:102020000193002300930023B96A3868FEF762FE2B
:10203000034618462037BD4680BD00BFF0E40100CE
:102040002DE9F043CBB006AF07F58876A6F582768A
:10205000306007F58870A0F584700160114607F5BF
:102060008872A2F58872136007F58873A3F20913CA
:102070000A461A700023C7F80C310023BB61002305
:102080007B610023C7F804310023C7F80031002327
:10209000C7F8FC300023C7F8F4300023C7F8F0304D
:1020A00007F58873A3F582731B685B6803F08003F0
:1020B000002B00F0EE8007F58873A3F582731B6890
:1020C00093F914306C2B10D107F58873A3F5847342
:1020D0001B681B68191D07F58872A2F584721268C7
:1020E00011601B68C7F8EC3063E007F58873A3F54F
:1020F00082731B6893F914306A2B16D107F5887325
:10210000A3F584731B681B68073323F0070303F1EF
:10211000080107F58872A2F5847212681160D3E98C
:1021200000231346C7F8EC3043E007F58873A3F5A6
:1021300082731B6893F914307A2B10D107F58873DA
:10214000A3F584731B681B68191D07F58872A2F537
:102150008472126811601B68C7F8EC3029E007F53B
:102160008873A3F582731B6893F91430742B10D114
:1021700007F58873A3F584731B681B68191D07F5A1
:102180008872A2F58472126811601B68C7F8EC307F
:102190000FE007F58873A3F584731B681B68191D8E
:1021A00007F58872A2F58472126811601B68C7F87F
:1021B000EC3007F58873A3F582731B6893F914302C
:1021C000682B04D1D7F8EC301BB2C7F8EC3007F518
:1021D0008873A3F582731B6893F91430692B04D1BB
:1021E000D7F8EC305BB2C7F8EC30D7F8EC30002B06
:1021F000B8BF5B42C7F8F83007F58873A3F5807362
:1022000000221A70D7F8EC30002B06DA07F5887335
:10221000A3F580732D221A7020E007F58873A3F5CB
:1022200082731B685B6803F00203002B06D007F57E
:102230008873A3F580732B221A700FE007F588735B
:10224000A3F582731B685B6803F00103002B05D0C4
:1022500007F58873A3F5807320221A7007F5887339
:10226000A3F5807393F90030002B00F0B2800123B6
:10227000C7F8F43007F58873A3F582731B685B68B1
:1022800043F0080207F58873A3F582731B685A6050
:102290009FE007F58873A3F582731B6893F91430E8
:1022A0006C2B10D107F58873A3F584731B681B682A
:1022B000191D07F58872A2F58472126811601B68F7
:1022C000C7F8F83063E007F58873A3F582731B68DD
:1022D00093F914306A2B16D107F58873A3F584732C
:1022E0001B681B68073323F0070303F1080107F598
:1022F0008872A2F5847212681160D3E90023134634
:10230000C7F8F83043E007F58873A3F582731B68BC
:1023100093F914307A2B10D107F58873A3F58473E1
:102320001B681B68191D07F58872A2F58472126874
:1023300011601B68C7F8F83029E007F58873A3F52A
:1023400082731B6893F91430742B10D107F58873CE
:10235000A3F584731B681B68191D07F58872A2F525
:102360008472126811601B68C7F8F8300FE007F537
:102370008873A3F584731B681B68191D07F58872A1
:10238000A2F58472126811601B68C7F8F83007F56F
:102390008873A3F582731B6893F91430682B04D1FA
:1023A000D7F8F8309BB2C7F8F83007F58873A3F573
:1023B00082731B6893F91430692B04D1D7F8F83075
:1023C000DBB2C7F8F83007F58873A3F580733022C5
:1023D0001A7007F58873A3F2091393F900306F2B75
:1023E00006D1D7F8F830002B02D00123C7F8F4301B
:1023F00007F58873A3F2091393F90030782B0FD0F7
:1024000007F58873A3F2091393F90030582B07D00E
:1024100007F58873A3F2091393F90030622B32D1C8
:1024200007F58873A3F582731B685B6803F02003CC
:10243000002B03D1D7F8F830002B0CD007F58873A8
:10244000A3F5807307F58872A2F2091212785A7008
:102450000223C7F8F43007F58873A3F582731B686D
:102460005B6803F02003002B0DD007F58873A3F5FC
:10247000807393F9013043F020035AB207F5887353
:10248000A3F580735A7007F58873A3F582731B68F0
:102490005B6803F00803002B0ED0D7F80C21D7F8A7
:1024A000F4301344C7F80C3107F11003C7F8FC30BF
:1024B000D7F8F430C7F80031D7F834310A2B50D1AF
:1024C0000023C7F8083147E0D7F8F83000229846D3
:1024D0009146AF4B03FB09F2002303FB08F31344BF
:1024E000AB4AA8FB02452B441D46C7E92C45C7E96A
:1024F0002C45D7E92C014FF000024FF00003CA0829
:1025000000231346C7F8AC30D7F8AC309B00D7F89F
:10251000AC201344C7F8A830D7F8A8305B00D7F830
:10252000F820D31AC7F8A430D7F808310133C7F818
:102530000831D7F8A430DBB23033DAB2D7F808313B
:10254000C3F1820352B203F588733B4403F8F42CC1
:10255000D7F8AC30C7F8F830D7F8F830002BB3D143
:10256000ACE0D7F83431022B07D0D7F83431082B40
:1025700003D0D7F83431102B5BD1D7F83431013B7D
:10258000C7F8C030D7F83431102B07D0D7F8343122
:10259000082B01D1032302E0012300E00423C7F844
:1025A000BC300023C7F808313EE0D7F8F820D7F850
:1025B000C0301340774AD35C87F8EB3007F5887357
:1025C000A3F2091393F90030782B0FD007F5887325
:1025D000A3F2091393F90030692B07D007F588732C
:1025E000A3F2091393F90030752B05D197F8EB305E
:1025F00043F0200387F8EB30D7F808310133C7F8F0
:102600000831D7F80831C3F1820303F588733B44DE
:1026100097F8EB2003F8F42CD7F8F820D7F8BC3063
:1026200022FA03F3C7F8F830D7F8F830002BBCD102
:1026300044E00023C7F808313CE0D7F8F830D7F879
:102640003421B3FBF2F2D7F8341101FB02F29B1AEA
:10265000504AD35C87F8EA3007F58873A3F2091370
:1026600093F90030692B07D007F58873A3F209139B
:1026700093F90030752B05D197F8EA3043F0200329
:1026800087F8EA30D7F808310133C7F80831D7F8AE
:102690000831C3F1820303F588733B4497F8EA20BD
:1026A00003F8F42CD7F8F820D7F83431B2FBF3F361
:1026B000C7F8F830D7F8F830002BBED107F588738B
:1026C000A3F582731B68DB69002B00F01C8107F502
:1026D0008873A3F582731B689B69C7F8E43007F51C
:1026E0008873A3F582731B68DB69C7F8E0300023A9
:1026F000C7F8D830D7F80831C7F8D030D7F8083144
:10270000C3F18203C7F8CC30D7F8E030013BD7F8EB
:10271000E4201344C7F8E430E6E0D7F8E030002BBB
:1027200000F08580D7F8E4301B7887F8DF3097F920
:10273000DF302D2B00F0DE8097F9DF302A2B1FD100
:1027400007F58873A3F584731B681B68191D07F5CB
:102750008872A2F58472126811601B68C7F8D830BD
:10276000D7F8D830002BC0F2C780D7F8E430013B4F
:10277000C7F8E430D7F8E030013BC7F8E03043E079
:102780000023C7F8D8300123C7F8D43023E000BFB6
:10279000CDCCCCCC00E5010097F9DF30303B1A46B8
:1027A000D7F8D43003FB02F2D7F8D8301344C7F877
:1027B000D830D7F8D42013469B0013445B00C7F8E9
:1027C000D430D7F8E430013BC7F8E430D7F8E03034
:1027D000013BC7F8E030D7F8E030002B14D0D7F831
:1027E000E4301B7887F8DF3097F9DF30002B0BD00F
:1027F00097F9DF300133874A134493F90030DBB295
:1028000003F00403002BC7D1D7F8E030002B75D0BC
:10281000D7F8E4301B7887F8DF30D7F8E430013B95
:10282000C7F8E430D7F8E030013BC7F8E030D7F81C
:10283000D830002B54D0D7F8D830D7F8D0209A42CF
:102840005ED9D7F8CC30C7F8C830D7F8D830D7F829
:10285000D020D31AC7F8C43018E0D7F8C830013BED
:1028600007F11C01D7F8C8200A4492F9002003F5AB
:1028700088733B4403F8F42CD7F8C430013BC7F805
:10288000C430D7F8C8300133C7F8C830D7F8C430DF
:10289000002BE2D1D7F8CC30013BC7F8CC30D7F8C9
:1028A000CC20D7F8D0301A44D7F8D830D31A03F553
:1028B00088733B4497F8DF2003F8F42CD7F80831ED
:1028C0000133C7F80831D7F8F0300133C7F8F030DA
:1028D000D7F8D830D7F8D020D31AC7F8D03003E0D3
:1028E000D7F8E030002B0DD0D7F8D030002B7FF494
:1028F00014AF08E000BF06E000BF04E000BF02E044
:1029000000BF00E000BFD7F80831C7F8A03007F5D6
:102910008873A3F582731B68DB68002B07DA07F561
:102920008873A3F582731B680122DA600DE007F556
:102930008873A3F582731B685B6823F0100207F5A8
:102940008873A3F582731B685A6007F58873A3F533
:1029500082731B68DB681A46D7F8F0301344D7F847
:102960000821934238BF1346C7F80831D7F80C2125
:10297000D7F808311344C7F80C3107F1140307F1F5
:10298000180207F58871A1F58270D7F80C1100685C
:10299000FEF724FAD7F80821D7F8A030D31AC7F8E1
:1029A000043107F58873A3F582731B685B6803F035
:1029B0001003002B07D0BB69D7F804211344C7F8D4
:1029C00004310023BB61B969D7F8A030C3F1820399
:1029D00007F11C0213447A6907F58870A0F5887026
:1029E0000492D7F8A02003920293D7F80431019300
:1029F000D7F800310093D7F8FC300A46D7F83011E9
:102A00000068FEF777F90346184607F58A77BD4652
:102A1000BDE8F083441E020080B58CB006AFF860BC
:102A2000B9603B601346FB7100237B6197F9073067
:102A30006E2B05D1B968F868FFF708FA0346DDE0A8
:102A400097F90730252B11D1002304930123039319
:102A5000FB1D029300230193002300930023002217
:102A6000396A3868FEF746F90346C7E097F9073038
:102A7000632B03D097F90730432B0AD197F907202E
:102A80003B6A00933B68B968F868FFF73DFA034674
:102A9000B4E097F90730732B0AD197F907203B6A06
:102AA00000933B68B968F868FFF780FA0346A5E031
:102AB00097F90730652B13D097F90730452B0FD0C6
:102AC00097F90730662B0BD097F90730462B07D0C4
:102AD00097F90730672B03D097F90730472B0AD1B6
:102AE00097F907203B6A00933B68B968F868FFF7DD
:102AF0002DF8034682E097F907306B2B0AD197F93E
:102B000007203B6A00933B68B968F868FFF780F8D4
:102B1000034673E097F90730702B0DD15823FB71F2
:102B2000FB6800221A75FB6828225A60FB6808229D
:102B30009A60FB680822DA6097F90730642B07D0A7
:102B400097F90730692B03D097F90730492B1CD12F
:102B5000FB685B6843F08002FB685A600A237B6174
:102B6000FB685B6823F00802FB685A6097F907303E
:102B7000692B03D097F90730492B06D1FB681B69F5
:102B8000002B02D0FB681B697B6197F90730782B1B
:102B900003D097F90730582B01D110237B6197F9A7
:102BA0000730752B03D097F90730552B08D1FB68F8
:102BB0001B69002B02D0FB681B6900E00A237B61C4
:102BC00097F907306F2B01D108237B6197F9073004
:102BD000622B01D102237B617B69012B0CD997F910
:102BE00007207B6901933B6A00933B68B968F868EA
:102BF000FFF726FA034601E04FF0FF331846183777
:102C0000BD4680BD80B59CB002AFF860B9607A6007
:102C10003B607B683B663B683B617B68002B00F058
:102C20008C8200237B617DE23B6EFB6502E0FB6DE5
:102C30000133FB65FB6D93F90030002B04D0FB6D75
:102C400093F90030252BF2D1FA6D3B6ED31AFB6459
:102C5000FB6C002B0ED007F10803FA68F96C386E94
:102C6000FEF706F80346002BC0F269827A69FB6C16
:102C700013447B61FB6D3B663B6E93F90030002B88
:102C800000F050823B6E01333B660023BB610BE0DA
:102C9000BA69BB6CA6495B1AA64951F823301343A5
:102CA000BB613B6E01333B663B6E1B7887F8673038
:102CB00097F96730002B09D097F9673019469C487F
:102CC0000AF0BCF8B864BB6C002BE1D13B6E93F901
:102CD00000302A2B12D13B691A1D3A611B68FB6137
:102CE000FB69002B06DAFB695B42FB61BB6943F0C1
:102CF0000403BB613B6E01333B6628E00023FB61AC
:102D00000DE0FA6913469B0013445B001A4697F9DD
:102D100067301344303BFB613B6E01333B663B6ED7
:102D20001B7887F8673097F96730002B0FD097F939
:102D300067300133804A134493F90030DBB203F06B
:102D40000403002B03D0FB69B3F5FA7FD9DBFB69E1
:102D5000B3F5FA7F00F3F5813B6E93F900302E2B2B
:102D600003D04FF0FF333B6243E03B6E01333B66E1
:102D70003B6E93F900302A2B0DD13B691A1D3A6145
:102D80001B683B623B6AB3F5FA7F00F3DC813B6E64
:102D900001333B662DE000233B620DE03A6A1346A7
:102DA0009B0013445B001A4697F967301344303B8D
:102DB0003B623B6E01333B663B6E1B7887F86730A6
:102DC00097F96730002B0FD097F9673001335A4AD3
:102DD000134493F90030DBB203F00403002B03D05B
:102DE0003B6AB3F5FA7FD9DB3B6AB3F5FA7F00F3B0
:102DF000AC813B6E93F900303A2B02D000237B620A
:102E000048E03B6E01333B663B6E93F900302A2B62
:102E100014D13B691A1D3A611B687B647B6C002BE3
:102E200002DA00237B6205E07B6C242B00F38F81A8
:102E30007B6C7B623B6E01333B662BE000237B6245
:102E40000DE07A6A13469B0013445B001A4697F91B
:102E500067301344303B7B623B6E01333B663B6E15
:102E60001B7887F8673097F96730002B0ED097F9F9
:102E700067300133304A134493F90030DBB203F07A
:102E80000403002B02D07B6A232BDADD7B6A242B20
:102E900000F35F8110237B631023BB6300233B633C
:102EA0000023FB623B6E1B7887F8673097F9673029
:102EB0005B2B24D10023BB653B6E01333B663B6E2D
:102EC000FB6205E03B6E01333B66BB6D0133BB65C6
:102ED0003B6E1B7887F8673097F96730002B03D07B
:102EE00097F967305D2BEDD197F96730002B00F033
:102EF00032813B6E01333B66BB6D3B639CE097F9CF
:102F000067307B2B40F098803B6E01333B663B6E15
:102F100093F900302A2B08D13B691A1D3A611B68CE
:102F20007B653B6E01333B662DE000237B6513E040
:102F300028E5010030E50100441E02007A6D1346C9
:102F40009B0013445B001A4697F967301344303BEB
:102F50007B653B6E01333B663B6E1B7887F86730C1
:102F600097F96730002B0ED097F967300133844A08
:102F7000134493F90030DBB203F00403002B02D0BA
:102F80007B6D1F2BDAD97B6D202B00F2E6803B6E28
:102F900093F900302E2B40F0E2803B6E01333B660C
:102FA0003B6E93F900302A2B08D13B691A1D3A6118
:102FB0001B683B653B6E01333B6627E000233B65A6
:102FC0000DE03A6D13469B0013445B001A4697F9D7
:102FD00067301344303B3B653B6E01333B663B6ED1
:102FE0001B7887F8673097F96730002B0ED097F978
:102FF00067300133624A134493F90030DBB203F0C7
:103000000403002B02D03B6D1F2BDAD997F96730F0
:10301000002B00F0A6803B6E01333B663B6D202BFE
:1030200000F2A1807A6D3B6D13441F2B00F29D804E
:103030007B6D7B633B6DBB633B6E1B7887F86730B2
:1030400097F96730002B0ED097F9673019464D4835
:1030500009F0F4FE0346002B05D03B6E01333B66BE
:1030600097F9673000E0002387F8283097F9283077
:10307000002B17D03B6E1B7887F8673097F96730C5
:10308000002B0FD097F9283097F967209A4209D181
:1030900097F9283043F001035BB287F828303B6E84
:1030A00001333B663B6E1B7887F8673097F96730D2
:1030B000002B05D13B691A1D3A611B683B6631E064
:1030C00097F8673087F8433097F94330432B0FD197
:1030D0003B6E01333B663B6E1B7887F8673097F990
:1030E0006730002B43D097F8673087F8293002E02B
:1030F000002387F8293097F9432007F1100107F1E1
:10310000140007F108030093FB68FFF785FCF863E0
:10311000FB6B002B2DDB7A69FB6B13447B613B6EF1
:1031200001333B663B6E1B7887F8673097F9673051
:10313000002B7FF479AD7B691EE000BF1AE000BF71
:1031400018E000BF16E000BF14E000BF12E000BFAF
:1031500010E000BF0EE000BF0CE000BF0AE000BFBF
:1031600008E000BF06E000BF04E000BF02E000BFCF
:1031700000E000BF4FF0FF3318466837BD4680BD02
:10318000441E0200F8E4010080B584B000AFF8608E
:10319000B9607A603B60FB68BA681A60FB687A685D
:1031A0005A60FB6800221A72FB683A68DA60FB68B2
:1031B0001B6818460AF05EF90346DAB2FB681A7219
:1031C000FB6818461037BD4680BD000080B582B050
:1031D00000AF786039607B681B68184618F040FFC4
:1031E0003B68D3E9002318F0A5FF02460B461046C2
:1031F00019464FF00002054B19F0C6F802460B467F
:10320000104619460837BD4680BD00BF00005E412C
:1032100098B500AF584C594B594A5A492046FFF7C8
:10322000B3FF1034584B594A59492046FFF7ACFFB9
:103230001034584B584A59492046FFF7A5FF10341F
:10324000514B574A57492046FFF79EFF1034514BC8
:10325000554A56492046FFF797FF1034544B554ABC
:1032600055492046FFF790FF1034514B534A5449BB
:103270002046FFF789FF1034524B534A53492046EA
:10328000FFF782FF10344F4B514A52492046FFF757
:103290007BFF1034504B514A51492046FFF774FFD1
:1032A00010344D4B4F4A50492046FFF76DFF103404
:1032B0004E4B4F4A4F492046FFF766FF10344E4BA6
:1032C0004E4A4F492046FFF75FFF10344D4B4E4AA0
:1032D0004E492046FFF758FF10344D4B4D4A4E499A
:1032E0002046FFF751FF10344C4B4D4A4D492046C4
:1032F000FFF74AFF10344C4B4C4A4D492046FFF72C
:1033000043FF10344B4B4C4A4C492046FFF73CFFDF
:103310001034484B4A4A4B492046FFF735FF1034DA
:10332000494B4A4A4A492046FFF72EFF1034494B81
:10333000494A4A492046FFF727FF1034484B494A7B
:1033400049492046FFF720FF1034484B484A494975
:103350002046FFF719FF1034444B474A474920469F
:10336000FFF712FF04F11000454B464A4649FFF7AC
:103370000BFF00BF98BD00BF94080020A9370000D4
:10338000B8E50100F0E5010019380000F8E501009A
:103390000CE60100E138000018E6010034E6010007
:1033A00040E6010058E601005CE601007CE6010011
:1033B0007139000080E60100CCE60100D4E601008E
:1033C00024E70100213C000028E7010074E7010028
:1033D0007CE70100CCE70100D13F0000D0E701000D
:1033E00004E801000CE8010044E80100DD9F000052
:1033F0004417020034170200E5A2000088170200FB
:103400007817020029A70000C8170200B4170200AD
:103410009941000048E801007CE8010041420000B9
:1034200084E80100E0E8010011460000E8E801003E
:1034300034E90100514A00003CE9010058E901006B
:1034400060E901007CE90100514B000080E90100C6
:10345000D0E90100C14D0000E0E9010020EA0100CF
:10346000F14D000030EA010078EA0100954F0000BC
:1034700088EA0100C0EA0100D0EA01000CEB01007B
:103480004554000010EB010040EB010080B500AF97
:10349000FFF7BEFE80BD80B483B000AF78607B686C
:1034A00000221A7000225A7000229A700022DA70EC
:1034B00000221A7100225A7100229A710022DA71D8
:1034C0007B6818460C37BD4680BC704780B483B01B
:1034D00000AF78600B46FB707B68FA781A7100BF0A
:1034E0000C37BD4680BC704780B483B000AF7860B5
:1034F0007B681B7918460C37BD4680BC70470000BE
:1035000080B582B000AF78607B681B6819467B6825
:103510005A687B689B68034809F0E6F900BF0837E2
:10352000BD4680BD58EB010080B483B000AF786029
:103530007B6800221A7000225A7000229A700022C2
:10354000DA707B6818460C37BD4680BC70470000B7
:103550002DE9F041B6B01EAFF865FB6DD3F800C0A1
:10356000FB6D1B78C3F30003DBB29E46FB6D1B783B
:10357000C3F34003DBB29846FB6D1B78C3F38003B3
:10358000DBB2BB65FB6D1B78C3F3C003DBB27B65AD
:10359000FB6D1B78C3F30013DBB23B65FB6D1B783F
:1035A000C3F34013DBB2FB64FB6D1B78C3F38013E2
:1035B000DBB2BB64FB6D1B78C3F3C013DBB27B646F
:1035C000FB6D5B78C3F30003DBB23B64FB6D5B78A0
:1035D000C3F34003DBB2FB63FB6D5B78C3F3800393
:1035E000DBB2BB63FB6D5B78C3F3C003DBB27B6311
:1035F000FB6D5B78C3F30013DBB23B63FB6D5B7861
:10360000C3F34013DBB2FB62FB6D5B78C3F3801343
:10361000DBB2BB62FB6D5B78C3F3C013DBB27B62D2
:10362000FB6D9B78C3F30003DBB23B62FB6D9B78C1
:10363000C3F34003DBB2FB61FB6D9B78C3F38003F4
:10364000DBB2BB61FB6D9B78C3F3C003DBB27B6174
:10365000FB6D9B78C3F30013DBB23B61FB6D9B7882
:10366000C3F34013DBB2FB60FB6D9B78C3F38013A5
:10367000DBB2BB60FB6D9B78C3F3C013DBB27B6036
:10368000FB6DDB78C3F30003DBB23B60FB6DDB78E3
:10369000C3F34003DBB21E46FB6DDB78C3F380034C
:1036A000DBB21D46FB6DDB78C3F3C003DBB21C4607
:1036B000FB6DDB78C3F30013DBB21846FB6DDB78E0
:1036C000C3F34013DBB21946FB6DDB78C3F3801301
:1036D000DBB21A46FB6DDB78C3F3C013DBB21D937C
:1036E0001C921B911A901994189517963A68169285
:1036F0007A681592BA681492FA6813923A6912922B
:103700007A691192BA691092FA690F923A6A0E9226
:103710007A6A0D92BA6A0C92FA6A0B923A6B0A9222
:103720007A6B0992BA6B0892FA6B07923A6C06921E
:103730007A6C0592BA6C0492FA6C03923A6D02921A
:103740007A6D0192BB6D0093434672466146044810
:1037500008F0D6F900BF6037BD46BDE8F08100BF74
:10376000BCEB010080B582B000AF786039607B6847
:103770001B68184618F074FC3B68D3E9002318F066
:10378000D9FC02460B46104619464FF00002054B85
:1037900018F0FAFD02460B46104619460837BD469A
:1037A00080BD00BF00005E4180B586B002AFF8600A
:1037B000B9607A603B60134B1B68002B14BF012378
:1037C0000023DBB2002B0ED00E4B1B6819680D4B8B
:1037D0001B685B6801930C4B00939B230B4A0C48BE
:1037E00008F08EF905E0084B9B220849094808F0CB
:1037F00087F9B86809F03EFE03465BB218461037F9
:10380000BD4680BD4C00002038FA01000CEE0100DE
:1038100038EE01009CEE010080B586B000AFF86084
:10382000B9607A603B6000233B6107F110031A46E0
:103830002449B86809F04EF90346FB7597F917302B
:10384000002B20DC204808F05BF900233B6113E0EB
:103850001E4B1A683B6913441B78BB753B69BA7DE4
:1038600019461B4808F04CF9BB7D1946194808F069
:1038700047F93B6901333B613B69802BE8D9164826
:1038800008F03EF918E0114B1A683B6913441B78A5
:10389000BB750D4808F034F93B69BA7D19460C48F0
:1038A00008F02EF9BB7D19460A4808F029F9BB7DBE
:1038B00019460A4808F024F97B685BB218461837A5
:1038C000BD4680BDD8EE0100DCEE01004C000020BA
:1038D000F0EE010004EF01000CEF010010EF010019
:1038E00080B588B000AFF860B9607A603B600023B3
:1038F000BB6100237B6107F1140307F1180216492D
:10390000B86809F0E7F80346FB7797F91F30012BF9
:1039100009DC97F91F301A46B968104808F0F0F82A
:103920004FF0FF3313E07B69D9B20D4B1A68BB69C6
:1039300013440A461A707B6919460A4808F0E0F8F1
:10394000BB691946084808F0DBF87B685BB218468B
:103950002037BD4680BD00BF1CEF010024EF0100F1
:103960004C00002080EF0100A4EF010000000000E7
:103970002DE9F043ADB010AF78623962FA61BB61F6
:103980000023FB640023BB6400237B6400233B64AF
:103990009B4B1B68002B0CBF01230023DBB2002BC9
:1039A00005D0984808F0ACF8FB695BB21FE107F15D
:1039B000480107F14C0207F14003019307F144036A
:1039C00000930B469049386A09F084F8034687F85B
:1039D0006F3097F96F30032B1BDDFA6C884B1B6837
:1039E000DA62BA6C864B1B681A637A6C844B1B686C
:1039F0005A633A6C824B1B689A63F96CBA6C786CA8
:103A00003B6C00930346814808F07AF8FB695BB28F
:103A1000EDE097F96F30002B1BDDFA6C784B1B68DB
:103A2000DA62FA6C764B1B681A63FA6C744B1B688B
:103A30005A63FA6C724B1B689A63F96CFA6CF86CF7
:103A4000FB6C00930346714808F05AF8FB695BB2BF
:103A5000CDE06B4B1B68DB6AFB64694B1B681B6B1F
:103A6000BB64674B1B685B6B7B64654B1B689B6B24
:103A70003B64F96CBA6C786C3B6C00930346644809
:103A800008F03EF807F138031846FFF704FD07F188
:103A900030031846FFF7FFFC07F128031846FFF72D
:103AA000FAFC574B1A6807F138033C32106851682A
:103AB00003C3534B1A6807F130034432106851684E
:103AC00003C34F4B1A6807F128034C321068516842
:103AD00003C3BB6B43F317031A46FB8F92FBF3F34D
:103AE000184618F0BDFA44A3D3E9002318F022FBCE
:103AF00002460B46104619464FF00002454B18F09F
:103B000043FC02460B46C7E918233B6B43F31703FC
:103B10001A46FB8E92FBF3F3184618F0A1FA36A36F
:103B2000D3E9002318F006FB02460B46104619465F
:103B30004FF00002374B18F027FC02460B46C7E94E
:103B40001623BB6A43F317031A46FB8D92FBF3F36C
:103B5000184618F085FA28A3D3E9002318F0EAFAEA
:103B600002460B46104619464FF00002294B18F04A
:103B70000BFC02460B46C7E91423D7E90E89D7E9A7
:103B80000C01D7E90A45BB6B43F317031E46FB8FB5
:103B90007B613B6B43F317033B61FB8EFB60BB6AAE
:103BA00043F31703BB60FB8D7B60D7E91423CDE99A
:103BB0000E23D7E91623CDE90C23D7E91823CDE945
:103BC0000A237A680992BA680892FA6807923A69F1
:103BD00006927B6905930496CDE90245CDE9000183
:103BE00042464B460C4807F08BFFFB695BB2184618
:103BF0007437BD46BDE8F083FCA9F1D24D62104098
:103C00004C000020B0EF0100FCEF01000CF00100BF
:103C100034F001000000604164F001000000000089
:103C20002DE9F043A1B00EAFF860B9607A603B6057
:103C30004FF000024FF00003C7E90A234FF00002E3
:103C40004FF00003C7E908234FF000024FF00003D4
:103C5000C7E906234FF000024FF00003C7E9042331
:103C600000237B6400233B640023FB630023BB63CE
:103C7000874B1B68002B0CBF01230023DBB2002BFA
:103C800005D0844807F03CFF7B685BB28DE107F10B
:103C9000200107F1280207F11003019307F118032F
:103CA00000930B467C49B86808F014FF034687F878
:103CB0003730D7E90A014FF06042784B18F03AFAF2
:103CC00002460B46104619464FF00002744B18F09E
:103CD00031FA02460B46104619466BA3D3E900237E
:103CE00018F052FB02460B461046194618F0FAFC33
:103CF00003467B64D7E908014FF06042674B18F038
:103D000019FA02460B46104619464FF00002644B62
:103D100018F010FA02460B46104619465AA3D3E98A
:103D2000002318F031FB02460B461046194618F0E6
:103D3000D9FC03463B64D7E906014FF06042574B7C
:103D400018F0F8F902460B46104619464FF00002EB
:103D5000534B18F0EFF902460B46104619464AA39A
:103D6000D3E9002318F010FB02460B461046194613
:103D700018F0B8FC0346FB63D7E904014FF060423A
:103D8000464B18F0D7F902460B46104619464FF03D
:103D90000002434B18F0CEF902460B461046194676
:103DA00039A3D3E9002318F0EFFA02460B46104678
:103DB000194618F097FC0346BB6397F93730032B7D
:103DC0002DDD7A6C324B1B68DA623A6C304B1B6823
:103DD0001A63FA6B2E4B1B685A63BA6B2C4B1B6829
:103DE0009A63D7E90A89D7E90823D7E90601D7E911
:103DF0000445BE6B0C96CDE90A45FC6B0894CDE9F1
:103E00000601396C0491CDE902237B6C0093424694
:103E10004B46244807F074FE7B685BB2C5E097F917
:103E20003730002B40DD7A6C194B1B68DA627A6CF4
:103E3000174B1B681A637A6C154B1B685A637A6CB4
:103E4000134B1B689A63D7E90A89D7E90823D7E996
:103E50000601D7E90445BE6B0C96CDE90A45FC6B1B
:103E60000894CDE90601396C0491CDE902237B6CFD
:103E7000009342464B460B4807F042FE7B685BB21C
:103E800093E000BFAFF30080FCA9F1D24D62104077
:103E90004C000020D4F0010020F10100FFFF6F4131
:103EA00000004E4030F10100454B1B68DB6A7B642B
:103EB000434B1B681B6B3B64414B1B685B6BFB6399
:103EC0003F4B1B689B6BBB63786C18F0B9F83AA347
:103ED000D3E9002318F02EF902460B461046194686
:103EE0004FF06242374B18F04FFA02460B46C7E9D3
:103EF0000A23386C18F0A4F82FA3D3E9002318F094
:103F000019F902460B46104619464FF062422D4BF6
:103F100018F03AFA02460B46C7E90823F86B18F086
:103F20008FF825A3D3E9002318F004F902460B46C5
:103F3000104619464FF06242224B18F025FA02460D
:103F40000B46C7E90623B86B18F07AF81AA3D3E931
:103F5000002318F0EFF802460B46104619464FF0C2
:103F60006242184B18F010FA02460B46C7E90423C8
:103F7000D7E90A89D7E90823D7E90601D7E9044533
:103F8000BE6B0C96CDE90A45FC6B0894CDE90601A1
:103F9000396C0491CDE902237B6C009342464B4679
:103FA000094807F0ADFD7B685BB218464C37BD464B
:103FB000BDE8F083AFF30080FCA9F1D24D62104060
:103FC0004C000020FFFFCD417CF10100000000000B
:103FD000B0B59EB00AAFF860B9607A603B606A4BDA
:103FE0001B68002B0CBF01230023DBB2002B05D084
:103FF000664807F085FD7B685BB2BCE007F12803EB
:104000001846FFF748FA07F120031846FFF743FA6E
:1040100007F118031846FFF73EFA07F11003184698
:10402000FFF739FA584B1A6807F128033C32106839
:10403000516803C3544B1A6807F1200344321068D7
:10404000516803C3504B1A6807F118034C321068CB
:10405000516803C34C4B1A6807F1100354321068BF
:10406000516803C3BB6A43F31703184617F0F8FF00
:1040700043A3D3E9002318F05DF802460B4610462F
:1040800019464FF00002424B18F07EF902460B46EB
:10409000C7E912233B6A43F31703184617F0E0FF02
:1040A00037A3D3E9002318F045F802460B46104623
:1040B00019464FF00002364B18F066F902460B46DF
:1040C000C7E91023BB6943F31703184617F0C8FF6D
:1040D0002BA3D3E9002318F02DF802460B46104617
:1040E00019464FF000022A4B18F04EF902460B46D3
:1040F000C7E90E233B6943F31703184617F0B0FFD7
:104100001FA3D3E9002318F015F802460B4610460A
:1041100019464FF000021E4B18F036F902460B46C6
:10412000C7E90C23BB6A43F3170318463B6A43F302
:1041300017031C46BB6943F317031D463B6943F352
:1041400017031946D7E90C23CDE90823D7E90E2335
:10415000CDE90623D7E91023CDE90423D7E91223BB
:10416000CDE9022300912B4622460146094807F07B
:10417000C7FC7B685BB218465037BD46B0BD00BF78
:10418000FCA9F1D24D6210404C000020D0F101009A
:10419000000060411CF2010080B58AB000AFF860F9
:1041A000B9607A603B6000237B6200233B627B6ADC
:1041B00001337B627B6ADBB2402B21D90023FB6198
:1041C0000123BB61194B1B686C3300221A707B6A98
:1041D000DAB2164B1B689A66144B1B689B6E7B61A8
:1041E000124B1B686C3301221A707B6ADBB27A694E
:1041F00092B219460E4807F083FCC820FCF71CFC5D
:104200007B6AB3F57A7FD2D90A4B1B685B68184684
:1042100008F090F9396A084807F072FC00BF7B6823
:104220005BB218462837BD4680BD00BF4C00002059
:1042300074F20100940000208CF2010000000000E4
:1042400080B5A2B002AFF860B9607A603B6000232D
:10425000FB670023BB6700237B6700233B670023CA
:10426000FB660023BB664FF00002BB4BC7E9062389
:104270004FF00002B84BC7E9042307F1100307F120
:104280001802B649B86808F025FCD7E906014FF0D6
:1042900000024FF0000318F0BFF90346002B05D0D1
:1042A0004FF000024FF00003C7E90623D7E90601EB
:1042B0004FF00002A84B18F0CDF90346002B04D0B4
:1042C0004FF00002A44BC7E90623D7E904019AA3E3
:1042D000D3E9002318F0A0F90346002B04D096A3DD
:1042E000D3E90023C7E90423D7E9040194A3D3E960
:1042F000002318F0AFF90346002B04D090A3D3E9B4
:104300000023C7E90423D7E90601D7E90423CDE94F
:10431000002302460B46924807F0F2FBFB6F013385
:10432000FB67BA6F8F4B1B68DA627A6F8D4B1B6825
:104330001A633A6F8B4B1B685A63FA6E894B1B6882
:104340009A63884B1B68DB6A7B66864B1B681B6B1A
:104350003B66844B1B685B6BFB65824B1B689B6BEE
:10436000BB65BB6D0093FB6D3A6E796E7E4807F0BE
:10437000C7FBF96F7D4BA3FB01235A0913461B01B1
:104380009B1A9B00CA1A104617F05AFE4FF0000203
:10439000774B17F0CFFE02460B46C7E914234FF0C8
:1043A0000002744BD7E9140117F0EEFF02460B46EA
:1043B0001046194664A3D3E9002317F0BBFE02465A
:1043C0000B46C7E912234FF000026B4BD7E91401EB
:1043D00017F0FAFC02460B46104619464FF0000251
:1043E000644B17F0D1FF02460B461046194656A300
:1043F000D3E9002317F09EFE02460B46C7E91023BF
:104400004FF000025D4BD7E9140117F0DDFC0246C6
:104410000B46104619464FF00002564B17F0B4FFFA
:1044200002460B461046194647A3D3E9002317F06E
:1044300081FE02460B46C7E90E23D7E9120118F0A8
:10444000FBFB4FF00002444B17F0BEFC02460B464C
:10445000104619464FF000024FF0804317F094FFCA
:1044600002460B4610461946D7E9062317F062FEAE
:1044700002460B46C7E90C23D7E9100118F0DCFB14
:104480004FF00002344B17F09FFC02460B461046DB
:1044900019464FF000024FF0804317F075FF0246B7
:1044A0000B4610461946D7E9062317F043FE02468D
:1044B0000B46C7E90A23D7E90E0118F0BDFB4FF000
:1044C0000002254B17F080FC02460B4610461946A9
:1044D0004FF000024FF0804317F056FF02460B46A4
:1044E00010461946D7E9062317F024FE02460B466C
:1044F000C7E9082316A3D3E90023D7E90C0117F075
:1045000019FE02460B461046194618F0EBF8034612
:10451000BB670FA3D3E90023D7E90A0117F00AFE0E
:1045200002460B461046194618F0DCF803467B6736
:1045300026E000BFAFF30080FCA9F1D24D62503FEE
:10454000000000000088C3401F85EB51B81E1940D1
:1045500000000000E0FFEF400000F03FACF201007F
:10456000B4F201004C000020DCF201008988888848
:10457000000018400080764000005E4000006E4061
:104580001FA3D3E90023D7E9080117F0D3FD0246A2
:104590000B461046194618F0A5F803463B6718A3CA
:1045A000D3E90023D7E9080117F0C4FD02460B4602
:1045B0001046194618F096F80346FB66FB6FB3F5F4
:1045C0007A7F04D9B96E104807F09AFA11E0D7E95A
:1045D00004014FF000020D4B17F0ACFD02460B46F4
:1045E0001046194618F07EF803461846FCF724FAE0
:1045F00094E67B685BB218468037BD4680BD00BF3D
:1046000000000000E0FFEF40F0F2010000408F40AA
:104610002DE9F04FBBB016AFF862B9627A623B6227
:104620000023C7F88C300023C7F888300023C7F870
:1046300084300023C7F88030074B1B68002B0CBF69
:1046400001230023DBB2002B0AD0044807F058FAFC
:104650007B6A5BB2F4E100BF4C00002014F3010060
:104660004FF000024FF00003C7E916234FF000029D
:104670004FF00003C7E9142307F1500307F1580274
:10468000C549B86A08F026FAD7E916014FF00002CA
:104690004FF0000317F0C0FF0346002B05D04FF08A
:1046A00000024FF00003C7E91623D7E916014FF0C7
:1046B0000002BA4B17F0CEFF0346002B04D04FF098
:1046C0000002B64BC7E91623D7E914014FF00002E8
:1046D0004FF0000317F0A0FF0346002B05D04FF06A
:1046E00000024FF00003C7E91423D7E914014FF08B
:1046F0000002AA4B17F0AEFF0346002B04D04FF088
:104700000002A64BC7E91423D7E916014FF0604217
:10471000A34B17F00FFD02460B461046194617F043
:10472000E1FF0346C7F88C30D7E914014FF060422F
:104730009B4B17F0FFFC02460B461046194617F03C
:10474000D1FF0346C7F88430D7F88C20954B1B68FF
:10475000DA62944B1B684FF0FF3283F830204FF041
:10476000FF3283F83120002262F0300283F83220D9
:10477000002283F83320D7F884208A4B1B685A63C1
:10478000884B1B684FF0FF3283F838204FF0FF3220
:1047900083F83920002262F0300283F83A200022A8
:1047A00083F83B20804B0093D7F884307E4AD7F8BB
:1047B0008C107E4807F0A4F97A4B1B68DB6AC7F8B7
:1047C0008C30784B1B681B6BC7F88830754B1B68A7
:1047D0005B6BC7F88430734B1B689B6BC7F88030EA
:1047E000D7E916014FF00002714B17F0A3FC024607
:1047F0000B4614461D46D7E914014FF000026C4BDE
:1048000017F098FC02460B46CDE90423CDE902459A
:10481000D7F880300093D7F88430D7F88820D7F8BD
:104820008C10644807F06CF907F148031846FEF74E
:1048300032FE07F140031846FEF72DFE07F138035C
:104840001846FEF728FE07F130031846FEF723FE50
:10485000544B1A6807F148033C321068516803C38F
:10486000504B1A6807F1400344321068516803C383
:104870004C4B1A6807F138034C321068516803C377
:10488000484B1A6807F1300354321068516803C36B
:10489000BB6C43F317031A46B7F84E3092FBF3F3A1
:1048A000184617F0DDFB3AA3D3E9002317F042FCCA
:1048B00002460B46104619464FF000023E4B17F0D9
:1048C00063FD02460B46C7E91E233B6C43F3170307
:1048D0001A46B7F8463092FBF3F3184617F0C0FBC0
:1048E0002BA3D3E9002317F025FC02460B46104604
:1048F00019464FF00002304B17F046FD02460B46BA
:10490000C7E91C23BB6B43F317031A46FB8F92FBCB
:10491000F3F3184617F0A4FB1DA3D3E9002317F007
:1049200009FC02460B46104619464FF00002224B86
:1049300017F02AFD02460B46C7E91A233B6B43F3E7
:1049400017031A46FB8E92FBF3F3184617F088FB09
:104950000FA3D3E9002317F0EDFB02460B461046E8
:1049600019464FF00002144B17F00EFD02460B469D
:10497000C7E91823D7E912ABD7E91001D7E90E45EB
:10498000D7E90C89BB6C43F31703FB6116E000BF4A
:10499000FCA9F1D24D621040ACF201000000F03FE2
:1049A000FFFF69414C000020FFFFCF005CF30100D6
:1049B0000000594084F3010000006041B7F84E3018
:1049C000BB613B6C43F317037B61B7F846303B6137
:1049D000BB6B43F31703FB60FB8FBB603B6B43F385
:1049E00017037B60FB8E1E46D7E91823CDE91423FD
:1049F000D7E91A23CDE91223D7E91C23CDE91023E7
:104A0000D7E91E23CDE90E230D967A680C92BA6879
:104A10000B92FA680A923A6909927A690892BA691D
:104A20000792FB690693CDE90489CDE90245CDE9FA
:104A3000000152465B46054807F062F87B6A5BB2AC
:104A400018469437BD46BDE8F08F00BFC0F30100A3
:104A500080B58EB000AFF860B9607A603B6007F156
:104A6000200310220021184608F098F92F4BBB6252
:104A70004FF000024FF00003C7E9082300237B63D7
:104A800090228C212A4807F03BF8BB6801330422AE
:104A90002849184608F03AFA0346002B1AD1264B4B
:104AA0001B68002242F0550283F88C20002283F814
:104AB0008D20002283F88E20002283F88F201F4B48
:104AC0001B685B68184607F035FD796B1C4807F0DA
:104AD00017F800BF00237B619B23BB610023FB61B0
:104AE000154B1B68002B14BF01230023DBB2002BE6
:104AF00007D0114B1B681B687B610F4B1B685B6801
:104B0000FB610C210F4806F0FBFF07F11403184668
:104B1000FEF7F6FC0C4806F0F3FF0C4806F0F0FF39
:104B20007B685BB218463837BD4680BD40420F00F7
:104B300050F4010068F401004C00002094000020B3
:104B4000F0F2010070F401009CF40100A0F40100F7
:104B500080B59AB002AFF860B9607A603B6000231C
:104B6000FB610023BB6100237B6100233B618A4B17
:104B70001B68002B0CBF01230023DBB2002B05D0E8
:104B8000864806F0BDFF7B685BB2FCE007F11801C8
:104B900007F11C0207F11003019307F114030093BE
:104BA0000B467F49B86807F095FF034687F85F30EA
:104BB00097F95F30032B21DDFB69DAB2764B1B6876
:104BC00083F87020BB69DAB2734B1B6883F87120DD
:104BD0007B69DAB2704B1B6883F872203B69DAB2EA
:104BE0006D4B1B6883F87320F969BA6978693B6972
:104BF000009303466B4806F083FF24E097F95F308B
:104C0000002B20DDFB69DAB2634B1B6883F8702050
:104C1000FB69DAB2604B1B6883F87120FB69DAB27A
:104C20005D4B1B6883F87220FB69DAB25A4B1B6834
:104C300083F87320F969FA69F869FB690093034600
:104C4000584806F05DFF544B1B6893F87030FB61C9
:104C5000514B1B6893F87130BB614F4B1B6893F845
:104C600072307B614C4B1B6893F873303B61F96980
:104C7000BA6978693B69009303464B4806F040FFE8
:104C800043A3D3E90023C7E91423FB690133FB6481
:104C9000BB690133BB647B6901337B643B690133CE
:104CA0003B64F86C17F0CCF902460B46D7E91401C7
:104CB00017F06AFB02460B46104619464FF00002F9
:104CC0003A4B17F061FB02460B46C7E90E23B86C5E
:104CD00017F0B6F902460B46D7E9140117F054FB5A
:104CE00002460B46104619464FF000022F4B17F0B4
:104CF0004BFB02460B46C7E90C23786C17F0A0F972
:104D000002460B46D7E9140117F03EFB02460B465C
:104D1000104619464FF00002244B17F035FB0246AF
:104D20000B46C7E90A23386C17F08AF902460B468E
:104D3000D7E9140117F028FB02460B461046194626
:104D40004FF00002194B17F01FFB02460B46C7E954
:104D50000823D7E90E23F96C154806F0D1FED7E9F0
:104D60000C23B96C134806F0CBFED7E90A23796C03
:104D7000114806F0C5FED7E90823396C0F4806F044
:104D8000BFFE7B685BB218466037BD4680BD00BF82
:104D900000000000965198414C000020BCF4010036
:104DA0000CF501001CF5010050F501000000304039
:104DB00088F50100D4F5010020F6010070F601002D
:104DC00080B584B000AFF860B9607A603B60064897
:104DD00006F096FE054806F093FE7B685BB2184627
:104DE0001037BD4680BD00BFC0F601000CEF0100CA
:104DF00080B58CB002AFF860B9607A603B60002388
:104E00003B62002387F8273007F1180107F12002E1
:104E100007F1170300930B465249B86807F05AFE92
:104E2000034687F8263097F92630032B57DD97F98C
:104E30001730592B0FD097F91730792B0BD097F9E2
:104E40001730542B07D097F91730742B03D097F9EC
:104E50001730312B02D1012387F82730396A97F8B0
:104E60002730002B01D0592300E04E231A463E483C
:104E700006F046FE3B6A032B26D801A252F823F027
:104E8000914E00009F4E0000AD4E0000BB4E000052
:104E900097F8273019463548FEF718FB19E097F8C0
:104EA000273019463248FEF711FB12E097F82730F9
:104EB00019463048FEF70AFB0BE097F827301946F1
:104EC0002D48FEF703FB04E03B6A19462B4806F029
:104ED00017FEB86808F0CEFA03465BB23EE097F9D9
:104EE00026301946264806F00BFE2048FEF7FCFA4D
:104EF0000346002B01D0592300E04E2319462148D8
:104F000006F0FEFD1A48FEF7EFFA0346002B01D02B
:104F1000592300E04E2319461B4806F0F1FD1548C1
:104F2000FEF7E2FA0346002B01D0592300E04E239E
:104F30001946164806F0E4FD0F48FEF7D5FA034679
:104F4000002B01D0592300E04E231946104806F0EB
:104F5000D7FDB86808F08EFA03465BB218462837CA
:104F6000BD4680BDE8F60100F8F60100801A002079
:104F70009C1A0020B81A0020D41A00202CF7010037
:104F800064F70100B4F70100E4F7010014F8010030
:104F900044F8010080B59AB00CAFF860B9607A604F
:104FA0003B6007F124031846FEF7BEFA002387F89A
:104FB0003730002387F83630002387F83530002358
:104FC00087F83430002387F83330002387F83230F5
:104FD000002387F83130002387F83030002387F82A
:104FE0002F30002387F82E30002387F82D30002340
:104FF00087F82C30002387F82B30002387F82A30DD
:10500000074B1B68002B0CBF01230023DBB2002BD6
:105010000AD0044806F074FD7B685BB20AE200BF68
:105020004C00002074F8010007F1220107F123026F
:1050300007F116030B9307F117030A9307F11803FF
:10504000099307F11903089307F11A03079307F16E
:105050001B03069307F11C03059307F11D0304933B
:1050600007F11E03039307F11F03029307F12003C7
:10507000019307F1210300930B46A649B86807F096
:1050800029FD034687F8293097F92930002B40F392
:10509000BD8197F92330592B0FD097F92330792B05
:1050A0000BD097F92330542B07D097F92330742B6A
:1050B00003D097F92330312B02D1012387F8373001
:1050C00097F92230592B0FD097F92230792B0BD03A
:1050D00097F92230542B07D097F92230742B03D044
:1050E00097F92230312B02D1012387F8363097F916
:1050F0002130592B0FD097F92130792B0BD097F90C
:105100002130542B07D097F92130742B03D097F915
:105110002130312B02D1012387F8353097F9203027
:10512000592B0FD097F92030792B0BD097F92030DD
:10513000542B07D097F92030742B03D097F92030E7
:10514000312B02D1012387F8343097F91F30592BC6
:105150000FD097F91F30792B0BD097F91F30542BB4
:1051600007D097F91F30742B03D097F91F30312BDC
:1051700002D1012387F8333097F91E30592B0FD015
:1051800097F91E30792B0BD097F91E30542B07D08E
:1051900097F91E30742B03D097F91E30312B02D1B2
:1051A000012387F8323097F91D30592B0FD097F92A
:1051B0001D30792B0BD097F91D30542B07D097F960
:1051C0001D30742B03D097F91D30312B02D10123F0
:1051D00087F8313097F91C30592B0FD097F91C30D4
:1051E000792B0BD097F91C30542B07D097F91C3032
:1051F000742B03D097F91C30312B02D1012387F88F
:10520000303097F91B30592B0FD097F91B30792B81
:105210000BD097F91B30542B07D097F91B30742B08
:1052200003D097F91B30312B02D1012387F82F309F
:1052300097F91A30592B0FD097F91A30792B0BD0D8
:1052400097F91A30542B07D097F91A30742B03D0E2
:1052500097F91A30312B02D1012387F82E3097F9B4
:105260001930592B0FD097F91930792B0BD097F9AA
:105270001930542B07D097F91930742B03D097F9B4
:105280001930312B02D1012387F82D3097F91830CE
:10529000592B0FD097F91830792B0BD097F918307C
:1052A000542B07D097F91830742B03D097F9183086
:1052B000312B02D1012387F82C3097F91730592B65
:1052C0000FD097F91730792B0BD097F91730542B53
:1052D00007D097F91730742B03D097F91730312B7B
:1052E00002D1012387F82B3097F91630592B13D0B0
:1052F00097F91630792B0FD097F91630542B0BD025
:1053000097F91630742B07D097F91630312B06D148
:1053100002E000BFB0F80100012387F82A3097F8B7
:10532000253097F8372062F3451387F8253097F832
:10533000253097F8362062F3861387F8253097F8E2
:10534000263097F8352062F3000387F8263097F867
:10535000263097F8342062F3410387F8263097F817
:10536000263097F8332062F3820387F8263097F8C7
:10537000263097F8322062F3C30387F8263097F877
:10538000263097F8312062F3041387F8263097F817
:10539000263097F8302062F3861387F8263097F886
:1053A000273097F82F2062F3000387F8273097F80B
:1053B000273097F82E2062F3410387F8273097F8BB
:1053C000273097F82D2062F3820387F8273097F86B
:1053D000273097F82C2062F3C30387F8273097F81B
:1053E000273097F82B2062F3041387F8273097F8BB
:1053F000273097F82A2062F3451387F827300F4BA0
:105400001B68203307F12402106818600B4B1A68E0
:1054100007F12403203210681860094806F070FB79
:1054200007F124031846FEF793F8B86808F022F84D
:1054300003465BB218463837BD4680BD4C0000209D
:10544000ECF8010080B588B000AFF860B9607A6010
:105450003B6007F118031846FEF766F8354B1B68EA
:10546000002B0CBF01230023DBB2002B05D03248F8
:1054700006F046FB7B685BB257E00023FB7707F141
:1054800017031A462D49B86807F024FB0346BB777B
:1054900097F91E30002B34DD97F91730592B0FD0B8
:1054A00097F91730792B0BD097F91730542B07D079
:1054B00097F91730742B03D097F91730312B01D19E
:1054C0000123FB771B4B1A6807F118032032106881
:1054D0001860FB7EFA7F62F3C303FB76154B1B68F3
:1054E000203307F1180210681860FB7F002B01D0F1
:1054F000312300E0302397F917201946104806F0B1
:10550000FFFA0C4B1A6807F1180320321068186074
:10551000FB7EC3F3C003DBB219460A4806F0F0FA7B
:10552000B86807F0A7FF03465BB218462037BD46B0
:1055300080BD00BF4C00002018F9010048F90100AF
:105540004CF9010068F9010080B485B000AFF86043
:10555000B9607A603B60FB68BA681A60FB687A6879
:105560005A60FB683A689A60FB6818461437BD4673
:1055700080BC704798B500AF1C4C1D4B1D4A41F2D2
:1055800001012046FFF7E0FF0C34194B1A4A0121B4
:105590002046FFF7D9FF0C34184B194A42F202019A
:1055A0002046FFF7D1FF0C34164B174A42F2030195
:1055B0002046FFF7C9FF0C34144B154A42F2040190
:1055C0002046FFF7C1FF0C34124B134A42F205018B
:1055D0002046FFF7B9FF04F10C00104B104A42F2CD
:1055E0000601FFF7B1FF00BF98BD00BF241A0020DD
:1055F000715C0000A0FA0100B8FA0100ED5C000047
:10560000DCFA01008D5D0000F4FA0100295E000063
:105610000CFB0100915F000030FB010051620000B3
:1056200054FB010080B500AFFFF7A4FF80BD000070
:1056300080B582B000AF786039607B681B6818461F
:1056400016F00EFD3B68D3E9002316F073FD024609
:105650000B46104619464FF00002054B16F094FE1B
:1056600002460B46104619460837BD4680BD00BFAE
:1056700000005E410000000080B584B000AF78609B
:10568000396011A3D3E90023C7E9022307F1080316
:1056900019463868FFF7CCFF7B68D3E9002316F082
:1056A00049FD02460B46104619467B68D3E90223A2
:1056B00016F08AFB02460B46104619461037BD46C7
:1056C00080BD00BFAFF30080C3F5285C8FC21340DC
:1056D00080B582B000AF78607B6804331946054816
:1056E000FFF7CAFF02460B46104619460837BD466B
:1056F00080BD00BFB05D002080B582B000AF786093
:105700007B68083319460548FFF7B6FF02460B468B
:10571000104619460837BD4680BD00BFC05D002059
:1057200080B582B000AF78607B680C3319460548BD
:10573000FFF7A2FF02460B46104619460837BD4642
:1057400080BD00BFD05D002080B582B000AF786022
:105750007B68103319460548FFF78EFF02460B465B
:10576000104619460837BD4680BD00BFE05D0020E9
:1057700080B582B000AF78607B6814331946054865
:10578000FFF77AFF02460B46104619460837BD461A
:1057900080BD00BFF05D002080B582B000AF7860B2
:1057A0007B68183319460548FFF766FF02460B462B
:1057B000104619460837BD4680BD00BF005E002078
:1057C00080B582B000AF78607B681C33194605480D
:1057D000FFF752FF02460B46104619460837BD46F2
:1057E00080BD00BF105E002080B582B000AF786041
:1057F0007B68203319460548FFF73EFF02460B46FB
:10580000104619460837BD4680BD00BF205E002007
:1058100080B582B000AF78607B68243319460548B4
:10582000FFF72AFF02460B46104619460837BD46C9
:1058300080BD00BF305E002080B582B000AF7860D0
:105840007B68283319460548FFF716FF02460B46CA
:10585000104619460837BD4680BD00BF405E002097
:1058600080B582B000AF78607B682C33194605485C
:10587000FFF702FF02460B46104619460837BD46A1
:1058800080BD00BF505E002080B582B000AF786060
:105890007B68303319460548FFF7EEFE02460B469B
:1058A000104619460837BD4680BD00BF605E002027
:1058B00080B582B000AF78607B6834331946054804
:1058C000FFF7DAFE02460B46104619460837BD467A
:1058D00080BD00BF705E002080B582B000AF7860F0
:1058E0007B68383319460548FFF7C6FE02460B466B
:1058F000104619460837BD4680BD00BF805E0020B7
:1059000080B582B000AF78607B683C3319460548AB
:10591000FFF7B2FE02460B46104619460837BD4651
:1059200080BD00BF905E002080B582B000AF78607F
:105930007B68403319460548FFF79EFE02460B463A
:10594000104619460837BD4680BD00BFA05E002046
:1059500080B582B000AF78607B6844331946054853
:10596000FFF78AFE02460B46104619460837BD4629
:1059700080BD00BFB05E002080B582B000AF78600F
:105980007B68483319460548FFF776FE02460B460A
:10599000104619460837BD4680BD00BFC05E0020D6
:1059A00080B582B000AF78607B684C3319460548FB
:1059B000FFF762FE02460B46104619460837BD4601
:1059C00080BD00BFD05E002080B582B000AF78609F
:1059D0007B68503319460548FFF74EFE02460B46DA
:1059E000104619460837BD4680BD00BFE05E002066
:1059F00080B582B000AF78607B68543319460548A3
:105A0000FFF73AFE02460B46104619460837BD46D8
:105A100080BD00BFF05E002080B582B000AF78602E
:105A20007B68583319460548FFF726FE02460B46A9
:105A3000104619460837BD4680BD00BF005F0020F4
:105A400080B582B000AF78607B685C33194605484A
:105A5000FFF712FE02460B46104619460837BD46B0
:105A600080BD00BF105F002080B582B000AF7860BD
:105A70007B68603319460548FFF7FEFD02460B467A
:105A8000104619460837BD4680BD00BF205F002084
:105A900080B582B000AF78607B68643319460548F2
:105AA000FFF7EAFD02460B46104619460837BD4689
:105AB00080BD00BF305F002080B582B000AF78604D
:105AC0007B68683319460548FFF7D6FD02460B464A
:105AD000104619460837BD4680BD00BF405F002014
