:1000000000000120910100007F0300006105000055
:100010008303000073050000850500000000000058
:100020000000000000000000000000008903000044
:100030008B030000000000008D0300008F03000010
:100040009103000093030000950300009703000054
:10005000990300009B0300009D0300009F03000024
:10006000A1030000A3030000A5030000A7030000F4
:10007000A9030000AB030000AD030000AF030000C4
:10008000B1030000B3030000B5030000B703000094
:10009000B9030000BB030000BD030000BF03000064
:1000A000C1030000C3030000C5030000C703000034
:1000B000C9030000CB030000CD030000CF03000004
:1000C000D1030000D3030000D5030000D7030000D4
:1000D000D9030000DB030000DD030000DF030000A4
:1000E000E1030000E3030000E5030000E703000074
:1000F000E9030000EB030000ED030000EF03000044
:10010000F1030000F3030000F5030000F703000013
:10011000F9030000FB030000FD030000FF030000E3
:1001200001040000030400000504000007040000AF
:10013000090400000B0400000D0400000F0400007F
:10014000110400001304000015040000170400004F
:10015000190400001B0400001D0400001F0400001F
:1001600021040000230400002504000027040000EF
:10017000290400002B0400002D0400002F040000BF
:100180003104000033040000000000000000000003
:100190004FF0000BDFF8BE020068DFF8B612096806
:1001A00001F0030100F01C00142801D14BF0020BF8
:1001B000002901D04BF0010BBBF1000F05D0A7487F
:1001C000A749DFF8722200F09FF8A64880470BF09D
:1001D000020ABAF1000F0CD0DFF86E02DFF86E12DF
:1001E00002680B680FB44FF000024FF0FF0302608B
:1001F0000B609D484FF000024FF00103022808D128
:10020000DFF83A120A60DFF83E120A60DFF83212B5
:100210000B60012808D1DFF82A120A60DFF82612E5
:100220000A60DFF81A120B609048002809D1904844
:100230009049914A00F030F890489149914A00F075
:100240002BF891489149924A00F026F8914892493A
:10025000DFF8E22100F058F8BBF1000F10D08F4812
:100260008F49DFF8D62100F04FF80BF0020ABAF1FF
:10027000000F05D00FBC02600B6000BFAFF3008021
:10028000DFF820020FF2030E00474FF000004FF09E
:100290000001DFF814F2FEE72DE9F841884225D08D
:1002A000B2EB010200D5FEE740EA010313F00303BD
:1002B00002D000F01DF819E04FF000039046121133
:1002C000F7D09A421CBFF0C8F0C103F10103F8D186
:1002D00008F00F08B8F1000F08D004780C7000F196
:1002E000010001F10101B8F10108F6D1BDE8F88182
:1002F00008B54FF0000303780B7000F1010001F125
:100300000101013AF7D108BD884237D000F0030659
:10031000002E14D04FF00405A5EB06044FF008079B
:1003200007FB06F8914669FA08F9002C07D080F817
:10033000009069FA07F900F10100013CF5E74FF080
:1003400000060F46091A88460911914614461546BB
:10035000B14206D018BFA0E8340206F10106B1424E
:10036000F8D108F00F08B8F1000F07D002704FEA7B
:10037000322200F10100B8F10108F4E77047FEE70E
:10038000FEE7FEE7FEE7FEE7FEE7FEE7FEE7FEE745
:10039000FEE7FEE7FEE7FEE7FEE7FEE7FEE7FEE735
:1003A000FEE7FEE7FEE7FEE7FEE7FEE7FEE7FEE725
:1003B000FEE7FEE7FEE7FEE7FEE7FEE7FEE7FEE715
:1003C000FEE7FEE7FEE7FEE7FEE7FEE7FEE7FEE705
:1003D000FEE7FEE7FEE7FEE7FEE7FEE7FEE7FEE7F5
:1003E000FEE7FEE7FEE7FEE7FEE7FEE7FEE7FEE7E5
:1003F000FEE7FEE7FEE7FEE7FEE7FEE7FEE7FEE7D5
:10040000FEE7FEE7FEE7FEE7FEE7FEE7FEE7FEE7C4
:10041000FEE7FEE7FEE7FEE7FEE7FEE7FEE7FEE7B4
:10042000FEE7FEE7FEE7FEE7FEE7FEE7FEE7FEE7A4
:10043000FEE7FEE7704700000000A2A2A2A2008033
:100440000340088003401080034030800340348024
:1004500003403880034018080240000000F00020EC
:10046000000001209D0500000000000000000000C9
:10047000000000000000000090010000B004000037
:10048000B0040000489C0200509C020000000020C4
:1004900070080020700800204065002040650020A2
:1004A00000F0002045D400009DC4000000000000C2
:1004B00010B5054C237833B9044B13B10448AFF39E
:1004C00000800123237010BD700800200000000090
:1004D000C49B020008B5034B1BB103490348AFF3AB
:1004E000008008BD0000000074080020C49B0200CA
:1004F000A3F5803A704700BF154B002B08BF114B86
:100500009D46FFF7F5FF00218B460F461148124A22
:10051000121A0CF0CFFD0C4B002B00D098470B4B60
:10052000002B00D098470020002104000D000B484C
:100530000CF0AAF80CF086FF200029000BF0AEFFAB
:100540000CF0A8F800000800000000000000000007
:1005500000000000700800204065002095D40000D5
:100560001EF0040F0CBFEFF30880EFF309800BF0CF
:100570004FBE1EF0040F0CBFEFF30880EFF30980AD
:100580000BF090BE1EF0040F0CBFEFF30880EFF3EA
:1005900009800BF0B7BE0138FDD1704780B500AFC0
:1005A00000F0FAF8044B5B69034A43F400735361AB
:1005B000FFF740FF00BF80BD00ED00E080B588B0D0
:1005C00000AF314BD3F8983003F08063FB61FB69D7
:1005D000002B4ED12C4BD3F8983003F480537B6121
:1005E0007B69002B15D1294B294A1A60294B284ACF
:1005F0001A60294B264A1A60284B294A1A60294B4F
:10060000234A1A60284B224A1A60284B204A1A6053
:1006100036E0274A3B1D92E8030083E803001A4BAB
:10062000D3F89C309B0903F007033B613A1D3B69FB
:1006300013441B78FB73FB7B022B12D0022B14DCC0
:10064000002B02D0012B07D00FE000F035F8B86185
:10065000B86900F04FF813E04FF4004000F04AF89A
:100660000EE0144800F046F80AE0124800F042F8A4
:1006700006E000F021F8B861B86900F03BF8FFE748
:1006800000BF2037BD4680BD00800340040000202D
:1006900080651406080000200C00002010000020D7
:1006A0006019850114000020180000201C000020A3
:1006B0000CE2010040420F0080B483B000AF0A4B4F
:1006C000D3F8503103F004033B603B68002B02D1A8
:1006D000064B7B6001E0064B7B607B6818460C375D
:1006E000BD4680BC704700BF0080034040787D015C
:1006F00080F0FA0280B483B000AF78600C4A7B6867
:1007000013600C4A7B6813600B4A7B6813600B4BC9
:100710000B4A1A600B4A7B6813600B4A7B681360B4
:100720000A4A7B68136000BF0C37BD4680BC704727
:1007300004000020080000200C0000201000002011
:100740006019850114000020180000201C00002002
:1007500080B483B000AF0E4BD3F84C313B603B68A4
:100760004FF60202934204D03B680A4A934203D0F8
:1007700005E001237B6005E002237B6002E00023AB
:100780007B6000BF7B6818460C37BD4680BC704755
:100790000080034002F8010080B582B000AFFFF78F
:1007A000D7FF78607B68012B02D100F007F800E0EA
:1007B00000BF00BF0837BD4680BD000080B400AF59
:1007C000094BD3F89830084A43F48073C2F8983044
:1007D000054BD3F89830044A23F08063C2F8983070
:1007E00000BFBD4680BC70470080034080B483B02A
:1007F00000AF78604FF0FF3318460C37BD4680BC21
:10080000704780B584B000AFF860B9607A600CF0D2
:1008100013FE03460C221A604FF0FF3318461037C0
:10082000BD4680BD80B483B000AF786000BFFDE7F7
:1008300080B500AF0CF000FE03460B221A604FF0AB
:10084000FF33184680BD80B483B000AF7860396054
:100850003B684FF400525A60002318460C37BD46DF
:1008600080BC704780B400AF01231846BD4680BCF1
:10087000704780B483B000AF7860012318460C370E
:10088000BD4680BC704780B582B000AF78603960EB
:100890000CF0D2FD034616221A604FF0FF331846C3
:1008A0000837BD4680BD80B582B000AF7860396042
:1008B0000CF0C2FD03461F221A604FF0FF331846AA
:1008C0000837BD4680BD80B485B000AFF860B96020
:1008D0007A60002318461437BD4680BC704780B448
:1008E00085B000AFF860B9607A604FF0FF3318460A
:1008F0001437BD4680BC704780B485B000AFF86047
:10090000B9607A60002318461437BD4680BC704732
:1009100080B485B000AFF860B9607A603B600023B6
:1009200018461437BD4680BC7047000080B586B0BD
:1009300000AF78601F4B1B68002B02D11D4B1E4A75
:100940001A601C4B1B687B61EFF308833B61194BFA
:100950001B683A699A420FD9164B1A687B68134490
:100960003A699A421AD21923144A01210020FFF74A
:10097000CFFF0120FFF756FF114BFB600D4B1A68AC
:100980007B681344FA689A4208D219230D4A012160
:100990000020FFF7BDFF0120FFF744FF054B1A6859
:1009A0007B681344034A13607B6918461837BD46B9
:1009B00080BD00BF900800204065002014E20100C7
:1009C00000F0002030E2010080B483B000AF786016
:1009D00039603B684FF400525A60002318460C37C8
:1009E000BD4680BC704780B483B000AF78604FF0E4
:1009F000FF3318460C37BD4680BC704780B582B0C7
:100A000000AF78600CF018FD034602221A604FF028
:100A1000FF3318460837BD4680BD80B582B000AFB1
:100A200078600CF009FD03460A221A604FF0FF338C
:100A300018460837BD4680BD2DE9B04384B000AFED
:100A400078607B68002298469146104BD3E90023DA
:100A500002FB09F008FB03F10144A8FB02454B1916
:100A60001D460B4A4FF00003204629461CF0C2F8F1
:100A700002460B4613460133FB60F868FFF78BFD17
:100A800000BF1037BD46BDE8B08300BF8000002026
:100A900040420F0080B582B000AF78607B684FF4B1
:100AA0007A7202FB03F31846FFF7C6FF00BF083750
:100AB000BD4680BD80B582B000AF78607B684FF4E2
:100AC0007A7202FB03F31846FFF7E4FF00BF083712
:100AD000BD4680BD80B485B000AF786039604FF00E
:100AE000FF33FB603B68BB6012E07B681B781A46F3
:100AF000FB681B0E53400B4A52F82320FB681B0275
:100B00005340FB607B6801337B60BB68013BBB608B
:100B1000BB68002BE9D1FB68DB4318461437BD46A0
:100B200080BC704744E2010080B500AF30480BF054
:100B30005FF9304B1B6819462F480BF059F92F4BC2
:100B40001B6819462E480BF053F92E4B1B681946AB
:100B50002D480BF04DF92D4B1B6819462C480BF016
:100B600047F92C4B1B6819462B480BF041F92B4BCE
:100B70001B6819462A480BF03BF92A4B1B6819469B
:100B800029480BF035F9294B1B68194628480BF00A
:100B90002FF9284B1B68194627480BF029F9274BDA
:100BA0001B68194626480BF023F9264B1B6819468B
:100BB00025480BF01DF9254B1B68194624480BF0FE
:100BC00017F9244B1B68194623480BF011F9234BE6
:100BD0001B68194622480BF00BF9224B1B6819467B
:100BE00021480BF005F921480BF002F900BF80BD48
:100BF00044E60100000000005CE6010090010000F6
:100C00007CE60100B004000098E60100489C020068
:100C1000B0E60100409C0200C4E60100489C0200CE
:100C2000DCE6010000000020F4E60100700800206E
:100C30000CE701007008002020E70100406500205B
:100C400038E701004065002048E7010000F000207F
:100C500064E7010000F0002078E7010000000120B7
:100C600094E7010040650020A8E70100B8E7010013
:100C700080B584B000AFF860B9607A603B603B68D3
:100C800018687B68BA68F968984702463B681A603A
:100C90003B681B68002B02D14FF0FF3300E00023BC
:100CA00018461037BD4680BD80B586B000AFF860ED
:100CB000B9607A603B6014E0BB68102B28BF10233A
:100CC0007B613B687A687969F868FFF7D1FF034672
:100CD000002B02DA4FF0FF3307E0BA687B69D31AC2
:100CE000BB60BB68002BE7D1002318461837BD4610
:100CF00080BD000080B586B000AFF860B9607A6052
:100D00003B6000237B617B68002B0BD0BB68FA68DB
:100D100079683048FFF7C8FF0346002B02DA4FF02E
:100D2000FF3353E07A697B6813447B613B68002B97
:100D300012D03B6A002B0FD0BB68FA68396A38685A
:100D4000FFF796FF0346002B02DA4FF0FF333DE03A
:100D50007A693B6A13447B617B6A002B0BD0BB68CA
:100D6000FA68796A1C48FFF79FFF0346002B02DAF6
:100D70004FF0FF332AE07A697B6A13447B61FB6A98
:100D8000002B0BD0BB68FA68F96AB86AFFF770FFEE
:100D90000346002B02DA4FF0FF3317E07A69FB6A53
:100DA00013447B613B6B002B0BD0BB68FA68396B3B
:100DB0000848FFF779FF0346002B02DA4FF0FF33B4
:100DC00004E07A693B6B13447B617B6918461837F2
:100DD000BD4680BDBCE70100D0E7010080B489B00A
:100DE00000AFF860B9607A603B600023FB610023CC
:100DF000BB6100237B61FB689B681A46BB6893421A
:100E000005D2FB689B681A46BB68D31A7B61FB68F6
:100E10005B6803F00403002B02D07B69BB6101E037
:100E20007B69FB61FB685B6803F04003002B15D016
:100E3000FA69BB6913443B61FB685B6803F0040318
:100E4000002B0CBF01230023DBB21A463B6913447D
:100E50005B08FB613A69FB69D31ABB617B68002BB5
:100E600002D07B68FA691A603B68002B02D03B68AD
:100E7000BA691A6000BF2437BD4680BC70470000C5
:100E80002DE9B04FA0B000AFC7E912017A643B640E
:100E9000D7E91223C7E91C23D7E91C231446C3F35F
:100EA0001305C7E91845D7E91C234FF000004FF0A0
:100EB0000001180D00210346C3F30A03BB66D7E9FE
:100EC0001C234FF000004FF00001D80F0021034613
:100ED000FB66BA6E40F2FF739A4209D16FF000438D
:100EE000BB65FB6EFB65D7E91823C7E91423FFE058
:100EF000D7E9182313430DD1BB6E002B0AD1002371
:100F0000BB654FF000024FF00003C7E91423FB6EEE
:100F1000FB65EDE0FB6EFB65BB6E002B21D1012371
:100F2000BB664FF000024FF00003C7E91423002313
:100F3000BB650CE0D7E918239118B9615B41FB61EF
:100F4000D7E90623C7E91823BB6E013BBB66D7E987
:100F500018234FF0000A03F4002B5AEA0B03E9D0E0
:100F600006E075A3D3E90023C7E914230023BB657A
:100F700073A3D3E90023C7E91E23D7E918234FF051
:100F800000004FF00001190341EA12511003C7E9B4
:100F9000180131E0D7E91823002B0CDAD7E9140146
:100FA000D7E91E238418BC6341EB0303FB63D7E935
:100FB0000E34C7E91434D7E91823911839615B411D
:100FC0007B61D7E90423C7E91823D7E91E23511C05
:100FD000396343F100037B634FF000024FF00003DD
:100FE000D7E90C4521464A08204629460C4642EAE4
:100FF000C4724B08C7E91E23D7E918231343C9D18C
:10100000BB6EA3F2FF33BB6629E0D7E91423911826
:10101000B9605B41FB60D7E90223C7E91423D7E934
:10102000142341498A4241498B4115D3D7E91423FE
:10103000511DB96243F10003FB624FF00A024FF009
:101040000003D7E90A011BF0D5FD02460B46C7E9AC
:101050001423BB6D0133BB65BB6E013BBB66BB6E2E
:10106000002BD2DC41E0D7E9142331498A423149CF
:101070008B4120D2D7E9144522462B464FF0000081
:101080004FF00001990041EA9271900002460B4630
:1010900012EB040843EB050918EB08033B6049EB2E
:1010A00009037B60D7E9008942464B46C7E9142310
:1010B000BB6D013BBB65D7E91423511C396243F179
:1010C00000037B624FF000024FF00003D7E90845B0
:1010D00021464A08204629460C4642EAC4724B087B
:1010E000C7E91423BB6E0133BB66BB6E002BBADBB2
:1010F0007B6C002B02D0FA6D7B6C1A603B6C002B72
:1011000004D0D7E91423396CC1E90023D7F8A03003
:10111000002B03D0BA6DD7F8A0301A6000BF80371B
:10112000BD46BDE8B08F00BF0000C16FF28623004E
:1011300000008D49FD1A07000080C6A47E8D0300C3
:1011400000406352BFC6010080B586B000AFF860B2
:10115000C7E900233A6A7B6AD31A7B610EE0D7E9BC
:1011600000014FF00A024FF000031BF043FD02465E
:101170000B46C7E900237B69013B7B617B69002B40
:10118000EDDC7B6A7B6122E0D7E900014FF00A02C7
:101190004FF000031BF02EFD13463B613B69DBB2B1
:1011A0003033D9B27B69013BFA6813444AB21A70F2
:1011B000D7E900014FF00A024FF000031BF01AFDBF
:1011C00002460B46C7E900237B69013B7B617B69D3
:1011D000002BD9D17B6A18461837BD4680BD000068
:1011E00080B590B006AFF8607A603B600B46FB724A
:1011F00000237B6100233B613B6C6FF00042934214
:1012000015D1D7E90E23134311D097F90B30662B74
:1012100007D097F90B30652B03D097F90B30672B6C
:1012200002D12F4B3B6213E02E4B3B6210E097F94B
:101230000B30662B07D097F90B30652B03D097F94D
:101240000B30672B02D1284B3B6201E0274B3B62FE
:10125000386A0CF09BFAF8613B6B002B02D0244BF0
:101260007B6219E03B6B002B08D1FB685B6803F0E5
:101270000203002B02D01F4B7B620DE03B6B002B67
:1012800008D1FB685B6803F00103002B02D01A4B06
:101290007B6201E0194B7B62786A0CF077FAB861E7
:1012A000FA69BB69D11807F1100307F11402F86855
:1012B000FFF794FD7A693B690493FB6903933B6AEA
:1012C000029300230193BB6900937B6A39687868B5
:1012D000FFF710FD034618462837BD4680BD00BF06
:1012E000E4E70100E8E70100ECE70100F0E70100B6
:1012F000F4E70100F8E70100FCE7010000E8010065
:101300002DE9B0438AB000AFF860B9607A603B6005
:1013100048A3D3E90023C7E908230023FB61BB6886
:101320001B68BB617B6C002B21D0BA693E4B83FBF1
:101330000231D317C91A0B465B000B44D31ABB61A9
:10134000BB69002B02DABB690333BB613B68002B2E
:101350000DD0BB681B68002BB8BF5B427B617B690B
:10136000182B04DD7B69183BBA691344BB613B68E9
:10137000002B0AD1BB69002B02DABB690133BB61C8
:10138000BB69002BB8BF5B42BB61BA697B68134481
:101390000133FB61FB6923EAE373FB610BE0D7E9EF
:1013A00008014FF00A024FF000031BF023FC024635
:1013B0000B46C7E90823FB695A1EFA61002BEED1E0
:1013C000FB68D3E90001D7E90823841841EB030542
:1013D000FB68C3E90045FB68D3E9002313498A424F
:1013E00013498B4118D3FB68D3E9002312F1050898
:1013F00043F100094FF00A024FF00003404649460E
:101400001BF0F8FB02460B46F968C1E90023BB68F4
:101410001B685A1CBB681A6000BF2837BD46BDE870
:10142000B08300BFAFF30080565555550000C16F23
:10143000F28623000080E03779C3110080B5AAB09E
:1014400006AFF8607A603B600B46FB720023C7F87A
:101450008C300023C7F884300023C7F88030002385
:10146000BB6100237B610023FB670023BB67002374
:101470007B6700233B670023FB660023BB660023DA
:10148000BB6500237B6500233B650023FB7497F954
:101490000B30672B03D097F90B30472B23D1012357
:1014A0007B65FB685B6823F02002FB685A60D7F815
:1014B000A83013F1040F05DBFB68DA68D7F8A83011
:1014C0009A4208DC97F90B30672B01D1652300E0C5
:1014D0004523FB7207E097F90B30672B01D1662398
:1014E00000E04623FB7297F90B30662B03D097F987
:1014F0000B30462B01D101233B65FB68DB68002BD9
:1015000002DAFB680622DA607B6D002B06D0FB68EE
:10151000DB68002B02D1FB680122DA60D7F8983033
:10152000002B03D0AB4BC7F888301EE0D7F89830BB
:10153000002B09D1FB685B6803F00203002B03D08A
:10154000A54BC7F8883010E0D7F89830002B09D1A8
:10155000FB685B6803F00103002B03D09F4BC7F8C7
:10156000883002E09E4BC7F88830D7F888000CF02E
:101570000DF97863FB68DA68FB685B6803F02003A9
:1015800007F1A80107F1A00001937B6D00933B6D6B
:10159000FFF7B6FED7E92823134324D01023C7F85A
:1015A0008C301AE0D7E928014FF00A024FF000030F
:1015B0001BF020FB134315D1D7F88C30013BC7F843
:1015C0008C30D7E928014FF00A024FF000031BF0DE
:1015D00011FB02460B46C7E92823D7F88C30002BB5
:1015E000E0D100E000BF3B6D002B37D0FB685B68AB
:1015F00003F02003002B2AD00823FB6419E0D7F85E
:10160000A830022B08DDFB6C0133FB64D7F8A8304F
:10161000033BC7F8A8300CE0D7F8A830002B0FDA4E
:10162000FB6C013BFB64D7F8A8300333C7F8A83044
:1016300000BFFB6C002B04DDFB6C0F2BDFD900E03F
:1016400000BF684AFB6C134493F90030FB74D7F871
:10165000A83043EAE37301337B6623E001237B6612
:10166000FB685B6803F02003002B1BD0D7F8A82091
:101670005D4B83FB0231D317C91A0B465B000B4449
:10168000D31ABB64BB6C002B02DABB6C0333BB64A4
:101690007A6EBB6C13447B66D7F8A820BB6CD31A58
:1016A000C7F8A830FB68DA68D7F88C107B6ECB1AC5
:1016B00023EAE3739342A8BF13463B663B6D002BBE
:1016C0003CD07B6D002B39D0D7E92823C7E9102304
:1016D000D7F88C30FB630EE0FB6B013BFB63D7E973
:1016E00010014FF00A024FF000031BF083FA02468C
:1016F0000B46C7E910237A6E3B6E1344FA6B9A428D
:10170000EADC0EE0D7E910014FF00A024FF00003C7
:101710001BF070FA02460B46C7E910233B6E013BF3
:101720003B663B6E002B09DDD7E910014FF00A0242
:101730004FF000031BF05EFA1343E3D07A6E7B6B2D
:101740001A443B6E1344C7F880303B6D002B38D0F1
:101750007B6E002B06D10123FB67D7F88030013365
:10176000C7F880307A6ED7F88C309A4204DD7A6EF2
:10177000D7F88C30D31ABB67D7F8A830B3F1FF3F46
:1017800015DAFB68DB68002B11DDD7F8A830DB43E6
:101790007B67FB68DB681A467B6F934228BF134662
:1017A0007B67D7F880207B6F1344C7F8803097F9A8
:1017B0001330002B34D0D7F880300133C7F8803095
:1017C0002EE0D7F8A830002BB8BF5B42FB650023A2
:1017D000BB6516E0F4E70100F8E70100FCE7010053
:1017E00000E801002400002056555555BB6D01331B
:1017F000BB65FB6D9C4A82FB03129210DB17D31A68
:10180000FB65FB6D002BF1DCBB6D022B38BF0223A7
:10181000BB65BA6DD7F8803013440233C7F8803007
:101820003A6E7B6F1344FA68D268934217D27B6D8D
:10183000002B05D0FB685B6803F00803002B0ED07B
:10184000FB68DB681A467B6FD21A3B6ED31A3B6784
:10185000D7F880203B6F1344C7F880301AE03B6D07
:10186000002B17D03A6E7B6F1344FA68D26893420C
:1018700010D93A6E7B6F1344FA68D2689B1A3B63A7
:101880003B6BD7F88020D31AC7F880303A6E3B6B99
:10189000D31A3B667B6F002B0BD13B6F002B08D11B
:1018A0003B6E002B05DCFB685B6803F00803002B34
:1018B00006D00123BB66D7F880300133C7F88030EB
:1018C00007F1140307F11802D7F88010F868FFF742
:1018D00085FAFB685B6803F01003002B05D0BB6939
:1018E000FA6F1344FB670023BB617B6E002B0ED0A5
:1018F000D7E92823786EB96F411A07F11C000191CE
:10190000D7F88C100091FFF71FFC034600E000237E
:10191000C7F88430D7F88C20D7F88430D31AC7F8AA
:101920008C30BA6900230493D7F88430039307F10D
:101930001C030293FB6F01937B6B0093D7F88830F5
:1019400039687868FFF7D6F9F862FB6AB3F1FF3FB0
:1019500001D1FB6AF4E0FA6EFB6A1344FB660023D4
:1019600004930023039300230293BB6F019300238E
:1019700000930023002239687868FFF7BBF9F8620A
:10198000FB6AB3F1FF3F01D1FB6AD9E0FA6EFB6A53
:101990001344FB663B6E002B0CD0D7E9282307F1DC
:1019A0001C00396E0191D7F88C100091FFF7CCFB29
:1019B000034600E00023C7F88430BB6E002B14BF41
:1019C00001230023DBB21A4600230493D7F88430A6
:1019D000039307F11C0302937B6F01930092234B47
:1019E000002239687868FFF785F9F862FB6AB3F17D
:1019F000FF3F01D1FB6AA3E0FA6EFB6A1344FB666A
:101A00000023049300230393002302933B6F01936D
:101A1000002300930023002239687868FFF76AF9F1
:101A2000F862FB6AB3F1FF3F01D1FB6A88E0FA6E0E
:101A3000FB6A1344FB66BB6D002B5DD0D7F8A83062
:101A4000002BB8BF5B42BB63FB7A3B74D7F8A8306E
:101A5000002B01DA2D2300E02B237B74BB6DFB658B
:101A60000023C7F8843025E06766666604E8010055
:101A7000B96B354BA3FB0123DA0813469B001344D3
:101A80005B00CA1AD3B23033DAB2FB6D013B52B2FB
:101A900090333B4403F8742CFB6D013BFB65D7F896
:101AA00084300133C7F88430BB6B274AA2FB032381
:101AB000DB08BB63FB6D002BDADC07F110020023AF
:101AC0000493D7F88430039307F11C030293002397
:101AD0000193022300931346002239687868FFF7C8
:101AE00009F9F862FB6AB3F1FF3F01D1FB6A27E015
:101AF000FA6EFB6A1344FB6697F91330002B14BF90
:101B000001230023DBB21A467B690493039207F199
:101B10001303029300230193002300930023002268
:101B200039687868FFF7E6F8F862FB6AB3F1FF3FBF
:101B300001D1FB6A04E0FA6EFB6A1344FB66FB6E9C
:101B400018469037BD4680BDCDCCCCCC90B593B077
:101B500006AFF860B9603B601346FB71FB6893F910
:101B600014304C2B02D14FF0FF334DE0BB681B68A3
:101B7000073323F0070303F10801BA681160D3E9C2
:101B80000023C7E90A2307F1180107F1240207F12E
:101B9000140300930B46D7E90A01FFF771F97B693B
:101BA0006FF00042934203D1D7E90623134308D1D3
:101BB0007B696FF00042934215D1D7E906231343A6
:101BC00011D1796AD7E90623786997F9074004901B
:101BD000CDE9022300913B6C3A682146F868FFF793
:101BE000FFFA034610E0796AD7E90623786997F986
:101BF00007400490CDE9022300913B6C3A682146EE
:101C0000F868FFF71BFC034618463437BD4690BD05
:101C10002DE9B04FAAB006AFF865B9653B6513462C
:101C200087F85730FB6D1A6AFB6D5B6A1344C7F87F
:101C30008430D7F884300733DB08C7F880304FF0A2
:101C400000024FF00003C7E918234FF000024FF0E5
:101C50000003C7E91823D7F88030002B02D14FF0DA
:101C6000FF33EEE0D7F88030042B08D8BB6D19683D
:101C70000A1DBB6D1A600B68C7F88C3007E0BB6D9E
:101C800019680A1DBB6D1A600B68C7F88C30D7F84D
:101C90008C30002B0AD10023FB674FF000024FF07D
:101CA0000003C7E91C230023FB66BAE0D7F88430A1
:101CB0005A1E012303FA02F2D7F88C301340002B8E
:101CC00014BF01230023DBB2FB67FB6F002B04D0A2
:101CD000D7F88C305B42C7F88C30D7F884305A1E66
:101CE000012393405A1ED7F88C301340C7F88C302C
:101CF000D7F88C30DA17BB64FA64D7E91223C7E946
:101D00001C234FF0FF33C7F8883009E0D7F88C3038
:101D10005B10C7F88C30D7F888300133C7F88830AB
:101D2000D7F88C30002BF1D1D7F88820FB6D5B6A97
:101D3000D31AFB6609E0D7E91C23911839605B418F
:101D40007B60D7E90023C7E91C23D7E91C23B3F53F
:101D5000801FF0D3D7E9182300244FEA13554FEA28
:101D60000555D7E91C239246C3F3130B44EA0A0333
:101D70003B6445EA0B037B64D7E91034C7E91834A8
:101D8000D7E91823BA636FF31E53FB63FB6EDA17B0
:101D90003B637A633B6BC3F30A084FF0000940F2E0
:101DA000FF3318EB0303BB6249F10003FB624FF002
:101DB00000024FF00003B96A0B050022D7E90E01BB
:101DC000044614433C6219437962D7E90834C7E9F1
:101DD0001834D7E91823BA6123F00043FB61FB6F85
:101DE00000223B617A614FF000024FF00003396935
:101DF000CB070022D7E9060104461443BC6019430F
:101E0000F960D7E90234C7E91834D7E9180107F1B6
:101E1000700407F17C0207F16C0300932346FFF77F
:101E20002FF8F96FD7E91C23F86E0490CDE902234F
:101E30000091D7F8B0303A6D6621F86DFFF7FEFAE1
:101E4000034618469037BD46BDE8B08FB0B485B0A4
:101E500000AF786039603B681B68191D3A681160F3
:101E60001B68FB60FB68002B48D07B6893F914303B
:101E7000682B05D17B681B681AB2FB681A803DE0AD
:101E80007B6893F91430692B05D17B681B685AB2C3
:101E9000FB681A7032E07B6893F914306C2B05D123
:101EA0007B681B681A46FB681A6027E07B6893F919
:101EB00014306A2B08D17B681B6800221C4615462B
:101EC000FB68C3E9004519E07B6893F914307A2B6D
:101ED00004D17B681A68FB681A600FE07B6893F98D
:101EE0001430742B05D17B681B681A46FB681A6096
:101EF00004E07B681B681A46FB681A6000231846DA
:101F00001437BD46B0BC704780B58EB006AFF860E0
:101F1000B9603B601346FB710023FB6197F9073002
:101F2000632B08D1BB681B68191DBA6811601B6858
:101F30005BB2FB7403E0FB6893F91530FB74FB683C
:101F4000DB68002B02DAFB680122DA60FB68DB68E1
:101F5000012BB8BF0123BB611FE0002304930123C1
:101F6000039307F1130302930023019300230093CB
:101F700000230022B96A3868FEF7BCFE78617B69ED
:101F8000B3F1FF3F02D14FF0FF330AE0FA697B69FA
:101F90001344FB61BB69013BBB61BB69002BDCD116
:101FA000FB6918462037BD4680BD000080B58EB065
:101FB00006AFF860B9603B601346FB710023FB611C
:101FC00000237B6100233B61BB681B68191DBA6855
:101FD00011601B68BB61BB69002B01D1174BBB6152
:101FE000B8690BF0D3FBF861FB68DB68002B07DBFB
:101FF000FB68DB681A46FB69934228BF1346FB6106
:1020000007F1100307F11402F969F868FEF7E6FE1C
:102010007A693B690493FB690393BB6902930023CC
:102020000193002300930023B96A3868FEF762FE2B
:10203000034618462037BD4680BD00BF08E80100B2
:102040002DE9F043CBB006AF07F58876A6F582768A
:10205000306007F58870A0F584700160114607F5BF
:102060008872A2F58872136007F58873A3F20913CA
:102070000A461A700023C7F80C310023BB61002305
:102080007B610023C7F804310023C7F80031002327
:10209000C7F8FC300023C7F8F4300023C7F8F0304D
:1020A00007F58873A3F582731B685B6803F08003F0
:1020B000002B00F0EE8007F58873A3F582731B6890
:1020C00093F914306C2B10D107F58873A3F5847342
:1020D0001B681B68191D07F58872A2F584721268C7
:1020E00011601B68C7F8EC3063E007F58873A3F54F
:1020F00082731B6893F914306A2B16D107F5887325
:10210000A3F584731B681B68073323F0070303F1EF
:10211000080107F58872A2F5847212681160D3E98C
:1021200000231346C7F8EC3043E007F58873A3F5A6
:1021300082731B6893F914307A2B10D107F58873DA
:10214000A3F584731B681B68191D07F58872A2F537
:102150008472126811601B68C7F8EC3029E007F53B
:102160008873A3F582731B6893F91430742B10D114
:1021700007F58873A3F584731B681B68191D07F5A1
:102180008872A2F58472126811601B68C7F8EC307F
:102190000FE007F58873A3F584731B681B68191D8E
:1021A00007F58872A2F58472126811601B68C7F87F
:1021B000EC3007F58873A3F582731B6893F914302C
:1021C000682B04D1D7F8EC301BB2C7F8EC3007F518
:1021D0008873A3F582731B6893F91430692B04D1BB
:1021E000D7F8EC305BB2C7F8EC30D7F8EC30002B06
:1021F000B8BF5B42C7F8F83007F58873A3F5807362
:1022000000221A70D7F8EC30002B06DA07F5887335
:10221000A3F580732D221A7020E007F58873A3F5CB
:1022200082731B685B6803F00203002B06D007F57E
:102230008873A3F580732B221A700FE007F588735B
:10224000A3F582731B685B6803F00103002B05D0C4
:1022500007F58873A3F5807320221A7007F5887339
:10226000A3F5807393F90030002B00F0B2800123B6
:10227000C7F8F43007F58873A3F582731B685B68B1
:1022800043F0080207F58873A3F582731B685A6050
:102290009FE007F58873A3F582731B6893F91430E8
:1022A0006C2B10D107F58873A3F584731B681B682A
:1022B000191D07F58872A2F58472126811601B68F7
:1022C000C7F8F83063E007F58873A3F582731B68DD
:1022D00093F914306A2B16D107F58873A3F584732C
:1022E0001B681B68073323F0070303F1080107F598
:1022F0008872A2F5847212681160D3E90023134634
:10230000C7F8F83043E007F58873A3F582731B68BC
:1023100093F914307A2B10D107F58873A3F58473E1
:102320001B681B68191D07F58872A2F58472126874
:1023300011601B68C7F8F83029E007F58873A3F52A
:1023400082731B6893F91430742B10D107F58873CE
:10235000A3F584731B681B68191D07F58872A2F525
:102360008472126811601B68C7F8F8300FE007F537
:102370008873A3F584731B681B68191D07F58872A1
:10238000A2F58472126811601B68C7F8F83007F56F
:102390008873A3F582731B6893F91430682B04D1FA
:1023A000D7F8F8309BB2C7F8F83007F58873A3F573
:1023B00082731B6893F91430692B04D1D7F8F83075
:1023C000DBB2C7F8F83007F58873A3F580733022C5
:1023D0001A7007F58873A3F2091393F900306F2B75
:1023E00006D1D7F8F830002B02D00123C7F8F4301B
:1023F00007F58873A3F2091393F90030782B0FD0F7
:1024000007F58873A3F2091393F90030582B07D00E
:1024100007F58873A3F2091393F90030622B32D1C8
:1024200007F58873A3F582731B685B6803F02003CC
:10243000002B03D1D7F8F830002B0CD007F58873A8
:10244000A3F5807307F58872A2F2091212785A7008
:102450000223C7F8F43007F58873A3F582731B686D
:102460005B6803F02003002B0DD007F58873A3F5FC
:10247000807393F9013043F020035AB207F5887353
:10248000A3F580735A7007F58873A3F582731B68F0
:102490005B6803F00803002B0ED0D7F80C21D7F8A7
:1024A000F4301344C7F80C3107F11003C7F8FC30BF
:1024B000D7F8F430C7F80031D7F834310A2B50D1AF
:1024C0000023C7F8083147E0D7F8F83000229846D3
:1024D0009146AF4B03FB09F2002303FB08F31344BF
:1024E000AB4AA8FB02452B441D46C7E92C45C7E96A
:1024F0002C45D7E92C014FF000024FF00003CA0829
:1025000000231346C7F8AC30D7F8AC309B00D7F89F
:10251000AC201344C7F8A830D7F8A8305B00D7F830
:10252000F820D31AC7F8A430D7F808310133C7F818
:102530000831D7F8A430DBB23033DAB2D7F808313B
:10254000C3F1820352B203F588733B4403F8F42CC1
:10255000D7F8AC30C7F8F830D7F8F830002BB3D143
:10256000ACE0D7F83431022B07D0D7F83431082B40
:1025700003D0D7F83431102B5BD1D7F83431013B7D
:10258000C7F8C030D7F83431102B07D0D7F8343122
:10259000082B01D1032302E0012300E00423C7F844
:1025A000BC300023C7F808313EE0D7F8F820D7F850
:1025B000C0301340774AD35C87F8EB3007F5887357
:1025C000A3F2091393F90030782B0FD007F5887325
:1025D000A3F2091393F90030692B07D007F588732C
:1025E000A3F2091393F90030752B05D197F8EB305E
:1025F00043F0200387F8EB30D7F808310133C7F8F0
:102600000831D7F80831C3F1820303F588733B44DE
:1026100097F8EB2003F8F42CD7F8F820D7F8BC3063
:1026200022FA03F3C7F8F830D7F8F830002BBCD102
:1026300044E00023C7F808313CE0D7F8F830D7F879
:102640003421B3FBF2F2D7F8341101FB02F29B1AEA
:10265000504AD35C87F8EA3007F58873A3F2091370
:1026600093F90030692B07D007F58873A3F209139B
:1026700093F90030752B05D197F8EA3043F0200329
:1026800087F8EA30D7F808310133C7F80831D7F8AE
:102690000831C3F1820303F588733B4497F8EA20BD
:1026A00003F8F42CD7F8F820D7F83431B2FBF3F361
:1026B000C7F8F830D7F8F830002BBED107F588738B
:1026C000A3F582731B68DB69002B00F01C8107F502
:1026D0008873A3F582731B689B69C7F8E43007F51C
:1026E0008873A3F582731B68DB69C7F8E0300023A9
:1026F000C7F8D830D7F80831C7F8D030D7F8083144
:10270000C3F18203C7F8CC30D7F8E030013BD7F8EB
:10271000E4201344C7F8E430E6E0D7F8E030002BBB
:1027200000F08580D7F8E4301B7887F8DF3097F920
:10273000DF302D2B00F0DE8097F9DF302A2B1FD100
:1027400007F58873A3F584731B681B68191D07F5CB
:102750008872A2F58472126811601B68C7F8D830BD
:10276000D7F8D830002BC0F2C780D7F8E430013B4F
:10277000C7F8E430D7F8E030013BC7F8E03043E079
:102780000023C7F8D8300123C7F8D43023E000BFB6
:10279000CDCCCCCC18E8010097F9DF30303B1A469D
:1027A000D7F8D43003FB02F2D7F8D8301344C7F877
:1027B000D830D7F8D42013469B0013445B00C7F8E9
:1027C000D430D7F8E430013BC7F8E430D7F8E03034
:1027D000013BC7F8E030D7F8E030002B14D0D7F831
:1027E000E4301B7887F8DF3097F9DF30002B0BD00F
:1027F00097F9DF300133874A134493F90030DBB295
:1028000003F00403002BC7D1D7F8E030002B75D0BC
:10281000D7F8E4301B7887F8DF30D7F8E430013B95
:10282000C7F8E430D7F8E030013BC7F8E030D7F81C
:10283000D830002B54D0D7F8D830D7F8D0209A42CF
:102840005ED9D7F8CC30C7F8C830D7F8D830D7F829
:10285000D020D31AC7F8C43018E0D7F8C830013BED
:1028600007F11C01D7F8C8200A4492F9002003F5AB
:1028700088733B4403F8F42CD7F8C430013BC7F805
:10288000C430D7F8C8300133C7F8C830D7F8C430DF
:10289000002BE2D1D7F8CC30013BC7F8CC30D7F8C9
:1028A000CC20D7F8D0301A44D7F8D830D31A03F553
:1028B00088733B4497F8DF2003F8F42CD7F80831ED
:1028C0000133C7F80831D7F8F0300133C7F8F030DA
:1028D000D7F8D830D7F8D020D31AC7F8D03003E0D3
:1028E000D7F8E030002B0DD0D7F8D030002B7FF494
:1028F00014AF08E000BF06E000BF04E000BF02E044
:1029000000BF00E000BFD7F80831C7F8A03007F5D6
:102910008873A3F582731B68DB68002B07DA07F561
:102920008873A3F582731B680122DA600DE007F556
:102930008873A3F582731B685B6823F0100207F5A8
:102940008873A3F582731B685A6007F58873A3F533
:1029500082731B68DB681A46D7F8F0301344D7F847
:102960000821934238BF1346C7F80831D7F80C2125
:10297000D7F808311344C7F80C3107F1140307F1F5
:10298000180207F58871A1F58270D7F80C1100685C
:10299000FEF724FAD7F80821D7F8A030D31AC7F8E1
:1029A000043107F58873A3F582731B685B6803F035
:1029B0001003002B07D0BB69D7F804211344C7F8D4
:1029C00004310023BB61B969D7F8A030C3F1820399
:1029D00007F11C0213447A6907F58870A0F5887026
:1029E0000492D7F8A02003920293D7F80431019300
:1029F000D7F800310093D7F8FC300A46D7F83011E9
:102A00000068FEF777F90346184607F58A77BD4652
:102A1000BDE8F0835025020080B58CB006AFF860A9
:102A2000B9603B601346FB7100237B6197F9073067
:102A30006E2B05D1B968F868FFF708FA0346DDE0A8
:102A400097F90730252B11D1002304930123039319
:102A5000FB1D029300230193002300930023002217
:102A6000396A3868FEF746F90346C7E097F9073038
:102A7000632B03D097F90730432B0AD197F907202E
:102A80003B6A00933B68B968F868FFF73DFA034674
:102A9000B4E097F90730732B0AD197F907203B6A06
:102AA00000933B68B968F868FFF780FA0346A5E031
:102AB00097F90730652B13D097F90730452B0FD0C6
:102AC00097F90730662B0BD097F90730462B07D0C4
:102AD00097F90730672B03D097F90730472B0AD1B6
:102AE00097F907203B6A00933B68B968F868FFF7DD
:102AF0002DF8034682E097F907306B2B0AD197F93E
:102B000007203B6A00933B68B968F868FFF780F8D4
:102B1000034673E097F90730702B0DD15823FB71F2
:102B2000FB6800221A75FB6828225A60FB6808229D
:102B30009A60FB680822DA6097F90730642B07D0A7
:102B400097F90730692B03D097F90730492B1CD12F
:102B5000FB685B6843F08002FB685A600A237B6174
:102B6000FB685B6823F00802FB685A6097F907303E
:102B7000692B03D097F90730492B06D1FB681B69F5
:102B8000002B02D0FB681B697B6197F90730782B1B
:102B900003D097F90730582B01D110237B6197F9A7
:102BA0000730752B03D097F90730552B08D1FB68F8
:102BB0001B69002B02D0FB681B6900E00A237B61C4
:102BC00097F907306F2B01D108237B6197F9073004
:102BD000622B01D102237B617B69012B0CD997F910
:102BE00007207B6901933B6A00933B68B968F868EA
:102BF000FFF726FA034601E04FF0FF331846183777
:102C0000BD4680BD80B59CB002AFF860B9607A6007
:102C10003B607B683B663B683B617B68002B00F058
:102C20008C8200237B617DE23B6EFB6502E0FB6DE5
:102C30000133FB65FB6D93F90030002B04D0FB6D75
:102C400093F90030252BF2D1FA6D3B6ED31AFB6459
:102C5000FB6C002B0ED007F10803FA68F96C386E94
:102C6000FEF706F80346002BC0F269827A69FB6C16
:102C700013447B61FB6D3B663B6E93F90030002B88
:102C800000F050823B6E01333B660023BB610BE0DA
:102C9000BA69BB6CA6495B1AA64951F823301343A5
:102CA000BB613B6E01333B663B6E1B7887F8673038
:102CB00097F96730002B09D097F9673019469C487F
:102CC0000AF048FAB864BB6C002BE1D13B6E93F973
:102CD00000302A2B12D13B691A1D3A611B68FB6137
:102CE000FB69002B06DAFB695B42FB61BB6943F0C1
:102CF0000403BB613B6E01333B6628E00023FB61AC
:102D00000DE0FA6913469B0013445B001A4697F9DD
:102D100067301344303BFB613B6E01333B663B6ED7
:102D20001B7887F8673097F96730002B0FD097F939
:102D300067300133804A134493F90030DBB203F06B
:102D40000403002B03D0FB69B3F5FA7FD9DBFB69E1
:102D5000B3F5FA7F00F3F5813B6E93F900302E2B2B
:102D600003D04FF0FF333B6243E03B6E01333B66E1
:102D70003B6E93F900302A2B0DD13B691A1D3A6145
:102D80001B683B623B6AB3F5FA7F00F3DC813B6E64
:102D900001333B662DE000233B620DE03A6A1346A7
:102DA0009B0013445B001A4697F967301344303B8D
:102DB0003B623B6E01333B663B6E1B7887F86730A6
:102DC00097F96730002B0FD097F9673001335A4AD3
:102DD000134493F90030DBB203F00403002B03D05B
:102DE0003B6AB3F5FA7FD9DB3B6AB3F5FA7F00F3B0
:102DF000AC813B6E93F900303A2B02D000237B620A
:102E000048E03B6E01333B663B6E93F900302A2B62
:102E100014D13B691A1D3A611B687B647B6C002BE3
:102E200002DA00237B6205E07B6C242B00F38F81A8
:102E30007B6C7B623B6E01333B662BE000237B6245
:102E40000DE07A6A13469B0013445B001A4697F91B
:102E500067301344303B7B623B6E01333B663B6E15
:102E60001B7887F8673097F96730002B0ED097F9F9
:102E700067300133304A134493F90030DBB203F07A
:102E80000403002B02D07B6A232BDADD7B6A242B20
:102E900000F35F8110237B631023BB6300233B633C
:102EA0000023FB623B6E1B7887F8673097F9673029
:102EB0005B2B24D10023BB653B6E01333B663B6E2D
:102EC000FB6205E03B6E01333B66BB6D0133BB65C6
:102ED0003B6E1B7887F8673097F96730002B03D07B
:102EE00097F967305D2BEDD197F96730002B00F033
:102EF00032813B6E01333B66BB6D3B639CE097F9CF
:102F000067307B2B40F098803B6E01333B663B6E15
:102F100093F900302A2B08D13B691A1D3A611B68CE
:102F20007B653B6E01333B662DE000237B6513E040
:102F300040E8010048E80100502502007A6D134680
:102F40009B0013445B001A4697F967301344303BEB
:102F50007B653B6E01333B663B6E1B7887F86730C1
:102F600097F96730002B0ED097F967300133844A08
:102F7000134493F90030DBB203F00403002B02D0BA
:102F80007B6D1F2BDAD97B6D202B00F2E6803B6E28
:102F900093F900302E2B40F0E2803B6E01333B660C
:102FA0003B6E93F900302A2B08D13B691A1D3A6118
:102FB0001B683B653B6E01333B6627E000233B65A6
:102FC0000DE03A6D13469B0013445B001A4697F9D7
:102FD00067301344303B3B653B6E01333B663B6ED1
:102FE0001B7887F8673097F96730002B0ED097F978
:102FF00067300133624A134493F90030DBB203F0C7
:103000000403002B02D03B6D1F2BDAD997F96730F0
:10301000002B00F0A6803B6E01333B663B6D202BFE
:1030200000F2A1807A6D3B6D13441F2B00F29D804E
:103030007B6D7B633B6DBB633B6E1B7887F86730B2
:1030400097F96730002B0ED097F9673019464D4835
:103050000AF080F80346002B05D03B6E01333B6637
:1030600097F9673000E0002387F8283097F9283077
:10307000002B17D03B6E1B7887F8673097F96730C5
:10308000002B0FD097F9283097F967209A4209D181
:1030900097F9283043F001035BB287F828303B6E84
:1030A00001333B663B6E1B7887F8673097F96730D2
:1030B000002B05D13B691A1D3A611B683B6631E064
:1030C00097F8673087F8433097F94330432B0FD197
:1030D0003B6E01333B663B6E1B7887F8673097F990
:1030E0006730002B43D097F8673087F8293002E02B
:1030F000002387F8293097F9432007F1100107F1E1
:10310000140007F108030093FB68FFF785FCF863E0
:10311000FB6B002B2DDB7A69FB6B13447B613B6EF1
:1031200001333B663B6E1B7887F8673097F9673051
:10313000002B7FF479AD7B691EE000BF1AE000BF71
:1031400018E000BF16E000BF14E000BF12E000BFAF
:1031500010E000BF0EE000BF0CE000BF0AE000BFBF
:1031600008E000BF06E000BF04E000BF02E000BFCF
:1031700000E000BF4FF0FF3318466837BD4680BD02
:103180005025020010E8010080B584B000AFF8605F
:10319000B9607A603B60FB68BA681A60FB687A685D
:1031A0005A60FB6800221A72FB683A68DA60FB68B2
:1031B0001B6818460AF0EAFA0346DAB2FB681A728C
:1031C000FB6818461037BD4680BD000080B582B050
:1031D00000AF786039607B681B68184619F0CCF83E
:1031E0003B68D3E9002319F031F902460B4610463B
:1031F00019464FF00002054B19F052FA02460B46F1
:10320000104619460837BD4680BD00BF00005E412C
:1032100098B500AF624C634B634A64492046FFF7A0
:10322000B3FF1034624B634A63492046FFF7ACFF9B
:103230001034624B624A63492046FFF7A5FF103401
:103240005B4B614A61492046FFF79EFF10345B4BA0
:103250005F4A60492046FFF797FF10345E4B5F4A94
:103260005F492046FFF790FF10345B4B5D4A5E4993
:103270002046FFF789FF10345C4B5D4A5D492046CC
:10328000FFF782FF1034594B5B4A5C492046FFF739
:103290007BFF10345A4B5B4A5B492046FFF774FFB3
:1032A0001034574B594A5A492046FFF76DFF1034E6
:1032B000584B594A59492046FFF766FF1034584B7E
:1032C000584A59492046FFF75FFF1034574B584A78
:1032D00058492046FFF758FF1034574B574A584972
:1032E0002046FFF751FF1034564B574A57492046A6
:1032F000FFF74AFF1034564B564A57492046FFF70E
:1033000043FF1034554B564A56492046FFF73CFFC1
:103310001034524B544A55492046FFF735FF1034BC
:10332000534B544A54492046FFF72EFF1034534B59
:10333000534A54492046FFF727FF1034524B534A53
:1033400053492046FFF720FF1034524B524A53494D
:103350002046FFF719FF1034514B524A524920467C
:10336000FFF712FF10344E4B504A51492046FFF7E9
:103370000BFF10344F4B504A50492046FFF704FFD3
:1033800010344F4B4F4A50492046FFF7FDFE04F1E1
:1033900010004E4B4E4A4F49FFF7F6FE00BF98BD56
:1033A000940800203D390000D0E8010008E9010040
:1033B000AD39000010E9010024E90100753A000070
:1033C00030E901004CE9010058E9010070E9010011
:1033D00074E9010094E90100013B000098E9010053
:1033E000E4E90100ECE901003CEA0100393C00009D
:1033F00040EA01008CEA010094EA0100E4EA0100DD
:10340000E93F0000E8EA01001CEB010024EB0100A9
:103410005CEB0100ADA20000A41D0200941D02009F
:10342000B5A50000E81D0200D81D0200F9A90000A2
:10343000281E0200141E02007142000060EB010011
:1034400094EB0100194300009CEB0100F8EB010034
:10345000E946000000EC01004CEC0100C948000006
:1034600054EC010070EC010078EC010094EC0100D8
:10347000B949000098EC0100E8EC0100294C00007B
:10348000F8EC010070ED01005D4D00007CED0100E5
:10349000BCED01008D4D0000CCED010014EE0100EB
:1034A000314F000024EE01005CEE01006CEE0100E3
:1034B000A8EE0100B1540000ACEE0100DCEE01000A
:1034C000A1550000E8EE010028EF0100B156000010
:1034D00038EF010070EF010080B500AFFFF798FEF4
:1034E00080BD80B483B000AF78607B6800221A7022
:1034F00000225A7000229A700022DA707B68002243
:103500001A7100225A717B6800229A710022DA71C6
:103510007B6818460C37BD4680BC704780B483B0CA
:1035200000AF786039603B681B681AB27B689A808C
:103530003B681B681B0C1AB27B68DA8000BF0C3733
:10354000BD4680BC7047000080B582B000AF786097
:103550007B681B68184618F00FFF02460B460F48A1
:1035600008F046FC7B681B6819467B68B3F9043099
:103570001BB21A467B68B3F906301BB2084808F044
:1035800037FC7B68B3F906301BB21946054808F0D2
:103590002FFC00BF0837BD4680BD00BF7CEF010097
:1035A000A0EF0100D4EF010080B483B000AF7860D9
:1035B0007B6800221A7000225A7000229A70002242
:1035C000DA707B6818460C37BD4680BC7047000037
:1035D00080B584B002AF78607B681B889BB21946C7
:1035E0007B681B889BB21A467B685B889BB2184637
:1035F0007B685B889BB200930346034808F0F8FBA6
:1036000000BF0837BD4680BDDCEF010080B483B049
:1036100000AF78607B6800221A7000225A70002286
:103620009A700022DA707B6818460C37BD4680BC61
:103630007047000080B584B002AF78607B681B885B
:103640009BB219467B681B889BB21A467B685B88D5
:103650009BB218467B685B889BB200930346034885
:1036600008F0C6FB00BF0837BD4680BD2CF0010046
:1036700080B483B000AF78600B46FB707B68FA784B
:103680001A7100BF0C37BD4680BC704780B483B050
:1036900000AF78607B681B7918460C37BD4680BC4C
:1036A0007047000080B582B000AF78607B681B680F
:1036B00019467B685A687B689B68034809F0A0FA42
:1036C00000BF0837BD4680BD88F0010080B483B0DC
:1036D00000AF78607B6800221A607B6818460C3760
:1036E000BD4680BC70470000F0B5B9B01EAF78662B
:1036F0007B6E1B683B667B6E1B78C3F30003DBB2FB
:103700009C467B6E1B78C3F34003DBB29E467B6E08
:103710001B78C3F38003DBB2FB657B6E1B78C3F3BE
:10372000C003DBB2BB657B6E1B78C3F30013DBB257
:103730007B657B6E1B78C3F34013DBB23B657B6E0E
:103740001B78C3F38013DBB2FB647B6E1B78C3F37F
:10375000C013DBB2BB647B6E5B78C3F30003DBB2E8
:103760007B647B6E5B78C3F34003DBB23B647B6EB0
:103770005B78C3F38003DBB2FB637B6E5B78C3F3E0
:10378000C003DBB2BB637B6E5B78C3F30013DBB2B9
:103790007B637B6E5B78C3F34013DBB23B637B6E72
:1037A0005B78C3F38013DBB2FB627B6E5B78C3F3A1
:1037B000C013DBB2BB627B6E9B78C3F30003DBB24A
:1037C0007B627B6E9B78C3F34003DBB23B627B6E14
:1037D0009B78C3F38003DBB2FB617B6E9B78C3F302
:1037E000C003DBB2BB617B6E9B78C3F30013DBB21B
:1037F0007B617B6E9B78C3F34013DBB23B617B6ED6
:103800009B78C3F38013DBB2FB607B6E9B78C3F3C2
:10381000C013DBB2BB607B6EDB78C3F30003DBB2AB
:103820007B607B6EDB78C3F34003DBB21E467B6EAE
:10383000DB78C3F38003DBB21D467B6EDB78C3F31A
:10384000C003DBB21C467B6EDB78C3F30013DBB234
:1038500018467B6EDB78C3F34013DBB219467B6EF0
:10386000DB78C3F38013DBB21A467B6EDB78C3F3DD
:10387000C013DBB21D931C921B911A9019941895DA
:1038800017967A681692BA681592FA6814923A698D
:1038900013927A691292BA691192FA6910923A6A8D
:1038A0000F927A6A0E92BA6A0D92FA6A0C923A6B89
:1038B0000B927A6B0A92BA6B0992FA6B08923A6C85
:1038C00007927A6C0692BA6C0592FA6C04923A6D81
:1038D00003927A6D0292BA6D0192FA6D009273466C
:1038E0006246396E034808F083FA00BF6C37BD4664
:1038F000F0BD00BFECF0010080B582B000AF786091
:1039000039607B681B68184618F036FD3B68D3E9C0
:10391000002318F09BFD02460B46104619464FF057
:103920000002054B18F0BCFE02460B461046194635
:103930000837BD4680BD00BF00005E4180B586B03F
:1039400002AFF860B9607A603B60134B1B68002BD4
:1039500014BF01230023DBB2002B0ED00E4B1B68DB
:1039600019680D4B1B685B6801930C4B0093C323D4
:103970000B4A0C4808F03CFA05E0084BC322084902
:10398000094808F035FAB86809F000FF03465BB251
:1039900018461037BD4680BD4C000020780002005C
:1039A00040F301006CF30100D0F3010080B586B054
:1039B00000AFF860B9607A603B6000233B6107F1BB
:1039C00010031A462449B86809F010FA0346FB753B
:1039D00097F91730002B20DC204808F009FA002363
:1039E0003B6113E01E4B1A683B6913441B78BB759F
:1039F0003B69BA7D19461B4808F0FAF9BB7D1946A8
:103A0000194808F0F5F93B6901333B613B69802BAC
:103A1000E8D9164808F0ECF918E0114B1A683B6930
:103A200013441B78BB750D4808F0E2F93B69BA7D79
:103A300019460C4808F0DCF9BB7D19460A4808F025
:103A4000D7F9BB7D19460A4808F0D2F97B685BB20A
:103A500018461837BD4680BD0CF4010010F4010073
:103A60004C00002024F4010038F4010040F401006F
:103A700044F4010080B588B000AFF860B9607A60A6
:103A80003B600023BB6100237B6107F1140307F156
:103A900018021649B86809F0A9F90346FB7797F9A7
:103AA0001F30012B09DC97F91F301A46B9681048FE
:103AB00008F09EF94FF0FF3313E07B69D9B20D4B4C
:103AC0001A68BB6913440A461A707B6919460A488A
:103AD00008F08EF9BB691946084808F089F97B6837
:103AE0005BB218462037BD4680BD00BF50F40100D0
:103AF00058F401004C000020B4F40100D8F4010097
:103B000080B58CB002AFF860B9607A603B6000238A
:103B10003B620023FB610023BB6100237B61404BC0
:103B20001B68002B0CBF01230023DBB2002B05D048
:103B30003C4808F05DF97B685BB26CE007F11C0162
:103B400007F1200207F11403019307F11803009312
:103B50000B463549B86809F049F9034687F827301C
:103B600097F92730032B1BDD3A6A2D4B1B68DA626D
:103B7000FA692B4B1B681A63BA69294B1B685A6395
:103B80007A69274B1B689A63396AFA69B8697B6955
:103B900000930346254808F02BF97B685BB23AE0B6
:103BA00097F92730002B1BDD3A6A1D4B1B68DA6240
:103BB0003A6A1B4B1B681A633A6A194B1B685A63B3
:103BC0003A6A174B1B689A63396A3A6A386A3B6AE1
:103BD00000930346154808F00BF97B685BB21AE0C6
:103BE0000F4B1B68DB6A3B620D4B1B681B6BFB6159
:103BF0000B4B1B685B6BBB61094B1B689B6B7B6151
:103C0000396AFA69B8697B6900930346084808F085
:103C1000EFF87B685BB218462837BD4680BD00BF11
:103C20004C000020E4F4010030F5010040F50100F3
:103C300068F50100000000002DE9F043A1B00EAFCF
:103C4000F860B9607A603B604FF000024FF000030B
:103C5000C7E90A234FF000024FF00003C7E9082329
:103C60004FF000024FF00003C7E906234FF00002B7
:103C70004FF00003C7E9042300237B6400233B6467
:103C80000023FB630023BB63874B1B68002B0CBF27
:103C900001230023DBB2002B05D0844808F0A8F8EC
:103CA0007B685BB28DE107F1200107F1280207F183
:103CB0001003019307F1180300930B467C49B86881
:103CC00009F094F8034687F83730D7E90A014FF036
:103CD0006042784B18F0BAFB02460B461046194674
:103CE0004FF00002744B18F0B1FB02460B46104631
:103CF00019466BA3D3E9002318F0D2FC02460B4609
:103D00001046194618F07AFE03467B64D7E908018D
:103D10004FF06042674B18F099FB02460B46104685
:103D200019464FF00002644B18F090FB02460B4618
:103D3000104619465AA3D3E9002318F0B1FC0246F5
:103D40000B461046194618F059FE03463B64D7E966
:103D500006014FF06042574B18F078FB02460B46C5
:103D6000104619464FF00002534B18F06FFB024605
:103D70000B46104619464AA3D3E9002318F090FCDD
:103D800002460B461046194618F038FE0346FB6300
:103D9000D7E904014FF06042464B18F057FB02464A
:103DA0000B46104619464FF00002434B18F04EFBED
:103DB00002460B461046194639A3D3E9002318F0F2
:103DC0006FFC02460B461046194618F017FE0346D4
:103DD000BB6397F93730032B2DDD7A6C324B1B68B0
:103DE000DA623A6C304B1B681A63FA6B2E4B1B6815
:103DF0005A63BA6B2C4B1B689A63D7E90A89D7E9D7
:103E00000823D7E90601D7E90445BE6B0C96CDE936
:103E10000A45FC6B0894CDE90601396C0491CDE9A3
:103E200002237B6C009342464B46244807F0E0FF98
:103E30007B685BB2C5E097F93730002B40DD7A6CC8
:103E4000194B1B68DA627A6C174B1B681A637A6C21
:103E5000154B1B685A637A6C134B1B689A63D7E93E
:103E60000A89D7E90823D7E90601D7E90445BE6BDB
:103E70000C96CDE90A45FC6B0894CDE90601396C36
:103E80000491CDE902237B6C009342464B460B48DC
:103E900007F0AEFF7B685BB293E000BFAFF300803A
:103EA000FCA9F1D24D6210404C00002098F50100B1
:103EB000E4F50100FFFF6F4100004E40F4F5010002
:103EC000454B1B68DB6A7B64434B1B681B6B3B6485
:103ED000414B1B685B6BFB633F4B1B689B6BBB637E
:103EE000786C18F039FA3AA3D3E9002318F0AEFA47
:103EF00002460B46104619464FF06242374B18F007
:103F0000CFFB02460B46C7E90A23386C18F024FAA7
:103F10002FA3D3E9002318F099FA02460B46104666
:103F200019464FF062422D4B18F0BAFB02460B4681
:103F3000C7E90823F86B18F00FFA25A3D3E900238B
:103F400018F084FA02460B46104619464FF06242BA
:103F5000224B18F0A5FB02460B46C7E90623B86BB7
:103F600018F0FAF91AA3D3E9002318F06FFA024601
:103F70000B46104619464FF06242184B18F090FB62
:103F800002460B46C7E90423D7E90A89D7E9082383
:103F9000D7E90601D7E90445BE6B0C96CDE90A4581
:103FA000FC6B0894CDE90601396C0491CDE902233C
:103FB0007B6C009342464B46094807F019FF7B682B
:103FC0005BB218464C37BD46BDE8F083AFF30080C6
:103FD000FCA9F1D24D6210404C000020FFFFCD4102
:103FE00040F6010000000000F0B5A5B00AAFF8608F
:103FF000B9607A603B6000237B66994B1B68002B9D
:104000000CBF01230023DBB2002B05D0954807F03D
:10401000EFFE7B685BB218E17B6E01337B667B6EE3
:10402000DBB243F00103DAB28D4B1B68C8331A7060
:1040300007F128031846FFF754FA07F12003184642
:10404000FFF74FFA07F118031846FFF74AFA07F18E
:1040500010031846FFF745FA814B1B68DB6BBB6208
:104060007F4B1B681B6C3B6307F1300207F1280391
:1040700011461846FFF752FA794B1B685B6C3B629E
:10408000774B1B689B6C7B6307F1340207F12003BD
:1040900011461846FFF742FA714B1B68DB6CBB6197
:1040A0006F4B1B681B6DBB6307F1380207F11803E8
:1040B00011461846FFF732FA694B1B685B6D3B618E
:1040C000674B1B689B6DFB6307F13C0207F1100314
:1040D00011461846FFF722FABB6A184618F04CF949
:1040E0005DA3D3E9002318F0B1F902460B4614464C
:1040F0001D46B7F92E30184618F03EF94FF0000271
:10410000594B18F0A3F902460B462046294618F0F1
:10411000C7FA02460B46C7E916233B6A184618F051
:104120002BF94DA3D3E9002318F090F902460B4672
:1041300014461D46B7F92630184618F01DF94FF001
:104140000002494B18F082F902460B4620462946E8
:1041500018F0A6FA02460B46C7E91423BB691846B5
:1041600018F00AF93CA3D3E9002318F06FF90246CE
:104170000B4614461D46B7F91E30184618F0FCF8D9
:104180004FF00002384B18F061F902460B4620460A
:10419000294618F085FA02460B46C7E912233B6907
:1041A000184618F0E9F82CA3D3E9002318F04EF9CB
:1041B00002460B4614461D46B7F91630184618F04D
:1041C000DBF84FF00002284B18F040F902460B468E
:1041D0002046294618F064FA02460B46C7E9102328
:1041E000B7F92E301E46BC6A3D6AB9693869D7E90D
:1041F0001023CDE90823D7E91223CDE90623D7E917
:104200001423CDE90423D7E91623CDE90223019035
:1042100000912B4622463146144807F0E9FD07F18C
:1042200028031846FFF790F907F120031846FFF717
:104230008BF907F118031846FFF786F907F1100309
:104240001846FFF781F97B685BB218466C37BD46AC
:10425000F0BD00BFAFF30080FCA9F1D24D62104069
:104260004C00002094F6010000006041E0F60100DF
:1042700080B58AB000AFF860B9607A603B60002317
:104280007B6200233B627B6A01337B627B6ADBB229
:10429000402B21D90023FB610123BB61194B1B6813
:1042A0006C3300221A707B6ADAB2164B1B689A666E
:1042B000144B1B689B6E7B61124B1B686C33012295
:1042C0001A707B6ADBB27A6992B219460E4807F01F
:1042D0008FFDC820FCF7B0FB7B6AB3F57A7FD2D99B
:1042E0000A4B1B685B68184608F0B0FA396A084840
:1042F00007F07EFD00BF7B685BB218462837BD46DD
:1043000080BD00BF4C00002054F701009400002045
:104310006CF701000000000080B5A2B002AFF860A9
:10432000B9607A603B600023FB670023BB67002312
:104330007B6700233B670023FB660023BB664FF0CF
:104340000002B94BC7E906234FF00002B64BC7E99C
:10435000042307F1100307F11802B449B86808F004
:1043600045FDD7E906014FF000024FF0000318F0B9
:10437000DFFA0346002B05D04FF000024FF0000398
:10438000C7E90623D7E906014FF00002A64B18F053
:10439000EDFA0346002B04D04FF00002A24BC7E910
:1043A0000623D7E9040198A3D3E9002318F0C0FA43
:1043B0000346002B04D094A3D3E90023C7E90423C8
:1043C000D7E9040192A3D3E9002318F0CFFA0346FA
:1043D000002B04D08EA3D3E90023C7E90423D7E937
:1043E0000601D7E90423CDE9002302460B46904895
:1043F00007F0FEFCFB6F0133FB67BA6F8D4B1B6848
:10440000DA627A6F8B4B1B681A633A6F894B1B68B1
:104410005A63FA6E874B1B689A63864B1B68DB6A8C
:104420007B66844B1B681B6B3B66824B1B685B6B1C
:10443000FB65804B1B689B6BBB65BB6D0093FB6D85
:104440003A6E796E7C4807F0D3FCF96F7B4BA3FB87
:1044500001235A0913461B019B1A9B00CA1A1046D6
:1044600017F07AFF4FF00002754B17F0EFFF02468E
:104470000B46C7E914234FF00002724BD7E9140131
:1044800018F00EF902460B461046194662A3D3E90E
:10449000002317F0DBFF02460B46C7E912234FF05B
:1044A0000002694BD7E9140117F01AFE02460B46C9
:1044B000104619464FF00002624B18F0F1F8024620
:1044C0000B461046194654A3D3E9002317F0BEFF4C
:1044D00002460B46C7E910234FF000025B4BD7E9B9
:1044E000140117F0FDFD02460B46104619464FF029
:1044F0000002544B18F0D4F802460B4610461946F9
:1045000045A3D3E9002317F0A1FF02460B46C7E9F4
:104510000E23D7E9120118F01BFD4FF00002424BA9
:1045200017F0DEFD02460B46104619464FF000021A
:104530004FF0804318F0B4F802460B461046194677
:10454000D7E9062317F082FF02460B46C7E90C2382
:10455000D7E9100118F0FCFC4FF00002324B17F0C5
:10456000BFFD02460B46104619464FF000024FF0C1
:10457000804318F095F802460B4610461946D7E9D5
:10458000062317F063FF02460B46C7E90A23D7E963
:104590000E0118F0DDFC4FF00002234B17F0A0FDD8
:1045A00002460B46104619464FF000024FF080437A
:1045B00018F076F802460B4610461946D7E906234E
:1045C00017F044FF02460B46C7E9082314A3D3E9BA
:1045D0000023D7E90C0117F039FF02460B461046BD
:1045E000194618F00BFA0346BB670DA3D3E9002365
:1045F000D7E90A0117F02AFF02460B461046194672
:1046000026E000BFAFF30080FCA9F1D24D62503F1D
:10461000000000000088C3401F85EB51B81E194000
:1046200000000000E0FFEF400000F03F8CF70100C9
:1046300094F701004C000020BCF7010089888888AD
:10464000000018400080764000005E4000006E4090
:1046500018F0D4F903467B671FA3D3E90023D7E9F9
:10466000080117F0F3FE02460B461046194618F0F3
:10467000C5F903463B6718A3D3E90023D7E908012E
:1046800017F0E4FE02460B461046194618F0B6F93C
:104690000346FB66FB6FB3F57A7F04D9B96E104809
:1046A00007F0A6FB11E0D7E904014FF000020D4B23
:1046B00017F0CCFE02460B461046194618F09EF93C
:1046C00003461846FCF7B8F994E67B685BB21846D7
:1046D0008037BD4680BD00BF00000000E0FFEF4016
:1046E000D0F7010000408F40B0B592B006AFF8603F
:1046F000B9607A603B600023FB620023BB62002349
:104700007B6200233B62674B1B68002B0CBF0123BD
:104710000023DBB2002B05D0634807F069FB7B6800
:104720005BB2BBE04FF000024FF00003C7E9062385
:104730004FF000024FF00003C7E9042307F1100314
:1047400007F118025949B86808F050FBD7E906018B
:104750004FF000024FF0000318F0EAF80346002B78
:1047600005D04FF000024FF00003C7E90623D7E958
:1047700006014FF000024E4B18F0F8F80346002BEC
:1047800004D04FF000024A4BC7E90623D7E90401E1
:104790004FF000024FF0000318F0CAF80346002B58
:1047A00005D04FF000024FF00003C7E90423D7E91A
:1047B00004014FF000023E4B18F0D8F80346002BDE
:1047C00004D04FF000023A4BC7E90423D7E90601B1
:1047D0004FF06042374B17F039FE02460B46104649
:1047E000194618F00BF90346FB62D7E904014FF0B4
:1047F0006042304B17F02AFE02460B46104619461F
:1048000018F0FCF803467B62FA6A264B1B68DA62F2
:10481000244B1B68284A1A637A6A224B1B685A6326
:10482000204B1B68244A9A63234B00937B6A224ADD
:10483000F96A224807F0DCFA1A4B1B68DB6AFB6254
:10484000184B1B681B6BBB62164B1B685B6B7B6258
:10485000144B1B689B6B3B62D7E906014FF00002CB
:10486000174B17F0F3FD02460B4614461D46D7E9D9
:1048700004014FF00002124B17F0E8FD02460B4610
:10488000CDE90423CDE902453B6A00937B6ABA6A0D
:10489000F96A0C4807F0ACFA7B685BB2184630370F
:1048A000BD46B0BD4C000020F4F701008CF70100BC
:1048B0000000F03FFFFF6941FFFFCF003CF801001F
:1048C0000000594064F8010080B58EB000AFF86078
:1048D000B9607A603B6007F120031022002118467E
:1048E00008F0E8FB2A4BBB624FF000024FF00003D8
:1048F000C7E9082300237B6390228C21254807F019
:1049000077FABB68013304222349184608F08AFC71
:104910000346002B0FD1214B1B685522C3F88C2076
:104920001F4B1B685B68184607F090FF796B1D48AA
:1049300007F05EFA00BF00237B61C323BB61002345
:10494000FB61164B1B68002B14BF01230023DBB255
:10495000002B07D0114B1B681B687B610F4B1B683A
:104960005B68FB610C21104807F042FA07F1140361
:104970001846FEF797FE0D4807F03AFA0C4807F084
:1049800037FA7B685BB218463837BD4680BD00BF3A
:1049900040420F00A0F80100B8F801004C000020D0
:1049A00094000020D0F70100C0F80100ECF80100ED
:1049B000F0F801000000000080B59AB002AFF86086
:1049C000B9607A603B600023FB610023BB61002378
:1049D0007B6100233B618A4B1B68002B0CBF0123CA
:1049E0000023DBB2002B05D0864807F001FA7B6874
:1049F0005BB2FCE007F1180107F11C0207F110039C
:104A0000019307F1140300930B467F49B86808F03F
:104A1000EDF9034687F85F3097F95F30032B21DD0E
:104A2000FB69DAB2764B1B6883F87020BB69DAB297
:104A3000734B1B6883F871207B69DAB2704B1B687B
:104A400083F872203B69DAB26D4B1B6883F87320E0
:104A5000F969BA6978693B69009303466B4807F0C6
:104A6000C7F924E097F95F30002B20DDFB69DAB24B
:104A7000634B1B6883F87020FB69DAB2604B1B68DC
:104A800083F87120FB69DAB25D4B1B6883F87220F2
:104A9000FB69DAB25A4B1B6883F87320F969FA692B
:104AA000F869FB6900930346584807F0A1F9544B95
:104AB0001B6893F87030FB61514B1B6893F87130A1
:104AC000BB614F4B1B6893F872307B614C4B1B688A
:104AD00093F873303B61F969BA6978693B6900936F
:104AE00003464B4807F084F943A3D3E90023C7E901
:104AF0001423FB690133FB64BB690133BB647B692D
:104B000001337B643B6901333B64F86C17F024FC90
:104B100002460B46D7E9140117F0C2FD02460B46C8
:104B2000104619464FF000023A4B17F0B9FD024605
:104B30000B46C7E90E23B86C17F00EFC02460B4675
:104B4000D7E9140117F0ACFD02460B461046194692
:104B50004FF000022F4B17F0A3FD02460B46C7E9AA
:104B60000C23786C17F0F8FB02460B46D7E91401CA
:104B700017F096FD02460B46104619464FF000020C
:104B8000244B17F08DFD02460B46C7E90A23386C0B
:104B900017F0E2FB02460B46D7E9140117F080FD3F
:104BA00002460B46104619464FF00002194B17F00B
:104BB00077FD02460B46C7E90823D7E90E23F96CB7
:104BC000154807F015F9D7E90C23B96C134807F01D
:104BD0000FF9D7E90A23796C114807F009F9D7E9E9
:104BE0000823396C0F4807F003F97B685BB218465D
:104BF0006037BD4680BD00BF00000000965198415F
:104C00004C0000200CF901005CF901006CF9010076
:104C1000A0F9010000003040D8F9010024FA010099
:104C200070FA0100C0FA010080B58EB002AFF860E2
:104C3000B9607A603B6007F128031846FEF7B4FCC0
:104C400007F124031846FEF7E1FC00233B62002332
:104C5000FB613A4B1B68002B0CBF01230023DBB226
:104C6000002B05D0364807F0C3F87B685BB260E0E4
:104C700007F11C0107F1200207F11403019307F16A
:104C8000180300930B462F49B86808F0AFF80346A5
:104C900087F82F3097F92F30012B14DD3B6A9BB238
:104CA0003B85FB699BB27B85274807F0A1F807F19C
:104CB00028031846FEF78CFC244807F099F81F4B90
:104CC0001B68BA6A5A6297F92F30032B14DDBB694F
:104CD0009BB2BB847B699BB2FB841D4807F088F8BC
:104CE00007F124031846FEF7A5FC184807F080F8E2
:104CF000124B1B687A6A9A62104B1B685B6ABB6234
:104D00000E4B1B689B6A7B62124807F071F807F133
:104D100028031846FEF75CFC0F4807F069F807F116
:104D200024031846FEF786FC084807F061F87B6804
:104D30005BB218463037BD4680BD00BF4C00002036
:104D400010FB01005CF9010060FB0100ECF80100C0
:104D500084FB0100ACFB0100CCFB010080B584B0FA
:104D600000AFF860B9607A603B60064807F040F831
:104D7000054807F03DF87B685BB218461037BD4622
:104D800080BD00BFD0FB010040F4010080B58CB0B5
:104D900002AFF860B9607A603B6000233B62002399
:104DA00087F8273007F1180107F1200207F11703F0
:104DB00000930B465249B86808F018F8034687F884
:104DC000263097F92630032B57DD97F91730592BEA
:104DD0000FD097F91730792B0BD097F91730542B48
:104DE00007D097F91730742B03D097F91730312B70
:104DF00002D1012387F82730396A97F82730002B32
:104E000001D0592300E04E231A463E4806F0F0FF39
:104E10003B6A032B26D801A252F823F02D4E000046
:104E20003B4E0000494E0000574E000097F82730D7
:104E300019463548FEF71CFC19E097F8273019464B
:104E40003248FEF715FC12E097F827301946304833
:104E5000FEF70EFC0BE097F8273019462D48FEF7B9
:104E600007FC04E03B6A19462B4806F0C1FFB8680E
:104E700008F08CFC03465BB23EE097F926301946F9
:104E8000264806F0B5FF2048FEF700FC0346002B3D
:104E900001D0592300E04E231946214806F0A8FF0F
:104EA0001A48FEF7F3FB0346002B01D0592300E01C
:104EB0004E2319461B4806F09BFF1548FEF7E6FBFC
:104EC0000346002B01D0592300E04E231946164813
:104ED00006F08EFF0F48FEF7D9FB0346002B01D0EA
:104EE000592300E04E231946104806F081FFB868A8
:104EF00008F04CFC03465BB218462837BD4680BD1F
:104F0000F8FB010008FC0100B01A0020CC1A0020B8
:104F1000E81A0020041B00203CFC010074FC010086
:104F2000C4FC0100F4FC010024FD010054FD01005B
:104F300080B5A0B010AFF860B9607A603B6007F14F
:104F400028031846FEF7C2FB002387F83F300023F2
:104F500087F83E30002387F83D30002387F83C3047
:104F6000002387F83B30002387F83A30002387F886
:104F70003930002387F83830002387F83730002392
:104F800087F83630002387F83530002387F834302F
:104F9000002387F83330002387F83230002387F866
:104FA0003130002387F83030002387F82F30074B4B
:104FB0001B68002B0CBF01230023DBB2002B09D0A0
:104FC000034806F015FF7B685BB269E24C000020E5
:104FD00084FD010007F1260107F1270207F11703FD
:104FE0000E9307F118030D9307F119030C9307F1C2
:104FF0001A030B9307F11B030A9307F11C03099390
:1050000007F11D03089307F11E03079307F11F0320
:10501000069307F12003059307F12103049307F199
:105020002203039307F12303029307F1240301935F
:1050300007F1250300930B46B149B86807F0D6FE87
:10504000034687F82E3097F92E30002B40F3178255
:1050500097F92730592B0FD097F92730792B0BD0A0
:1050600097F92730542B07D097F92730742B03D0AA
:1050700097F92730312B02D1012387F83F3097F978
:105080002630592B0FD097F92630792B0BD097F972
:105090002630542B07D097F92630742B03D097F97C
:1050A0002630312B02D1012387F83E3097F9253085
:1050B000592B0FD097F92530792B0BD097F9253044
:1050C000542B07D097F92530742B03D097F925304E
:1050D000312B02D1012387F83D3097F92430592B29
:1050E0000FD097F92430792B0BD097F92430542B1B
:1050F00007D097F92430742B03D097F92430312B43
:1051000002D1012387F83C3097F92330592B0FD077
:1051100097F92330792B0BD097F92330542B07D0F4
:1051200097F92330742B03D097F92330312B02D118
:10513000012387F83B3097F92230592B0FD097F98C
:105140002230792B0BD097F92230542B07D097F9C6
:105150002230742B03D097F92230312B02D1012356
:1051600087F83A3097F92130592B0FD097F9213031
:10517000792B0BD097F92130542B07D097F9213098
:10518000742B03D097F92130312B02D1012387F8FA
:10519000393097F92030592B0FD097F92030792BDF
:1051A0000BD097F92030542B07D097F92030742B6F
:1051B00003D097F92030312B02D1012387F8383002
:1051C00097F91F30592B0FD097F91F30792B0BD03F
:1051D00097F91F30542B07D097F91F30742B03D049
:1051E00097F91F30312B02D1012387F8373097F917
:1051F0001E30592B0FD097F91E30792B0BD097F911
:105200001E30542B07D097F91E30742B03D097F91A
:105210001E30312B02D1012387F8363097F91D302B
:10522000592B0FD097F91D30792B0BD097F91D30E2
:10523000542B07D097F91D30742B03D097F91D30EC
:10524000312B02D1012387F8353097F91C30592BC7
:105250000FD097F91C30792B0BD097F91C30542BB9
:1052600007D097F91C30742B03D097F91C30312BE1
:1052700002D1012387F8343097F91B30592B0FD016
:1052800097F91B30792B0BD097F91B30542B07D093
:1052900097F91B30742B03D097F91B30312B02D1B7
:1052A000012387F8333097F91A30592B0FD097F92B
:1052B0001A30792B0BD097F91A30542B07D097F965
:1052C0001A30742B03D097F91A30312B02D10123F5
:1052D00087F8323097F91930592B13D097F91930D4
:1052E000792B0FD097F91930542B0BD097F919302F
:1052F000742B07D097F91930312B06D102E000BF8B
:10530000C0FD0100012387F8313097F91830592B7F
:105310000FD097F91830792B0BD097F91830542B00
:1053200007D097F91830742B03D097F91830312B28
:1053300002D1012387F8303097F91730592B0FD05D
:1053400097F91730792B0BD097F91730542B07D0DA
:1053500097F91730742B03D097F91730312B02D1FE
:10536000012387F82F3097F8293097F83F2062F310
:10537000451387F8293097F8293097F83E2062F3D3
:10538000861387F8293097F8293097F83D2062F383
:10539000C71387F8293097F82B3097F83C2062F331
:1053A000861387F82B3097F82B3097F83B2062F361
:1053B000C71387F82B3097F82A3097F83A2062F312
:1053C000000387F82A3097F82A3097F8392062F3DB
:1053D000410387F82A3097F82A3097F8382062F38B
:1053E000820387F82A3097F82A3097F8372062F33B
:1053F000C30387F82A3097F82A3097F8362062F3EB
:10540000041387F82A3097F82A3097F8352062F38A
:10541000861387F82A3097F82B3097F8342062F3F8
:10542000000387F82B3097F82B3097F8332062F37E
:10543000410387F82B3097F82B3097F8322062F32E
:10544000820387F82B3097F82B3097F8312062F3DE
:10545000C30387F82B3097F82B3097F8302062F38E
:10546000041387F82B3097F82B3097F82F2062F32E
:10547000451387F82B300C4B1B68BA6A1A620A4B2B
:105480001B681B6ABB62094806F0B2FC07F12803DF
:105490001846FEF729F9B86808F078F903465BB2B8
:1054A00018464037BD4680BD4C00002004FE010078
:1054B00080B588B000AFF860B9607A603B6007F1F2
:1054C00018031846FEF702F9304B1B68002B0CBF7F
:1054D00001230023DBB2002B05D02D4806F088FC09
:1054E0007B685BB24EE00023FB7707F117031A4697
:1054F0002849B86807F07AFC0346BB7797F91E3055
:10550000002B2EDD97F91730592B0FD097F9173054
:10551000792B0BD097F91730542B07D097F9173008
:10552000742B03D097F91730312B01D10123FB776E
:10553000164B1B681B6ABB61FB7EFA7F62F3C303D9
:10554000FB76124B1B68BA691A62FB7F002B01D0F5
:10555000312300E0302397F9172019460E4806F052
:1055600047FC0A4B1B681B6ABB61FB7EC3F3C0038D
:10557000DBB21946094806F03BFCB86808F006F9AA
:1055800003465BB218462037BD4680BD4C00002064
:1055900030FE010060FE010064FE010080FE01009B
:1055A00080B588B000AFF860B9607A603B6007F101
:1055B00018031846FEF78AF8384B1B68002B0CBFFF
:1055C00001230023DBB2002B05D0354806F010FC88
:1055D0007B685BB25DE00023FB7707F117031A4697
:1055E0003049B86807F002FC0346BB7797F91E30D4
:1055F000002B3DDD97F91730592B0FD097F9173055
:10560000792B0BD097F91730542B07D097F9173017
:10561000742B03D097F91730312B01D10123FB777D
:105620001E4B1B681B6ABB61FB7F002B08D0FB7EF7
:1056300023F00203FB76FB7E43F00403FB7607E0D6
:10564000FB7E43F00203FB76FB7E23F00403FB7634
:10565000124B1B68BA691A62FB7F002B01D0312301
:1056600000E0302397F9172019460F4806F0C0FBD9
:105670000A4B1B681B6ABB61FB7EC3F38003DBB272
:1056800019460A4806F0B4FBB86808F07FF80346EC
:105690005BB218462037BD4680BD00BF4C000020DD
:1056A000A4FE010060FE0100D8FE0100F4FE01002E
:1056B00080B586B000AFF860B9607A603B600023C7
:1056C0003B611B4B1B68002B0CBF01230023DBB28B
:1056D000002B05D0174806F08BFB7B685BB222E0FD
:1056E00007F110031A461449B86807F07FFB034618
:1056F000FB7597F91730002B09DD3B693A691946AC
:105700000E4806F075FB3A69094B1B689A61084B15
:105710001B689B693B613B693A691946084806F07A
:1057200067FB7B685BB218461837BD4680BD00BF7B
:105730004C00002018FF010064FF010068FF010019
:1057400098FF010080B485B000AFF860B9607A605E
:105750003B60FB68BA681A60FB687A685A60FB684D
:105760003A689A60FB6818461437BD4680BC70479B
:1057700098B500AF1C4C1D4B1D4A41F2010120465B
:10578000FFF7E0FF0C34194B1A4A01212046FFF7BE
:10579000D9FF0C34184B194A42F202012046FFF798
:1057A000D1FF0C34164B174A42F203012046FFF793
:1057B000C9FF0C34144B154A42F204012046FFF78E
:1057C000C1FF0C34124B134A42F205012046FFF789
:1057D000B9FF04F10C00104B104A42F20601FFF72A
:1057E000B1FF00BF98BD00BF541A0020695E0000E1
:1057F000E0000200F8000200E55E00001C0102006B
:10580000855F000034010200516000004C0102007D
:105810003162000070010200F16400009401020096
:1058200080B500AFFFF7A4FF80BD000080B582B057
:1058300000AF786039607B681B68184616F09CFDE5
:105840003B68D3E9002316F001FE02460B461046E2
:1058500019464FF00002054B16F022FF02460B4698
:10586000104619460837BD4680BD00BF00005E41A6
:1058700080B584B000AF7860396011A3D3E900230C
:10588000C7E9022307F1080319463868FFF7CEFF7E
:105890007B68D3E9002316F0D9FD02460B4610467B
:1058A00019467B68D3E9022316F01AFC02460B4620
:1058B000104619461037BD4680BD00BFAFF30080CB
:1058C000FCA9F1D24D62104080B582B000AF786083
:1058D0007B68043319460548FFF7CAFF02460B46AA
:1058E000104619460837BD4680BD00BFE05D002068
:1058F00080B582B000AF78607B68083319460548F0
:10590000FFF7B6FF02460B46104619460837BD465C
:1059100080BD00BFF05D002080B582B000AF786030
:105920007B680C3319460548FFF7A2FF02460B4679
:10593000104619460837BD4680BD00BF005E0020F6
:1059400080B582B000AF78607B6810331946054897
:10595000FFF78EFF02460B46104619460837BD4634
:1059600080BD00BF105E002080B582B000AF7860BF
:105970007B68143319460548FFF77AFF02460B4649
:10598000104619460837BD4680BD00BF205E002086
:1059900080B582B000AF78607B681833194605483F
:1059A000FFF766FF02460B46104619460837BD460C
:1059B00080BD00BF305E002080B582B000AF78604F
:1059C0007B681C3319460548FFF752FF02460B4619
:1059D000104619460837BD4680BD00BF405E002016
:1059E00080B582B000AF78607B68203319460548E7
:1059F000FFF73EFF02460B46104619460837BD46E4
:105A000080BD00BF505E002080B582B000AF7860DE
:105A10007B68243319460548FFF72AFF02460B46E8
:105A2000104619460837BD4680BD00BF605E0020A5
:105A300080B582B000AF78607B682833194605488E
:105A4000FFF716FF02460B46104619460837BD46BB
:105A500080BD00BF705E002080B582B000AF78606E
:105A60007B682C3319460548FFF702FF02460B46B8
:105A7000104619460837BD4680BD00BF805E002035
:105A800080B582B000AF78607B6830331946054836
:105A9000FFF7EEFE02460B46104619460837BD4694
:105AA00080BD00BF905E002080B582B000AF7860FE
:105AB0007B68343319460548FFF7DAFE02460B4689
:105AC000104619460837BD4680BD00BFA05E0020C5
:105AD00080B582B000AF78607B68383319460548DE
