:020000042000DA
:1000000000000120910100207F03002081030020D7
:1000100083030020850300208703002000000000E8
:100020000000000000000000000000008903002024
:100030008B030020000000008D0300208F030020B0
:1000400091030020930300209503002097030020D4
:10005000990300209B0300209D0300209F030020A4
:10006000A1030020A3030020A5030020A703002074
:10007000A9030020AB030020AD030020AF03002044
:10008000B1030020B3030020B50300208105002048
:10009000B9030020BB030020BD030020BF030020E4
:1000A000C1030020C3030020C5030020F10B002082
:1000B000E90C0020CB030020CD030020CF0300205B
:1000C000D1030020D3030020D5030020D703002054
:1000D000D9030020DB030020DD030020DF03002024
:1000E000E1030020E3030020E5030020E7030020F4
:1000F000E9030020EB030020ED030020EF030020C4
:10010000F1030020F3030020F5030020F703002093
:10011000F9030020FB030020FD030020FF03002063
:10012000010400200304002005040020070400202F
:10013000090400200B0400200D0400200F040020FF
:1001400011040020130400201504002017040020CF
:10015000190400201B0400201D0400201F0400209F
:10016000210400202304002025040020270400206F
:10017000290400202B0400202D0400202F0400203F
:1001800031040020330400200000000000000000C3
:100190004FF0000BDFF8BE020068DFF8B612096806
:1001A00001F0030100F01C00142801D14BF0020BF8
:1001B000002901D04BF0010BBBF1000F05D0A7487F
:1001C000A749DFF8722200F09FF8A64880470BF09D
:1001D000020ABAF1000F0CD0DFF86E02DFF86E12DF
:1001E00002680B680FB44FF000024FF0FF0302608B
:1001F0000B609D484FF000024FF00103022808D128
:10020000DFF83A120A60DFF83E120A60DFF83212B5
:100210000B60012808D1DFF82A120A60DFF82612E5
:100220000A60DFF81A120B609048002809D1904844
:100230009049914A00F030F890489149914A00F075
:100240002BF891489149924A00F026F8914892493A
:10025000DFF8E22100F058F8BBF1000F10D08F4812
:100260008F49DFF8D62100F04FF80BF0020ABAF1FF
:10027000000F05D00FBC02600B6000BFAFF3008021
:10028000DFF820020FF2030E00474FF000004FF09E
:100290000001DFF814F2FEE72DE9F841884225D08D
:1002A000B2EB010200D5FEE740EA010313F00303BD
:1002B00002D000F01DF819E04FF000039046121133
:1002C000F7D09A421CBFF0C8F0C103F10103F8D186
:1002D00008F00F08B8F1000F08D004780C7000F196
:1002E000010001F10101B8F10108F6D1BDE8F88182
:1002F00008B54FF0000303780B7000F1010001F125
:100300000101013AF7D108BD884237D000F0030659
:10031000002E14D04FF00405A5EB06044FF008079B
:1003200007FB06F8914669FA08F9002C07D080F817
:10033000009069FA07F900F10100013CF5E74FF080
:1003400000060F46091A88460911914614461546BB
:10035000B14206D018BFA0E8340206F10106B1424E
:10036000F8D108F00F08B8F1000F07D002704FEA7B
:10037000322200F10100B8F10108F4E77047FEE70E
:10038000FEE7FEE7FEE7FEE7FEE7FEE7FEE7FEE745
:10039000FEE7FEE7FEE7FEE7FEE7FEE7FEE7FEE735
:1003A000FEE7FEE7FEE7FEE7FEE7FEE7FEE7FEE725
:1003B000FEE7FEE7FEE7FEE7FEE7FEE7FEE7FEE715
:1003C000FEE7FEE7FEE7FEE7FEE7FEE7FEE7FEE705
:1003D000FEE7FEE7FEE7FEE7FEE7FEE7FEE7FEE7F5
:1003E000FEE7FEE7FEE7FEE7FEE7FEE7FEE7FEE7E5
:1003F000FEE7FEE7FEE7FEE7FEE7FEE7FEE7FEE7D5
:10040000FEE7FEE7FEE7FEE7FEE7FEE7FEE7FEE7C4
:10041000FEE7FEE7FEE7FEE7FEE7FEE7FEE7FEE7B4
:10042000FEE7FEE7FEE7FEE7FEE7FEE7FEE7FEE7A4
:10043000FEE7FEE7704700000000A2A2A2A2008033
:100440000340088003401080034030800340348024
:1004500003403880034018080240000000F00020EC
:1004600000000120811500200000000000000000B5
:10047000000000200000002090010020B0040020B7
:10048000B0040020B0B20020B0B20020B0B2002012
:1004900070BC002070BC0020F0D60020F0D60020F8
:1004A00000F000203D430020652D002000000000EA
:1004B00010B5054C237833B9044B13B10448AFF39E
:1004C00000800123237010BD70BC002000000000DC
:1004D00034B1002008B5034B1BB103490348AFF307
:1004E000008008BD0000000074BC002034B1002072
:1004F00001607047006870470EB503FA01F303EA24
:10050000020301686FEA020201EA020141EA030103
:1005100001600EBD006800EA020020FA01F0704799
:1005200001807047008870470EB503FA01F303EAB3
:10053000020301886FEA020201EA020141EA0301B3
:1005400001800EBD008800EA020020FA01F0704729
:1005500001707047007870470EB503FA01F303EAA3
:10056000020301786FEA020201EA020141EA030193
:1005700001700EBD007800EA020020FA01F0704719
:1005800080B582B000AF0F4B5B68FB710D4B9B6871
:10059000DAB2FB791340FB71FB7903F00203BB7104
:1005A000BB79002B01D000F0E7F8FB7903F00103E1
:1005B0007B717B79002B01D000F006F800BF083773
:1005C000BD4680BD0060014080B584B000AF634B84
:1005D0001B78052B6DD0052B00F3AF80012B02D0CB
:1005E000022B39D0A9E05E4B1B889BB2002B2FD089
:1005F0005C4B1B685A4A128892B21146184600F0AA
:1006000009FA7860564B1B889BB21A467B68934266
:100610000FD2534B1B889AB27B689BB2D31A9AB203
:100620004F4B1A804F4B1A687B6813444D4A136036
:1006300090E04B4B00221A804B4B1B68002B03D0E1
:10064000464B02221A7085E0444B03221A7081E067
:1006500000BE00F0B9F97DE0434B1B68002B24D0AD
:10066000424B1B68404A12681146184600F0D2F906
:10067000B8603D4B1B68BA689A420CD23A4B1A6874
:10068000BB68D31A384A1360384B1A68BB681344E6
:10069000364A13605EE0364B9B68354A23F001030F
:1006A00093602E4B03221A7054E000BE00F08CF9C8
:1006B00050E02D4B1B68002B1BD12E4B1B68002BD1
:1006C00014D02C4B1B68294898470346264A1360D0
:1006D000254B1B68002B0CD1254B9B68244A23F02B
:1006E000010393601D4B03221A7002E000BE00F06C
:1006F0006BF91D4B1B68002B09D11D4B9B681C4AD5
:1007000023F001039360154B03221A7022E0174B6C
:100710001B68154A12681146184600F07BF9F8600C
:10072000114B1A68FB68D31A0F4A13600F4B1A68F3
:10073000FB6813440D4A13600CE00D4B9B680C4A98
:1007400023F001039360002000F01EF9034B002208
:100750001A7000BF00BF1037BD4680BDB1BC00207D
:1007600094BC002090BC00209CBC002098BC0020C1
:1007700000600140ACBC002080B584B000AF7C4B71
:100780001B69FB81FB8923F4FF4323F07F03BB81BB
:10079000FB89FB72774B1B78052B00F2D68001A2F8
:1007A00052F823F0BD070020370900203709002048
:1007B00015080020630800200B090020BB89002BCE
:1007C00000F0CA80FB7AF12B06D0FB7A7B717B7933
:1007D000184600F04FF9BFE0674B00221A80674BC4
:1007E0001B68654A128892B21344FA7A1A70624BF7
:1007F0001B889BB201339AB25F4B1A805F4B1B6818
:100800005D4A128892B2134400221A70594B042296
:100810001A70A1E0BB89002B00F0A080FB7AFB716D
:10082000574B1B78DBB2FA799A4215D1524B002212
:100830001A80524B1B68504A128892B21344FA79BC
:100840001A704D4B1B889BB201339AB24A4B1A80E7
:10085000484B04221A7081E0FB79184600F00AF92F
:100860007CE0BB89002B06D0FB7A3B723B7A1846B2
:1008700000F000F974E0414B1A683F4B1B889BB2B3
:10088000013B13441B78F12B16D13C4B1B683A4AB1
:10089000128892B21344FA7A1A70384B1A68364B9F
:1008A0001B889BB2013B13441B78184600F0E2F80A
:1008B000304B00221A7053E02F4B1B889AB2314BF9
:1008C0001B889A4210D2FB7A7B722C4B1B682A4AF7
:1008D000128892B213447A7A1A70274B1B889BB203
:1008E00001339AB2244B1A80234B1B889AB2254BB2
:1008F0001B889A4234D1204B1B889BB2184600F0CB
:1009000043F81C4B00221A702AE0BB89002B0BD144
:100910001A4B1B680133FA7A1A70022000F034F87F
:10092000144B00221A701EE0FB7ABB72BB7A184689
:1009300000F0A0F817E0BB89002B13D0FB7ABB7145
:10094000BB79184600F096F80CE0002000F01CF887
:10095000084B00221A7006E000BF04E000BF02E06E
:1009600000BF00E000BF00BF1037BD4680BD00BF24
:1009700000600140B1BC0020A6BC0020A0BC00204B
:100980008CBC0020A4BC002080B582B000AF034620
:10099000FB800A4B1B68002B0CD0084B1B68084AD5
:1009A0001268F98810469847044B00221A60054BDC
:1009B00000221A7000BF0837BD4680BDA8BC0020C9
:1009C000A0BC0020B0BC002080B582B000AF0E4BB0
:1009D0001B78DBB2002B13D00C4B1B889BB2184644
:1009E000FFF7D2FF0A4B1B68094A43F0010313606B
:1009F000074B1B6803F001037B607B68002BF7D17A
:100A000000BF0837BD4680BDB0BC0020A6BC00209A
:100A10000060014080B485B000AF78603960144B4D
:100A20001B68134A23F0040313600023FB60104B80
:100A30005B6803F00103BB600DE07A68FB68134458
:100A40001A780B4B1A61FB680133FB60084B5B683B
:100A500003F00103BB60BB68002B03D0FA683B685E
:100A60009A42EAD3FB6818461437BD4680BC7047EB
:100A70000060014080B582B000AF0346FB71064BB9
:100A80001B68002B04D0044B1B68FA79104698476A
:100A900000BF0837BD4680BDB4BC002080B485B01F
:100AA00000AFF860B9607A60FB704D484D4B1A6832
:100AB000F97813469B001344DB01034403F5E2730A
:100AC00019604949474B1A6813469B0013449B0021
:100AD0000B440433FA681A604349424B1A681346C0
:100AE0009B0013449B000B440833BA681A603E49CC
:100AF0003C4B1A6813469B0013449B000B440C3379
:100B00001B683948374A11681A0C12040B469B00BF
:100B10000B449B0003440C331A607B68B3F5803FA1
:100B20000FD97B68A3F58033304A1361BB6803F5A6
:100B300080332E4AD360FB6803F580332B4A9360E1
:100B40001AE02949274B1A6813469B0013449B005F
:100B50000B440C331B687A6892B211462248214A32
:100B60001268194313469B0013449B0003440C3343
:100B700019601E4B00221A611B491A4B1A68134652
:100B80009B0013449B000B440C331B681648154A0A
:100B9000126843F4E00113469B0013449B00034496
:100BA0000C3319600E490F4B1A6813469B0013440F
:100BB000DB010B4403F5E07301221A600849094B7D
:100BC0001A6813469B001344DB010B4403F5E673DC
:100BD00000221A6000BF1437BD4680BC704700BFBA
:100BE00000002842D0BC002000400140B8BC0020DA
:100BF000684620F007018D4689B500AF354A364B6F
:100C00001B6803F52873012142F823103349324B46
:100C10001A6813469B0013449B000B440C331B685B
:100C20002E482D4A126823F4E00113469B0013441A
:100C30009B0003440C331960274B1B680133264A81
:100C40001360254B1B68042B02D1234B00221A6032
:100C5000234B1B69002B17D0224B1B68042B03D19D
:100C6000204B00221A6004E01E4B1B6801331D4A12
:100C700013601B4B98681A4BD968194B1A69184BAB
:100C80001B7DFFF70BFF1EE01449134B1A68134638
:100C90009B0013449B000B440C331B6803F4E003DC
:100CA000002B10D10C4B00221A600E4B00221A6050
:100CB0000B4B01221A700A4B5B68002B03D0084BC8
:100CC0005B680120984700BFBD46BDE88940854666
:100CD000704700BF00002842D4BC00200040014003
:100CE000B8BC0020D0BC0020684620F007018D462B
:100CF00081B583B000AF394B1B683B603B6803F4A0
:100D000070633B603B68002B2FD03549354B1A6828
:100D100013469B001344DB010B4403F502731B686D
:100D2000002B0AD0304B02221A702F4B5B68002B2D
:100D300003D02D4B5B68022098472949294B1A683C
:100D400013469B001344DB010B4403F503731B683C
:100D5000002B0AD0244B03221A70234B5B68002B14
:100D600003D0214B5B68032098471C4B1B683B60FA
:100D70003B6803F470433B603B68002B0AD01A4B7E
:100D800004221A70184B5B68002B03D0164B5B686B
:100D90000420984700237B6014E011497A681346C9
:100DA0009B001344DB010B4403F5E47301221A603A
:100DB0000B4A7B6803F52873012142F823107B68F6
:100DC00001337B607B68032BE7D900BF00BF0C3782
:100DD000BD46BDE881408546704700BF00400140E8
:100DE00000002842D4BC0020B8BC002080B485B0EC
:100DF00000AF03463960FB71FB79FB60FB681F2B7A
:100E000000D900BEFB681F2B05D8054AFB6852F8C5
:100E100023303A681A6000BF1437BD4680BC704763
:100E20008CA1002080B485B000AF03460A46FB7158
:100E30001346BB71FB79FB60FB681F2B00D900BE1A
:100E4000FB681F2B18D80F4BD3F88830BB600122EA
:100E5000FB6802FA03F3DB43BA681340BB60BB795B
:100E600003F00102FB6802FA03F3BA681343BB60A4
:100E7000044ABB68C2F8883000BF1437BD4680BC46
:100E8000704700BF0030014080B586B000AFF86009
:100E9000B96011461A460B46FB8013467B71FB680E
:100EA000002B00D100BE7B79072B00D900BEFB8848
:100EB000B3F5005F00D300BEFB68002B67D07B79E1
:100EC000072B64D8FB88B3F5005F60D2BB6808339A
:100ED000FA88D2B211461846FFF73AFBBB6803F115
:100EE0000C007A79FB885B1103F4FF631343194606
:100EF000FFF72EFBFB68BA681A60FB681B680833B3
:100F00001846FFF727FB0346BB82FB681B680C33C0
:100F10001846FFF71FFB0346FB74FB7C23F0070317
:100F2000BB74BB7C9BB25B019AB2BB8A1343BB828E
:100F3000FB7C03F00703FB74BA8AFB889A4200D05B
:100F400000BEFA7C7B799A4200D000BEFB681B6829
:100F500010331846FFF7FEFA034603F00203FB7551
:100F60000FE0FB681B6804331846FFF7F3FAFB68D1
:100F70001B6810331846FFF7EDFA034603F002032F
:100F8000FB75FB7D002BECD1FB6800221A7100BFC2
:100F90001837BD4680BD90B589B000AFF860B96024
:100FA0007A600023BB61FB68002B00D100BEBB68E8
:100FB000002B00D100BE7B68002B00D100BEFB6877
:100FC000002B43D0BB68002B40D07B68002B3DD06A
:100FD0000023BB61FB681B6810331846FFF7BAFAA1
:100FE0000346FB75FB681A79FB7D1343DAB2FB6895
:100FF0001A71FB7D03F00203FB7720E0FB681B689E
:10100000191DBA68BB69D4180846FFF7A3FA03464E
:101010002370BB690133BB61FB681B681033184642
:10102000FFF798FA0346FB75FB681A79FB7D1343BB
:10103000DAB2FB681A71FB7D03F00203FB77FB7FDA
:10104000002B03D0BA697B689A42D7D3BB69184694
:101050002437BD4690BD80B584B000AF786039605C
:101060007B68002B00D100BE3B68002B00D100BE86
:101070007B68002B24D03B68002B21D00023FB6031
:1010800018E07B681B6810331846FFF763FA0346C5
:1010900003F00103FB72FB7A002BF2D07B68186827
:1010A0003A68FB6813441B781946FFF751FAFB684E
:1010B0000133FB603A68FB6813441B78002BE0D1D6
:1010C00000BF1037BD4680BD80B485B000AF7860EA
:1010D000FF23FB737B68002B00D100BE7B68002BD5
:1010E00009D07B681B799B10DBB203F00703FB730D
:1010F0007B6800221A71FB7B18461437BD4680BC02
:10110000704780B584B000AFF860B9607A603B602A
:10111000FB68BA681A60FB681B6808330021184630
:10112000FFF716FAFB681B680C3300211846FFF71F
:101130000FFAFB681B6879681846FFF7D9F93B6816
:10114000002B00D100BEFB681B68043339681846C9
:10115000FFF7CEF9FB681B68103300211846FFF734
:10116000C7F9FB681B68183300211846FFF7C0F960
:10117000FB681B68203300211846FFF7B9F9FB68AC
:101180001B68283300211846FFF7B2F9FB681B687B
:10119000303300211846FFF7ABF9FB681B68383382
:1011A00000211846FFF7A4F9FB681B6840330021B3
:1011B0001846FFF79DF9FB681B6848330021184665
:1011C000FFF796F9FB681B68503300211846FFF7BC
:1011D0008FF9FB681B68583300211846FFF788F920
:1011E000FB681B68603300211846FFF781F9FB6834
:1011F0001B68683300211846FFF77AF9FB681B6803
:10120000703300211846FFF773F9FB681B687833C9
:1012100000211846FFF76CF9FB681B68803300213A
:101220001846FFF765F9FB681B68883300211846EC
:10123000FFF75EF900BF1037BD4680BD80B584B0B2
:1012400000AF78600B46FB70FB78002B00D100BE2E
:10125000FB78102B00D900BEFB78002B32D0FB7836
:10126000102B2FD8FB78194AD35CFB73FB78082B23
:1012700014D87B681B6808331846FFF76BF90346E0
:10128000BB73BA7BFB7B1343BB737B681B68083360
:10129000BA7B11461846FFF75BF913E07B681B68C1
:1012A0000C331846FFF756F90346BB73BA7BFB7B3A
:1012B0001343BB737B681B680C33BA7B114618461B
:1012C000FFF746F900BF1037BD4680BD0CA20020D5
:1012D00080B584B000AF78600B46FB70FB78002BC4
:1012E00000D100BEFB78102B00D900BEFB78002B8C
:1012F00036D0FB78102B33D8FB781B4AD35CFB73BA
:10130000FB78082B16D87B681B6808331846FFF754
:1013100021F90346BB73FB7BDB43DAB2BB7B134093
:10132000BB737B681B680833BA7B11461846FFF70E
:101330000FF915E07B681B680C331846FFF70AF9B4
:101340000346BB73FB7BDB43DAB2BB7B1340BB734F
:101350007B681B680C33BA7B11461846FFF7F8F818
:1013600000BF1037BD4680BD0CA2002080B586B0FE
:1013700000AFF8600B467A60FB72FB7A002B00D15D
:1013800000BEFB7A102B00D900BEFB7A002B3AD0AE
:10139000FB7A102B37D87B68002B05D1FB7A1946D6
:1013A000F868FFF795FF2EE0FB681A68FB7A18498A
:1013B00051F82330134400211846FFF799F8FB68D1
:1013C0001A68FB7A134951F8233013447968184698
:1013D000FFF78EF8FB7A0F4A52F823307B61FB68E7
:1013E0001A687B6913441846FFF7B4F80346FB7488
:1013F0007B68DBB2FA7C9A4200D000BEFB7A1946C9
:10140000F868FFF71BFF00BF1837BD4680BD00BF5F
:1014100020A2002064A2002080B483B000AF7860D6
:101420004FF0FF3318460C37BD4680BC704780B480
:1014300083B000AF7860FEE780B483B000AF78601F
:1014400039603B684FF400525A60002318460C374D
:10145000BD4680BC704780B400AF01231846BD462E
:1014600080BC704780B483B000AF78600123184619
:101470000C37BD4680BC704780B582B000AF786045
:10148000396002F055FF034616221A604FF0FF3311
:1014900018460837BD4680BD80B485B000AFF860FF
:1014A000B9607A60002318461437BD4680BC704787
:1014B00080B485B000AFF860B9607A600023184648
:1014C0001437BD4680BC704780B485B000AFF8606B
:1014D000B9607A603B60002318461437BD4680BC73
:1014E0007047000080B586B000AF78601F4B1B6866
:1014F000002B02D11D4B1E4A1A601C4B1B687B61DE
:10150000EFF308833B61194B1B683A699A420FD984
:10151000164B1A687B6813443A699A421AD2192307
:10152000144A01210020FFF7CFFF0120FFF77FFFC2
:10153000114BFB600D4B1A687B681344FA689A42A2
:1015400008D219230D4A01210020FFF7BDFF012019
:10155000FFF76DFF054B1A687B681344034A13605D
:101560007B6918461837BD4680BD00BFD8BC002037
:10157000F0D60020A8A2002000F00020C4A2002085
:1015800080B582B000AF00F0EFF8154B5B69144AEC
:1015900043F400735361134B9B68002B05D1124B2E
:1015A0001B681946114800F046F8FEF743FF0D4B43
:1015B0009B6C0C4A23F4803393640D4B1B680C4ADC
:1015C00043F0030313600A4B5B6803F001037B6085
:1015D0007B68002BF7D000BF00BF0837BD4680BD39
:1015E00000ED00E0008003407CA0002080A00020EF
:1015F0000020024080B487B000AFF860B9607A6024
:1016000000237B610DE07B695B00BA681344198895
:101610007B699B00FA6813440A461A607B690133B0
:101620007B617A697B689A42EDD300BF00BF1C37AB
:10163000BD4680BC704780B584B000AF786039602B
:101640007B68FB603B68BB603922F968B868FFF7CC
:10165000D1FF7B687233FB603B6803F50773BB60A7
:101660004122F968B868FFF7C5FF7B68B3F8F4302A
:101670001A463B68C3F800247B68B3F8F6301A4674
:101680003B68C3F804247B68B3F8F8301A463B681B
:10169000C3F808247B68B3F8FA301A463B68C3F8ED
:1016A0000C247B68B3F8FC301A463B68C3F810245E
:1016B0007B68B3F8FE301A463B68C3F814247B6895
:1016C000B3F800311A463B68C3F818247B68B3F8B6
:1016D00002311A463B68C3F81C247B68B3F8043116
:1016E0001A463B68C3F840247B68B3F806311A46B3
:1016F0003B68C3F844247B68B3F808311A463B685A
:10170000C3F848243B6801221A6000BF3B68D3F845
:10171000E430002BFAD000BF00BF1037BD4680BDBB
:1017200080B483B000AF0E4BD3F84C313B603B68C4
:101730004FF60202934204D03B680A4A934203D018
:1017400005E001237B6005E002237B6002E00023CB
:101750007B6000BF7B6818460C37BD4680BC704775
:101760000080034002F8010080B582B000AFFFF7AF
:10177000D7FF78607B68012B02D100F007F800E00A
:1017800000BF00BF0837BD4680BD000080B400AF79
:10179000094BD3F89830084A43F48073C2F8983064
:1017A000054BD3F89830044A23F08063C2F8983090
:1017B00000BFBD4680BC70470080034080B582B04A
:1017C00000AF78607B681B6819467B685A687B6845
:1017D0009B68034803F05EF900BF0837BD4680BD33
:1017E000D8A2002080B582B000AF78607B681A78FC
:1017F000597809020A439B781B0413431B021B12EE
:10180000184601F009FE02460B46154803F042F95E
:1018100079680A684B684FF000004FF0000118002B
:101820000021034619460F4803F034F979680A6825
:101830004B68134619460C4803F02CF97B68DB888B
:101840009BB21946094803F025F97B68DB889BB2F7
:101850001946074803F01EF900BF0837BD4680BD92
:101860003CA3002060A300206CA3002074A30020F0
:1018700088A3002080B400AF034BD3F8843018460F
:10188000BD4680BC704700BF0030014080B586B0C7
:1018900000AFF860B9607A6000237B61002101200D
:1018A000FFF7C0FA7B69002B06D1FFF7E3FF034681
:1018B00003F004037B61F5E701210120FFF7B2FA91
:1018C00000BF1837BD4680BD80B586B000AFF86058
:1018D000B9607A603B60BB68002B0ED07B680B2B35
:1018E0000BD9BB687B610A4803F0D4F87869FFF72D
:1018F00065FF0A2003F0E2F804E00C22796805484D
:1019000003F0C8F87B685BB218461837BD4680BD47
:1019100090A30020A8A3002080B586B000AFF86097
:10192000B9607A603B60BB68002B19D07B680B2BD9
:1019300016D9BB687B617B6919687B6904331A68B7
:101940007B6908331B680C4803F0A4F80B490C486A
:10195000FFF781FB002200210A48FFF797FF04E010
:101960000C227968084803F095F87B685BB218464A
:101970001837BD4680BD00BFECA3002018A400208E
:1019800048C60020DCBC002020A4002080B586B022
:1019900000AFF860B9607A603B60BB68002B1ED076
:1019A0007B68172B1BD9BB687B61124803F072F868
:1019B0007869FFF717FF104803F06CF87B6908336C
:1019C0001846FFF70FFF0C4803F064F87B691033EB
:1019D0001846FFF707FF094803F0C6F804E018228D
:1019E0007968074803F056F87B685BB218461837E9
:1019F000BD4680BD60A4002078A400207CA4002007
:101A000080A40020B0B58AB004AFF860B9607A60F5
:101A10003B60BB68002B19D07B68172B16D9BB68BD
:101A20007B617B69D3E900457B690833D3E90023F7
:101A300079691031D1E90001CDE90201CDE9002336
:101A400022462B46074803F025F804E0182279685F
:101A5000054803F01FF87B685BB218461837BD468F
:101A6000B0BD00BFC4A40020F0A4002080B586B0A3
:101A700000AFF860B9607A603B60BB68002B05D0AE
:101A80007B68172B02D9BB687B6104E01822796858
:101A9000044802F0FFFF7B685BB218461837BD466A
:101AA00080BD00BF34A5002080B485B000AF786051
:101AB00039604FF0FF33FB603B68BB60BB68002BB5
:101AC00013D07B681B781A46FB681B0E53400A4AEA
:101AD00052F82320FB681B025340FB607B680133F4
:101AE0007B60BB68013BBB60E8E7FB68DB431846F3
:101AF0001437BD4680BC704778A5002080B485B0FF
:101B000000AFF860B9607A603B60FB68BA681A6041
:101B1000FB687A685A60FB683A689A60FB68184606
:101B20001437BD4680BC704790B583B000AF786075
:101B300039607B68012B27D13B684FF6FF729342D7
:101B400022D1134C134B144A01212046FFF7D6FF34
:101B50000C34124B124A02212046FFF7CFFF0C34FF
:101B6000104B114A04212046FFF7C8FF0C340F4BDD
:101B70000F4A05212046FFF7C1FF04F10C000D4B71
:101B80000D4A0621FFF7BAFF00BF0C37BD4690BDD6
:101B900000C60020C91800207CA9002019190020C7
:101BA00094A900208D190020A8A90020051A002062
:101BB000BCA900206D1A0020E0A9002080B500AF6C
:101BC0004FF6FF710120FFF7AFFF80BDF0B58BB07E
:101BD00000AF786007F1180310220021184602F0C8
:101BE000FDFE07F1080310220021184602F0F6FE60
:101BF0007B68154AA2FB03239B0C1A464FF0000397
:101C0000C7E906237B6818464FF00001D7E9062391
:101C10000E4E06FB03FC4FF0FF3606FB02F6B44403
:101C20000A4EA2FB06230CEB03063346841841EB55
:101C3000030522464FF47A7303FB02F33B6200BFB5
:101C400000BF2C37BD46F0BD83DE1B43C0BDF0FF97
:101C500080B582B000AF78607B684FF47A7202FB87
:101C600003F31846FFF7B2FF00BF0837BD4680BD3B
:101C700080B400AF034BD3F884301846BD4680BC17
:101C8000704700BF0030014080B483B000AF78607F
:101C9000044A7B681A607B6818460C37BD4680BCD6
:101CA000704700BF20AC002080B483B000AF7860E4
:101CB000044A7B681A607B6818460C37BD4680BCB6
:101CC000704700BF20AC002080B582B000AF7860C4
:101CD0007868FFF7E9FF786801F088F97B681846B3
:101CE0000837BD4680BD000080B483B000AF786087
:101CF000044A7B681A607B6818460C37BD4680BC76
:101D0000704700BFDCAB002080B483B000AF7860C8
:101D1000044A7B681A607B6818460C37BD4680BC55
:101D2000704700BFDCAB002080B582B000AF7860A8
:101D30007868FFF7E9FF786801F058F97B68184682
:101D40000837BD4680BD000080B483B000AF786026
:101D5000044A7B681A607B6818460C37BD4680BC15
:101D6000704700BFBCAB002080B483B000AF786088
:101D7000044A7B681A607B6818460C37BD4680BCF5
:101D8000704700BFBCAB002080B582B000AF786068
:101D90007868FFF7E9FF786801F028F97B68184652
:101DA0000837BD4680BD80B485B000AFF860B9602B
:101DB0007A6000BF1437BD4680BC704780B485B0E0
:101DC00000AFF860B9607A6000BF1437BD4680BCD0
:101DD000704780B485B000AFF860B9607A6000BF2A
:101DE0001437BD4680BC704780B485B000AFF86042
:101DF000B9607A6000BF1437BD4680BC704780B4BC
:101E000085B000AFF860B9607A603B60FB6803F5AD
:101E1000805300221A80FB6803F580530433BA68AC
:101E20001A60FB6803F5805308337A681A60FB6810
:101E300003F580530C333A681A60FB6803F580534E
:101E40001033BA691A60FB6803F580531433FA69DA
:101E50001A60FB6803F58053183300221A70FB6880
:101E600003F58053193300221A70FB6803F5805381
:101E70001C3300221A60FB6803F5815300221A60AC
:101E8000FB6803F581530833D7E90A01C3E9000170
:101E9000FB6818461437BD4680BC704780B584B0D7
:101EA00000AF78607B6803F5805304331A687B6861
:101EB00003F5805304331B681B6808331B68104606
:101EC0009847034683F00103DBB2002B01D00023C7
:101ED00017E07B6803F5805304331A687B6803F5C9
:101EE000805304331B681B680C331B6810469847EB
:101EF0000346FB7397F90F301946786800F006F82F
:101F0000012318461037BD4680BD0000F0B593B0E0
:101F100002AFF8600B46FB72002387F83F300023C6
:101F20003B61FB6803F580531B88B3F5805F12D2D9
:101F3000FB6803F580531B8801339AB2FB6803F5F5
:101F400080531A80FB6803F580531B88013BF97AA4
:101F5000FA68D15423E0FB6803F580531433186802
:101F6000FB6803F5805314331B681B6814331B682C
:101F7000F968FA6802F5805212887A6107F1140252
:101F80009847FB6803F58053193300221A70FB68E9
:101F900003F5805300221A80FB6800221A70FB6848
:101FA00003F5805319331B7883F00103DBB2002B58
:101FB00018D0FB6803F580531B881C46FB6803F5AB
:101FC000805308331A68FB6803F5805308331B6895
:101FD0001B6810331B681046984703469C4201D388
:101FE000012300E00023002B20D0FB6803F5805381
:101FF00008331868FB6803F5805308331B681B68B7
:1020000008331C68F968FB6803F580531B881A467F
:10201000FB6803F580531C33A0470346002B05D013
:10202000FB6803F58053193301221A70FB6803F52E
:10203000805319331B78002B29D0FB6803F580539C
:102040001B881D46FB6803F5805308331A68FB683C
:1020500003F5805308331B681B6810331B68104658
:1020600098470446FB6803F5805308331A68FB68F9
:1020700003F5805308331B681B6814331B68104634
:102080009847034623449D4201D3012300E00023E7
:10209000002B00F0AE82FB6803F58053083318680C
:1020A000FB6803F5805308331B681B680C331C68FE
:1020B000F968FB6803F580531B881A4607F1100383
:1020C000A0470346002B00F09482FB6803F5805381
:1020D0001B881D46FB6803F5805308331868FB68AE
:1020E00003F5805308331B681B6820331C68F968AC
:1020F000FB6803F580531B881A46FB6803F5805381
:102100001C331B68A0470446FB6803F58053083363
:102110001A68FB6803F5805308331B681B6810338B
:102120001B681046984703461C44FB6803F5805320
:1021300008331A68FB6803F5805308331B681B6873
:1021400014331B6810469847034623449D422CBF16
:1021500001230023DBB2002B00F0D781FB6803F5DD
:10216000805308331868FB6803F5805308331B68F5
:102170001B6824331C68F968FB6803F580531B88CF
:102180001D46FB6803F580531C331A683B690093B6
:1021900013462A46A0470346002B00F05081FB68F7
:1021A00003F581530833D3E90023B3F1FF3F08BFA0
:1021B000B2F1FF3F38D0FB6803F58053083318684D
:1021C000FB6803F5805308331B681B6828331C68C1
:1021D000F968FB6803F580531C331A683B69A04714
:1021E0000346002B20D1FB6803F581530833D3E964
:1021F0000045FB6803F5805308331868FB6803F556
:10220000805308331B681B682C331E68F968FB6811
:1022100003F580531C331A683B69B04702460B46EE
:102220009D4208BF944201D1012300E00023002B0E
:1022300000F0C480002387F83E300023BB63FB68B6
:1022400003F5805310331B68BA6B9A4280F08E807E
:10225000FB6803F5805308331D68FB6803F5805362
:1022600008331B681B6834331C68FE68FB6803F581
:1022700080531B889C46FB6803F580531C331B6806
:102280007B603969FB6803F580530C331868BA6BBF
:1022900013465B0013449B0003441B6801930091A9
:1022A0007B68624631462846A0470346002B59D03A
:1022B000FB6803F580531C331C68FB6803F58053EF
:1022C00008331A68FB6803F5805308331B681B68E2
:1022D00018331B681046984703462344FA68134492
:1022E000FB62FB681946AE48FEF7B5FEFB6803F5D6
:1022F00080530C331968BA6B13465B0013449B0080
:102300000B449C68FB6803F580530C331968BA6B67
:1023100013465B0013449B000B441E68FB6803F5E7
:10232000805308331868FB6803F5805308331B6833
:102330001B6820331D68F968FB6803F580531B8810
:102340001A46FB6803F580531C331B68A8470246F6
:10235000FB68F96A3046A047012387F83E30012325
:1023600087F83F30BB6B0133BB6368E797F83E30BB
:1023700083F00103DBB2002B40D0FB6803F58053F0
:1023800014331868FB6803F5805314331B681B680B
:102390000C331C68FB6803F580531C331B68FA6818
:1023A000D1183A69FB6803F580531C331B68D31AB4
:1023B000BB6107F118031A46A0471FE0FB6803F54D
:1023C000805314331868FB6803F5805314331B687B
:1023D0001B680C331C68FB6803F580531C331B68B7
:1023E000FA68D1183A69FB6803F580531C331B68FF
:1023F000D31AFB6107F11C031A46A047FB6803F5DB
:10240000805314331868FB6803F5805314331B683A
:102410001B6810331C68FB6803F580531C331B6872
:10242000FA68D1183A69FB6803F580531C331B68BE
:10243000D31A3B6207F120031A46A04715E0FB6858
:1024400003F5805314331868FB6803F58053143385
:102450001B681B6808331B68F968FA6802F580522C
:1024600012887A6207F124029847FB6803F58053CB
:10247000193300221A70FB6803F580531B881A4633
:102480003B6904339A4237D900237B6300233B63C3
:10249000FB6803F580531B881A463B69D31A043B3B
:1024A0007A6B9A420ED23A697B6B13440433FA6812
:1024B000D15CFA687B6B13440A461A707B6B01335C
:1024C0007B63E5E77B6B3B63FB6803F580531B880D
:1024D0001A463B6B934208D2FA683B6B13440022C6
:1024E0001A703B6B01333B63EEE77B6B9AB2FB6880
:1024F00003F580531A807CE0FB6803F580530022CB
:102500001A80FB6800221A7073E0FB6803F58053A1
:1025100008331868FB6803F5805308331B681B6891
:1025200020331C68F968FB6803F580531B881A4642
:10253000FB6803F580531C331B68A0470346B3F5C3
:10254000805F2BD8FB6803F5805308331868FB685D
:1025500003F5805308331B681B6820331C68F96837
:10256000FB6803F580531B881A46FB6803F580530C
:102570001C331B68A0470446FB6803F580530833EF
:102580001A68FB6803F5805308331B681B681C330B
:102590001B681046984703469C4203D9012302E07A
:1025A00048C600200023002B23D0FB6803F580538E
:1025B00014331868FB6803F5805314331B681B68D9
:1025C00008331B68F968FA6802F580521288BA620B
:1025D00007F128029847FB6803F58053193300225E
:1025E0001A70FB6803F5805300221A80FB680022F2
:1025F0001A7097F83F3018464437BD46F0BD00BF0B
:1026000080B483B000AF78607B68002262F0410242
:102610001A70002262F045025A70002262F05202E3
:102620009A70002242F01B02DA707B6800221A7155
:1026300000225A717B6800229A710022DA717B684D
:1026400018460C37BD4680BC7047000080B582B08C
:1026500000AF78607B681B6819467B689B889BB2DB
:102660001A467B68DB889BB2034802F013FA00BF6E
:102670000837BD4680BD00BFF8A9002080B582B0F4
:1026800000AF78607B681846FFF72EFB034A7B6833
:102690001A607B6818460837BD4680BD78AB0020BD
:1026A00080B582B000AF7860054A7B681A607B68AD
:1026B0001846FFF729FB7B6818460837BD4680BDE2
:1026C00078AB002080B582B000AF78607868FFF703
:1026D000E7FF786800F08AFC7B6818460837BD463B
:1026E00080BD000080B487B000AFF860B9607A6048
:1026F0003B6000237B617B68043B7A699A420FD27E
:10270000BA687B6913441B68084A934204D13B684A
:102710007A691A60012304E07B6901337B61EAE78F
:10272000002318461C37BD4680BC7047BEBAAD1B9F
:1027300080B487B000AFF860B9607A603B60002376
:102740007B617B68043B7A699A420FD8BA687B69DF
:1027500013441B68084A934204D13B687A691A60A3
:10276000012304E07B6901337B61EAE7002318461B
:102770001C37BD4680BC7047EDAD0F0A80B483B0F6
:1027800000AF7860082318460C37BD4680BC704700
:1027900080B483B000AF7860082318460C37BD467C
:1027A00080BC704780B483B000AF786008231846BF
:1027B0000C37BD4680BC704780B483B000AF7860F2
:1027C0004FF6FF7318460C37BD4680BC704780B487
:1027D00085B000AFF860B9607A603B6000231846AE
:1027E0001437BD4680BC704780B485B000AFF86038
:1027F000B9607A603B604FF000024FF00003104672
:1028000019461437BD4680BC704780B487B000AF0E
:10281000F860B9607A603B603B6808337A689A4236
:1028200001D2002306E0BA683B6813447B617B69F0
:10283000DB889BB218461C37BD4680BC704780B40D
:1028400087B000AFF860B9607A603B603B680833DE
:102850007A689A4204D24FF000024FF0000309E078
:10286000BA683B6813447B617B699B889BB29AB2D0
:102870004FF00003104619461C37BD4680BC704718
:1028800080B487B000AFF860B9607A603B603B68A5
:1028900008337A689A4201D200230DE0BA683B6897
:1028A00013447B617B699B889BB21A467B6A934287
:1028B00001D1012300E0002318461C37BD4680BC2F
:1028C0007047000080B588B000AFF860B9607A60EA
:1028D0003B603B6810337A689A4201D2002339E0AA
:1028E000BA683B681344FB61FB69DB889BB21A46FC
:1028F0003B68134410337A689A4201D2002329E0DE
:10290000FB691B68154A934201D0002322E0FB6952
:10291000DB889BB21A463B6813440833BA681344F9
:10292000BB61BB695B680E4A934201D0002311E092
:10293000FB69DB889BB208331946F869FFF7B4F8E6
:1029400003467B61BB691B687A699A4201D0002308
:1029500000E0012318462037BD4680BDBEBAAD1B3E
:10296000EDAD0F0A80B588B000AFF860B9607A604D
:102970003B60BB68002B0AD03B68002B02D1FB6A8E
:10298000002B04D1FB6A10337A689A4201D20023EB
:102990003DE007F110031846FFF732FE3B8DBB8286
:1029A000FB6A9BB2FB82BB681A4607F1100303CB9C
:1029B000106051603B68002B06D0BB680833FA6A90
:1029C0003968184601F094FFFB6A0833BA6813446B
:1029D000FB61FB6A08331946B868FFF765F80346E0
:1029E000BB61FB69BA691A60FB69002262F01202DE
:1029F0001A71002262F052025A71002242F00F0254
:102A00009A71002242F00A02DA71FB6A103318460A
:102A10002037BD4680BD000080B582B000AF786031
:102A20007B681846FFF730F9034A7B681A607B68B9
:102A300018460837BD4680BD40AB002080B582B047
:102A400000AF7860054A7B681A607B681846FFF71C
:102A50002BF97B6818460837BD4680BD40AB002087
:102A600080B582B000AF78607868FFF7E7FF7868DC
:102A700000F0BCFA7B6818460837BD4680BD80B4BC
:102A800085B000AFF860B9607A600023184614374B
:102A9000BD4680BC704780B483B000AF786000BF93
:102AA0000C37BD4680BC704780B582B000AF7860FF
:102AB000FFF7DEF8034603F00103002B0CBF0123F0
:102AC0000023DBB2002B01D0002300E001231846D5
:102AD0000837BD4680BD000080B5A4B000AF786067
:102AE0001648FEF7F1FA03461A46154B1A70144BB6
:102AF0001B78002B1DD1002387F88F3007F10C03C2
:102B0000012219460D48FEF746FA0346DAB20D4B8C
:102B10001A703B7B87F88F300B4B1B78002B05D04E
:102B200097F98F301946094801F0B4FF97F98F30B3
:102B300000E0002318469037BD4680BD48C60020FF
:102B400051C6002050C6002040C6002044AA0020E4
:102B500080B582B000AF78600B46FB700A4B1B68F3
:102B6000002B02D197F9033009E0074B1B6897F956
:102B700003209A640C20FFF729F897F903301846D0
:102B80000837BD4680BD00BF3CC6002080B485B07C
:102B900000AF7860094B1B68002B01D1002307E0D0
:102BA000064B1A6807F10C034C32106818607B7BE7
:102BB00018461437BD4680BC704700BF3CC6002095
:102BC00080B483B000AF786000BF0C37BD4680BCD6
:102BD000704780B483B000AF786000BF0C37BD464B
:102BE00080BC704780B483B000AF78600123184682
:102BF0000C37BD4680BC704780B483B000AF7860AE
:102C0000012318460C37BD4680BC704780B582B0A2
:102C100000AF78607B681846FFF796F8034A7B6838
:102C20001A607B6818460837BD4680BD20AB00207F
:102C300080B582B000AF7860054A7B681A607B6817
:102C40001846FFF791F87B6818460837BD4680BDE7
:102C500020AB002080B582B000AF78607868FFF7C5
:102C6000E7FF786800F0C2F97B6818460837BD4670
:102C700080BD000080B586B000AFF860B9607A60B2
:102C8000BB68002B03D07B681B68002B06D17B68D8
:102C90001B681946134801F0FDFE1FE07B681B68A6
:102CA0007B617B69202B01D920237B610E4801F0D9
:102CB000F1FE00233B613A697B699A420BD2BA6804
:102CC0003B6913441B781946084801F0E3FE3B6951
:102CD00001333B61EFE7064801F046FF1837BD4678
:102CE00080BD00BF4CAA00207CAA0020ACAA002016
:102CF000B4AA002080B586B000AFF860B9607A60F1
:102D0000BB68002B03D07B681B68072B06D87B6849
:102D10001B6819460A4801F0BDFE0DE0BB687B61E7
:102D20007B681B681946074801F0B4FE7869FFF715
:102D30008DFC054801F018FF1837BD4680BD00BF67
:102D4000B8AA0020ECAA0020B4AA002080B485B064
:102D500000AFF860B9607A6000BF1437BD4680BC30
:102D60007047000080B58CB000AF0123BB62022326
:102D70007B6201233B620223FB61234BBB61234B3C
:102D80007B61234B3B61234BFB60234BBB604FF4C8
:102D9000967308224FF0A0412048FEF7B2F9BA6AB4
:102DA00001211E48FEF7E2FA7A6A02211B48FEF76B
:102DB000DDFA012336221A491A48FEF765F8022186
:102DC0000020FEF713F805210120FEF70FF802217D
:102DD0000220FEF70BF801210120FEF723F8012362
:102DE00087F82F301048FFF759F80346002B02D020
:102DF000002387F82F3097F82F30002BEFD0642076
:102E0000FEF726FFEBE700BF55FFAAFFCC0022002C
:102E10005544AA44550044005599449944C600209D
:102E20000010005048C6002060C6002080B588B061
:102E300006AF786039607B68012B30D13B684FF674
:102E4000FF7293422BD11848FFF7E6FD174A184945
:102E5000154800F045F81748FFF7D8FE134A164901
:102E6000144800F03DF81548FFF708FC0F4A1449D4
:102E7000124800F035F8134B1B7819464FF0FF321B
:102E80004FF0FF33CDE9042300230293094B019354
:102E900000910D4B094A04490C48FEF7B0FF00BFF2
:102EA0000837BD4680BD00BF54C60020B0B2002028
:102EB0003D2A002058C60020312C00205CC600208E
:102EC000A126002078A9002000C6002060C60020AE
:102ED00080B500AF4FF6FF710120FFF7A7FF80BD5F
:102EE0000B460146184601F019BA00BF70B5102311
:102EF0000024066884B01546CDE9023412686B469A
:102F0000B66900948DF80440B0479DF8043003F092
:102F10000603062B09BF01202046009B2B6004B04E
:102F200070BD00BF0098904214BF0120062070477A
:102F300010B50446024B036000F0F4F8204610BDC3
:102F400024AD002010B50446044B036000F0EAF8FD
:102F50002046082100F04CF8204610BD24AD00208A
:102F60002DE9F041069F089990468F421D46044680
:102F7000099E0CD02946204600F0D8F820B1012344
:102F8000376086F80480B3710020BDE8F0810799AE
:102F900000F0CCF80028EDD0002086F80580BDE8D0
:102FA000F08100BF38B515461C4600F0BFF800B9E7
:102FB00038BD082206232560E260237138BD00BFBA
:102FC0002DE9F04116461D4607460C4600F0AEF8C6
:102FD00048B9032D07D82368324639462046BDE854
:102FE000F0415B691847BDE8F08100BF01F0CAB944
:102FF000FFF7FCBF1B2208B50249022001F026FFA3
:1030000000F0AEF848AD002010B50446024B036056
:10301000FFF78EFF204610BDA0AD002010B504467E
:10302000044B0360FFF784FF20460C21FFF7E0FF0D
:10303000204610BDA0AD002070B582B0069E0D46A2
:103040009642044609D0A068294604680696246A78
:10305000A44602B0BDE87040604719460192009353
:1030600000F064F8DDE900320028ECD0062002B060
:1030700070BD00BF2DE9F04F0D4681B01946DDE966
:103080000A8BDDE90CA91C461646074600F04EF8EF
:1030900080B9D04527D0B86823460468CDE90CA98B
:1030A000CDE90A8BE46932462946A44601B0BDE861
:1030B000F04F6047002DC9F8008089F804600CDBF0
:1030C0004544AA450CBF4FF0060A4FF0010A89F8A3
:1030D00006A0002001B0BDE8F08F0235F9D1012330
:1030E00089F80630F5E75946384600F01FF8002801
:1030F000D1D089F80560ECE72DE9F04106460F468E
:1031000014461D46FFF74EFF48B9B0682B460568C8
:103110002246AC693946A446BDE8F0416047BDE8A7
:10312000F08100BF704700BF00207047814211D07E
:1031300008B5406803782A2B0AD049680B782A2BF7
:1031400008BF013101F076FDB0FA80F0400908BDFA
:10315000002008BD0120704708B5804701F0D6F86F
:1031600008B5034B1868BFF35B8FFFF7F5FF00BF8F
:10317000B4B2002081F0004102E000BF83F00043C0
:1031800030B54FEA41044FEA430594EA050F08BF02
:1031900090EA020F1FBF54EA000C55EA020C7FEAC6
:1031A000645C7FEA655C00F0E2804FEA5454D4EB43
:1031B0005555B8BF6D420CDD2C4480EA020281EA0D
:1031C000030382EA000083EA010180EA020281EA45
:1031D0000303362D88BF30BD11F0004F4FEA013197
:1031E0004FF4801C4CEA113102D0404261EB4101A6
:1031F00013F0004F4FEA03334CEA133302D052422C
:1032000063EB430394EA050F00F0A780A4F10104E7
:10321000D5F1200E0DDB02FA0EFC22FA05F2801821
:1032200041F1000103FA0EF2801843FA05F3594107
:103230000EE0A5F120050EF1200E012A03FA0EFC86
:1032400028BF4CF0020C43FA05F3C01851EBE371B0
:1032500001F0004507D54FF0000EDCF1000C7EEBCD
:1032600000006EEB0101B1F5801F1BD3B1F5001F0B
:103270000CD349085FEA30004FEA3C0C04F101042A
:103280004FEA445212F5800F80F09A80BCF1004F53
:1032900008BF5FEA500C50F1000041EB045141EAD5
:1032A000050130BD5FEA4C0C404141EB0101013C9E
:1032B00028BFB1F5801FE9D291F0000F04BF01468D
:1032C0000020B1FA81F308BF2033A3F10B03B3F15F
:1032D00020020CDA0C3208DD02F1140CC2F10C02EF
:1032E00001FA0CF021FA02F10CE002F11402D8BF4D
:1032F000C2F1200C01FA02F120FA0CFCDCBF41EA19
:103300000C019040E41AA2BF01EB0451294330BDE7
:103310006FEA04041F3C1CDA0C340EDC04F11404C4
:10332000C4F1200220FA04F001FA02F340EA03009B
:1033300021FA04F345EA030130BDC4F10C04C4F1E1
:10334000200220FA02F001FA04F340EA03002946C1
:1033500030BD21FA04F0294630BD94F0000F83F40B
:10336000801306BF81F480110134013D4EE77FEAEE
:10337000645C18BF7FEA655C29D094EA050F08BF3A
:1033800090EA020F05D054EA000C04BF194610461B
:1033900030BD91EA030F1EBF0021002030BD5FEA5F
:1033A000545C05D14000494128BF41F0004130BD87
:1033B00014F580043CBF01F5801130BD01F00045DB
:1033C00045F0FE4141F470014FF0000030BD7FEA4E
:1033D000645C1ABF194610467FEA655C1CBF0B4649
:1033E000024650EA013406BF52EA033591EA030F60
:1033F00041F4002130BD00BF90F0000F04BF002158
:10340000704730B54FF4806404F132044FF000058A
:103410004FF0000150E700BF90F0000F04BF002103
:10342000704730B54FF4806404F1320410F0004569
:1034300048BF40424FF000013EE700BF42004FEA64
:10344000E2014FEA31014FEA02701FBF12F07F43E1
:1034500093F07F4F81F06051704732F07F4208BF98
:10346000704793F07F4F04BF41F40021704730B59F
:103470004FF4607401F0004521F000411CE700BFEB
:1034800050EA010208BF704730B54FF000050AE06E
:1034900050EA010208BF704730B511F0004502D56F
:1034A000404261EB41014FF4806404F132045FEA71
:1034B000915C3FF4D8AE4FF003025FEADC0C18BF1A
:1034C00003325FEADC0C18BF033202EBDC02C2F10C
:1034D000200300FA03FC20FA02F001FA03FE40EA9E
:1034E0000E0021FA02F11444BDE600BF03685A0041
:1034F0004CBF43F0004323F000431844704700BF23
:103500002DE9F84329B34F1E044615463E464FF0B9
:10351000000808EB060101EBD171491004EBC10969
:103520004846FFF7E3FF0346C80008308F422044B7
:1035300009D0AB4209D8FFF7D9FF0138A8420AD217
:1035400001F10108E5E7AB4205D9884501D04E1EDF
:10355000DFE74FF000094846BDE8F883012807D0AF
:10356000022807D0044B00280CBF184600207047E3
:1035700002487047024870470D3C0020153C00206F
:103580001D3C002030B5244B044683B08D1E3BB358
:10359000284601A9AFF30080E8B101992A46FFF758
:1035A000AFFF0146B8B1FFF7A1FF4B68A064012B44
:1035B0002DD0002B26DB081DFFF798FF0023C4E960
:1035C00013030368002B12DBFFF790FF0346002074
:1035D000236103B030BD00230920236103B030BD57
:1035E0000E4B0F491846C91AC9100191D6E7C3F30B
:1035F0000360FFF7B3FF0028206114BF00200920FB
:1036000003B030BD0123081DC4E91303D9E700232B
:1036100005202361DDE700BF0000000060B100204D
:10362000B0B20020036810B5DA07044606D49B0741
:1036300000F1480009D500F03DFC2368590709D581
:103640001A070ED5DB0613D510BD00F02BFC23683E
:103650005907F5D404F1D00000F034FC23681A07B0
:10366000F0D404F5A87000F035FC2368DB06EBD439
:1036700004F5E870BDE8104000F070BC0346006837
:1036800000B11844704700BF704700BF70B50446D2
:103690000E462046316CFFF775FF054688B9326C3F
:1036A0002146626101203246236998470828F0D0FC
:1036B000072806D12846316CFFF7E6FF301D00F0E1
:1036C000E5FB00F023FE00BF2DE9F04706464FF072
:1036D000000CADF5727D03AD0C1D91460FCC0FC5EE
:1036E0000FCC0FC50FCC0FC594E80F00F768D6F8C4
:1036F000188085E80F0002ADC5F800C021E02B6CF2
:103700004FF4F072736129467AA801F0F1F831465E
:1037100034697AAA5046A047889BCDE900580446F0
:103720006B644946334632460120B8470346F0B938
:103730004FF4F07228467AA9994601F0D9F8082C7E
:103740001BD13046296CFFF71DFF09F1090904461A
:103750005FFA89FA0028D2D0AB6B3246CDE9005827
:1037600001206B644AF010013346B84700B10924C8
:1037700020460DF5727DBDE8F087072CF7D148464D
:10378000296CFFF781FF03A800F080FB4FF0FF3C9E
:10379000F0B5CB6BF9B00B640E1D01AC0F460546BE
:1037A0000FCE0FC40FCE0FC40FCE0FC496E80F007C
:1037B00084E80F00CDF800C006E06A4629462B6970
:1037C00098470828044608D128461099FFF7DAFEE2
:1037D0000028F2D0092079B0F0BD6846FFF722FF3B
:1037E000062CF7D139462846FFF750FF30B4DD6B81
:1037F000C160826119461D64002230BCFFF764BFBE
:1038000070B54369C6680B64AEB90A4603690446DD
:103810000D46014602209847072805D008280FD1F9
:1038200029462046FFF732FF3046296CFFF72CFF70
:10383000281D00F02BFB0122FFF746FF00F066FD7C
:1038400000F064FDC26832B110B4CC6B00220C648D
:1038500010BCFFF739BFFFF799BF00BF012912D095
:1038600009D873B90F2A0CD800EB820042681846B9
:10387000009B1A6070470339012994BF0120022080
:103880007047022070470846704700BF002310B5FC
:1038900084B003AC0A4600941946FFF7DFFF039893
:1038A00004B010BD012912D009D873B90F2A0CD861
:1038B000009900EB8202096818465160704703398D
:1038C000012994BF0120022070470220704708465A
:1038D000704700BF30B500230D4685B003AC03929E
:1038E00019462A460094FFF7DDFF05B030BD00BF42
:1038F0004FF0FF3CF0B5D36BADF50F7D1364151D94
:1039000017AC07460E460FCD0FC40FCD0FC40FCD19
:103910000FC495E80F0084E80F00CDF858C012E0FE
:103920000C2116A86A46FFF7D5FF314616A8B847FE
:1039300078B969460820049B16AA984705280446CA
:1039400008D0092805D068462699FFF71BFE0028F5
:10395000E6D0092416A8FFF765FE20460DF50F7D79
:10396000F0BD00BF2DE9F04FCC6C174654F8042B86
:1039700089B00D461E4600F003080694002B79D04E
:103980000221130C8DF81D301204DBB204EB83040A
:1039900005928DF81C102B6DB8F1020F08BFAC6BAF
:1039A00013F001030CD0384605A900F061FB18B9EB
:1039B000082009B0BDE8F08F092009B0BDE8F08FFC
:1039C000D4F800A0BAF1000FEDD0019300F0080385
:1039D0000293022E4AD0B4F800A0B4F80290043446
:1039E000AA6C0F21384629F0010B9344FFF74EFFD4
:1039F000834539D82AF001025A44824294BF0020FC
:103A000001204FEA490303F002030AF0010A43EAE6
:103A10000A03012B49D0022B32D0002BCCD1B8F1B4
:103A2000000F02D0002840F0CD800434D4F800A06C
:103A3000BAF1000FCDD1384605A900F019FB0028D6
:103A4000BAD1019B002BB3D00F213846FFF71EFFE0
:103A50000E2102463846FFF73DFF38460F216A4ADD
:103A6000FFF738FF0720A8E70020CAE7D4F8049042
:103A70000834B5E7032312020592ADF81C308AE73B
:103A8000236823F0004BB8F1000F45D128B1029A0A
:103A9000002A5CD0BBF1000F74D0002B00DA043494
:103AA0000BF1010B04EB8B04C0E7B8F1000F19D147
:103AB000B0B1D4E90023991C4FEAD2723FF47CAF35
:103AC00005F158010133049100F09080201DFFF7AB
:103AD000D5FD04AB01462846AFF3008000285BD13A
:103AE0000834A3E70D213846D5F82090FFF7CEFE25
:103AF0008145F5D1AB6A9C42F2D12046FFF7F6FC36
:103B00000F2102463846FFF7E5FE38462A460021D7
:103B1000FFF7E0FE072050E70D213846D5F820904A
:103B2000FFF7B4FE814501D02368B6E7AB6A9C423B
:103B3000FAD104220021C5E90B12A318C5F828B058
:103B40006B6323688B4259DB01230193A8E705F1DE
:103B50005803CDF80C809146B04604F1040A1E4685
:103B60000EE050460496FFF789FD0022014604ABA3
:103B70002846AFF3008009F101090AF1040AE0B90F
:103B8000D945EED138460D21FFF780FE049B28620F
:103B9000C5E90934062010E781460D213846FFF7B4
:103BA00075FEB9F1020F286225D12B46049A43F81D
:103BB0002C2F6B620620AC62FFE646462368DDF8D8
:103BC0000C806AE72046FFF791FC02460434AC63A0
:103BD00028461446AFF3008000283FF4EDAE384687
:103BE00022460F21FFF776FE0720E6E638460D2134
:103BF000FFF74CFE2862049B6B62DBE70BF10100D0
:103C000004EB80007AE700BF000000000023FFF70C
:103C1000A9BE00BF0123FFF7A5BE00BF0223FFF727
:103C2000A1BE00BF2DE9F043064615461C46C3B0B1
:103C3000042900F2B280DFE801F09650B0270300BB
:103C4000002C40F0AA80102A00F2A7800368D80652
:103C500000F1EB8020AF384600F08AF90023012004
:103C6000B26B00FA03F129421CBF52F8041B47F85B
:103C700023100133042BF4D13846B26300F06EF9FF
:103C8000002043B0BDE8F083032C40F0868094B25E
:103C900004EB1243102B4FEA12457ED803681F072E
:103CA00000F1CB8020AF384600F036F907EBC501B4
:103CB000B56B54B10B4601EBC401E81AE4001A5885
:103CC00043F8042B8B42FAD125443846B56300F003
:103CD00001F9002043B0BDE8F083012C4FEA1248FF
:103CE00095B256D0052C58D108EB0509B9F1200F33
:103CF00053D8B8F10F0F73D9A946002D40F0848036
:103D0000B36B65B320AF4FF0000907EBC807043F62
:103D100003EBC50553F8041BAB4247F8041FF9D168
:103D2000B9F1000F0FD06F464146102938BF10215E
:103D300007EBC101843903EBC90553F8040BAB420F
:103D400041F8040FF9D1012C7FD0B8F10F0FB56302
:103D500042D9B9F1000F02D0684600F0B3F8002054
:103D600043B0BDE8F083C4B923460124826B371DFC
:103D7000A8B204FA03F101421CBF52F8041B47F831
:103D800023100133102BF4D115F40050E7D1B263A6
:103D900004E008EB0503102B03D9022043B0BDE873
:103DA000F083B8F10F0FF8D83368DA0706D530463C
:103DB00023F0030340F8483B00F078F820AF384682
:103DC00000F074F8B36B002D9DD11D4604353846C4
:103DD000B56300F067F8C2E720A800F06BF8B8E719
:103DE000B9F1100F3FD9A9F110093368D90708D5E7
:103DF000304623F0010343F0020340F8483B00F053
:103E00005DF8B9F1000F31D033685A071FD4B8F10B
:103E10000F0F24D96F46C8F11005384600F056F848
:103E2000002DB36B80DD20AF6FE723F0100333600C
:103E300006F5E87000F09CF80CE723F00803036037
:103E400000F5A87000F068F82CE720AFBEE7304618
:103E500023F0040340F8D03B00F038F8D7E720A85F
:103E600000F02CF8D6E74FF00009BEE7B8F10F0FCD
:103E70003FF646AF20AF384600F020F8B36B002D78
:103E80007FF441AF384600F015F868E700F13401DF
:103E900091E838009C46A6464CF8045D90E8FF0F78
:103EA000E54600BD90EC210B704700BF80EC210B74
:103EB000704700BF90EC200B704700BF80EC200BD8
:103EC000704700BFD0EC200B704700BFC0EC200B48
:103ED000704700BFF0EC0201F0EC0211F0EC02219F
:103EE000F0EC0231F0EC0241F0EC0251F0EC026136
:103EF000F0EC0271F0EC0281F0EC0291F0EC02A126
:103F0000F0EC02B1F0EC02C1F0EC02D1F0EC02E115
:103F1000F0EC02F1704700BFE0EC0201E0EC0211AE
:103F2000E0EC0221E0EC0231E0EC0241E0EC025175
:103F3000E0EC0261E0EC0271E0EC0281E0EC029165
:103F4000E0EC02A1E0EC02B1E0EC02C1E0EC02D155
:103F5000E0EC02E1E0EC02F1704700BFB0FC01814F
:103F6000B0FC0191B0FC01A1B0FC01B1704700BFF1
:103F7000A0FC0181A0FC0191A0FC01A1A0FC01B169
:103F8000704700BFEC4600B52DE900502DE9FF1F3A
:103F90004FF000032DE90C0001A9FFF7F7FBDDF856
:103FA00040E012B0704700BFEC4600B52DE900506C
:103FB0002DE9FF1F4FF000032DE90C0001A9FFF7C9
:103FC0001FFCDDF840E012B0704700BFEC4600B5C2
:103FD0002DE900502DE9FF1F4FF000032DE90C00E3
:103FE00001A9FFF72FFCDDF840E012B0704700BFD9
:103FF000EC4600B52DE900502DE9FF1F4FF00003FE
:104000002DE90C0001ABFFF7F1FBDDF840E012B049
:10401000704700BFEC4600B52DE900502DE9FF1FA9
:104020004FF000032DE90C0001AAFFF761FCDDF859
:1040300040E012B0704700BF027A7AB9437AA3B168
:1040400003214268013B10B443721368141D0172CE
:104050001A024460026010BC180E70470368013AEF
:1040600002721A020260180E7047B020704700BF3B
:104070002DE9F04305460E464FF0000885B0304666
:10408000FFF7DAFFB028044600F0B180070620D51C
:1040900000F0F003802B4DD0902B36D0A02B60D0B9
:1040A000B02B73D0C02B00F08A8000F0F803D02B27
:1040B0000BD100F00702013242F400220523012156
:1040C0002846FFF7AFFD0028D9D0092005B0BDE88C
:1040D000F08300230DF10C0919460D228700CDF85D
:1040E00000902846FFF7BAFBFFB2039B0437600637
:1040F0004CBFDF1BFF1800230D2219462846CDF8C0
:1041000000900397FFF7CEFBB9E700F00D030D2BEE
:10411000DBD0002303AF194600F00F0200972846BA
:10412000FFF79CFB00230D22194628460097FFF756
:10413000B9FBA4E73046FFF77FFF24022043B0F528
:10414000004FC2D00023040119462846A2B2FFF74F
:1041500069FD0028B9D114F4004F18BF4FF00108D1
:104160008DE7C3434FF47F6203F007031A41002336
:10417000010702F47F6248BF42F480421946284694
:10418000FFF750FD00283FF47AAF9EE7B12833D007
:10419000B22800F08B80B32839D000F0FC03B42B98
:1041A00093D0012300F007021A4442F4002219467A
:1041B0002846FFF737FD00283FF461AF85E7C628A2
:1041C00042D0C7284CD000F0F803C02B5BD0C828E1
:1041D00060D0C9287FF479AF3046FFF72DFF020386
:1041E00000F00F0002F470220130024366E7B8F1DC
:1041F000000F18D0002069E73046FFF71DFF024688
:1042000000283FF462AF10F0F003D0D05DE73046F5
:10421000FFF712FF0123010300F00F0001F47021EA
:10422000C2180A43C3E703AC43460E224146284660
:104230000094FFF713FB284643460F2241460094A3
:10424000FFF730FB404641E73046FFF7F5FE01033C
:1042500000F00F0001F47021421C03230A43A6E77B
:104260003046FFF7E9FE024600283FF42EAF10F07B
:10427000F0037FF42AAF04212846FFF7D3FC00287F
:104280003FF4FDAE21E700F00F020132032342F4B8
:1042900020228CE73046FFF7CFFE00F0F00200F05E
:1042A0000F031032013343EA023207E700230DF116
:1042B0000C090D2219462846CDF80090FFF7CEFADA
:1042C0003046FFF7B9FE02064FF002040CD5039BFF
:1042D00000F07F00A040034430460393FFF7ACFE9C
:1042E000030604F10704F2D40023039A00F07F00D0
:1042F00000FA04F402F50172144419460D2228460E
:10430000CDF800900394FFF7CDFAB8E6062008B583
:1043100000F070FC0120FDF78AF800BF10B40C46D5
:10432000134601462246022010BC02F053BC00BFD7
:10433000014B1868704700BFB8B2002070B50D4E31
:104340000D4D761BB61006D0002455F8043B013401
:104350009847A642F9D1094E094D06F0EBFE761BAF
:10436000B61006D0002455F8043B01349847A64205
:10437000F9D170BD4CB100204CB100205CB10020DF
:104380004CB10020024B0146186803F0E3BD00BFAA
:10439000B8B200202DE9F04F01F10B05162D0646AD
:1043A00083B024D8102900F2B68000F067FB1025F6
:1043B00002201823DFF8E88443445C68A3F1080274
:1043C000944200F0B4806368E16823F0030323445F
:1043D0005A68A56842F00102E96030468D600834F1
:1043E0005A6000F051FB204603B0BDE8F08F35F075
:1043F000070500F19080A94200F28D8000F03EFB9D
:10440000B5F5FC7FC0F085816B0A00F08B80042B32
:1044100000F25B81AB0903F1390003F13807C100F9
:10442000DFF87C8441444C680839A14206D10CE095
:10443000002A80F22281E468A14206D0636823F05A
:1044400003035A1B0F2AF3DD3846D8F81040DFF873
:1044500054C4644577D0626822F00302531B0F2BCB
:1044600000F36581002BC8E904CC80F25681B2F5D7
:10447000007F80F006810121D30852090B4401FA24
:1044800002F2D8F8041058F8337008EBC30E0A4350
:10449000AEF10801C4E90271C8F8042048F83340BD
:1044A000FC60012183109940914253D8114206D1FA
:1044B00020F003004900114200F10400FAD008EB9B
:1044C000C0094C468646E768BC4207D109E1002B8B
:1044D00080F21081FF68BC4200F003817A6822F00C
:1044E0000302531B0F2BF2DD45F0010E3046D7E9D6
:1044F00002413D4443F00106C7F804E0E1608C60EE
:10450000C8E90455C5E902CC6E60BB5000F0BCFAA6
:1045100007F1080402E00C2300243360204603B0B6
:10452000BDE8F08F4FF4007140203F2778E7DC684A
:10453000A34208BF02307FF446AFD8F81040DFF83E
:1045400064C3644587D10121D8F8042083109940C1
:104550009142ABD9D8F80840676827F00307BD42FD
:1045600002D87B1B0F2B77DCDFF83C93C84BD9F8C4
:1045700000201B6801322B4404EB070A00F0248161
:1045800003F580530F3323F47F6B2BF00F0B594649
:10459000304600F0F1FA411C024600F0E18082450D
:1045A00000F2DC80BB4B196859440846196000F0E2
:1045B0004181D9F80010019301311BBFA2EB0A0A17
:1045C0005044C9F80020186012F0070A00F00A8170
:1045D000CAF108010A44CAF5805193440831A1EB9D
:1045E0000B01C1F30B0949463046009200F0C4FAB2
:1045F000421CDDE9002300F04381801A00EB090B27
:1046000019684BF0010049444445C8F80820196076
:10461000506000F01C810F2F40F21B814FF0050C01
:1046200060680C3F27F0070700F00100384304EBF7
:10463000070E0F2F6060CEE901CC00F237811446DF
:104640005068954B1A688A4238BF1960934B1A68B4
:104650008A4238BF196086E045F0010243F0010349
:10466000254462603046C8F8085008346B6000F09A
:104670000BFA204603B0BDE8F08F23445A68E16886
:10468000A7E6B2F5206F4FEA522361D3142B00F254
:10469000BA8003F15C01C9005B3308EB010758F8ED
:1046A0000110083F8F4200F092804B6823F0030313
:1046B000934202D989688F42F7D1CF68D8F8042095
:1046C000C4E90217BC60CC60EBE6142B59D9542B1B
:1046D00000F2A1802B0B03F16F0003F16E07C10004
:1046E0009EE60EF1010E1EF0030F04F108047FF4A4
:1046F000EAAE51E03C463A445368F96854F8085F22
:1047000043F0010353603046E9608D6000F0BCF96E
:1047100004E7E80805F108034CE6224453683046F4
:1047200043F001035360083400F0AEF9F6E645F0BB
:10473000010743F00101254467603046C8E904558C
:10474000C5E902CC6960A35000F09EF90834E5E6A3
:10475000930903F13901C90038339EE7444564D019
:10476000D8F80840606820F0030B5D45ABEB05030B
:1047700002D80F2B3FF770AF304600F085F90024C8
:10478000CCE603F15C0003F15B07C10048E659F891
:1047900008394B4540F0A98010F0030F00F1FF30BD
:1047A000F5D1D8F8043023EA0103C8F804304900F1
:1047B00099423FF6CFAE19B9CCE649000EF1040E8E
:1047C0001942FAD070467AE603F1100BDFE64FF09B
:1047D000010E9A10D8F804300EFA02F21A43C8F803
:1047E00004206DE702EB0B014942C1F30B09494676
:1047F0003046009200F0C0F9431CDDE900237FF44D
:10480000FCAED146FCE6542B26D8130B03F16F0106
:10481000C9006E3341E7B3F5AA7F26D8EB0B03F14D
:10482000780003F17707C100FAE51A4B186858447D
:104830001860BEE6CAF30B0CBCF1000F7FF4B9AEF2
:10484000D8F80840BB444BF001006060F9E614461C
:10485000F7E6012353608FE7B3F5AA7F32D8D30B75
:1048600003F17801C900773317E740F254529342BD
:1048700032D8AB0C03F17D0003F17C07C100CFE51A
:10488000AAF1080AD3444FF00009ABEB020BB7E6DC
:10489000C0D6002090D60020B8D60020BCD600207C
:1048A000E8B60020F0B60020F0BA002004F10801BC
:1048B0003046009303F04EFBD8F80840009B606838
:1048C0001968BEE640F254518B420AD8930C03F1AA
:1048D0007D01C9007C33E0E64FF47E717F207E27A6
:1048E0009EE54FF47E717E23D7E6D8F804305EE76C
:1048F000844641EA000313F0030349D1403A23D32D
:104900000B6803604B6843608B688360CB68C3604F
:104910000B6903614B6943618B698361CB69C36137
:104920000B6A03624B6A43628B6A8362CB6AC3621F
:104930000B6B03634B6B43638B6B8363CB6BC36307
:1049400040304031403ADBD230320BD30B68036049
:104950004B6843608B688360CB68C3601030103154
:10496000103AF3D20C3205D351F8043B40F8043B23
:10497000043AF9D2043208D0D2071CBF11F8013B27
:1049800000F8013B01D30B8803806046704700BFED
:10499000082A13D38B07B1D010F00303AED0C3F1B4
:1049A0000403D21ADB071CBF11F8013B00F8013BDE
:1049B000A4D331F8023B20F8023B9FE7043AD9D355
:1049C000013A11F8013B00F8013BF9D20B78037072
:1049D0004B7843708B78837060467047F0B48607DD
:1049E00046D0541E002A3CD00346CAB201E0013C26
:1049F00037D303F8012B9D07F9D1032C2AD9CDB267
:104A000045EA05250F2C45EA054534D9A4F11002E5
:104A100022F00F0C03F120071609674403F110027E
:104A200042E9045542E902551032BA42F8D1721CEB
:104A300014F00C0F03EB021204F00F0613D0331F17
:104A400023F003030433134442F8045B9342FBD185
:104A500006F003042CB1CAB21C4403F8012B9C429B
:104A6000FBD1F0BC704734461346002CF3D1F8E775
:104A700014460346C1E71A462646E0E7014803F01C
:104A800011BD00BFD4D60020014803F00DBD00BF0A
:104A9000D4D600200FB400B5074983B004AB086832
:104AA00053F8042B8168019300F0DCF903B05DF842
:104AB00004EB04B0704700BFB8B20020024B0146BF
:104AC0001868826804F044B9B8B20020F0B5054611
:104AD00089B008460C46012700F08AF902262149D0
:104AE000AA6B059004AB384404940390AC68079714
:104AF00002960691019322B3636E13F0010FB4F98D
:104B00000C309AB201D1980525D5910406D4626E75
:104B100043F4005322F40052A3816266284601AA9E
:104B2000214603F01DFB636E002814BF4FF0FF35D4
:104B30000A25DA0702D4A3899B0506D5284609B0C1
:104B4000F0BD284603F066F9D6E7A06D03F0ACFC93
:104B5000284609B0F0BDA06D03F0A4FCB4F90C30F8
:104B60009AB2D2E7E0AD0020024B01461868FFF789
:104B7000ADBF00BFB8B20020002238B5064D0446D4
:104B800008462A60FCF7AEFC431C00D038BD2B68F9
:104B9000002BFBD0236038BDE8D600201F2938B594
:104BA000054621D8D0F8DC220C466AB152F82130F3
:104BB00053B1012B16D0591C10D00025204642F8C5
:104BC00024509847284638BD284600F031F8224640
:104BD00001462846BDE8384000F014B816230120ED
:104BE0002B6038BD002038BD16234FF0FF302B60FE
:104BF00038BD00BF024B01461868FFF7CFBF00BFAA
:104C0000B8B2002070B50C4603460026074D20467A
:104C100011461C462E60FCF72FFC431C00D070BDD3
:104C20002B68002BFBD0236070BD00BFE8D60020AE
:104C3000FCF711BC80EA010C1CF0030F37D110F017
:104C4000030C20F0030021F0030150F8042B08BFEF
:104C500051F8043B0ED08CF0030C6FF07F434FEA09
:104C6000CC0C23FA0CFC51F8043B42EA0C0243EA58
:104C70000C0300BFA2F1013C9A4201BF2CEA020CD6
:104C80001CF0803F50F8042B51F8043BF2D04FEA5F
:104C900002604FEA1222012828BFB0EB036F08BF61
:104CA0001B0AF4D003F0FF03000EC01A704710F087
:104CB000030F0AD010F8012B11F8013B012A28BF7D
:104CC0009A42F4D0A2EB030070474DF8045D50F80F
:104CD000042B01F0030521F0030151F8043B022DE0
:104CE00026D04DD822F07F45B5EB132FA2F1013C21
:104CF0002CEA020C0DD11CF0803C08BF51F8043B9B
:104D00000AD185EA0205B5EB036F0CD150F8042BEC
:104D1000E8E74FEA13235BE03CF07F4C54D10B787B
:104D20004FEA126554E04FEA126503F0FF034FE0CB
:104D30004FEA0245A2F1013C4FEA15452CEA020C6C
:104D4000B5EB134F18D11CF0803C08BF51F8043B61
:104D500007D185EA0205B5EB034F09D150F8042BC2
:104D6000E6E75FEA0C4C2FD10B884FEA12452FE0A3
:104D70004FEA03434FEA12454FEA134328E000BFCE
:104D800002F0FF05B5EB136FA2F1013C2CEA020C17
:104D90000DD11CF0803C08BF51F8043B0AD185EAD4
:104DA0000205B5EB032F0AD150F8042BE8E74FEAD0
:104DB00013630DE012F0FF0F06D051F8043B4FEAE9
:104DC000122523F07F4303E04FF0000020BC704722
:104DD00005F0FF0203F0FF00012828BF904204BF46
:104DE0002D0A1B0AF4D0A2EB000020BC704700BFC4
:104DF00020F0030110F00300C0F1000051F8043B63
:104E000000F1040C4FEACC0C6FF000021CBF22FA38
:104E10000CF213434FF0010C4CEA0C2C4CEA0C4CF6
:104E2000A3EB0C0222EA030212EACC1204BF51F8EF
:104E3000043B0430F4D0C2F1000102EA0102B2FAEC
:104E400082F2C2F11F0200EBD200704730B40D466F
:104E5000034C134601462A46206830BCFCF734BB9D
:104E6000B8B200202DE9F04FD7B01C468B4617464C
:104E7000814603F00FFB03680E9418461893FFF762
:104E8000B7FF1790B9F1000F04D0D9F83830002BD4
:104E900000F0EA81DBF8643013F0010FBBF90C304D
:104EA0009AB202D19D0540F1B58690040AD4DBF890
:104EB000642043F4005322F40051ABF80C309AB252
:104EC000CBF86410110740F1BB80DBF81030002BE9
:104ED00000F0B68002F01A030A2B00F0BF80002316
:104EE00000210022CDE92B33CDE91A33CDE91C3363
:104EF000139319930A932DAB98462A933B78DA467D
:104F0000CDE91412002B00F060813C4604E014F857
:104F1000013F002B00F0B980252BF8D1E51B40F0B4
:104F2000B7802378002B00F0508100230B938DF87D
:104F30008B3007934FF0FF33667804F1010B20218B
:104F40002B2409930BF1010BA6F120035A2B00F23D
:104F5000BB80DFE813F0EA02B900B900E302B90050
:104F6000B900B900BF02B900B9006A005202B90025
:104F700033025E02B90057025B005B005B005B001E
:104F80005B005B005B005B005B00B900B900B9002F
:104F9000B900B900B900B9004201B900C1019401DA
:104FA000420142014201B900B900B900B900AF02A3
:104FB000B900B900FB01B900B900B900D501B900C9
:104FC0007802B900B900B707B900B900B900B90053
:104FD000B900B900B900B9004201B900C101980196
:104FE000420142014201A50298018D01B9009B02D4
:104FF000B9003A02FF0189028D01B900D5017200A2
:105000009207B900B9009607B90072000022A6F114
:1050100030031BF8016B02EB820203EB4202A6F1A4
:105020003003092BF5D90B928EE70E9B53F8042B16
:10503000002A0B920E93C0F2BE819BF8006081E7BC
:105040005946484601F05EFD002841F09B83BBF8BD
:105050000C2002F01A030A2B7FF441AFBBF90E308B
:10506000002BFFF63CAFDBF86430DE0702D4950579
:1050700041F1808123463A465946484601F0FEFCFC
:105080000A900A9857B0BDE8F08FE51B00F09D80AC
:10509000DDE92B3201332A44072BC8E90075CDE93D
:1050A0002B3206DC08F108080A9A23782A440A926F
:1050B00038E7514648462AAA04F062F9002841F030
:1050C0000E840DF1B408EFE7002E7ED000230121FD
:1050D0001A4608918DF8F4608DF88B300D93099382
:1050E0001293169310930C913DAF079B13F002039C
:1050F00002D0089902310891079911F084010F91AB
:1051000005D10B9908980D1A002D00F39C832C9C57
:1051100072B101202B9A044402440DF18B01072A3D
:10512000CDE92B24C8E9001000F30B8408F108082E
:105130006BB102212B9B0C44013323AA072BCDE931
:105140002B34C8E9002100F30B8408F108080F9BF9
:10515000802B00F07882099B0C9A9D1A002D00F399
:10516000B282079BDD0500F119822B9B0C9A01335B
:105170001444072BC8E900722C942B9300F3D583B9
:1051800008F10808079B5D0705D50B9B089A9D1A37
:10519000002D00F3F283DDE90A3208998A42ACBFA0
:1051A0009B185B180A93002C40F0C18200232B93BC
:1051B0000D9B1BB148460D9902F0CCFE5F460DF1E8
:1051C000B4083B78002B7FF4A0AE2C9BD346002B79
:1051D00040F0FB8700232B93B7E20E9B073323F0AD
:1051E00007031946F1E80223CDE91423DDE914345D
:1051F00024F000441D4618460E914FF0FF32214620
:10520000B04B04F081FD002840F06F852846214610
:105210004FF0FF32AB4B04F059FD002840F065859C
:10522000DDE914010022002304F046FD002841F0CE
:10523000E9809DF88B2003200021A34FA34B089009
:105240000D91472EC8BF1F46079C0C9024F0800488
:1052500007940991129116911091002A3FF445AFDD
:10526000089B0133089340E7484602F0D3FD11E65E
:10527000079B9BF8006043F02003079362E6079BBF
:1052800043F010030793079B9C0640F18E840E9B0E
:10529000073323F007031946F1E8022314461D469D
:1052A0000E91002A73F10003C0F2F884099B0133C8
:1052B000079B00F0098323F0800354EA050208935A
:1052C00040F00383099A002A40F0048307930023E7
:1052D00056AF09930C9353E1002101240E9B0A461B
:1052E00053F8040B0894CDE90D138DF88B108DF84D
:1052F000F40009911291169110910C943DAFF4E6CF
:1053000000250E9C8DF88B5054F8047B002F00F084
:105310002386099A1346013300F01687294638463A
:1053200003F03CF90D90002801F0A6812B460D9A60
:105330000995D21B0C9222EAE27208920E949DF813
:105340008B200D9312931693109386E7079B43F0DF
:1053500010030793079B9A0640F148840E9B07337E
:1053600023F00703F3E802450E93079B23F48063C1
:105370000893002300228DF88B20099A11460131F1
:1053800000F0DF80089921F08001079154EA0501BF
:1053900040F0D580002A40F03882002B97D1089B3E
:1053A00013F001030C9300F0658430230DF25717BE
:1053B0008DF85731E4E00B9B5B420B93079B9BF806
:1053C000006043F004030793BCE5079B9D0600F1D2
:1053D0007084079BDC0600F17B86079B580600F172
:1053E0000687079B990540F173860E9B0A9953F82F
:1053F000042B5F4611700E93E3E69BF800608DF876
:105400008B409FE5079B9BF8006043F08003079368
:1054100098E55A4612F8016B2A2E01F00783A6F18F
:105420003003092B934698BF002201F26F811BF8CD
:10543000016B02EB820203EB4202A6F13003092B5F
:10544000F5D9099280E5079B43F010030893089B68
:105450009D0640F1BB830E9B073323F00703F3E85F
:1054600002450E93012385E747F630020E9B07990C
:1054700053F8044B41F002010E93154B002519938C
:10548000782602230891ADF88C2073E79BF8006022
:10549000079B6C2E00F0418543F01003079351E504
:1054A0009BF80060079B682E00F04D8543F0400399
:1054B000079347E5079B9BF8006043F008030793B9
:1054C00040E500BFFFFFEF7FE4AD0020E8AD002026
:1054D000F4AD0020484602F0DDFF436818461C93F7
:1054E000FFF786FC034648461D461D9302F0D2FF97
:1054F000826820211A92002D3FF49FAD1A9B002B49
:105500003FF49BAD1A9B1B78002B3FF496AD079B95
:105510009BF8006043F48063079313E5079B9BF8B7
:10552000006043F0010307930CE59DF88B30002BDE
:105530007FF483AD9BF800608DF88B1002E5079A2D
:105540000892012B00F0C181022B00F0668156AF5A
:10555000E20842EA4572E90804F007030D461446E2
:10556000303354EA05013A4607F8013DF0D1089975
:105570000846C00700F1D38256ABDB1B07910C93A2
:10558000002309990D931293169310930C9B9DF889
:105590008B208B42B8BF0B4608935EE6652E40F326
:1055A000E580DDE914010022002304F07BFB0028E4
:1055B00000F01B8201212B9BCB4A0B440C44072B90
:1055C000CDE92B34C8E9002100F3678508F108080C
:1055D000249B139A934280F218832B9B179A0133D2
:1055E00018991444072BC8E900122C942B9300F34C
:1055F0009D8408F10808139B5D1E002D7FF7C2AD46
:10560000102D40F35785B94F10262B9B0F9705E0BF
:1056100008F10808103D102D40F34F850133103478
:10562000072BCDE92B34C8E90076F1DD5146484619
:105630002AAA03F0A5FE002840F08180DDE92B3482
:105640000DF1B408E6E70B9B089A9D1A002D7FF731
:1056500082AD102D41F3A780A448214610230446B3
:105660002B9A0F9004E0103D102D08F1080817DD6B
:1056700001321031072ACDE92B21C8E90043F2DDC0
:10568000514648462AAA03F07BFE002857D1DDE99F
:105690002B21103D102D4FF010030DF1B408E7DC65
:1056A0000C4601320F9B2C44072ACDE92B24C8E974
:1056B000003500F30A84099B0C9A08F108089D1A2A
:1056C000002D7FF74EAD102D40F37A858748214697
:1056D000102304462B9A0F9004E0103D102D08F182
:1056E000080816DD01321031072ACDE92B21C8E95F
:1056F0000043F2DD514648462AAA03F041FEF0B9C4
:10570000DDE92B21103D102D4FF010030DF1B408F1
:10571000E8DC0C4601320F9B2C44072ACDE92B24F0
:10572000C8E9003500F3348208F1080819E551464C
:1057300048462AAA03F024FE00283FF437ADD3469A
:105740000D9911B1484602F005FCDBF8643013F006
:10575000010FBBF80C3002D1980540F1778459064F
:1057600001F11C800A9857B0BDE8F08F139B012B04
:1057700040F3B78101232B9D1C441D44072D2C941D
:10578000C8F800702B95C8F8043000F3FF8308F1C7
:105790000808179B0135189A1C44072DCDE92B5496
:1057A000C8E9002300F3008408F108080023DDE9BC
:1057B0001401002204F076FA139B002840F0BD810A
:1057C000013B013501371C44072DCDE92B54C8F8A6
:1057D0000070C8F8043000F3938308F108081B9A9E
:1057E0000135144426AB072DCDE92B54C8E900320E
:1057F0007FF7C6AC514648462AAA03F0C1FD0028EF
:105800009DD12C9C0DF1B408BCE4012B00F0D08795
:10581000022B079B08937FF49AAE199856AF230981
:1058200043EA0573290904F00F020D461C46835C08
:1058300007F8013D54EA0503F1D1089B079356ABE5
:10584000DB1B0C939CE6102D40F33887DDE92B2100
:105850001E930B463946102437465646CA4689469B
:1058600004E0103D102D08F1080817DD0132204931
:105870001033072ACDE92B23C8E90014F1DD3146A6
:1058800050462AAA03F07CFD002840F0F883DDE9A9
:105890002B23103D102D0DF1B408E7DC4846D1460E
:1058A000B2463E46074619461E9B6C180132104907
:1058B000072ACDE92B24C8E9001500F3CF839DF812
:1058C0008B2008F1080823E40893002D08BF0A2C58
:1058D00080F07883089B3034079301238DF857417B
:1058E0000C930DF257174BE624AE002038AE002083
:1058F00028AE00202B9B1799013318980C44072BD6
:10590000C8E900012C942B9300F3258508F10808C1
:10591000002AC0F2FF86139A01331444072BCDE905
:105920002B34C8E900727FF72BAC514648462AAAAF
:1059300003F026FD00287FF402AF2C9C0DF1B40883
:1059400020E4514648462AAA1E9303F019FD002878
:105950007FF4F5AE2C9C1E9B0DF1B408FFF7E8BB5D
:10596000514648462AAA03F00BFD00287FF4E7AE13
:105970002C9C0DF1B408FFF7EABB102D40F3FF8615
:1059800010262B9B04E0103D102D08F1080817DDB0
:105990000133B94A1034072BCDE92B34C8E900266E
:1059A000F1DD514648462AAA03F0EAFC00287FF4BC
:1059B000C6AEDDE92B34103D102D0DF1B408E7DC47
:1059C0000133AD4A2C44072BCDE92B34C8E900251F
:1059D0007FF7E1AB514648462AAA03F0D1FC0028E4
:1059E0007FF4ADAE2C9CFFF7D6BB249A002A40F37F
:1059F0001A81109B139A9342A8BF1346002B1D4691
:105A00000BDD2B9B2C440133072BC8E900752C942C
:105A10002B9300F3DB8508F10808109B002DA8BF2D
:105A20005B1B002B1D4600F36783109B3B441E4607
:105A3000079B590500F10185249B139A934203DBD0
:105A4000079AD20740F1CB832B9A17990132189805
:105A50000C44072AC8E900012C942B9200F3C3855B
:105A600008F10808139ABD18AD1BD31A9D42A8BFB0
:105A70001D46002D0BDD2B9A2C440132072AC8E964
:105A800000652C942B9200F31D8608F10808002D68
:105A9000B4BF1D465D1B002D7FF774AB102D40F386
:105AA0000983764F10262B9B0F9705E008F1080815
:105AB000103D102D40F3018301331034072BCDE945
:105AC0002B34C8E90076F1DD514648462AAA03F096
:105AD00057FC00287FF433AEDDE92B340DF1B40818
