:1000000000000120910100007F030000F1040000C6
:100010008303000003050000150500000000000038
:100020000000000000000000000000008903000044
:100030008B030000000000008D0300008F03000010
:100040009103000093030000950300009703000054
:10005000990300009B0300009D0300009F03000024
:10006000A1030000A3030000A5030000A7030000F4
:10007000A9030000AB030000AD030000AF030000C4
:10008000B1030000B3030000B5030000B703000094
:10009000B9030000BB030000BD030000BF03000064
:1000A000C1030000C3030000C5030000C703000034
:1000B000C9030000CB030000CD030000CF03000004
:1000C000D1030000D3030000D5030000D7030000D4
:1000D000D9030000DB030000DD030000DF030000A4
:1000E000E1030000E3030000E5030000E703000074
:1000F000E9030000EB030000ED030000EF03000044
:10010000F1030000F3030000F5030000F703000013
:10011000F9030000FB030000FD030000FF030000E3
:1001200001040000030400000504000007040000AF
:10013000090400000B0400000D0400000F0400007F
:10014000110400001304000015040000170400004F
:10015000190400001B0400001D0400001F0400001F
:1001600021040000230400002504000027040000EF
:10017000290400002B0400002D0400002F040000BF
:100180003104000033040000000000000000000003
:100190004FF0000BDFF8BE020068DFF8B612096806
:1001A00001F0030100F01C00142801D14BF0020BF8
:1001B000002901D04BF0010BBBF1000F05D0A7487F
:1001C000A749DFF8722200F09FF8A64880470BF09D
:1001D000020ABAF1000F0CD0DFF86E02DFF86E12DF
:1001E00002680B680FB44FF000024FF0FF0302608B
:1001F0000B609D484FF000024FF00103022808D128
:10020000DFF83A120A60DFF83E120A60DFF83212B5
:100210000B60012808D1DFF82A120A60DFF82612E5
:100220000A60DFF81A120B609048002809D1904844
:100230009049914A00F030F890489149914A00F075
:100240002BF891489149924A00F026F8914892493A
:10025000DFF8E22100F058F8BBF1000F10D08F4812
:100260008F49DFF8D62100F04FF80BF0020ABAF1FF
:10027000000F05D00FBC02600B6000BFAFF3008021
:10028000DFF820020FF2030E00474FF000004FF09E
:100290000001DFF814F2FEE72DE9F841884225D08D
:1002A000B2EB010200D5FEE740EA010313F00303BD
:1002B00002D000F01DF819E04FF000039046121133
:1002C000F7D09A421CBFF0C8F0C103F10103F8D186
:1002D00008F00F08B8F1000F08D004780C7000F196
:1002E000010001F10101B8F10108F6D1BDE8F88182
:1002F00008B54FF0000303780B7000F1010001F125
:100300000101013AF7D108BD884237D000F0030659
:10031000002E14D04FF00405A5EB06044FF008079B
:1003200007FB06F8914669FA08F9002C07D080F817
:10033000009069FA07F900F10100013CF5E74FF080
:1003400000060F46091A88460911914614461546BB
:10035000B14206D018BFA0E8340206F10106B1424E
:10036000F8D108F00F08B8F1000F07D002704FEA7B
:10037000322200F10100B8F10108F4E77047FEE70E
:10038000FEE7FEE7FEE7FEE7FEE7FEE7FEE7FEE745
:10039000FEE7FEE7FEE7FEE7FEE7FEE7FEE7FEE735
:1003A000FEE7FEE7FEE7FEE7FEE7FEE7FEE7FEE725
:1003B000FEE7FEE7FEE7FEE7FEE7FEE7FEE7FEE715
:1003C000FEE7FEE7FEE7FEE7FEE7FEE7FEE7FEE705
:1003D000FEE7FEE7FEE7FEE7FEE7FEE7FEE7FEE7F5
:1003E000FEE7FEE7FEE7FEE7FEE7FEE7FEE7FEE7E5
:1003F000FEE7FEE7FEE7FEE7FEE7FEE7FEE7FEE7D5
:10040000FEE7FEE7FEE7FEE7FEE7FEE7FEE7FEE7C4
:10041000FEE7FEE7FEE7FEE7FEE7FEE7FEE7FEE7B4
:10042000FEE7FEE7FEE7FEE7FEE7FEE7FEE7FEE7A4
:10043000FEE7FEE7704700000000A2A2A2A2008033
:100440000340088003401080034030800340348024
:1004500003403880034018080240000000F00020EC
:10046000000001202D050000000000000000000039
:10047000000000000000000090010000B004000037
:10048000B004000038A0000040A0000000000020E0
:10049000800000208000002090570020905700200E
:1004A00000F00020AD5400001949000000000000D9
:1004B00010B5054C237833B9044B13B10448AFF39E
:1004C00000800123237010BD800000200000000088
:1004D00000A0000008B5034B1BB103490348AFF36C
:1004E000008008BD000000008400002000A0000083
:1004F0001EF0040F0CBFEFF30880EFF3098000F04B
:100500006BB81EF0040F0CBFEFF30880EFF3098007
:1005100000F062B81EF0040F0CBFEFF30880EFF399
:10052000098000F059B80138FDD170474FF602023A
:100530000B4BD3F84C1191420BD1D3F8982042F4D5
:100540008072C3F89820D3F8982022F08062C3F814
:100550009820044A536943F400735361FFF76ABF5C
:100560000080034000ED00E04FF0FF307047FEE7F1
:100570004FF4005300204B6070470120704701206A
:10058000704708B504F08CFF162303604FF0FF306E
:1005900008BD002070470020704700207047000011
:1005A0000A4A0346116809B9094911601068EFF356
:1005B00008818842034402D2994204D2FEE70549E9
:1005C0008B4200D9FEE71360704700BF9C000020FB
:1005D0009057002000F000202DE9F14F04462548F7
:1005E00003F0B4FAD4E901BAD4E90398D4E9057662
:1005F000E56921684FF0E0241F4803F0A7FA594647
:100600001E4803F0A3FA51461D4803F09FFA4946DD
:100610001C4803F09BFA41461B4803F097FA394601
:100620001A4803F093FA3146194803F08FFA294625
:10063000184803F08BFAD4F8381D174803F086FAEF
:10064000D4F8281D154803F081FAD4F82C1D14485D
:1006500003F07CFAD4F8301D124803F077FAD4F88E
:100660003C1D114803F072FA002301B0BDE8F04FC1
:10067000184700BF587400007974000082740000AD
:100680008B740000947400009D740000A774000037
:10069000D6740000F6740000007500000B750000B1
:1006A00016750000217500002C75000038B5044651
:1006B000074B084AD3E90005A0FB0401002304FB13
:1006C000051106F051FDBDE838400130FFF72BBFA2
:1006D0000800002040420F004FF0FF3310B5074CD8
:1006E0000144884201D1D84310BD10F8012B82EAA1
:1006F000136254F8222082EA0323F2E77C98000078
:1007000008B52B4803F022FA2A4B2B48196803F04E
:100710001DFA2A4B2A48196803F018FA294B2A486F
:10072000196803F013FA294B2948196803F00EFAE7
:10073000284B2948196803F009FA284B28481968FA
:1007400003F004FA274B2848196803F0FFF9274BF8
:100750002748196803F0FAF9264B2748196803F06F
:10076000F5F9264B2648196803F0F0F9254B264881
:10077000196803F0EBF9254B2548196803F0E6F9F1
:10078000244B2548196803F0E1F9244B24481968E3
:1007900003F0DCF96946234803F0D8F9224B2348DB
:1007A000196803F0D3F9BDE80840214803F0CEB939
:1007B00037750000000000004C750000900100003B
:1007C0006B750000B00400008475000038A00000C4
:1007D0009B75000030A00000AC75000038A0000040
:1007E000C475000000000020DA75000080000020C1
:1007F000F175000080000020027600009057002074
:100800001A760000905700202A76000000F00020A1
:100810004376000000F00020547600000000012024
:100820006E7600008076000090570020CB750000A7
:10083000308D000038B515460A46014618681C463A
:10084000A8472060B0FA80F04009404238BD2DE949
:10085000F04105460C4616461F4614B92046BDE831
:10086000F081102CA04628BF4FF010083B463246BE
:1008700041462846FFF7DEFF002802DBA4EB080410
:10088000EBE74FF0FF30EAE72DE9F84F0546DDE9E9
:100890000ABADDE90D980E461F461446F2B94FBB61
:1008A000BAF1000F33D109EB0807B9F1000F07D0F7
:1008B00033462A4649460C98FFF7BCFF002815DB53
:1008C0005744B8F1000F07D033462A464146144832
:1008D000FFF7BDFF002809DBE01909E00B460246DF
:1008E00021460F48FFF7B3FF0028D8DA4FF0FF305A
:1008F000BDE8F88FBBF1000FD2D033462A465946E7
:100900003846FFF797FF0028F0DB5C44C8E7334622
:100910002A4651460348FFF79AFF0028C3DAE5E765
:10092000ED9C0000DC9C00002DE9F84F0D461E46B2
:1009300040F2FF73C5F30A549C429246C1F313017F
:100940004FEAD57577D050EA01032DD124B33B4A45
:100950003B4B0F0347EA105719464FEA003C394B0F
:100960001046394A5CEA070E2CD1A4F2FF39C8467A
:100970000027DFF8D8B0B8F1000F33DC40F2FF33C6
:100980000A229C42ACBF1B1BDB1A3C469944304FE9
:10099000304BB9F1000F39D1CAF800500A9BC6E9B3
:1009A00000011C60BDE8F88F002CD0D1012402E0CA
:1009B0001C46001849410A0304F1FF33F8D5002210
:1009C0001346C6E7002F02DA181841EB02011CEBB0
:1009D0000C0C7F41013342F100025B0843EAC27311
:1009E0005208BFE71C4B0018494183427BEB0103CF
:1009F00009D205304FF00A024FF0000341F1000127
:100A000006F0B2FB013708F1FF38B4E7874273EB19
:100A1000010C21BF02FB01FCA0FB020104F1FF3429
:100A20006144013041F10001400840EAC17009F120
:100A300001094908ADE76FF00044ADE70080C6A4A6
:100A40007E8D030000406352BFC60100F286230082
:100A5000FFFF8C49FD1A0700FFFFC06F30B58468A7
:100A60008C4294BF0021611A446814F0040516BF3B
:100A7000084628460021640607D50844002D14BF07
:100A80000446441C6108A0EB54001160186030BD9E
:100A90002DE9F04F9DB0CDE90D23DDE92876002347
:100AA000CDE909010A9ACDE9163322F02008B8F100
:100AB000470F26992A9CC2688DF853301ED143688F
:100AC000251D23F0200343600A9B01DB94420DDBCC
:100AD000672B40F0628265234FF000080A93002ADA
:100AE0004FF0010380F2C780109310E0672B40F0B5
:100AF000568266234FF001080A93F0E7A8F14600FA
:100B0000D0F1000848EB0008002A109302DA06230F
:100B1000099AD360099B5B680C93002940F0B2806E
:100B20009A0700F1B180834A13F0010F824B08BF8E
:100B300013461293129804F0F8FC099B1390D3F813
:100B40000CA00C9B13F0200500F0A080032394FB65
:100B5000F3F303EB4303E31A48BF0333B8F1000F89
:100B600000F09B8084EAE472A2EBE472182A01DDB3
:100B7000183A13445344013323EAE3736F4870492E
:100B80001193119B013B1193013340F08C8010EBCA
:100B9000070B41EB060307936A4B079A5B456A4BC9
:100BA00093410DD207991BF105004FF00A024FF057
:100BB000000341F1000106F0D7FA834607910134A2
:100BC000079B5BEA030379D00A2200235846079962
:100BD00006F0CAFA1A434FF0100308930DD1089B90
:100BE0005846013B079908930A22002306F0BCFAF5
:100BF000089B83460791002B5AD1B8F1000F65D0AE
:100C00005DB10823022C5CDD0133033C5A1E0E2A21
:100C1000F8D94E4AD35C8DF8533044EAE475013577
:100C2000089B5F1B27EAE7775745A8BF5746B8F1EF
:100C3000000F02D0109B002B67D1139BE918394499
:100C4000B8F1000F00F08880002D64D14FF0010949
:100C500001310F95661C6BDABAF1000F68DDE643CF
:100C6000564528BF564631449DF953300BB10023F9
:100C700001310B9381E002D0012310934AE7099AD6
:100C8000D360F9E7324B54E7324B52E7B8F1000F2B
:100C900007D1002CACBF2346631C002BB8BF5B42BE
:100CA00068E7234666E70A22002306F05DFA68E754
:100CB0000A22002306F058FA1A438FE7002308930C
:100CC0009BE7002CA5DA013B03349FE755B10323D2
:100CD00094FBF3F303EB4303E31A48BF03335D1CB8
:100CE000E41A9DE701259BE70A220023013E06F056
:100CF0003BFAB145F8DB002F9FDD0A22002306F006
:100D000033FA1A4399D1013FF5E75846089E0799EF
:100D100005EB0709EDE7089BAB42AFBF4FF00009B9
:100D2000EB1A4FF000090F93A8BFCDF83C9091E764
:100D3000002699E7328D0000369800000080E037E9
:100D400079C31100FFFFC06FF2862300A19C000051
:100D5000749800009876000043460A2284EAE476FC
:100D6000A6EBE476002E40F0E680022B38BF02238B
:100D7000B14602310B9319440F96BB19534580F0CD
:100D8000DE80109B1BB10C9B180740F1E280AAEBA0
:100D90000708A8EB060856EA0803414408D1002FCB
:100DA00004DC0C9B13F0080800F0D7804FF000081B
:100DB00001230131109317AB16AA0998FFF74EFED5
:100DC0000C9BDA0641BF169B9944002316937DB114
:100DD00058460F9B0799ED1A089BA3EB050ABAF139
:100DE000000F00F3BD80AA46BAF1010A80F0BF806F
:100DF000DDE90D014FF0000A18ABCDE90193139B1B
:100E0000CDE9035A0093169A129BFFF73DFDB0F10E
:100E1000FF3F814600F08B80DDE90D010F9B5246BC
:100E2000CDE900A3CDE903AA5346CDF808A0FFF70A
:100E30002BFD431C7BD08144DFB1089B5D1BED1B68
:100E40000A2200235846079906F08EF9002D00F378
:100E500097807D1E0DF1600A584607990A220023EB
:100E600006F082F9303205F80A20013D83460791E9
:100E7000F2D2DDE90D014FF0000A109B18ADCDE96B
:100E8000016500935246CDE9037A464BFFF7FCFC1F
:100E9000461C4CD053465246CDE903AACDE9018AFF
:100EA00009EB0006CDF800A0DDE90D01FFF7ECFC31
:100EB000411C3CD00B9B064413B30A9A54458DF851
:100EC0005420ACBF2B222D220A2184EAE4738DF832
:100ED00055200B9AA3EBE473002A55DCDDE90D01E4
:100EE0000B9B002223EAE373CDE902530223049211
:100EF0000192009315ABFFF7C7FC421C17D00644C4
:100F0000179BDDE90D0104939DF95330003B18BF99
:100F1000012303930DF15303029300231A46CDE9F5
:100F20000033FFF7B1FC431C01D033181193119823
:100F30001DB0BDE8F08FB6FBF2F6013312E7B8F151
:100F4000000F06D0534504D95144C91AA3EB0A0334
:100F5000FF1A002E7FF42AAF21E7CDF840802AE760
:100F60000A22002306F000F90AF1FF3A37E70A22C5
:100F7000002306F0F9F818AB303203F80A2033E703
:100F80008346013D07915BE7B3FBF1F001FB1033B2
:100F9000013A3033AB5403469EE745239CE5462394
:100FA000A8E500BF988000002DE9F04FBFB00646CD
:100FB0004FF0000810460B910D93002A00F0D080EE
:100FC000CDF8488090F90030002B00F09384034660
:100FD0001D4613F9012B0AB1252AF9D12C1A0AD082
:100FE000324621460BABFFF725FC0028C0F2B88043
:100FF000129B2344129395F90030002B00F0778464
:101000000027DFF87C92DFF87CA201352C4614F92A
:1010100001BB1397BBF1000F69D05946984804F003
:1010200083F950B9BBF12A0F61D10D9B1A1D0D92A6
:101030001B68002B08DB14930BE0A0EB09005AF8A7
:10104000203025461F43E1E75B4247F00407149335
:101050001397149BB3F5FA7F00F3828094F9003064
:101060002E2B5ED04FF0FF33159394F900303A2BBE
:1010700000F086800023169310230021CDE91A3357
:1010800094F90030CDE918115B2B40F0A980631C66
:10109000189393F900101A460133002960D05D2996
:1010A000F7D1121B1C46013A199294F900503DB138
:1010B0002946754804F038F9002800F0DF80013433
:1010C0008DF85C504DB194F9003033B19D4202BFB0
:1010D00045F001058DF85C50013494F90050002D65
:1010E00040F0D6800D9B1A1D0D9218686AE7002209
:1010F0000A2713466548149295F900102C460135CD
:1011000011B9002A97D1A4E710F801C01CF0040F10
:10111000F7D0B3F5FA7FF4DA07FB03130122303B73
:10112000EAE794F901302A2B09D10D9B1A1D0D9283
:101130001B68B3F5FA7F159312DC023495E70023A0
:101140000A271A46514D1593601C90F90010044669
:10115000013041B9002B88D0B2F5FA7F159284DDB9
:101160004FF0FF30C7E315F801C01CF0040FF1D0B9
:10117000B2F5FA7FEEDA07FB02120123303AE4E718
:1011800094F901302A2B0CD10D9B1A1D0D921B686E
:10119000002B04DB242BE3DC169302346CE70023E2
:1011A000FAE700230A271A46384D1693601C90F977
:1011B00000100446013039B9002B3FF45DAF242AFA
:1011C00016927FF759AFCBE715F801C01CF0040F5A
:1011D000F2D0232AF0DC07FB02120123303AE6E7C3
:1011E0007B2B7FF462AF94F901302A2B11D00A25B2
:1011F0002648621C144612F9013B002BB0D0C75C94
:101200007F070BD51F2909D805FB0133A3F1300156
:10121000F0E70D9B02341A1D0D92196820299FD802
:1012200094F900302E2B9BD194F901302A2B14D045
:1012300000230A27154D601C044610F9012B002AD3
:101240008ED015F802C01CF0040F0BD01F2B09D84C
:1012500007FB0322A2F13003EEE70D9B02341A1DB7
:101260000D921B68202B04F101043FF679AFCA18D8
:101270001F2A3FF675AFCDE91A1316E705461FE79B
:10128000D49C0000B49C0000B1760000F19E0000E8
:10129000432D2FD1631C079394F90130002B3FF4A9
:1012A0005FAF732D8DF85D308DF8335008DC622D03
:1012B00023DC432D00F0D28048DC252D00F0BD80DA
:1012C0009DF93320642A22F0200402D0492C40F0FA
:1012D0007981139B492C23F0080343F08003139377
:1012E00040F01B831699002908BF0A21552A00F0F7
:1012F0006D81A4E100230794D3E7A5F16303102BCC
:10130000DED801A252F823F053140000C1120000ED
:10131000571300005713000057130000C1120000BC
:10132000C1120000C112000001150000C11200002E
:10133000C1120000EB130000C1120000AB15000049
:10134000C1120000C112000093140000A5F1450372
:10135000DBB2022BB4D89DF95C304C2B3FF400AFCC
:101360000D990EAA073121F0070101F108030D9331
:101370000FAB0093D1E900011CABFFF7D5FA6FF07A
:1013800000420F9B0E99934240F0AC80DDE91C3285
:10139000134319BF9E4F9F4B9F4FA04B653DEDB22E
:1013A000022D98BF1F46002940F09880139B9A0792
:1013B00000F1968013F0010F994B9A4C18BF1C4610
:1013C000204604F0B2F811AB0546C11C10AA12A8C1
:1013D000FFF744FB119B04930323CDE90273002321
:1013E000CDE900532346109A73E00D9B1A1D0D9210
:1013F0001B689BB19DF95C10129A74291BDC67294C
:1014000019DD68390C2916D8DFE801F0070F11152E
:10141000151515151515151515001A800024129BA4
:101420000798234412930130CCE51A70F6E71A604E
:1014300000225A60F2E71A60F0E7324601210BAB56
:101440000DF13300FFF7F6F90028FFF689AE01240D
:10145000E5E70D9B1A1D0D9293F900308DF8703061
:10146000159B0024002BBCBF01231593159D012D56
:10147000B8BF0125324601210BAB1CA8FFF7DAF9F2
:101480000028FFF66DAE0134A542F3D1002CC6DA78
:1014900066E60D9B1A1D0D921D68634B002D08BF5B
:1014A0001D46284604F041F8159B0446002B02DB3C
:1014B000984228BF1C461CAB11AA214612A8FFF770
:1014C000CDFA1C9B119ACDE903430023CDE90033EB
:1014D000029530460BA9FFF7D7F90FE0534C6FE7A1
:1014E000534C6DE704930091DDE91C232946CDE9B7
:1014F000022332460BAB12A8FFF7CAFA0446C5E72F
:10150000DDE91A342344D81D07287FF629AE0D9A49
:10151000111D0D91116889B900220023CDE91C230A
:1015200010911191119B66210493DDE91C23CDE9F3
:101530000223109B324600930BABDCE75A1E0123BB
:10154000934001EA0302002A18BF494203F1FF3326
:1015500003EA010314BF012000201A464FF0FF31B7
:10156000DD17D3B9091BB5F5801F19D3C1F30A01E3
:1015700001F2FF31C5F3130343EA015323F00043A3
:1015800043EAC0730892099311AB009310AA1CABF5
:10159000DDE90801FFF7C8F9C4E75B100131E0E7B6
:1015A000921845EB05031D46DDE758238DF83330CF
:1015B00000234FF0280C8DF85C300823CDE913C3CD
:1015C00015937DE6582C3FD0752A33D11699002902
:1015D00037D10A210023139DCDE9103315F0800780
:1015E0009DF95CC00D9B00F08780BCF1740F7CD02E
:1015F00030DCBCF16A0F30D0BCF16C0F75D0181D17
:101600000D90BCF1680F186871D100B22CE000BFDA
:10161000A5760000A1760000AD760000A976000056
:1016200036980000328D00009A7600007498000011
:1016300098760000552AC9D06F2A07D00021622A67
:1016400006D00129C6D88BE51021F8E70821C1E7AB
:101650000221BFE7BCF17A0FD0E7073323F007037D
:1016600003F108000D90186880EAE0730028A3EBEE
:10167000E073C0F24681AF0700F14B8115F001071E
:1016800040F049818DF83C7013986F2A06905AD12A
:10169000002B18BF0127069810F008000BBF074663
:1016A0000FA80A970A900A2964D05DD8022900F091
:1016B000A180082900F0BE800024DFF864C20DF18B
:1016C000F200002B5BD0B3FBF1F501FB1535692A65
:1016D0001CF9055001D0752A01D145F02005B3FB56
:1016E000F1F3013400F8015DEBE7181DBAE7BCF136
:1016F000690F08BF40B2B7E7BCF1740F1CD00DDC16
:10170000BCF16A0F0DD0BCF16C0F15D0181D0D90F7
:10171000BCF1680F1B6811D19BB209E0BCF17A0FD4
:10172000F3E7073323F0070303F108000D901B686C
:1017300030208DF83C00A7E7181DF7E7BCF1690FD2
:1017400008BFDBB2F4E7582C01D0622AA3D1069877
:10175000800605D542F0200002278DF83D009AE76B
:10176000002B98D01046F7E71029A5D10F254FF090
:10177000040C41E000246B480DF1F2026BBB199B95
:10178000002B62D0002518995A1E1144AE462246FD
:10179000C4F1820C002A57D0002B00F0AF8091F9E1
:1017A00000002D2850D02A2848D000254FF00109EC
:1017B0008A4611F90109002875D0DFF86CB11BF8D1
:1017C00000B01BF0040F6ED0303809FB00550A2022
:1017D000013B00FB09F9EBD136E0A0FB0351C9083E
:1017E00001EB8105A3EB4503303302F8013D0134E1
:1017F0000B46C3E70125AC4649F201000024693AD3
:10180000D2B2D04040F30000DFF814910DF1F201A4
:1018100000F02000002BB2D003EA050E19F90EE00B
:101820000F2A98BF4EEA000E013401F801ED23FAA9
:101830000CF3EFE707254FF0030CDDE70D98051DCE
:101840000D950568002D2ADA7346159A12A8002A0C
:10185000BABF01221592069A159DA8BF22F0100268
:101860001D44A8BF1392A54238BF254611ABE91904
:1018700010AAFFF7F3F8139B2D1BDB0648BF109B44
:10188000009742BFED1800231093119BCDE903434D
:101890003EAB1C1B063CCDE901540A9BA3E5013B72
:1018A00001F1FF3AD0D05146013B11F90189D5B180
:1018B0009542C9D21CA8A2EB050A00EB0C095046C0
:1018C00019F901BB013809F802BCF9D10CF1FF3C50
:1018D0006244521BF8326A4402F8888C0134524642
:1018E0000EF1010E56E7002B7FF454AFACE728460B
:1018F000FFF768BB12983FB0BDE8F08F002DD7D13D
:10190000A2E72D2045F0080501278DF83C0013952E
:10191000BAE62B20F6E72020F4E70A21E6E400BF30
:101920007C9C0000CDCCCCCCF19E000010B50446D0
:10193000C4E90012002208462272E36003F0F5FDBC
:101940002072204610BD000070B55D4C5D4E5E4DAE
:1019500020465E4B5E4A5F49FFF7E8FF33465E4A2A
:101960005E4904F11000FFF7E1FF2B465C4A5D4938
:1019700004F12000FFF7DAFF33465B4A5B4904F1CC
:101980003000FFF7D3FF2B46594D5A4A5A4904F10C
:101990004000FFF7CBFF2B46584A594904F150004D
:1019A000FFF7C4FF2B46574D574A584904F16000D2
:1019B000FFF7BCFF2B46564A564904F17000FFF76B
:1019C000B5FF2B46544D554A554904F18000FFF7A9
:1019D000ADFF2B46534A544904F19000FFF7A6FF90
:1019E000524E2B46524D534A534904F1A000FFF783
:1019F0009DFF33462A46514904F1B000FFF796FF98
:101A000033462A464E4E4F4D4F4904F1C000FFF772
:101A10008DFF33462A464D4904F1D000FFF786FF7B
:101A200033462A464A4904F1E000FFF77FFF494D5B
:101A3000494B4A4A4A4904F1F000FFF777FF494B06
:101A4000494A4A4904F58070FFF770FF2B46484A1F
:101A5000484904F58870FFF769FF2B46464A474D11
:101A6000474904F59070FFF761FF464B464A4749E6
:101A700004F59870FFF75AFF2B46454A454904F58F
:101A8000A070FFF753FF2B46434A444904F5A87062
:101A9000FFF74CFF424B434A434904F5B070FFF750
:101AA00045FF424B424A434904F5B870FFF73EFFF9
:101AB000414B424A424904F5C070FFF737FF70BD01
:101AC000A0000020F51C0000951D0000A91C0000CE
:101AD000B8760000ED760000F5760000087700008B
:101AE000117700002D770000377700004C77000059
:101AF000F91D00004E7700006C7700006E77000043
:101B0000B9770000511F0000C1770000538D00001D
:101B10000F7800005A780000B920000062780000B9
:101B20004D8D0000AF780000E278000031300000F9
:101B3000E89D0000EA7800000F770000199E000081
:101B4000F9310000B09D0000BF770000D99D000072
:101B5000828D00001122000001330000309D000042
:101B60009C9D0000A1210000207900005379000015
:101B700058790000B1790000B979000045250000CE
:101B8000C579000039230000C7790000127A0000EF
:101B9000177A0000317A0000367A0000527A00008D
:101BA00039260000547A0000A37A0000C9270000FB
:101BB000B07A0000EE7A000005280000FB7A0000F1
:101BC000417B00002DE9F04F1F4600F5805AADF52E
:101BD000805D8046DAF8100083B00368CDE9001715
:101BE0000E469C6B02A913464FF48052A04702ACEC
:101BF0008146A3460025A94513D19AF820305BB150
:101C00003A4631460F4801F0A1FF00260E4FB5427B
:101C100010D10E4803F072FA0DF5805D03B0BDE8F7
:101C2000F08FD8F804001BF9011B036801351B690C
:101C30009847E0E7384614F8011B03F0BBF901367A
:101C4000E5E700BF4F7B0000777B0000318D00008F
:101C5000F8B500F5805595F821300446002B0CBFEF
:101C60004E2259226B6AA9890C4801F06FFF04F1DA
:101C70000B06C4F1FF2404F57F04094FF534AA894B
:101C8000A3199A4204D8BDE8F840064803F036BAD2
:101C9000384616F8011F03F08DF9F0E77D7B000050
:101CA000777B0000318D000013B50D4B0C461B688F
:101CB0007BB119685B680B4A01930B4B0B4800938F
:101CC000262303F077F9204603F02FFC40B202B040
:101CD00010BD2622044B0349054803F06BF9F2E7D7
:101CE00000000020997B0000FF9C0000C27B0000E8
:101CF000237C00002DE9F3410024084615461E49C7
:101D000001AA019403F002FA40B2A0421EDC1B4873
:101D100003F050F921461A4E1A4FDFF86C808029E3
:101D2000019106D9194803F0E9F968B202B0BDE89B
:101D3000F081336838465C5C224603F03BF921466B
:101D4000404603F037F901990131E8E70C4B0B48A5
:101D50001A68019BD45C03F02DF9224601990948C9
:101D600003F028F92146084803F024F921460848E1
:101D700003F020F9D9E700BF5D7C0000617C000022
:101D800000000020747C0000867C0000318D000083
:101D90008B7C000037B500230D46CDE90033144697
:101DA00028466A460E4901AB03F0B0F942B2012A57
:101DB00007DC29460B4803F0FDF84FF0FF3003B075
:101DC00030BD094B09481A68DDE90031D154019949
:101DD00003F0F0F80099064803F0ECF860B2EEE783
:101DE000957C00009D7C000000000020F67C000037
:101DF000177D00000000000000232DE9F0474C4D46
:101E00009AB0CDE9113313932B68084657B233B912
:101E1000484803F0CFF838461AB0BDE8F08713AB56
:101E20000093454912AB11AA03F070F940B20228A1
:101E30000ADD28681199129A139BC16202634363F9
:101E40003E4803F0B7F8E6E700282C6806DD119B52
:101E50001A461946E36223636363F1E7E16A38488F
:101E60001191226B1292636B139303F0A3F82B680A
:101E700014AAD86B196C03C21446586C996CBDF83F
:101E8000568003C4D86C196D40F3170603C4BDF81F
:101E900066A0169D96FBFAF004F042FE22A3D3E959
:101EA000002304F0A7FE0022264B04F0A3FEBDF899
:101EB0005E9045F31705CDE90E0195FBF9F004F0AE
:101EC0002FFE19A3D3E9002304F094FE00221D4B3A
:101ED00004F090FE149CCDE90C0144F3170494FB2C
:101EE000F8F004F01DFE10A3D3E9002304F082FEF5
:101EF0000022144B04F07EFEDDE91823CDE90A012F
:101F0000CDE90223DDE91623CDE9086ACDE90659BA
:101F1000CDE90448CDE90023DDE914230A4803F0A4
:101F200049F878E7AFF30080FCA9F1D24D62204078
:101F300000000020217D00006C7D0000787D000005
:101F40009B7D00000000703EC57D00000000000089
:101F50002DE9F04700240025DFF83CA194B0DAF821
:101F600000300846CDE90E45CDE91045CDE91245D2
:101F700057B233B9494803F01DF8384614B0BDE8EC
:101F8000F08712AB464900930EAA10AB03F0BEF8DF
:101F9000DDE90E34CDE90A344FF06042414B46B2E0
:101FA000DDE90A0104F026FE00223F4B04F022FE88
:101FB00037A3D3E9002304F047FF05F0B5F8DDE9C6
:101FC00010894FF06042374B04464946404604F0C2
:101FD00011FE0022344B04F00DFE2DA3D3E90023A3
:101FE00004F032FF05F0A0F8DDE91223CDE90C235F
:101FF0000546DDE90C014FF060422A4B04F0FAFD82
:102000000022294B04F0F6FD21A3D3E9002304F0BC
:102010001BFF05F089F8022EDAF8003011DDDC62D2
:102020001D635863CDE90289DDE90C2308901F4840
:1020300004950094CDE90623DDE90A2302F0BAFFF6
:102040009BE7002E03DDDC621C635C63EAE7DC6A6D
:102050001D6B20465E6B04F053FD0DA3D3E90023F6
:1020600004F0C8FD4FF06242114B04F0EDFE024651
:102070000B461048CDE90E23CDE91023CDE91223FC
:10208000CDE90623CDE90223089604950094D5E70F
:10209000FCA9F1D24D62104000000020347E000007
:1020A0007F7E0000FFFF6F4100004E408B7E0000EE
:1020B000FFFFCD41C97E00002DE9F047344B96B0BB
:1020C0001B6857B233B9334802F074FF384616B074
:1020D000BDE8F087D86B196C10AC03C4586C996CD0
:1020E000BDF8468003C4D86C196D40F3170603C4CD
:1020F000BDF856A0129D96FBFAF004F011FD22A344
:10210000D3E9002304F076FD0022234B04F072FD96
:10211000BDF84E9045F31705CDE90E0195FBF9F09A
:1021200004F0FEFC18A3D3E9002304F063FD0022B1
:10213000194B04F05FFD109CCDE90C0144F317042A
:1021400094FBF8F004F0ECFC0FA3D3E9002304F0B7
:1021500051FD0022104B04F04DFDDDE91423CDE9C3
:102160000A01CDE90223DDE912230C48CDE9002361
:10217000DDE91023CDE9086ACDE90659CDE9044827
:1021800002F018FFA2E700BFFCA9F1D24D62204087
:10219000000000200F7F00000000703E5A7F00000A
:1021A00038B5154B1446986804F0BAFC10A3D3E96F
:1021B0000023124D04F01EFD0022114B04F044FEDA
:1021C000D5E9002304F016FDD5E9022304F05CFBF9
:1021D00002460B460B4801F0B9FC0B4B1B685868D4
:1021E00002F012FE0021094802F0E4FE60B238BDA0
:1021F000FCA9F1D24D621040880300206803002042
:1022000000005E41CB7F00002C000020DB7F00003F
:102210002DE9F04700244FF000084FF0000986B088
:102220003D4D084604AB3D49924602AACDE9024520
:10223000CDE9044502F06AFFDDE9026742464B46FC
:102240003046394604F048FF80B1CDE90289DDE926
:1022500004672DA5D5E90045304622462B46394670
:1022600004F03AFF68B1CDE9044515E022462B465B
:102270003046394604F04EFF0028E8D0CDE902454B
:10228000E5E723A5D5E90045304622462B463946E9
:1022900004F040FF0028E6D10024DDE904232048B3
:1022A000CDE90023DDE9022302F084FE1D4B224626
:1022B0001B68214683F82C4083F82D4083F82E407C
:1022C00083F82F4083F8304083F8314083F8324060
:1022D00083F8334083F8344083F8354083F8364040
:1022E00083F837401048234602F064FE0F4B1B680A
:1022F000586802F089FD21460D4802F05BFE4FFA56
:102300008AF006B0BDE8F087FCA9F1D24D62503FDB
:10231000000000000088C3400000F03F837E000002
:10232000FB7F000000000020208000002C00002027
:102330002F800000000000002DE9F04FDFF8D8A149
:102340000846DAF800309BB04FFA82FB33B9734885
:1023500002F030FE58461BB0BDE8F08F0024002587
:102360006F4912AB10AACDE91045CDE9124502F034
:10237000CDFEDDE9108922462B464046494604F051
:10238000ABFE68B1CDE91045DDE9126700220023FC
:102390003046394604F0A0FE78B1CDE9124516E08A
:1023A0000026604F32463B464046494604F0B2FEA6
:1023B0000028E9D0CDE91067E6E70024594D224610
:1023C0002B463046394604F0A5FE0028E5D14FF0F3
:1023D0006042DDE91001544B04F00CFC04F0A4FE53
:1023E0004FF060420446DDE912014F4B04F002FC5D
:1023F00004F09AFE4FF0FF31DAF80020034682F82D
:10240000301082F831106FF0300182F83210002164
:10241000D46282F8331050632146444A444802F0A3
:10242000C9FDDDE91201DAF8003000225E6B1D6B98
:10243000DC6A404B04F0DEFB0022CDE90201DDE95D
:1024400010013C4B04F0D6FB3346CDE900012A468F
:102450002146394802F0AEFDDAF8003014AAD86BF4
:10246000196C03C2586C996C149C03C2D86C196D1A
:1024700040F3170603C2BDF86690169D96FBF9F06F
:1024800004F04EFB22A3D3E9002304F0B3FB0022A7
:102490002A4B04F0AFFBBDF85E8045F31705CDE98C
:1024A0000E0195FBF8F004F03BFB19A3D3E90023E0
:1024B00004F0A0FB0022214B04F09CFBBDF85670F9
:1024C00044F31704CDE90C0194FBF7F004F028FB6A
:1024D0000FA3D3E9002304F08DFB0022174B04F077
:1024E00089FBDDE91823CDE90A01CDE90223DDE905
:1024F0001623CDE90869CDE90658CDE90447CDE9B1
:102500000023DDE914230E4802F054FD22E700BF4A
:10251000FCA9F1D24D622040000000205280000052
:10252000837E00000000F03FFFFF6941FFFFCF0006
:102530009A80000000005940BA8000000000703E00
:10254000EF80000070B5154610220C4688B00021BF
:102550000DEB020002F0E0FE2A4B90228C212A486B
:10256000069302F027FD601C0422284902F0E9FED0
:10257000274E044690B95522336883F88D0083F8BE
:102580008E0083F88F0083F88C20224B1B685868DC
:1025900002F03AFC2146204802F00CFD00232622DE
:1025A0000393CDE9013233681BB11A6801925B686D
:1025B00003930C21194802F0FDFCDDE90223019987
:1025C000174802F0F7FC0A2002F03AFD01AA0C239A
:1025D00041F201011348FFF7F5FA01AA0C2341F279
:1025E00001011148FFF7EEFA0C2341F2010101AAA3
:1025F0000E48FFF7E7FA0E4802F080FD68B208B017
:1026000070BD00BF40420F005B810000728100007E
:10261000000000202C0000202F80000077810000A7
:10262000A3810000082500204035002078450020C7
:10263000058200000000000000232DE9F041584C05
:1026400086B0CDE90233CDE90433236808464FFA5A
:1026500082F833B9534802F0ADFC404606B0BDE8FD
:10266000F08105AB019304AB00934F4903AB02AA81
:1026700002F04CFD40B203287ADD2068059D0299E6
:10268000039A049B80F8701080F8712080F87230F3
:1026900080F873500095454802F08CFC246894F84B
:1026A000730094F8712094F8723094F870100590CB
:1026B00000903F4803920493029102F07BFC029F3A
:1026C000039E0137384604F01BFA02460B4632A13E
:1026D000D1E9000104F0B8FB0022364B04F08AFA7D
:1026E000013602460B4634483946049D059C02F0EB
:1026F00061FC304604F004FA02460B4626A1D1E9FB
:10270000000104F0A1FB00222A4B04F073FA01350A
:1027100002460B462948314602F04CFC284604F09C
:10272000EFF902460B461CA1D1E9000104F08CFB35
:102730000022204B04F05EFA013402460B4620488A
:10274000294602F037FC204604F0DAF902460B462F
:1027500011A1D1E9000104F077FB0022154B04F030
:1027600049FA02460B461748214602F023FC74E75B
:10277000002893DD029B2168DAB281F8702081F88D
:10278000712081F8722081F873201A46194600934F
:1027900081E700BFAFF30080000000009651984130
:1027A000000000201D8200006D8200007D8200007C
:1027B000AE8200000000B03FE38200002F830000E3
:1027C0007B830000C883000010B51446084802F05F
:1027D000F1FB0848FFF73CFA0748FFF739FA0748CA
:1027E000FFF736FA064802F089FC60B210BD00BF60
:1027F0001584000008250020403500207845002081
:10280000318D0000002330B50D4687B003930DF1E4
:102810000B0330490093284604AB03AA02F076FC70
:1028200041B203292FDD9DF90B30039923F02002DB
:10283000592A11D0542A11D0312B0BBF0124002466
:1028400059224E22244801F081F90399032916D810
:10285000DFE801F0070F11130124F3E701245922E7
:10286000F0E71E4B1C71284602F05FFE40B207B035
:1028700030BD1B4BF6E71B4BF4E71B4BF2E71B4845
:1028800001F064F9EFE71A4801F060F9134B1948B9
:102890001B79002B0CBF4E21592101F057F9104B29
:1028A00015481B79002B0CBF4E21592101F04EF920
:1028B0000C4B12481B79002B0CBF4E21592101F003
:1028C00045F9094B0E481B79002B0CBF4E215921AD
:1028D000D6E700BF3B84000048840000205600205B
:1028E00004560020E8550020CC5500207A840000D2
:1028F000B0840000FF8400002E8500005D8500008C
:102900008C85000041F201020121174B1A60174A21
:10291000D9605A601649174AC3E904129A6042F214
:1029200002029A61144ADA61144A1A6242F20402FB
:102930005A62134A9A62134ADA6242F205021A6331
:10294000114A5A63114A9A6342F20302DA63104A47
:102950001A64104A5A6442F206029A640E4ADA6411
:102960000E4A1A65704700BF30020020BB85000088
:10297000D0850000792A0000F4850000D52A0000E7
:1029800009860000352B00001E860000892B000000
:1029900040860000992C000062860000412E000055
:1029A00010B50446084604F0BBF809A3D3E9002398
:1029B00004F020F90022084B04F046FAD4E9002381
:1029C00004F018F9D4E9022303F05EFF10BD00BF44
:1029D000FCA9F1D24D62104000005E412DE9F04F9C
:1029E0001F4600F5805AADF5805D8046DAF810008C
:1029F00083B00368CDE900170E469C6B02A913460D
:102A00004FF48052A04702AC8146A3460025A94559
:102A100013D19AF820305BB13A4631460F4801F0A5
:102A200095F800260E4FB54210D10E4802F066FB15
:102A30000DF5805D03B0BDE8F08FD8F804001BF9F8
:102A4000011B036801351B699847E0E7384614F815
:102A5000011B02F0AFFA0136E5E700BF4F7B000033
:102A6000777B0000318D000008B1FFF7B7BF014848
:102A700001F06CB87986000030B514461D46262258
:102A8000002385B0CDE9013203930F4B1B681BB1C6
:102A90001A6801925B6803930C210C4802F08AFAD1
:102AA000DDE9022301990A4802F084FA0A2002F0C3
:102AB000C7FA28460C2341F2010101AAFFF7D4FF0F
:102AC00060B205B030BD00BF00000020D886000015
:102AD000A3810000F0B50B2A0C4615461E46124F86
:102AE00085B00CD9D1E901231048096802F062FAD7
:102AF00022683B68DA6262681A63A2685A633B68BC
:102B00000B48D96A01911A6B02925B6B039302F036
:102B100051FA30460C2342F2020101AAFFF7A4FF4A
:102B200068B205B0F0BD00BF000000200D870000B6
:102B300047870000F0B587B06D461F46104B16461C
:102B40001C68E06B216C03C5606CA16C03C5E06C74
:102B5000216D40F3170303C5029A009942F317024F
:102B600041F31701074802F025FA384618236A4650
:102B700042F20401FFF778FF70B207B0F0BD00BF6A
:102B800000000020828700002DE9F04F11468BB035
:102B90003D4815469A4602F00DFA3C4B1B6893F8E7
:102BA000452093F8448093F84C4048EA022893F873
:102BB000462093F83D1048EA024893F84D20B3F8B8
:102BC000420044EA022493F84E20B3F84A9044EAC3
:102BD000024493F83C20B3F852B042EA012293F841
:102BE0003E1048F3170842EA014242F3170292FBF3
:102BF000F0F003F095FF22A3D3E9002303F0FAFFDE
:102C00000022234B03F0F6FF06460F4698FBF9F02F
:102C1000CDE9046703F084FF19A3D3E9002303F08F
:102C2000E9FF00221A4B03F0E5FF8046894644F392
:102C3000170494FBFBF0CDE9068903F071FF10A3A4
:102C4000D3E9002303F0D6FF0022114B03F0D2FF9B
:102C50003246CDE90801CDE902013B46CDE90089C4
:102C60000C4802F0A7F95046182342F2050104AAC5
:102C7000FFF7FAFE68B20BB0BDE8F08FAFF300804B
:102C8000FCA9F1D24D622040B48700000000002072
:102C90000000703EDE8700002DE9F04F172A93B048
:102CA0000C461546DFF880B10D935AD9D1E90023BF
:102CB000D1E90267D1E90489CDE90A2340464FF002
:102CC00060425A4B494603F095FF0022584B03F0EF
:102CD00091FF53A3D3E9002304F0B6F804F024FADB
:102CE0004FF06042514B089039463046CDE9068995
:102CF00003F080FF00224E4B03F07CFF48A3D3E992
:102D0000002304F0A1F804F00FFA4FF06042474BA3
:102D10000490DDE90A01CDE9026703F06BFF0022B0
:102D2000434B03F067FF3EA3D3E9002304F08CF884
:102D300004F0FAF9DDE90A2300903E4802F03AF97E
:102D4000D4E9000104F0F0F9DBF80060F062D4E9A6
:102D5000020104F0E9F93063D4E9040104F0E4F974
:102D60007063DBF80030DC6AD3F830802046D3F89B
:102D7000349003F0C5FE2AA3D3E9002303F03AFF01
:102D80004FF062422C4B04F05FF8CDE90A01404657
:102D900003F0B6FE22A3D3E9002303F02BFF4FF08C
:102DA0006242254B04F050F8824648468B4603F0B9
:102DB000A7FE1BA3D3E9002303F01CFF4FF06242E0
:102DC0001D4B04F041F806460F46DDE90A0104F008
:102DD000ABF959460F90504604F0A6F939461090C9
:102DE000304604F0A1F9DDE90A231190CDE9066728
:102DF000CDE902ABCDF82090CDF8108000940F48BB
:102E000002F0D8F80D98182342F203010FAAFFF739
:102E10002BFE68B213B0BDE8F08F00BFAFF30080A7
:102E2000FCA9F1D24D62104000000020FFFF6F416D
:102E300000004E4020880000FFFFCD416F88000059
:102E40002DE9F041434C98B06168434815469846D7
:102E5000FFF7A6FDCDE90001A1684048FFF7A0FDFE
:102E600000260027CDE9020121693D48CDE904672C
:102E7000FFF796FDCDE9060161693A48CDE908679B
:102E8000FFF78EFDCDE90A01A1693748FFF788FDFC
:102E9000CDE90C01E1693548FFF782FDCDE90E016E
:102EA000216A3348FFF77CFDCDE910013148CDE9B7
:102EB0001267CDE91467CDE9166702F01FF9DDE965
:102EC00000232D4800F042FEDDE902232B4800F0EC
:102ED0003DFEDDE904232A4800F038FEDDE9062343
:102EE000284800F033FEDDE90823274800F02EFED5
:102EF000DDE90A23254800F029FEDDE90C232448FA
:102F000000F024FEDDE90E23224800F01FFEDDE97B
:102F10001023214800F01AFEDDE912231F4800F0BB
:102F200015FEDDE914231E4800F010FEDDE916232E
:102F30001C4800F00BFE1C4802F0E0F840466023FD
:102F40006A4642F20601FFF78FFD68B218B0BDE88D
:102F5000F08100BF88030020780300206803002070
:102F60004803002028030020180300203803002015
:102F700008030020BC880000E6880000CB7F00002A
:102F8000F6880000068900001689000027890000E5
:102F900036890000458900005689000066890000D6
:102FA000758900008489000095890000704710B57C
:102FB0000446902104F04CFA204610BD00000000A9
:102FC00010B50446084603F0ABFD09A3D3E900237E
:102FD00003F010FE0022084B03F036FFD4E9002373
:102FE00003F008FED4E9022303F04EFC10BD00BF3D
:102FF000FCA9F1D24D62104000005E4138B50024BA
:10300000094D2B6893F86C309B070AD401200134DA
:10301000FDF74CFB642CF4D10448BDE8384000F0C7
:1030200095BD612CF8D838BD00000020BA89000099
:1030300070B54F4C4F480D4600F088FD61684E4812
:10304000FFF7BEFF02460B464C4800F07FFDA1682B
:103050004B48FFF7B5FF02460B464A4800F076FDA5
:10306000E1684948FFF7ACFF02460B46474800F0CD
:103070006DFD21694648FFF7A3FF02460B46454810
:1030800000F064FD61694448FFF79AFF02460B4671
:10309000424800F05BFDA1694148FFF791FF0246FD
:1030A0000B46404800F052FDE1693F48FFF788FFBA
:1030B00002460B463D4800F049FD216A3C48FFF7B7
:1030C0007FFF02460B463B4800F040FD616A3A48EC
:1030D000FFF776FF02460B46384800F037FDA16A3D
:1030E0003748FFF76DFF02460B46364800F02EFDCD
:1030F000E16A3548FFF764FF02460B46334800F0AB
:1031000025FD216B3248FFF75BFF324E02460B462E
:10311000314800F01BFD616B3046FFF751FF02465E
:103120000B462E4800F012FDA16B3046FFF748FF1A
:1031300002460B462A4800F009FDE16B2948FFF7DB
:103140003FFF02460B46284800F000FD216C27484F
:10315000FFF736FF02460B46254800F0F7FC2548EE
:1031600000F0F4FC284602F0E0F940B270BD00BF68
:1031700088030020D289000078030020E688000040
:1031800068030020CB7F000058030020F688000071
:10319000480300200689000028030020278900003A
:1031A00018030020368900003803002045890000FC
:1031B0000803002056890000F8020020118A000050
:1031C000E8020020218A0000D8020020318A000095
:1031D000C8020020B8020020408A0000508A000087
:1031E000608A000098020020708A00008802002097
:1031F000888A00009F8A000038B52E4C2E480D4664
:1032000000F0A4FC62682D48114600F09FFCA26803
:103210002B48114600F09AFCE2682A48114600F05B
:1032200095FC22692848114600F090FC6269274805
:10323000114600F08BFCA2692548114600F086FC7F
:10324000E2692448114600F081FC226A22481146B6
:1032500000F07CFC626A2148114600F077FCA26A0B
:103260001F48114600F072FCE26A1E48114600F049
:103270006DFC226B1C48114600F068FC626B1B4819
:10328000114600F063FCA26B1948114600F05EFC89
:10329000E26B1848114600F059FC226C16481146A2
:1032A00000F054FC154800F051FC284602F03DF9AE
:1032B00040B238BD88030020C48A0000038B0000A0
:1032C000188B00002D8B0000428B0000578B0000F4
:1032D0006B8B00007F8B0000958B0000AA8B000099
:1032E000BF8B0000D48B0000E88B0000FD8B00003A
:1032F000128C0000278C0000448C0000608C0000C1
:103300002DE9F04F0D468DB09D492846924602F0BA
:1033100037F89B490446002002F032F8984906909D
:10332000002002F02DF84FF0000800260027DFF8FB
:1033300054928346CDE90889CDE90A67002C79D0FB
:103340002346A244534503D093F9000000287BD1C3
:10335000069B002B7FD14FF0010ABBF1000F06D076
:10336000584689490AAA01F0D1FE4FF0000A082206
:103370002046864901F0E5FF002874D1844B0022E5
:10338000C3E90089C3E902674FF080430020814907
:10339000814CC1E90023C1E902678049C4E90267A1
:1033A000C4E900017E497F4CC1E90023C1E90267FD
:1033B00071A1D1E90001C4E90267C4E900017A4CB6
:1033C000C4E9000100207949C4E90267C1E900238A
:1033D000C1E90267764B7749C3E90267C3E9000197
:1033E000754B7648C3E90089C3E90267744BC3E9AA
:1033F0000089C3E90267734BC3E90089C3E9026727
:10340000714BC3E90089C3E90267704BC3E90089C6
:10341000C3E902676E4BC3E90089C3E902676D4BDC
:10342000C3E90089C3E902676B4BC3E90089C3E9BB
:10343000026700E0694800F089FB284602F075F851
:1034400040B20DB0BDE8F08F079301F02BFC079B55
:1034500003F8010B76E74C49069808AA01F056FEDE
:103460004FF0000A79E75E49204602F046F85D49D0
:1034700000282046464E18BF002602F03EF8454A76
:103480005949002808BF1646204602F036F8424A3D
:103490005649002808BF1646204602F02EF8404A3A
:1034A0005349002808BF1646204602F026F83D4A38
:1034B0005049002808BF1646204602F01EF83A4A36
:1034C0004D49002808BF1646204602F016F8374A34
:1034D0004A49002808BF1646204602F00EF8344A32
:1034E0004749002808BF1646204602F006F8324A2F
:1034F0004449002808BF1646204601F0FEFF304A26
:103500004149002808BF1646204601F0F6FF2D4A23
:103510003E49002808BF1646204601F0EEFF2A4A21
:103520003B49002808BF1646204601F0E6FF274A1F
:103530003849002808BF1646204601F0DEFF244A1D
:103540003549002808BF16460822204601F0F9FE3A
:10355000204A3249002808BF16460822204601F0BA
:10356000F0FE00285ED0002E5DD121462C4800F0F0
:10357000EDFA75E0AFF30080E3A59BC420B01340E3
:10358000858C00000000F03FEE8C0000F28C000003
:10359000780300206803002058030020000030401A
:1035A00048030020280300201803002038030020CF
:1035B0000803002000000840F8020020FB8C0000F7
:1035C000E8020020D8020020C8020020B802002033
:1035D000A802002098020020880200208B8C0000A6
:1035E000338D0000388D00003D8D0000428D0000BD
:1035F000478D00004B8D00004F8D0000558D000061
:103600005A8D00005F8D0000648D0000688D000001
:103610006D8D0000728D0000778D0000848D00009C
:10362000028E00000F4EBAF1000F10D1DDE90A0141
:10363000DDE90823C6E90201C6E90023CDE902015C
:1036400006990948CDF810B0009100F07FFAD6E94C
:103650000223CDE900230548D6E9002300F076FADD
:103660000348E8E688020020908D0000D48D000019
:103670003F8E000010B504464FF47A70FDF716F83F
:10368000FFF7BCFC00220121054B20461B6883F894
:103690006C1083F86D2083F86E2083F86F2010BDC6
:1036A0000000002010B504460120FCF7FFFFFFF7E3
:1036B000A5FC0022074B4FF47A701B6883F86C203E
:1036C00083F86D2083F86E2083F86F20FCF7EEFFFF
:1036D000204610BD00000020F7B50C460025064628
:1036E000104F01A8FFF7C6FF2570FFF787FC3B6866
:1036F00046F040069E66FFF781FC3B6883F8685001
:1037000083F8695083F86A5083F86B50FFF776FCB2
:103710003B6822789B6E01A813432370FFF7C2FF1A
:1037200003B0F0BD0000002073B504460D46094EFD
:1037300001A8FFF79FFFFFF761FC336844F06004C6
:103740009C66FFF75BFC336801A89D66FFF7AAFF44
:1037500002B070BD0000002073B50024404E42F25C
:10376000107033680D4683F86C4083F86D4083F821
:103770006E4083F86F40FCF799FF01A8FFF77AFFCE
:10378000FFF73CFC6FF03F02336801A883F8682024
:1037900083F8694083F86A4083F86B40FFF782FF43
:1037A0004FF47A70FCF782FF56212046FFF7BCFFEA
:1037B00070210120FFF7B8FF3D210620FFF7B4FF7D
:1037C00029460720FFF7B0FF21460820FFF7ACFF8E
:1037D00001A92046FFF780FF9DF80410562905D067
:1037E0005622204800F0B2F920460CE001A9012041
:1037F000FFF772FF9DF80410702906D070221A4856
:1038000000F0A4F9012002B070BD01A90620FFF765
:1038100063FF9DF804103D2905D03D22134800F0B8
:1038200095F90620EFE701A90720FFF755FF9DF85E
:103830000410A94205D02A460D4800F087F9072058
:10384000E1E701A90920FFF747FF9DF804108B2944
:10385000CAD08B22074800F079F90920D3E700BFCE
:1038600000000020618E0000A28E0000E38E0000A8
:10387000248F0000638F00002DE9F8430025464C9B
:10388000464B2946A36404F158003FA3D3E9002323
:10389000C4E914237822C4E90055C4E90255C4E9F7
:1038A0000455C4E90655C4E90855C4E90A55C4E9F4
:1038B0000C55C4E90E55256401F02EFD00220023AD
:1038C00000203749C4F8D050364C4FF08045C4E949
:1038D0000001C4E9022300244FF00008324EDFF853
:1038E000CC90C6E90045C6E90223314EC6E90089FD
:1038F000C6E902232F4EC6E90045C6E902232E4E33
:10390000C6E900452D4CC6E9022321A7D7E9006787
:10391000C4E90223C4E90067294CC4E90067002612
:10392000C4E90223274F284CC4E90067C4E90223F5
:10393000264CC4E90001C4E90223254CC4E9000176
:10394000C4E90223234CC4E90001C4E90223224C48
:10395000C4E90001C4E90223204CC4E90001C4E920
:1039600002231F4CC4E90001C4E902231D4CC4E931
:103970000001C4E902231C4CC4E90001C4E902238C
:10398000BDE8F883AFF30080FCA9F1D24D6210408E
:10399000E3A59BC420B0134088030020249D0000B1
:1039A0000000F03F78030020680300200000304052
:1039B000580300204803002038030020280300207B
:1039C000180300200000084008030020F80200202F
:1039D000E8020020D8020020C8020020B80200201F
:1039E000A80200209802002088020020F8B50D46A9
:1039F00004460026064FAE4204F1100400D1F8BD83
:103A0000384654E9041200F0A1F80136F3E700BF8C
:103A1000A28F00002DE9F04F85B00F46DDE90FA120
:103A2000994604469DF838509DF84460019218B9B3
:103A3000002005B0BDE8F08F002FF9D0BAF1000FDB
:103A40002DD1DFF8D8A05EB9202FBB46D04628BFC5
:103A50004FF0200B5946204601F085FCB0422BD890
:103A60000026DDF804808AF81F604E4530D1002D15
:103A7000DED12A492A4800F069F8284C294E304600
:103A800014F9011B013500F061F80A2DF7D1264821
:103A900000F05CF849460198FFF7A8FFC8E7002945
:103AA000CFD0504601F05FFC51460246204601F05F
:103AB00048FC0028C5D0BBE7A35DA157A3F1610076
:103AC00019289CBF203B59B208F8011B0136C1E7F9
:103AD00098F808B03A465F4528BF5A46D8F800A083
:103AE0000E485146CDF80880039201F02AFC38B107
:103AF00051462046039A01F024FC08F1100850B901
:103B0000029B5046DD68A7EB0B02129B04EB0B01F6
:103B1000A84701208DE70136A7E700BF6004002019
:103B2000AA8F0000C58F0000CD8F000070B5084639
:103B3000154621B10C468E18B44201D1284670BDFD
:103B400014F9010B00F0ACFBF6E700000FB407B569
:103B500004AB53F8042B002104480193FDF724FA29
:103B600003B05DF804EB04B0704700BF2D3B0000CC
:103B700070470000002030B5064C043A824201D85C
:103B8000002004E00D58A54202D11860012030BD8C
:103B90000130F3E7BEBAAD1B002030B5064C043A45
:103BA0000D58A54202D11860012030BD013090426D
:103BB000F6D90020F9E700BFEDAD0F0A08207047E5
:103BC00008207047082070474FF6FF7070470020AC
:103BD000704700200021704703F1080090429ABF0F
:103BE000C918C8880020704703F1080090429ABFA6
:103BF000C918888800200021704703F1080090420E
:103C000006D819448888019BC31A58425841704706
:103C10000020704770477047806818B10078C04333
:103C200000F001007047436903B11960084670470E
:103C300070477047012070477047704701207047F8
:103C40007047000000487047100000207047704720
:103C500007B5C2680346A2B1006978B100211268B5
:103C600001910192026801921A792AB1019A93F99D
:103C700018100548FFF76AFF019840B203B05DF8DD
:103C800004FB1046FAE700BFF48F000070B50C4645
:103C900003F11001914218D8E018C188CD1805F140
:103CA0001006964211D8E258094B9A420DD10835B8
:103CB00063195A68074B9A4207D10831FCF70CFD8B
:103CC00063591B1A5842584170BD0020FCE700BFE1
:103CD000BEBAAD1BEDAD0F0A10B50446042103F0CA
:103CE000B7FB204610BD10B50446042103F0B0FB1D
:103CF000204610BD10B50446042103F0A9FB204660
:103D000010BD10B504461C2103F0A2FB204610BDD7
:103D100010B5044641F2380103F09AFB204610BD6D
:103D200010B5044641F2440103F092FB204610BD59
:103D3000F8B5079D0C4629B303B91DBB05F1100664
:103D400096421FD8104AE5802260BDF81820A28054
:103D50002BB12A46194604F1080001F0D8FB0835BA
:103D600029462046FCF7B8FC6FF012036719605132
:103D70003B716FF052037B710F23BB710A23FB7100
:103D80003046F8BD0026FBE7BEBAAD1B10B50C46A9
:103D900011680CB1072904D8BDE810400848FFF7A6
:103DA000D5BE0848FFF7D2FEE388A28821680648FE
:103DB00001F000F9BDE810400448FFF7C7BE00BF9E
:103DC000FB8F0000319000005C900000308D0000FF
:103DD00070B50C46156801B12DB92946BDE8704093
:103DE0000B48FFF7B3BE0B48FFF7B0FE202D94BF82
:103DF000661904F12006084D14F8011B2846FFF748
:103E0000A5FEB442F8D1BDE870400448FFF79EBE5D
:103E1000A5900000D3900000777B0000308D00005B
:103E2000012390F888208B40134390F8892043EABF
:103E3000022390F88A2043EA024390F88B2043EA59
:103E40000263C0F88830704738B514461D4600211B
:103E500000F58153C3E9044500F580544FF48052C6
:103E6000C4E90911A18184F821100C3001F054FA41
:103E700094F820307BB1206903681B699847054698
:103E8000206903685B6998472946BDE838400246C7
:103E90000148FFF75BBE38BD029100002DE9F04FED
:103EA0000546406887B003689B6898470746002826
:103EB00051D0686805F580540368DB689847A2898B
:103EC000B2F5805F4BD2013292B2A2812A44D07205
:103ED00094F82130D3B92069A68903681B699847F3
:103EE000864213D32069A289036805F10C019E68FC
:103EF00005F581530433B04740B194F8203013B135
:103F0000A148FFF723FE012384F821300023AB6092
:103F100094F82130FBB12069B4F80C8003681B6968
:103F200098470646206903685B6998470644B04590
:103F300011D3206905F10C0603683146D3F80C80D3
:103F4000A28905F10803C04794F8203008BB13B1DB
:103F50008E48FFF7FBFD384607B0BDE8F08F94F8B8
:103F6000203005F10C061BB131468948FFF7EEFD04
:103F7000E069A289036831465B69059205AA984702
:103F800005F5815310332846D3E90023FFF75CFF82
:103F90009EE713B17F48FFF7D9FD206931460368DA
:103FA000A289D3F82080636AC04780462069B4F8AC
:103FB0000CA003681B69984708EB00092069036897
:103FC0005B6998478144CA453ED2B8F5805F18D8EE
:103FD00020690368DB699847804512D894F820303F
:103FE000002BB8D02069A58903682A463146D3F84A
:103FF0002080636AC047294602466748FFF7A6FD4E
:10400000A9E794F8203073B12069B4F80C800368F4
:1040100042463146D3F82090636AC847414602467B
:104020005E48FFF793FDE069A289036831469B680B
:10403000059205AA984705F5815310332846D3E920
:104040000023FFF701FF86E72069AA680368009252
:10405000D3F824803146636AA289C04794F820309F
:10406000002800F0EA8005F5815A0AF1100A83B1B0
:10407000DAE900892069626A03683146D3F82CB016
:10408000AB68D8474246CDE900014B464448FFF7AC
:104090005DFD41F23008DAF8041055F80800626A54
:1040A000B1F1FF3F08BFB0F1FF3FAB681BD14FF04C
:1040B0000009C846A169626A8945AB6874D3B8F142
:1040C000000F38D194F8201049B320690168D1F865
:1040D00030803146C0470B46A16902460091314805
:1040E000FFF734FD1BE020690168D1F828903146C4
:1040F000C8470028DBD1206931460368626AD3F8DB
:104100002CB0AB6855F80890DAF80480D847884599
:1041100008BF8145CBD094F82030002B7BD1E069DB
:10412000616A036805AAD3F80C80AB685B1A0C318E
:1041300005932944C047E069616A036805AAD3F87A
:104140001080AB685B1A0C3105932944C0470023EB
:1041500084F82130AA68A089131D98427FF66BAFBE
:1041600005F10B01C5F1FF25831A05F57F05043B19
:10417000F535053205EB010C63456BD81A46002175
:1041800090426CD8A381E6E680910000B1910000D6
:104190002A910000E0910000C09200002A920000E5
:1041A00081930000BC9300000C2101FB09FB6169B5
:1041B000206951F80B10D0F800C0CDE9003113464A
:1041C000DCF834A03146A289D047824600B320698A
:1041D000D4F82480036808F10C089B699847636948
:1041E000804403EB0B02206953F80B309268039371
:1041F00003683146D3F820B00292636AA289D84797
:10420000A8440246DDE902C041462B46E047D046BD
:1042100009F101094EE72069DAE900890368626A59
:10422000D3F82CA03146AB68D0474246CDE9000117
:104230004B460C48FFF78AFC71E713B10A48FFF7B9
:1042400085FCE069A289036831469B68059205AA4E
:1042500098477CE711F802C001F801CF8AE7B15412
:1042600001328DE7F39300005994000010B5044625
:10427000FEF7C4FE014B1B689C6610BD00000020C9
:1042800038B50446054DFEF7B9FE2B689C66FEF76F
:10429000B5FE2B68986EC0B238BD00BF000000208C
:1042A00038B5044645B229460448FFF7BCFC294608
:1042B0000348FFF7B8FC204638BD00BF2056002059
:1042C000B055002073B50C460546002601A8FFF73F
:1042D000D1F945F040002670FFF7C8FF3046FFF7E0
:1042E000CFFF23781843207001A8FFF7DBF902B055
:1042F00070BD37B505460C4601A8FFF7BBF945F080
:104300006000FFF7B3FF2046FFF7B0FF01A8FFF7FB
:10431000C9F903B030BD000013B5044690F8881009
:104320000320FFF7E6FF042094F88910FFF7E1FF70
:10433000052094F88A10FFF7DCFF062094F88B1014
:10434000FFF7D7FF0DF107010320FFF7BBFF9DF833
:10435000071094F888308B4202D01948FFF7F6FB1B
:104360000DF107010420FFF7ADFF9DF8071094F849
:1043700089308B4202D01348FFF7E8FB0DF10701AB
:104380000520FFF79FFF9DF8071094F88A308B42B5
:1043900002D00D48FFF7DAFB0DF107010620FFF709
:1043A00091FF9DF8071094F88B308B4205D0074899
:1043B00002B0BDE81040FFF7C9BB02B010BD00BF9E
:1043C00086940000C2940000FE9400003A9500001C
:1043D000F7B504460A253F4F00F148060021304654
:1043E000FFF7BAF90246002862D1012323700025A5
:1043F0003046C4F8D0500921FFF712FD0A21FFF71B
:104400000FFD0821FFF70CFD0F21FFF709FD122119
:10441000FFF706FD1321FFF703FD0E21FFF700FD57
:104420001021FFF7FDFC0B21FFF7FAFC1121FFF72C
:10443000F7FC1421FFF7F4FC1621FFF7F1FC0D2126
:10444000FFF7EEFC0C21FFF7EBFC1521FFF7E8FC72
:104450001721FFF7E5FCFFF75FFF42212846FFF732
:1044600048FF01A8FFF706F98020FFF7FFFE01A82B
:10447000FFF718F980210820FFF73BFF01A8FFF79D
:10448000F9F84820FFF7F2FE2846FFF7F9FE044648
:1044900001A8FFF707F9224680210F48FFF756FBD6
:1044A0000E4B1B68986803B0BDE8F04000F0ACBC50
:1044B0000146013D3846FFF749FB15F0FF058DD158
:1044C0002378002B93D1064803B0BDE8F040FFF7F6
:1044D0003DBB00BF76950000A99500002C00002090
:1044E000F8950000F8B50546406803689B68984752
:1044F000002836D068680368DB68984707280646B6
:104500002FDD05F580540D2884F826002BD10123DA
:1045100084F8273094F8243033B1092E04D0686829
:10452000314603681B69984794F8253013B130462B
:10453000FFF7B6FE238CB3F5805F24BF40F6FF7310
:1045400023840A2E23D012DC082E29D1238C0022AA
:10455000013B9BB2B3F5805F28BF002323842B442B
:104560001A72002017E00A28D4D10023D0E71B2EAE
:1045700012D07F2EEAD0238C1D4401339BB2B3F5B9
:10458000805F28BF40F6FF732E722384E9E7002383
:10459000208C05442B72F8BD002323842B72E0E7A6
:1045A0004FF4805105F1080000F0DDFE83B218469B
:1045B0002384284490F908206FF006070A2A04BFD4
:1045C00003F1FF332384238CEE1DEA1892F90820AF
:1045D0007F1B0D2A40F6FF7204BF03F1FF332384D3
:1045E000238C934228BF1346002223842B441A7243
:1045F000228CBB199A42B4D9686816F9011F036866
:104600001B699847F4E72DE9F04300F5805405460F
:10461000A06B87B003681B689847B0B1A269E369D3
:104620009A4212D0A269E3699A4217BFA369002196
:104630001B1993F908101FBFA369013303F00F037F
:10464000A361686803681B6998472846FFF74AFF1B
:1046500020B90026304607B0BDE8F083238C002641
:10466000B3F5805F24BF40F6FF732384218C05F1EE
:1046700008006B181E7294F842E0E76BB4F840C073
:10468000D4E90B230495BEF1000F2DD0CDE902C66D
:1046900001970096FFF7BEF9002306462384002801
:1046A000D7D0636B002BD5D0984700F1FF39A0F12C
:1046B0000208638C0F2BCDD819F9017F002FC9D0C8
:1046C0000D2F0ED094F8273033B10A2F04D168682B
:1046D0000D2103681B6998476868394603681B69A0
:1046E0009847C145E5D1B5E70126CDE902CE01974E
:1046F000CFE7000008B50848FFF7D0FB0748FFF7F1
:10470000CDFB0748FFF7CAFB0648FFF77CFF0648CA
:10471000FFF779FF08BD00BF784500204035002035
:1047200008250020C4140020800400202DE9F04F4B
:104730000378044685B0002B65D00027DFF864813C
:1047400000F15806FFF7D6FF03A8FEF793FF3020CD
:10475000FFF78CFD0020FFF793FD05460020FFF7D3
:104760008FFD81460020FFF78BFD82460020FFF77A
:1047700087FD834603A8FEF795FF05F01F031D2B59
:104780008DF80CB08DF80DA08DF80E908DF80F50AF
:1047900005D8290642BF039A04EB83039A65D4F82F
:1047A000D030FB40DA0729D5FFF7A4FF73783578BE
:1047B000306845EA0325B37896F8039045EA034547
:1047C0003B1D04EB830393F84B20029022F0800200
:1047D00083F84B20FFF78EFF9DF80B3009F01F097F
:1047E00069F30403DAB203F06003617845F3170557
:1047F00063B119B149464046FFF7A8F901371E2FAA
:1048000006F104069ED105B0BDE8F08F130641D530
:1048100089B1284602F084F9D4E9142302F0EAF9B8
:104820000022214B02F010FB009502460B461F4868
:104830004946FFF78BF9A9F10809B9F10F0FDDD847
:10484000DFE809F00C080A182220140E161A1012BC
:104850001C241E266560D1E7A560CFE7E560CDE7A3
:104860002561CBE76561C9E7A561C7E7E561C5E7F4
:104870002562C3E76562C1E7A562BFE7E562BDE700
:104880002563BBE76563B9E7A563B7E7E563B5E70C
:104890002564B3E70029B1D049460548FFF756F92A
:1048A000ACE700BF1496000000005E413B9600009C
:1048B0006C96000010B51248FFF738FF1148FFF75B
:1048C000EDFA04461048FFF7E9FAB0B984F00104A4
:1048D000E4B20E48FFF7E2FA00280D4818BF0024A2
:1048E000FFF791FE00280B4818BF0024FFF78BFE4E
:1048F00000280CBF2046002010BD0024E9E700BFBF
:10490000880300207845002040350020082500203D
:10491000C41400208004002007B50A214748FFF78F
:1049200082F90A214548FFF77EF90A214348FFF73B
:104930007AF90A214148FFF776F90A213F48FFF743
:1049400072F90A213D48FFF76EF90A213B48FFF74B
:104950006AF90A213948FFF766F90A213748FFF753
:1049600062F948213548FFF75EF965213348FFF7C2
:104970005AF96C213148FFF756F96C212F48FFF79F
:1049800052F96F212D48FFF74EF920212B48FFF7F0
:104990004AF945212948FFF746F953212748FFF7EF
:1049A00042F943212548FFF73EF92D212348FFF71F
:1049B0003AF946212148FFF736F953211F48FFF7FE
:1049C00032F94D211D48FFF72EF90A211B48FFF748
:1049D0002AF920231A4A00931A491B48FFF7B6F810
:1049E000FBF78EFEA42219481146FFF7AFF8AC2260
:1049F0000024174E174D11461748FFF7A7F84FF43C
:104A000080522146A6F6F870346200F085FC4FF41F
:104A100080522146A5F6F870B4612C62F46100F072
:104A20007BFC0E48AC6186F82440EC6185F824409C
:104A30004470FFF7CDFCFFF73DFFFCE7B0550020C9
:104A400099960000997B00009C960000E796000074
:104A5000C4240020801400201B970000880300203D
:104A60002DE9F74F774BDFF8E091DFF8E0A1C9F8C7
:104A70000030774B774ECAF80030774B774D1B6884
:104A8000DFF8DC8103F1740203F17800C6E9020269
:104A900003F17C00C6E904027E2203F18400327631
:104AA00003F18002C5E9020203F18800C5E90402AE
:104AB000212203F190002A7603F18C02C8E9020258
:104AC00003F19400C8E90402402288F81820654ADE
:104AD00003F1980003F19C07C2E9027003F1A007FB
:104AE0000024C2E9047023205F4F60492C713160BB
:104AF0002960C8F8001088F80440116014713471FE
:104B0000107603F1A402396003F1A801AC33C7E9C0
:104B1000043224233B76564B56481B78C7E90212D1
:104B2000554901930160554A019900F5805341F2BE
:104B3000300BC3E906195A614FF0FF314FF0FF32D5
:104B4000C3E909449C81C3F810A01C8400EB0B034B
:104B5000C3E9001213460A463C7145608460FFF7C2
:104B600073F94748019A444900F58053C3E906297F
:104B700001604FF0FF324FF0FF31C0F80480DFF8E2
:104B8000FC80C3E909449C81C3F810A0C3F81480D9
:104B90001C8400EB0B03C3E9001213460A46846031
:104BA000FFF752F93748019A334900F58053C3E9BA
:104BB000062901604FF0FF324FF0FF31C3E904A82E
:104BC000C3E909449C811C8400EB0B03C3E9001278
:104BD00013460A4645608460FFF736F901222A4BE6
:104BE000DFF8A8C01D782A4B2A485F602A492B4F5E
:104BF000C3F800C003F580539C61C3E90E14DC6167
:104C0000C3E90B751C625A6283F828205863A3F825
:104C1000404083F84220224BC3E900C603F580538D
:104C20009C61C3E90842C3E90B75C3E90D01DC616E
:104C300083F82820DC63A3F8404083F8422003B0C7
:104C4000BDE8F08FB09E0000405600203C5600208A
:104C5000309E000020560020000000200456002056
:104C6000E8550020CC550020B0550020889E00005B
:104C7000189D000078450020749E0000300200203E
:104C80004035002008250020FE9C0000E49E000026
:104C9000C4140020453C00001C000020A00000209F
:104CA00080040020034B1B5C03F00303022B08BFAE
:104CB00020387047F19E0000B1F90C20F8B51607B6
:104CC00005460C4654D44B68002B02DC0B6C002BC1
:104CD00048DDE66A002E45D0002312F480522F688A
:104CE000216A2B6030D0626DA389590705D56368AE
:104CF000D21A636B0BB1236CD21A00232846E66AE2
:104D0000216AB047431CA38906D129681D292BD8E5
:104D1000284ACA40D60727D5002262602269D904F2
:104D2000226004D5421C01D12B6803B96065616B18
:104D30002F60B9B104F14403994202D0284600F033
:104D40001BFC002363630DE001232846B0470246A5
:104D5000501CC9D12B68002BC6D01D2B01D0162B9F
:104D60001DD12F60002021E043F040031BB21AE068
:104D70000F69002FF6D0930718BF00230E6808BFF5
:104D80004B69F61B0F608B60002EEBDD33463A4615
:104D90002846216AD4F828C0E047002807DCB4F987
:104DA0000C3043F040034FF0FF30A381F8BD0744BF
:104DB000361AE9E70100402038B50B6905460C4674
:104DC00013B90025284638BD18B1036A0BB900F0A5
:104DD000BBF8B4F90C30002BF3D0626ED00704D4CA
:104DE000990502D4A06D00F086FB28462146FFF706
:104DF00063FF636E0546DA07E4D4A3899B05E1D41B
:104E0000A06D00F079FBDDE7014620B9044A0549B1
:104E1000054800F0B1B8054B1868FFF7CDBF00BFDB
:104E200020000020B94D0000300000202C000020A0
:104E3000002310B50446C0E90033C0E904338360A1
:104E400081814366C2818361194608225C3000F08B
:104E500063FA0D4B246263620C4BA3620C4BE3625A
:104E60000C4B23630C4B9C4206D003F16802944226
:104E700002D0D0339C4205D104F15800BDE8104067
:104E800000F038BB10BD00BF655100008B51000021
:104E9000C3510000E751000044560020024A034974
:104EA000034800F069B800BF20000020B94D0000A1
:104EB0003000002041680C4B10B59942044601D0E7
:104EC000FFF77AFFA168094B994202D02046FFF70D
:104ED00073FFE168064B994204D02046BDE81040BC
:104EE000FFF76ABF10BD00BF44560020AC5600203B
:104EF0001457002010B50B4B0B4C0C4A20461A607F
:104F000004210022FFF794FF04F168000122092127
:104F1000FFF78EFF04F1D0000222BDE810401221FD
:104F2000FFF786BF7C570020445600209D4E0000AE
:104F3000014800F0E0BA00BF85570020014800F0AA
:104F4000DBBA00BF8557002010B50446FFF7F0FF1D
:104F5000236A1BB1BDE81040FFF7F0BF044B23628A
:104F6000044B1B68002BF5D1FFF7C4FFF2E700BF2D
:104F7000B54E00007C5700202DE9F84307468846CF
:104F800014460026D4E90195B9F1010905D5246834
:104F9000002CF7D13046BDE8F883AB89012B07D947
:104FA000B5F90E30013303D029463846C0470643D1
:104FB0006835E9E70FB407B5064904AB086853F84C
:104FC000042B8168019300F0D3FD03B05DF804EB7E
:104FD00004B070472C00002070B50D4614460646FC
:104FE00018B1036A0BB9FFF7AFFF636ED80705D49A
:104FF000A389990502D4A06D00F07DFAA368013B56
:10500000002BA36005DAA269934212DBEBB20A2BF4
:105010000FD023685A1C22601D70EDB2636EDA0750
:1050200005D4A3899B0502D4A06D00F065FA28463B
:1050300070BD29462246304600F0D9F80546EDE716
:10504000024B014618688268FFF7C6BF2C0000209B
:10505000036A70B505460E4684680BB9FFF774FF06
:10506000636EDB0705D4A389980502D4A06D00F018
:1050700042FAA389190702D52369002B35D12146AD
:10508000284600F0F3F880B34FF0FF35636EDA077F
:1050900005D4A3899B0502D4A06D00F02DFA284603
:1050A00070BD002B04DAA2699A4217DC0A2915D0D8
:1050B00023685A1C22601970A36816F8011F013B6F
:1050C000A3600029EDD1002B11DA22460A212846DF
:1050D00000F08DF80130D7D00A25D7E722462846C0
:1050E00000F085F80130E7D1CEE7013EE4E7236820
:1050F0005A1C22600A221A70EEE70000024B014699
:105100001868FFF7A5BF00BF2C0000200EB44FF4B5
:10511000017270B500259DB021AC54F8046BADF858
:1051200014201B950290069000F0FFF90B4B0390A2
:105130000B934FF6FF7307900948ADF816303246CF
:10514000234602A900680F951495019400F074FBA2
:105150001DB0BDE8704003B0704700BF875100002C
:105160002C00002010B50C46B1F90E1000F086F9A5
:105170000028ABBF636DA3891B1823F48053ACBF19
:105180006365A38110BD002070472DE9F0411F46E3
:105190008B890546DB050C46164605D50223002201
:1051A000B1F90E1000F058F9A389324623F4805368
:1051B000A38128463B46B4F90E10BDE8F041FBF749
:1051C000ECB910B50C46B1F90E1000F045F9431CCE
:1051D000A38915BF606523F4805343F48053A381F2
:1051E00018BFA38110BDB1F90E1000F025B9F8B5B4
:1051F0000E461446054618B1036A0BB9FFF7A4FE24
:10520000A369A360A3891A0701D5236943B921467D
:10521000284600F02BF818B14FF0FF373846F8BD9C
:1052200023682269F6B2981A63693746834205DC1F
:1052300021462846FFF7C0FD0028EDD1A368013BB9
:10524000A36023685A1C22601E706269431C9A4244
:1052500004D0A389DB07E1D50A2EDFD121462846F9
:10526000FFF7AAFD0028D9D0D6E7000038B5294BB2
:10527000054618680C4618B1036A0BB9FFF764FEBF
:10528000B4F90C30190722D4DA0607D409222A60AF
:1052900043F040034FF0FF30A38133E0580712D5AD
:1052A000616B41B104F14403994202D0284600F0F9
:1052B00063F900236363A38923F02403A3810023FC
:1052C000636023692360A38943F00803A3812369F2
:1052D0004BB9A38903F42073B3F5007F03D02146B3
:1052E000284601F070F8B4F90C3013F001020AD02E
:1052F0000022A26062695242A261226942B913F09F
:105300008000C5D138BD990758BF6269A260F4E733
:105310000020F7E72C00002003460244934200D10E
:10532000704703F8011BF9E70346C9B2184613F8A2
:10533000012B12B18A42F9D17047002918BF002011
:10534000704710B56AB10139841810F8012B11F8B3
:10535000013F9A4203D1A04201D0002AF5D1D01AD0
:1053600010BD1046FCE7024610B501448A421346C0
:1053700003D01C780132002CF8D1181A10BD00009F
:10538000164B2DE9F0411F6805467C6C0E46ECB9C2
:10539000502000F039F90246786420B95B21104BA7
:1053A000104800F0CBF8C0E90044C0E90244C0E96D
:1053B0000444C0E90A44C0E90C44C0E90E44C0E911
:1053C0001044C0E91244846104774462314628469F
:1053D0007A6C0123BDE8F04100F006B82C000020F3
:1053E000579700006E970000F0B5044608B914689E
:1053F00044B10F46204614F8015B17F8016B1EB943
:1054000065B91560002005E0B542F6D1002BF0D15A
:1054100014600370F0BD1C460CE01DB90E46274613
:1054200014F8013B16F8015BAB42F6D1002BF2D029
:1054300000233B701460EDE738B50023054D0446AA
:1054400008462B60FBF790F8431C02D12B6803B190
:10545000236038BD8057002038B504460846114601
:105460000022054D2A601A46FBF793F8431C02D12F
:105470002B6803B1236038BD8057002038B504463F
:10548000084611460022054D2A601A46FBF783F8AC
:10549000431C02D12B6803B1236038BD8057002024
:1054A000014B1868704700BF2C00002070B5002623
:1054B0000C4D0D4C641BA410A64209D104F0A0FDB4
:1054C00000260A4D0A4C641BA410A64205D170BDEB
:1054D00055F8043B98470136EEE755F8043B9847EA
:1054E0000136F2E718A0000018A0000018A0000084
:1054F0002CA0000070477047704710F8012B11F87E
:10550000013B012A28BF9A42F7D0D01A70470A44BB
:10551000914200F1FF3300D1704710B511F8014BF3
:10552000914203F8014FF9D110BD034613F8012B46
:10553000002AFBD1181A0138704700001FB5144625
:105540001A46094B05461B68D8684CB1074BCDE994
:10555000013400912B46064900F0FEFE01F020F8D0
:10556000044B1C46F3E700BF2C000020F29700001C
:10557000FF970000328D000038B50546002940D065
:1055800051F8043C0C1F002BB8BFE41800F0EEF8F3
:105590001C4A136833B9636014602846BDE838407C
:1055A00000F0EAB8A34208D9206821188B4201BF55
:1055B00019685B6809182160EDE71A465B680BB152
:1055C000A342FAD911685018A0420BD120680144B7
:1055D000501883421160E0D118685B68084410607D
:1055E0005360DAE702D90C232B60D6E72068211834
:1055F0008B4201BF19685B680918216063605460C1
:10560000CBE738BD8C570020024B0146186800F0EC
:105610002DB800BF2C000020024B01461868FFF790
:10562000ABBF00BF2C00002070B50F4E0C46316898
:10563000054611B900F096FF30602146284600F07B
:1056400091FF431C03D14FF0FF34204670BDC41CB2
:1056500024F00304A042F8D0211A284600F082FF6B
:105660000130F2D1EFE700BF885700202DE9F84361
:10567000CD1C25F0030508350C2D38BF0C25002D59
:10568000064601DBA94204D90C2333600020BDE8A3
:10569000F883DFF8D48000F069F8D8F800301C46B1
:1056A00044BB29463046FFF7BFFF431C044658D190
:1056B000D8F800402746002F43D1002C4BD0236858
:1056C0003946304604EB030900F04CFF814542D1D6
:1056D000216830466D1A2946FFF7A6FF01303AD0FF
:1056E00023682B442360D8F800305A6862BBC8F89E
:1056F00000700FE02268521B20D40B2A17D96119C1
:10570000A342256018BF5960636808BFC8F800103D
:1057100062514B60304600F02FF804F10B00231D5E
:1057200020F00700C21A1CBF1B1AA350AFE7626823
:10573000A3420CBFC8F800205A60EBE72346646818
:10574000AEE73C467F68B6E71A465B68A342FBD1EA
:1057500000235360DEE70C233046336000F00CF882
:1057600094E70560D6E700BF8C5700200148FFF79B
:10577000C2BE00BF845700200148FFF7BDBE00BF76
:105780008457002038B54B1C144603D14FF0FF3529
:10579000284638BD9389CDB223F020039381636BF3
:1057A00052688BB1A36B934208DD23685A1E2260B6
:1057B00003F8015C636801336360E9E7214600F0A8
:1057C00077FE0028F1D0E1E72169236851B19942C1
:1057D00008D213F8011CA94204D1013B0132236015
:1057E0006260D5E7C4E90F3204F144036363032325
:1057F000A363234603F8465F23600123DCE710B56B
:105800000C46496B69B104F14403994201D0FFF79A
:10581000B3FE0020236C6063636013B1E36B23600D
:1058200010BD23694FF0FF30236000236360A3891C
:1058300043F02003A381F3E72DE9F04F0C4600214C
:105840000646ADF5237DCDE94411AB490DF10408C1
:10585000A091AA49AA4FCDF81881A191009392F87E
:105860000090B9F1000F00F0598117F80930551C6C
:1058700013F0080319D06368002B0FDD23681A7832
:10588000BA5C120701D42A46E9E7459A013301328E
:10589000459262682360013A6260ECE72146304637
:1058A000A19B98470028E9D0EDE7B9F1250F40F01A
:1058B00086804193439353782A2B04BF1023951C71
:1058C0004FF00A0208BF4193AA461AF8011BA1F142
:1058D0003003092B1ED9DFF82CB20322584600F002
:1058E00051FE38B101235546419AA0EB0B0083408D
:1058F0001343419315F8013B782B06D8572B10D84A
:10590000252B5CD056D8002B74D0032347930A2351
:10591000429387E0439B554602FB03113039439184
:10592000D2E7A3F15802202AEFD801A151F822F0C2
:10593000035A00000B5900000B5900005D5A00008B
:105940000B5900000B5900000B5900000B590000C7
:105950000B5900000B5900000B590000735A00004E
:10596000595A0000BB590000BB590000BB59000048
:105970000B590000155A00000B5900000B5900008C
:105980000B5900000B590000835A00001D5A0000FB
:10599000FB5900000B5900000B5900007F5A000012
:1059A0000B590000595A00000B5900000B59000018
:1059B000035A0000453B022BA7D8052331E063685A
:1059C000002B0DDD23681A784A4540F0A78001338B
:1059D00062682360459B013A01336260459352E758
:1059E00021463046A19B98470028EBD044980028D8
:1059F00040F08C804FF0FF308CE0419A42F0200262
:105A00004192419A42F40072419210226E2B4292CE
:105A100002D905E000234293032302E008234293C6
:105A2000042347936368002B39DD419B590604D456
:105A300023681A78BA5C120738D4479B022B47DCDC
:105A40006B462246304641A900F03AFB012865D05A
:105A500002287FF418AFC9E70A22D7E72946404653
:105A600000F0EDFC419B054643F0400341930123C8
:105A7000D7E7419B43F0400341930023D1E7022342
:105A8000CFE74198C3063FF5FEAE009B459A191D2E
:105A900000911B68C0074CBF1A801A60F3E62146CC
:105AA0003046A19B98470028BFD09FE7459A013216
:105AB00045926268013A002A626002DD0133236088
:105AC000B6E721463046A19B98470028B0D08DE725
:105AD000042B06DC6B462246304641A900F04AFB07
