:1000000000000120910100007F030000F1040000C6
:100010008303000003050000150500000000000038
:100020000000000000000000000000008903000044
:100030008B030000000000008D0300008F03000010
:100040009103000093030000950300009703000054
:10005000990300009B0300009D0300009F03000024
:10006000A1030000A3030000A5030000A7030000F4
:10007000A9030000AB030000AD030000AF030000C4
:10008000B1030000B3030000B5030000B703000094
:10009000B9030000BB030000BD030000BF03000064
:1000A000C1030000C3030000C5030000C703000034
:1000B000C9030000CB030000CD030000CF03000004
:1000C000D1030000D3030000D5030000D7030000D4
:1000D000D9030000DB030000DD030000DF030000A4
:1000E000E1030000E3030000E5030000E703000074
:1000F000E9030000EB030000ED030000EF03000044
:10010000F1030000F3030000F5030000F703000013
:10011000F9030000FB030000FD030000FF030000E3
:1001200001040000030400000504000007040000AF
:10013000090400000B0400000D0400000F0400007F
:10014000110400001304000015040000170400004F
:10015000190400001B0400001D0400001F0400001F
:1001600021040000230400002504000027040000EF
:10017000290400002B0400002D0400002F040000BF
:100180003104000033040000000000000000000003
:100190004FF0000BDFF8BE020068DFF8B612096806
:1001A00001F0030100F01C00142801D14BF0020BF8
:1001B000002901D04BF0010BBBF1000F05D0A7487F
:1001C000A749DFF8722200F09FF8A64880470BF09D
:1001D000020ABAF1000F0CD0DFF86E02DFF86E12DF
:1001E00002680B680FB44FF000024FF0FF0302608B
:1001F0000B609D484FF000024FF00103022808D128
:10020000DFF83A120A60DFF83E120A60DFF83212B5
:100210000B60012808D1DFF82A120A60DFF82612E5
:100220000A60DFF81A120B609048002809D1904844
:100230009049914A00F030F890489149914A00F075
:100240002BF891489149924A00F026F8914892493A
:10025000DFF8E22100F058F8BBF1000F10D08F4812
:100260008F49DFF8D62100F04FF80BF0020ABAF1FF
:10027000000F05D00FBC02600B6000BFAFF3008021
:10028000DFF820020FF2030E00474FF000004FF09E
:100290000001DFF814F2FEE72DE9F841884225D08D
:1002A000B2EB010200D5FEE740EA010313F00303BD
:1002B00002D000F01DF819E04FF000039046121133
:1002C000F7D09A421CBFF0C8F0C103F10103F8D186
:1002D00008F00F08B8F1000F08D004780C7000F196
:1002E000010001F10101B8F10108F6D1BDE8F88182
:1002F00008B54FF0000303780B7000F1010001F125
:100300000101013AF7D108BD884237D000F0030659
:10031000002E14D04FF00405A5EB06044FF008079B
:1003200007FB06F8914669FA08F9002C07D080F817
:10033000009069FA07F900F10100013CF5E74FF080
:1003400000060F46091A88460911914614461546BB
:10035000B14206D018BFA0E8340206F10106B1424E
:10036000F8D108F00F08B8F1000F07D002704FEA7B
:10037000322200F10100B8F10108F4E77047FEE70E
:10038000FEE7FEE7FEE7FEE7FEE7FEE7FEE7FEE745
:10039000FEE7FEE7FEE7FEE7FEE7FEE7FEE7FEE735
:1003A000FEE7FEE7FEE7FEE7FEE7FEE7FEE7FEE725
:1003B000FEE7FEE7FEE7FEE7FEE7FEE7FEE7FEE715
:1003C000FEE7FEE7FEE7FEE7FEE7FEE7FEE7FEE705
:1003D000FEE7FEE7FEE7FEE7FEE7FEE7FEE7FEE7F5
:1003E000FEE7FEE7FEE7FEE7FEE7FEE7FEE7FEE7E5
:1003F000FEE7FEE7FEE7FEE7FEE7FEE7FEE7FEE7D5
:10040000FEE7FEE7FEE7FEE7FEE7FEE7FEE7FEE7C4
:10041000FEE7FEE7FEE7FEE7FEE7FEE7FEE7FEE7B4
:10042000FEE7FEE7FEE7FEE7FEE7FEE7FEE7FEE7A4
:10043000FEE7FEE7704700000000A2A2A2A2008033
:100440000340088003401080034030800340348024
:1004500003403880034018080240000000F00020EC
:10046000000001202905000000000000000000003D
:10047000000000000000000090010000B004000037
:10048000B0040000C8B90000D0B90000000000208E
:10049000B0000020B00000208047002080470020EE
:1004A00000F000209973000089680000000000003F
:1004B00010B5054C237833B9044B13B10448AFF39E
:1004C00000800123237010BDB00000200000000058
:1004D00084B9000008B5034B1BB103490348AFF3CF
:1004E000008008BD00000000B400002084B90000B6
:1004F0001EF0040F0CBFEFF30880EFF3098002F049
:10050000DBBB1EF0040F0CBFEFF30880EFF3098094
:1005100002F05EBC1EF0040F0CBFEFF30880EFF397
:10052000098002F079BC000080B500AF00F030F81F
:10053000044B5B69034A43F400735361FFF77AFF8E
:1005400000BF80BD00ED00E080B483B000AF0E4B73
:10055000D3F84C313B603B684FF60202934204D023
:100560003B680A4A934203D005E001237B6005E023
:1005700002237B6002E000237B6000BF7B6818469B
:100580000C37BD4680BC70470080034002F8010074
:1005900080B582B000AFFFF7D7FF78607B68012B92
:1005A00002D100F007F800E000BF00BF0837BD46E9
:1005B00080BD000080B400AF094BD3F89830084AE2
:1005C00043F48073C2F89830054BD3F89830044A4E
:1005D00023F08063C2F8983000BFBD4680BC7047EE
:1005E0000080034080B483B000AF78604FF0FF33E9
:1005F00018460C37BD4680BC704780B483B000AF4E
:10060000786000BFFDE780B483B000AF78603960E8
:100610003B684FF400525A60002318460C37BD4621
:1006200080BC704780B400AF01231846BD4680BC33
:10063000704780B483B000AF7860012318460C3750
:10064000BD4680BC704780B582B000AF786039602D
:1006500006F09CFE034616221A604FF0FF33184640
:100660000837BD4680BD80B485B000AFF860B96082
:100670007A60002318461437BD4680BC704780B4AA
:1006800085B000AFF860B9607A600023184614376F
:10069000BD4680BC704780B485B000AFF860B960DB
:1006A0007A603B60002318461437BD4680BC704713
:1006B00080B586B000AF78601F4B1B68002B02D15D
:1006C0001D4B1E4A1A601C4B1B687B61EFF30883AD
:1006D0003B61194B1B683A699A420FD9164B1A684D
:1006E0007B6813443A699A421AD21923144A0121A9
:1006F0000020FFF7D0FF0120FFF77FFF114BFB60C9
:100700000D4B1A687B681344FA689A4208D2192381
:100710000D4A01210020FFF7BEFF0120FFF76DFF0A
:10072000054B1A687B681344034A13607B691846BB
:100730001837BD4680BD00BFCC0000208047002098
:100740008491000000F00020A091000080B485B0EA
:1007500000AF786039604FF0FF33FB603B68BB60EF
:1007600012E07B681B781A46FB681B0E53400B4A4D
:1007700052F82320FB681B025340FB607B68013367
:100780007B60BB68013BBB60BB68002BE9D1FB68A9
:10079000DB4318461437BD4680BC7047B491000057
:1007A00080B584B000AFF860B9607A603B603B68A8
:1007B00018687B68BA68F968984702463B681A600F
:1007C0003B681B68002B02D14FF0FF3300E0002391
:1007D00018461037BD4680BD80B586B000AFF860C2
:1007E000B9607A603B6014E0BB68102B28BF10230F
:1007F0007B613B687A687969F868FFF7D1FF034647
:10080000002B02DA4FF0FF3307E0BA687B69D31A96
:10081000BB60BB68002BE7D1002318461837BD46E4
:1008200080BD000080B586B000AFF860B9607A6026
:100830003B6000237B617B68002B0BD0BB68FA68B0
:1008400079683048FFF7C8FF0346002B02DA4FF003
:10085000FF3353E07A697B6813447B613B68002B6C
:1008600012D03B6A002B0FD0BB68FA68396A38682F
:10087000FFF796FF0346002B02DA4FF0FF333DE00F
:100880007A693B6A13447B617B6A002B0BD0BB689F
:10089000FA68796A1C48FFF79FFF0346002B02DACB
:1008A0004FF0FF332AE07A697B6A13447B61FB6A6D
:1008B000002B0BD0BB68FA68F96AB86AFFF770FFC3
:1008C0000346002B02DA4FF0FF3317E07A69FB6A28
:1008D00013447B613B6B002B0BD0BB68FA68396B10
:1008E0000848FFF779FF0346002B02DA4FF0FF3389
:1008F00004E07A693B6B13447B617B6918461837C7
:10090000BD4680BDB4950000C895000080B489B094
:1009100000AFF860B9607A603B600023FB610023A0
:10092000BB6100237B61FB689B681A46BB689342EE
:1009300005D2FB689B681A46BB68D31A7B61FB68CB
:100940005B6803F00403002B02D07B69BB6101E00C
:100950007B69FB61FB685B6803F04003002B15D0EB
:10096000FA69BB6913443B61FB685B6803F00403ED
:10097000002B0CBF01230023DBB21A463B69134452
:100980005B08FB613A69FB69D31ABB617B68002B8A
:1009900002D07B68FA691A603B68002B02D03B6882
:1009A000BA691A6000BF2437BD4680BC704700009A
:1009B0002DE9B04FA0B000AFC7E912017A643B64E3
:1009C000D7E91223C7E91C23D7E91C231446C3F334
:1009D0001305C7E91845D7E91C234FF000004FF075
:1009E0000001180D00210346C3F30A03BB66D7E9D3
:1009F0001C234FF000004FF00001D80F00210346E8
:100A0000FB66BA6E40F2FF739A4209D16FF0004361
:100A1000BB65FB6EFB65D7E91823C7E91423FFE02C
:100A2000D7E9182313430DD1BB6E002B0AD1002345
:100A3000BB654FF000024FF00003C7E91423FB6EC3
:100A4000FB65EDE0FB6EFB65BB6E002B21D1012346
:100A5000BB664FF000024FF00003C7E914230023E8
:100A6000BB650CE0D7E918239118B9615B41FB61C4
:100A7000D7E90623C7E91823BB6E013BBB66D7E95C
:100A800018234FF0000A03F4002B5AEA0B03E9D0B5
:100A900006E075A3D3E90023C7E914230023BB654F
:100AA00073A3D3E90023C7E91E23D7E918234FF026
:100AB00000004FF00001190341EA12511003C7E989
:100AC000180131E0D7E91823002B0CDAD7E914011B
:100AD000D7E91E238418BC6341EB0303FB63D7E90A
:100AE0000E34C7E91434D7E91823911839615B41F2
:100AF0007B61D7E90423C7E91823D7E91E23511CDA
:100B0000396343F100037B634FF000024FF00003B1
:100B1000D7E90C4521464A08204629460C4642EAB8
:100B2000C4724B08C7E91E23D7E918231343C9D160
:100B3000BB6EA3F2FF33BB6629E0D7E914239118FB
:100B4000B9605B41FB60D7E90223C7E91423D7E909
:100B5000142341498A4241498B4115D3D7E91423D3
:100B6000511DB96243F10003FB624FF00A024FF0DE
:100B70000003D7E90A0108F06DF902460B46C7E900
:100B80001423BB6D0133BB65BB6E013BBB66BB6E03
:100B9000002BD2DC41E0D7E9142331498A423149A4
:100BA0008B4120D2D7E9144522462B464FF0000056
:100BB0004FF00001990041EA9271900002460B4605
:100BC00012EB040843EB050918EB08033B6049EB03
:100BD00009037B60D7E9008942464B46C7E91423E5
:100BE000BB6D013BBB65D7E91423511C396243F14E
:100BF00000037B624FF000024FF00003D7E9084585
:100C000021464A08204629460C4642EAC4724B084F
:100C1000C7E91423BB6E0133BB66BB6E002BBADB86
:100C20007B6C002B02D0FA6D7B6C1A603B6C002B46
:100C300004D0D7E91423396CC1E90023D7F8A030D8
:100C4000002B03D0BA6DD7F8A0301A6000BF8037F0
:100C5000BD46BDE8B08F00BF0000C16FF286230023
:100C600000008D49FD1A07000080C6A47E8D030098
:100C700000406352BFC6010080B586B000AFF86087
:100C8000C7E900233A6A7B6AD31A7B610EE0D7E991
:100C900000014FF00A024FF0000308F0DBF80246B3
:100CA0000B46C7E900237B69013B7B617B69002B15
:100CB000EDDC7B6A7B6122E0D7E900014FF00A029C
:100CC0004FF0000308F0C6F813463B613B69DBB206
:100CD0003033D9B27B69013BFA6813444AB21A70C7
:100CE000D7E900014FF00A024FF0000308F0B2F814
:100CF00002460B46C7E900237B69013B7B617B69A8
:100D0000002BD9D17B6A18461837BD4680BD00003C
:100D100080B590B006AFF8607A603B600B46FB721E
:100D200000237B6100233B613B6C6FF000429342E8
:100D300015D1D7E90E23134311D097F90B30662B49
:100D400007D097F90B30652B03D097F90B30672B41
:100D500002D12F4B3B6213E02E4B3B6210E097F920
:100D60000B30662B07D097F90B30652B03D097F922
:100D70000B30672B02D1284B3B6201E0274B3B62D3
:100D8000386A06F03EFBF8613B6B002B02D0244B27
:100D90007B6219E03B6B002B08D1FB685B6803F0BA
:100DA0000203002B02D01F4B7B620DE03B6B002B3C
:100DB00008D1FB685B6803F00103002B02D01A4BDB
:100DC0007B6201E0194B7B62786A06F01AFBB8611E
:100DD000FA69BB69D11807F1100307F11402F8682A
:100DE000FFF794FD7A693B690493FB6903933B6ABF
:100DF000029300230193BB6900937B6A396878688A
:100E0000FFF710FD034618462837BD4680BD00BFDA
:100E1000DC950000E0950000E4950000E8950000F6
:100E2000EC950000F0950000F4950000F8950000A6
:100E30002DE9B0438AB000AFF860B9607A603B60DA
:100E400048A3D3E90023C7E908230023FB61BB685B
:100E50001B68BB617B6C002B21D0BA693E4B83FBC6
:100E60000231D317C91A0B465B000B44D31ABB617E
:100E7000BB69002B02DABB690333BB613B68002B03
:100E80000DD0BB681B68002BB8BF5B427B617B69E0
:100E9000182B04DD7B69183BBA691344BB613B68BE
:100EA000002B0AD1BB69002B02DABB690133BB619D
:100EB000BB69002BB8BF5B42BB61BA697B68134456
:100EC0000133FB61FB6923EAE373FB610BE0D7E9C4
:100ED00008014FF00A024FF0000307F0BBFF024683
:100EE0000B46C7E90823FB695A1EFA61002BEED1B5
:100EF000FB68D3E90001D7E90823841841EB030517
:100F0000FB68C3E90045FB68D3E9002313498A4223
:100F100013498B4118D3FB68D3E9002312F105086C
:100F200043F100094FF00A024FF0000340464946E2
:100F300007F090FF02460B46F968C1E90023BB6841
:100F40001B685A1CBB681A6000BF2837BD46BDE845
:100F5000B08300BFAFF30080565555550000C16FF8
:100F6000F28623000080E03779C3110080B5AAB073
:100F700006AFF8607A603B600B46FB720023C7F84F
:100F80008C300023C7F884300023C7F8803000235A
:100F9000BB6100237B610023FB670023BB67002349
:100FA0007B6700233B670023FB660023BB660023AF
:100FB000BB6500237B6500233B650023FB7497F929
:100FC0000B30672B03D097F90B30472B23D101232C
:100FD0007B65FB685B6823F02002FB685A60D7F8EA
:100FE000A83013F1040F05DBFB68DA68D7F8A830E6
:100FF0009A4208DC97F90B30672B01D1652300E09A
:101000004523FB7207E097F90B30672B01D166236C
:1010100000E04623FB7297F90B30662B03D097F95B
:101020000B30462B01D101233B65FB68DB68002BAD
:1010300002DAFB680622DA607B6D002B06D0FB68C3
:10104000DB68002B02D1FB680122DA60D7F8983008
:10105000002B03D0AB4BC7F888301EE0D7F8983090
:10106000002B09D1FB685B6803F00203002B03D05F
:10107000A54BC7F8883010E0D7F89830002B09D17D
:10108000FB685B6803F00103002B03D09F4BC7F89C
:10109000883002E09E4BC7F88830D7F8880006F009
:1010A000B0F97863FB68DA68FB685B6803F02003DB
:1010B00007F1A80107F1A00001937B6D00933B6D40
:1010C000FFF7B6FED7E92823134324D01023C7F82F
:1010D0008C301AE0D7E928014FF00A024FF00003E4
:1010E00007F0B8FE134315D1D7F88C30013BC7F891
:1010F0008C30D7E928014FF00A024FF0000307F0C7
:10110000A9FE02460B46C7E92823D7F88C30002BEE
:10111000E0D100E000BF3B6D002B37D0FB685B687F
:1011200003F02003002B2AD00823FB6419E0D7F832
:10113000A830022B08DDFB6C0133FB64D7F8A83024
:10114000033BC7F8A8300CE0D7F8A830002B0FDA23
:10115000FB6C013BFB64D7F8A8300333C7F8A83019
:1011600000BFFB6C002B04DDFB6C0F2BDFD900E014
:1011700000BF684AFB6C134493F90030FB74D7F846
:10118000A83043EAE37301337B6623E001237B66E7
:10119000FB685B6803F02003002B1BD0D7F8A82066
:1011A0005D4B83FB0231D317C91A0B465B000B441E
:1011B000D31ABB64BB6C002B02DABB6C0333BB6479
:1011C0007A6EBB6C13447B66D7F8A820BB6CD31A2D
:1011D000C7F8A830FB68DA68D7F88C107B6ECB1A9A
:1011E00023EAE3739342A8BF13463B663B6D002B93
:1011F0003CD07B6D002B39D0D7E92823C7E91023D9
:10120000D7F88C30FB630EE0FB6B013BFB63D7E947
:1012100010014FF00A024FF0000307F01BFE0246D8
:101220000B46C7E910237A6E3B6E1344FA6B9A4261
:10123000EADC0EE0D7E910014FF00A024FF000039C
:1012400007F008FE02460B46C7E910233B6E013B40
:101250003B663B6E002B09DDD7E910014FF00A0217
:101260004FF0000307F0F6FD1343E3D07A6E7B6B7B
:101270001A443B6E1344C7F880303B6D002B38D0C6
:101280007B6E002B06D10123FB67D7F8803001333A
:10129000C7F880307A6ED7F88C309A4204DD7A6EC7
:1012A000D7F88C30D31ABB67D7F8A830B3F1FF3F1B
:1012B00015DAFB68DB68002B11DDD7F8A830DB43BB
:1012C0007B67FB68DB681A467B6F934228BF134637
:1012D0007B67D7F880207B6F1344C7F8803097F97D
:1012E0001330002B34D0D7F880300133C7F880306A
:1012F0002EE0D7F8A830002BB8BF5B42FB65002377
:10130000BB6516E0EC950000F0950000F495000038
:10131000F89500000000002056555555BB6D01336F
:10132000BB65FB6D9C4A82FB03129210DB17D31A3C
:10133000FB65FB6D002BF1DCBB6D022B38BF02237C
:10134000BB65BA6DD7F8803013440233C7F88030DC
:101350003A6E7B6F1344FA68D268934217D27B6D62
:10136000002B05D0FB685B6803F00803002B0ED050
:10137000FB68DB681A467B6FD21A3B6ED31A3B6759
:10138000D7F880203B6F1344C7F880301AE03B6DDC
:10139000002B17D03A6E7B6F1344FA68D2689342E1
:1013A00010D93A6E7B6F1344FA68D2689B1A3B637C
:1013B0003B6BD7F88020D31AC7F880303A6E3B6B6E
:1013C000D31A3B667B6F002B0BD13B6F002B08D1F0
:1013D0003B6E002B05DCFB685B6803F00803002B09
:1013E00006D00123BB66D7F880300133C7F88030C0
:1013F00007F1140307F11802D7F88010F868FFF717
:1014000085FAFB685B6803F01003002B05D0BB690D
:10141000FA6F1344FB670023BB617B6E002B0ED079
:10142000D7E92823786EB96F411A07F11C000191A2
:10143000D7F88C100091FFF71FFC034600E0002353
:10144000C7F88430D7F88C20D7F88430D31AC7F87F
:101450008C30BA6900230493D7F88430039307F1E2
:101460001C030293FB6F01937B6B0093D7F88830CA
:1014700039687868FFF7D6F9F862FB6AB3F1FF3F85
:1014800001D1FB6AF4E0FA6EFB6A1344FB660023A9
:1014900004930023039300230293BB6F0193002363
:1014A00000930023002239687868FFF7BBF9F862DF
:1014B000FB6AB3F1FF3F01D1FB6AD9E0FA6EFB6A28
:1014C0001344FB663B6E002B0CD0D7E9282307F1B1
:1014D0001C00396E0191D7F88C100091FFF7CCFBFE
:1014E000034600E00023C7F88430BB6E002B14BF16
:1014F00001230023DBB21A4600230493D7F884307B
:10150000039307F11C0302937B6F01930092234B1B
:10151000002239687868FFF785F9F862FB6AB3F151
:10152000FF3F01D1FB6AA3E0FA6EFB6A1344FB663E
:101530000023049300230393002302933B6F019342
:10154000002300930023002239687868FFF76AF9C6
:10155000F862FB6AB3F1FF3F01D1FB6A88E0FA6EE3
:10156000FB6A1344FB66BB6D002B5DD0D7F8A83037
:10157000002BB8BF5B42BB63FB7A3B74D7F8A83043
:10158000002B01DA2D2300E02B237B74BB6DFB6560
:101590000023C7F8843025E067666666FC95000086
:1015A000B96B354BA3FB0123DA0813469B001344A8
:1015B0005B00CA1AD3B23033DAB2FB6D013B52B2D0
:1015C00090333B4403F8742CFB6D013BFB65D7F86B
:1015D00084300133C7F88430BB6B274AA2FB032356
:1015E000DB08BB63FB6D002BDADC07F11002002384
:1015F0000493D7F88430039307F11C03029300236C
:101600000193022300931346002239687868FFF79C
:1016100009F9F862FB6AB3F1FF3F01D1FB6A27E0E9
:10162000FA6EFB6A1344FB6697F91330002B14BF64
:1016300001230023DBB21A467B690493039207F16E
:10164000130302930023019300230093002300223D
:1016500039687868FFF7E6F8F862FB6AB3F1FF3F94
:1016600001D1FB6A04E0FA6EFB6A1344FB66FB6E71
:1016700018469037BD4680BDCDCCCCCC90B593B04C
:1016800006AFF860B9603B601346FB71FB6893F9E5
:1016900014304C2B02D14FF0FF334DE0BB681B6878
:1016A000073323F0070303F10801BA681160D3E997
:1016B0000023C7E90A2307F1180107F1240207F103
:1016C000140300930B46D7E90A01FFF771F97B6910
:1016D0006FF00042934203D1D7E90623134308D1A8
:1016E0007B696FF00042934215D1D7E9062313437B
:1016F00011D1796AD7E90623786997F907400490F0
:10170000CDE9022300913B6C3A682146F868FFF767
:10171000FFFA034610E0796AD7E90623786997F95A
:1017200007400490CDE9022300913B6C3A682146C2
:10173000F868FFF71BFC034618463437BD4690BDDA
:101740002DE9B04FAAB006AFF865B9653B65134601
:1017500087F85730FB6D1A6AFB6D5B6A1344C7F854
:101760008430D7F884300733DB08C7F880304FF077
:1017700000024FF00003C7E918234FF000024FF0BA
:101780000003C7E91823D7F88030002B02D14FF0AF
:10179000FF33EEE0D7F88030042B08D8BB6D196812
:1017A0000A1DBB6D1A600B68C7F88C3007E0BB6D73
:1017B00019680A1DBB6D1A600B68C7F88C30D7F822
:1017C0008C30002B0AD10023FB674FF000024FF052
:1017D0000003C7E91C230023FB66BAE0D7F8843076
:1017E0005A1E012303FA02F2D7F88C301340002B63
:1017F00014BF01230023DBB2FB67FB6F002B04D077
:10180000D7F88C305B42C7F88C30D7F884305A1E3A
:10181000012393405A1ED7F88C301340C7F88C3000
:10182000D7F88C30DA17BB64FA64D7E91223C7E91A
:101830001C234FF0FF33C7F8883009E0D7F88C300D
:101840005B10C7F88C30D7F888300133C7F8883080
:10185000D7F88C30002BF1D1D7F88820FB6D5B6A6C
:10186000D31AFB6609E0D7E91C23911839605B4164
:101870007B60D7E90023C7E91C23D7E91C23B3F514
:10188000801FF0D3D7E9182300244FEA13554FEAFD
:101890000555D7E91C239246C3F3130B44EA0A0308
:1018A0003B6445EA0B037B64D7E91034C7E918347D
:1018B000D7E91823BA636FF31E53FB63FB6EDA1785
:1018C0003B637A633B6BC3F30A084FF0000940F2B5
:1018D000FF3318EB0303BB6249F10003FB624FF0D7
:1018E00000024FF00003B96A0B050022D7E90E0190
:1018F000044614433C6219437962D7E90834C7E9C6
:101900001834D7E91823BA6123F00043FB61FB6F59
:1019100000223B617A614FF000024FF00003396909
:10192000CB070022D7E9060104461443BC601943E3
:10193000F960D7E90234C7E91834D7E9180107F18B
:10194000700407F17C0207F16C0300932346FFF754
:101950002FF8F96FD7E91C23F86E0490CDE9022324
:101960000091D7F8B0303A6D6621F86DFFF7FEFAB6
:10197000034618469037BD46BDE8B08FB0B485B079
:1019800000AF786039603B681B68191D3A681160C8
:101990001B68FB60FB68002B48D07B6893F9143010
:1019A000682B05D17B681B681AB2FB681A803DE082
:1019B0007B6893F91430692B05D17B681B685AB298
:1019C000FB681A7032E07B6893F914306C2B05D1F8
:1019D0007B681B681A46FB681A6027E07B6893F9EE
:1019E00014306A2B08D17B681B6800221C46154600
:1019F000FB68C3E9004519E07B6893F914307A2B42
:101A000004D17B681A68FB681A600FE07B6893F961
:101A10001430742B05D17B681B681A46FB681A606A
:101A200004E07B681B681A46FB681A6000231846AE
:101A30001437BD46B0BC704780B58EB006AFF860B5
:101A4000B9603B601346FB710023FB6197F90730D7
:101A5000632B08D1BB681B68191DBA6811601B682D
:101A60005BB2FB7403E0FB6893F91530FB74FB6811
:101A7000DB68002B02DAFB680122DA60FB68DB68B6
:101A8000012BB8BF0123BB611FE000230493012396
:101A9000039307F1130302930023019300230093A0
:101AA00000230022B96A3868FEF7BCFE78617B69C2
:101AB000B3F1FF3F02D14FF0FF330AE0FA697B69CF
:101AC0001344FB61BB69013BBB61BB69002BDCD1EB
:101AD000FB6918462037BD4680BD000080B58EB03A
:101AE00006AFF860B9603B601346FB710023FB61F1
:101AF00000237B6100233B61BB681B68191DBA682A
:101B000011601B68BB61BB69002B01D1174BBB6126
:101B1000B86905F076FCF861FB68DB68002B07DB31
:101B2000FB68DB681A46FB69934228BF1346FB61DA
:101B300007F1100307F11402F969F868FEF7E6FEF1
:101B40007A693B690493FB690393BB6902930023A1
:101B50000193002300930023B96A3868FEF762FE00
:101B6000034618462037BD4680BD00BF00960000E2
:101B70002DE9F043CBB006AF07F58876A6F582765F
:101B8000306007F58870A0F584700160114607F594
:101B90008872A2F58872136007F58873A3F209139F
:101BA0000A461A700023C7F80C310023BB610023DA
:101BB0007B610023C7F804310023C7F800310023FC
:101BC000C7F8FC300023C7F8F4300023C7F8F03022
:101BD00007F58873A3F582731B685B6803F08003C5
:101BE000002B00F0EE8007F58873A3F582731B6865
:101BF00093F914306C2B10D107F58873A3F5847317
:101C00001B681B68191D07F58872A2F5847212689B
:101C100011601B68C7F8EC3063E007F58873A3F523
:101C200082731B6893F914306A2B16D107F58873F9
:101C3000A3F584731B681B68073323F0070303F1C4
:101C4000080107F58872A2F5847212681160D3E961
:101C500000231346C7F8EC3043E007F58873A3F57B
:101C600082731B6893F914307A2B10D107F58873AF
:101C7000A3F584731B681B68191D07F58872A2F50C
:101C80008472126811601B68C7F8EC3029E007F510
:101C90008873A3F582731B6893F91430742B10D1E9
:101CA00007F58873A3F584731B681B68191D07F576
:101CB0008872A2F58472126811601B68C7F8EC3054
:101CC0000FE007F58873A3F584731B681B68191D63
:101CD00007F58872A2F58472126811601B68C7F854
:101CE000EC3007F58873A3F582731B6893F9143001
:101CF000682B04D1D7F8EC301BB2C7F8EC3007F5ED
:101D00008873A3F582731B6893F91430692B04D18F
:101D1000D7F8EC305BB2C7F8EC30D7F8EC30002BDA
:101D2000B8BF5B42C7F8F83007F58873A3F5807336
:101D300000221A70D7F8EC30002B06DA07F588730A
:101D4000A3F580732D221A7020E007F58873A3F5A0
:101D500082731B685B6803F00203002B06D007F553
:101D60008873A3F580732B221A700FE007F5887330
:101D7000A3F582731B685B6803F00103002B05D099
:101D800007F58873A3F5807320221A7007F588730E
:101D9000A3F5807393F90030002B00F0B28001238B
:101DA000C7F8F43007F58873A3F582731B685B6886
:101DB00043F0080207F58873A3F582731B685A6025
:101DC0009FE007F58873A3F582731B6893F91430BD
:101DD0006C2B10D107F58873A3F584731B681B68FF
:101DE000191D07F58872A2F58472126811601B68CC
:101DF000C7F8F83063E007F58873A3F582731B68B2
:101E000093F914306A2B16D107F58873A3F5847300
:101E10001B681B68073323F0070303F1080107F56C
:101E20008872A2F5847212681160D3E90023134608
:101E3000C7F8F83043E007F58873A3F582731B6891
:101E400093F914307A2B10D107F58873A3F58473B6
:101E50001B681B68191D07F58872A2F58472126849
:101E600011601B68C7F8F83029E007F58873A3F5FF
:101E700082731B6893F91430742B10D107F58873A3
:101E8000A3F584731B681B68191D07F58872A2F5FA
:101E90008472126811601B68C7F8F8300FE007F50C
:101EA0008873A3F584731B681B68191D07F5887276
:101EB000A2F58472126811601B68C7F8F83007F544
:101EC0008873A3F582731B6893F91430682B04D1CF
:101ED000D7F8F8309BB2C7F8F83007F58873A3F548
:101EE00082731B6893F91430692B04D1D7F8F8304A
:101EF000DBB2C7F8F83007F58873A3F5807330229A
:101F00001A7007F58873A3F2091393F900306F2B49
:101F100006D1D7F8F830002B02D00123C7F8F430EF
:101F200007F58873A3F2091393F90030782B0FD0CB
:101F300007F58873A3F2091393F90030582B07D0E3
:101F400007F58873A3F2091393F90030622B32D19D
:101F500007F58873A3F582731B685B6803F02003A1
:101F6000002B03D1D7F8F830002B0CD007F588737D
:101F7000A3F5807307F58872A2F2091212785A70DD
:101F80000223C7F8F43007F58873A3F582731B6842
:101F90005B6803F02003002B0DD007F58873A3F5D1
:101FA000807393F9013043F020035AB207F5887328
:101FB000A3F580735A7007F58873A3F582731B68C5
:101FC0005B6803F00803002B0ED0D7F80C21D7F87C
:101FD000F4301344C7F80C3107F11003C7F8FC3094
:101FE000D7F8F430C7F80031D7F834310A2B50D184
:101FF0000023C7F8083147E0D7F8F83000229846A8
:102000009146AF4B03FB09F2002303FB08F3134493
:10201000AB4AA8FB02452B441D46C7E92C45C7E93E
:102020002C45D7E92C014FF000024FF00003CA08FD
:1020300000231346C7F8AC30D7F8AC309B00D7F874
:10204000AC201344C7F8A830D7F8A8305B00D7F805
:10205000F820D31AC7F8A430D7F808310133C7F8ED
:102060000831D7F8A430DBB23033DAB2D7F8083110
:10207000C3F1820352B203F588733B4403F8F42C96
:10208000D7F8AC30C7F8F830D7F8F830002BB3D118
:10209000ACE0D7F83431022B07D0D7F83431082B15
:1020A00003D0D7F83431102B5BD1D7F83431013B52
:1020B000C7F8C030D7F83431102B07D0D7F83431F7
:1020C000082B01D1032302E0012300E00423C7F819
:1020D000BC300023C7F808313EE0D7F8F820D7F825
:1020E000C0301340774AD35C87F8EB3007F588732C
:1020F000A3F2091393F90030782B0FD007F58873FA
:10210000A3F2091393F90030692B07D007F5887300
:10211000A3F2091393F90030752B05D197F8EB3032
:1021200043F0200387F8EB30D7F808310133C7F8C4
:102130000831D7F80831C3F1820303F588733B44B3
:1021400097F8EB2003F8F42CD7F8F820D7F8BC3038
:1021500022FA03F3C7F8F830D7F8F830002BBCD1D7
:1021600044E00023C7F808313CE0D7F8F830D7F84E
:102170003421B3FBF2F2D7F8341101FB02F29B1ABF
:10218000504AD35C87F8EA3007F58873A3F2091345
:1021900093F90030692B07D007F58873A3F2091370
:1021A00093F90030752B05D197F8EA3043F02003FE
:1021B00087F8EA30D7F808310133C7F80831D7F883
:1021C0000831C3F1820303F588733B4497F8EA2092
:1021D00003F8F42CD7F8F820D7F83431B2FBF3F336
:1021E000C7F8F830D7F8F830002BBED107F5887360
:1021F000A3F582731B68DB69002B00F01C8107F5D7
:102200008873A3F582731B689B69C7F8E43007F5F0
:102210008873A3F582731B68DB69C7F8E03000237D
:10222000C7F8D830D7F80831C7F8D030D7F8083118
:10223000C3F18203C7F8CC30D7F8E030013BD7F8C0
:10224000E4201344C7F8E430E6E0D7F8E030002B90
:1022500000F08580D7F8E4301B7887F8DF3097F9F5
:10226000DF302D2B00F0DE8097F9DF302A2B1FD1D5
:1022700007F58873A3F584731B681B68191D07F5A0
:102280008872A2F58472126811601B68C7F8D83092
:10229000D7F8D830002BC0F2C780D7F8E430013B24
:1022A000C7F8E430D7F8E030013BC7F8E03043E04E
:1022B0000023C7F8D8300123C7F8D43023E000BF8B
:1022C000CDCCCCCC1096000097F9DF30303B1A46CD
:1022D000D7F8D43003FB02F2D7F8D8301344C7F84C
:1022E000D830D7F8D42013469B0013445B00C7F8BE
:1022F000D430D7F8E430013BC7F8E430D7F8E03009
:10230000013BC7F8E030D7F8E030002B14D0D7F805
:10231000E4301B7887F8DF3097F9DF30002B0BD0E3
:1023200097F9DF300133874A134493F90030DBB269
:1023300003F00403002BC7D1D7F8E030002B75D091
:10234000D7F8E4301B7887F8DF30D7F8E430013B6A
:10235000C7F8E430D7F8E030013BC7F8E030D7F8F1
:10236000D830002B54D0D7F8D830D7F8D0209A42A4
:102370005ED9D7F8CC30C7F8C830D7F8D830D7F8FE
:10238000D020D31AC7F8C43018E0D7F8C830013BC2
:1023900007F11C01D7F8C8200A4492F9002003F580
:1023A00088733B4403F8F42CD7F8C430013BC7F8DA
:1023B000C430D7F8C8300133C7F8C830D7F8C430B4
:1023C000002BE2D1D7F8CC30013BC7F8CC30D7F89E
:1023D000CC20D7F8D0301A44D7F8D830D31A03F528
:1023E00088733B4497F8DF2003F8F42CD7F80831C2
:1023F0000133C7F80831D7F8F0300133C7F8F030AF
:10240000D7F8D830D7F8D020D31AC7F8D03003E0A7
:10241000D7F8E030002B0DD0D7F8D030002B7FF468
:1024200014AF08E000BF06E000BF04E000BF02E018
:1024300000BF00E000BFD7F80831C7F8A03007F5AB
:102440008873A3F582731B68DB68002B07DA07F536
:102450008873A3F582731B680122DA600DE007F52B
:102460008873A3F582731B685B6823F0100207F57D
:102470008873A3F582731B685A6007F58873A3F508
:1024800082731B68DB681A46D7F8F0301344D7F81C
:102490000821934238BF1346C7F80831D7F80C21FA
:1024A000D7F808311344C7F80C3107F1140307F1CA
:1024B000180207F58871A1F58270D7F80C11006831
:1024C000FEF724FAD7F80821D7F8A030D31AC7F8B6
:1024D000043107F58873A3F582731B685B6803F00A
:1024E0001003002B07D0BB69D7F804211344C7F8A9
:1024F00004310023BB61B969D7F8A030C3F182036E
:1025000007F11C0213447A6907F58870A0F58870FA
:102510000492D7F8A02003920293D7F804310193D4
:10252000D7F800310093D7F8FC300A46D7F83011BD
:102530000068FEF777F90346184607F58A77BD4627
:10254000BDE8F08350B7000080B58CB006AFF860EE
:10255000B9603B601346FB7100237B6197F907303C
:102560006E2B05D1B968F868FFF708FA0346DDE07D
:1025700097F90730252B11D10023049301230393EE
:10258000FB1D0293002301930023009300230022EC
:10259000396A3868FEF746F90346C7E097F907300D
:1025A000632B03D097F90730432B0AD197F9072003
:1025B0003B6A00933B68B968F868FFF73DFA034649
:1025C000B4E097F90730732B0AD197F907203B6ADB
:1025D00000933B68B968F868FFF780FA0346A5E006
:1025E00097F90730652B13D097F90730452B0FD09B
:1025F00097F90730662B0BD097F90730462B07D099
:1026000097F90730672B03D097F90730472B0AD18A
:1026100097F907203B6A00933B68B968F868FFF7B1
:102620002DF8034682E097F907306B2B0AD197F912
:1026300007203B6A00933B68B968F868FFF780F8A9
:10264000034673E097F90730702B0DD15823FB71C7
:10265000FB6800221A75FB6828225A60FB68082272
:102660009A60FB680822DA6097F90730642B07D07C
:1026700097F90730692B03D097F90730492B1CD104
:10268000FB685B6843F08002FB685A600A237B6149
:10269000FB685B6823F00802FB685A6097F9073013
:1026A000692B03D097F90730492B06D1FB681B69CA
:1026B000002B02D0FB681B697B6197F90730782BF0
:1026C00003D097F90730582B01D110237B6197F97C
:1026D0000730752B03D097F90730552B08D1FB68CD
:1026E0001B69002B02D0FB681B6900E00A237B6199
:1026F00097F907306F2B01D108237B6197F90730D9
:10270000622B01D102237B617B69012B0CD997F9E4
:1027100007207B6901933B6A00933B68B968F868BE
:10272000FFF726FA034601E04FF0FF33184618374B
:10273000BD4680BD80B59CB002AFF860B9607A60DC
:102740003B607B683B663B683B617B68002B00F02D
:102750008C8200237B617DE23B6EFB6502E0FB6DBA
:102760000133FB65FB6D93F90030002B04D0FB6D4A
:1027700093F90030252BF2D1FA6D3B6ED31AFB642E
:10278000FB6C002B0ED007F10803FA68F96C386E69
:10279000FEF706F80346002BC0F269827A69FB6CEB
:1027A00013447B61FB6D3B663B6E93F90030002B5D
:1027B00000F050823B6E01333B660023BB610BE0AF
:1027C000BA69BB6CA6495B1AA64951F8233013437A
:1027D000BB613B6E01333B663B6E1B7887F867300D
:1027E00097F96730002B09D097F9673019469C4854
:1027F00004F01CFDB864BB6C002BE1D13B6E93F977
:1028000000302A2B12D13B691A1D3A611B68FB610B
:10281000FB69002B06DAFB695B42FB61BB6943F095
:102820000403BB613B6E01333B6628E00023FB6180
:102830000DE0FA6913469B0013445B001A4697F9B2
:1028400067301344303BFB613B6E01333B663B6EAC
:102850001B7887F8673097F96730002B0FD097F90E
:1028600067300133804A134493F90030DBB203F040
:102870000403002B03D0FB69B3F5FA7FD9DBFB69B6
:10288000B3F5FA7F00F3F5813B6E93F900302E2B00
:1028900003D04FF0FF333B6243E03B6E01333B66B6
:1028A0003B6E93F900302A2B0DD13B691A1D3A611A
:1028B0001B683B623B6AB3F5FA7F00F3DC813B6E39
:1028C00001333B662DE000233B620DE03A6A13467C
:1028D0009B0013445B001A4697F967301344303B62
:1028E0003B623B6E01333B663B6E1B7887F867307B
:1028F00097F96730002B0FD097F9673001335A4AA8
:10290000134493F90030DBB203F00403002B03D02F
:102910003B6AB3F5FA7FD9DB3B6AB3F5FA7F00F384
:10292000AC813B6E93F900303A2B02D000237B62DE
:1029300048E03B6E01333B663B6E93F900302A2B37
:1029400014D13B691A1D3A611B687B647B6C002BB8
:1029500002DA00237B6205E07B6C242B00F38F817D
:102960007B6C7B623B6E01333B662BE000237B621A
:102970000DE07A6A13469B0013445B001A4697F9F0
:1029800067301344303B7B623B6E01333B663B6EEA
:102990001B7887F8673097F96730002B0ED097F9CE
:1029A00067300133304A134493F90030DBB203F04F
:1029B0000403002B02D07B6A232BDADD7B6A242BF5
:1029C00000F35F8110237B631023BB6300233B6311
:1029D0000023FB623B6E1B7887F8673097F96730FE
:1029E0005B2B24D10023BB653B6E01333B663B6E02
:1029F000FB6205E03B6E01333B66BB6D0133BB659B
:102A00003B6E1B7887F8673097F96730002B03D04F
:102A100097F967305D2BEDD197F96730002B00F007
:102A200032813B6E01333B66BB6D3B639CE097F9A3
:102A300067307B2B40F098803B6E01333B663B6EEA
:102A400093F900302A2B08D13B691A1D3A611B68A3
:102A50007B653B6E01333B662DE000237B6513E015
:102A6000389600004096000050B700007A6D13467B
:102A70009B0013445B001A4697F967301344303BC0
:102A80007B653B6E01333B663B6E1B7887F8673096
:102A900097F96730002B0ED097F967300133844ADD
:102AA000134493F90030DBB203F00403002B02D08F
:102AB0007B6D1F2BDAD97B6D202B00F2E6803B6EFD
:102AC00093F900302E2B40F0E2803B6E01333B66E1
:102AD0003B6E93F900302A2B08D13B691A1D3A61ED
:102AE0001B683B653B6E01333B6627E000233B657B
:102AF0000DE03A6D13469B0013445B001A4697F9AC
:102B000067301344303B3B653B6E01333B663B6EA5
:102B10001B7887F8673097F96730002B0ED097F94C
:102B200067300133624A134493F90030DBB203F09B
:102B30000403002B02D03B6D1F2BDAD997F96730C5
:102B4000002B00F0A6803B6E01333B663B6D202BD3
:102B500000F2A1807A6D3B6D13441F2B00F29D8023
:102B60007B6D7B633B6DBB633B6E1B7887F8673087
:102B700097F96730002B0ED097F9673019464D480A
:102B800004F054FB0346002B05D03B6E01333B663B
:102B900097F9673000E0002387F8283097F928304C
:102BA000002B17D03B6E1B7887F8673097F967309A
:102BB000002B0FD097F9283097F967209A4209D156
:102BC00097F9283043F001035BB287F828303B6E59
:102BD00001333B663B6E1B7887F8673097F96730A7
:102BE000002B05D13B691A1D3A611B683B6631E039
:102BF00097F8673087F8433097F94330432B0FD16C
:102C00003B6E01333B663B6E1B7887F8673097F964
:102C10006730002B43D097F8673087F8293002E0FF
:102C2000002387F8293097F9432007F1100107F1B5
:102C3000140007F108030093FB68FFF785FCF863B5
:102C4000FB6B002B2DDB7A69FB6B13447B613B6EC6
:102C500001333B663B6E1B7887F8673097F9673026
:102C6000002B7FF479AD7B691EE000BF1AE000BF46
:102C700018E000BF16E000BF14E000BF12E000BF84
:102C800010E000BF0EE000BF0CE000BF0AE000BF94
:102C900008E000BF06E000BF04E000BF02E000BFA4
:102CA00000E000BF4FF0FF3318466837BD4680BDD7
:102CB00050B700000896000080B58CB000AF786077
:102CC000304802F0A5FB7B681B68FB627B685B6891
:102CD000BB627B689B687B627B68DB683B627B686E
:102CE0001B69FB617B685B69BB617B689B697B617E
:102CF0007B68DB693B61F96A234802F089FBB96AAA
:102D0000224802F085FB796A214802F081FB396A8A
:102D1000204802F07DFBF9691F4802F079FBB96990
:102D20001E4802F075FB79691D4802F071FB396994
:102D30001C4802F06DFB1C4B1B6819461B4802F037
:102D400067FB1B4B1B6819461A4802F061FB1A4BC4
:102D50001B681946194802F05BFB194B1B681946A2
:102D6000184802F055FB184B1B681946174802F02B
:102D70004FFB0023FB60FB68984700BF3037BD4620
:102D800080BD00BF60960000849600009096000011
:102D90009C960000A8960000B4960000C096000023
:102DA000F09600001097000038ED00E01C9700003E
:102DB00028ED00E0289700002CED00E0349700009B
:102DC00030ED00E0409700003CED00E04C97000043
:102DD00080B586B000AF78600C4802F019FB7B68C4
:102DE0009B697B617B685B693B617969084802F09C
:102DF0000FFB3969074802F00BFB0023FB60FB68FF
:102E0000984700BF1837BD4680BD00BF58970000E7
:102E1000689700007897000080B586B000AF7860B2
:102E20000C4802F0F5FA7B689B697B617B685B6903
:102E30003B617969084802F0EBFA3969074802F00A
:102E4000E7FA0023FB60FB68984700BF1837BD46D0
:102E500080BD00BF88970000689700007897000049
:102E600080B584B000AFF860B9607A603B60FB6801
:102E7000BA681A60FB687A685A60FB6800221A72A6
:102E8000FB683A68DA60FB681B68184604F0B9FA18
:102E90000346DAB2FB681A72FB6818461037BD4663
:102EA00080BD000098B500AF434C444B444A4549AF
:102EB0002046FFF7D5FF1034434B444A444920468F
:102EC000FFF7CEFF1034434B434A44492046FFF7F7
:102ED000C7FF10343C4B424A42492046FFF7C0FF2F
:102EE00010343C4B404A41492046FFF7B9FF1034AB
:102EF0003F4B404A40492046FFF7B2FF10343C4B5D
:102F00003E4A3F492046FFF7ABFF10343D4B3E4A57
:102F10003E492046FFF7A4FF10343A4B3C4A3D4956
:102F20002046FFF79DFF10343B4B3C4A3C4920466E
:102F3000FFF796FF10343B4B3B4A3C492046FFF7D6
:102F40008FFF1034374B3A4A3A492046FFF788FF43
:102F50001034394B394A3A492046FFF781FF103483
:102F6000384B394A39492046FFF77AFF1034384B3D
:102F7000384A39492046FFF773FF1034374B384A37
:102F800038492046FFF76CFF1034374B374A384931
:102F90002046FFF765FF1034364B374A3749204645
:102FA000FFF75EFF04F11000354B364A3649FFF754
:102FB00057FF00BF98BD00BFD000002021340000A3
:102FC0009C970000D497000089340000DC97000033
:102FD000F097000051350000FC97000018980000A1
:102FE000249800003C980000409800006098000081
:102FF000D935000064980000B0980000B89800002F
:1030000004990000E1370000089900003C99000095
:103010004499000078990000613900007C99000013
:10302000B0990000C1390000B8990000D49900009F
:10303000DC990000F8990000013B0000FC990000B9
:103040004C9A0000953C00005C9A00009C9A00009D
:10305000E13C0000AC9A0000F49A00004D3E0000F4
:10306000049B00005C9B00000D3F0000689B00007B
:10307000B89B000085400000C89B0000189C000021
:1030800059420000249C0000709C000080B500AFF5
:10309000FFF708FF80BD000090B5ADF5815D83B0FE
:1030A00002AF07F1200444F8140C084607F1200190
:1030B00041F81C2C07F1200242F8203C07F12003C4
:1030C000024623F8162C07F1200353F8143C03F5AD
:1030D00080531B691B6838331C6807F1200353F8C1
:1030E000143C03F58053186907F120031A4607F1D1
:1030F00020010C3907F5815303F110031B6801937C
:1031000007F1200333F8163C009352F8203C4FF4AB
:103110008052A04707F5805303F114031860002381
:1031200007F5805202F11C02136025E007F120032D
:1031300053F8143C5B681B6810331B6807F12002CE
:1031400052F8142C506807F12002114607F58052FE
:1031500002F11C0212680A440C3A127852B211466B
:10316000984707F5805303F11C031B68013307F5EB
:10317000805202F11C02136007F5805303F11C0317
:103180001A6807F5805303F114031B689A42CDD3E4
:1031900007F1200353F8143C03F5805393F82030D3
:1031A000002B3CD007F1200333F8163C07F5815281
:1031B00002F11002126819461C4802F029F9002396
:1031C00007F5805202F11802136019E007F120039D
:1031D0001A4607F5805303F118031B6813440C3B90
:1031E0001B781946124803F069FE07F5805303F176
:1031F00018031B68013307F5805202F118021360AF
:1032000007F5805303F118031A6807F5805303F19B
:1032100014031B689A42D9D3064803F0F3FE00BF9B
:1032200007F581570437BD4690BD00BF809C000064
:10323000A89C0000B09C000080B584B000AF78600E
:103240007B6803F580539B8919467B6803F580539F
:1032500093F82130002B01D0592200E04E227B68E8
:1032600003F580535B6A104802F0D2F80023FB603C
:103270000BE07A68FB6813440C331B7819460B4843
:1032800003F01CFEFB680133FB607B6803F5805391
:103290009B891A46FB689342EBD3054803F0B2FEC4
:1032A00000BF1037BD4680BDB49C0000A89C000044
:1032B000B09C000080B586B002AFF8607A603B60D9
:1032C0000B467B81FB68002B08D07989BB69009392
:1032D0003B687A68F868FFF7DFFE02E0034802F017
:1032E00097F800BF1037BD4680BD00BFD09C0000DE
:1032F00080B483B000AF78600B46FB707B68FA78CF
:103300001A7100BF0C37BD4680BC704780B483B0D3
:1033100000AF78607B681B7918460C37BD4680BCCF
:103320007047000080B582B000AF78607B681B6892
:1033300019467B685A687B689B68034803F0BEFDAA
:1033400000BF0837BD4680BD309D000080B485B009
:1033500000AFF860B9607A603B60BB68DAB2FB68C6
:103360001A707B68DAB2FB685A703B68DAB2FB68A5
:103370009A70FB6818461437BD4680BC7047000041
:1033800080B582B000AF78607B681B7819467B6897
:103390005B781A467B689B78034803F08FFD00BF7B
:1033A0000837BD4680BD00BF949D000080B584B045
:1033B00000AF78600023FB600EE0FA6813465B0004
:1033C00013447A6813441846FFF7DAFF0A2003F023
:1033D000BBFDFB680133FB60FB68B3F5707FECD38A
:1033E00000BF00BF1037BD4680BD80B483B000AFC2
:1033F00078607B6800221A7000225A7000229A704E
:103400000022DA7000221A7100225A7100229A7189
:103410000022DA717B6818460C37BD4680BC7047C5
:1034200080B586B002AFF860B9607A603B60114B3E
:103430001B68002B0ED00F4B1B6819680D4B1B68C7
:103440005B6801930C4B0093CA230C4A0C4803F0B1
:1034500035FD05E0084BCA2208490A4803F02EFD55
:10346000B86803F0CEFF03465BB218461037BD467E
:1034700080BD00BF3C00002080A80000E89D000047
:10348000149E0000789E000080B586B000AFF86002
:10349000B9607A603B6000233B6107F110031A4674
:1034A0002449B86803F0B6FD0346FB7597F9173059
:1034B000002B20DC204803F001FD00233B6113E0DA
:1034C0001E4B1A683B6913441B78BB753B69BA7D78
:1034D00019461B4803F0F2FCBB7D1946194803F05E
:1034E000EDFC3B6901333B613B69802BE8D9164811
:1034F00003F088FD18E0114B1A683B6913441B78F0
:10350000BB750D4803F0DAFC3B69BA7D19460C48DF
:1035100003F0D4FCBB7D19460A4803F0CFFCBB7D09
:1035200019460A4803F0CAFC7B685BB21846183794
:10353000BD4680BDB49E0000B89E00003C00002047
:10354000CC9E0000E09E0000B09C0000E89E0000C1
:1035500080B588B000AFF860B9607A603B60002346
:10356000BB6100237B6107F1140307F118021549C1
:10357000B86803F04FFD0346FB7797F91F30012B26
:1035800009DC97F91F301A46B9680F4803F096FC1A
:103590004FF0FF3312E079690C4B1A68BB69134492
:1035A000CAB21A707B691946094803F087FCBB69E7
:1035B0001946084803F082FC7B685BB21846203746
:1035C000BD4680BDF49E0000FC9E00003C00002033
:1035D000589F00007C9F0000F0B5AFB010AFF862BC
:1035E000B9627A623B6200237B6500233B6500235E
:1035F000FB64734B1B68002B05D1724803F05EFC23
:103600007B6A5BB2D1E007F1500107F1540207F188
:103610004C0300930B466C49B86A03F0FBFC03466D
:1036200087F8773097F97730022B08DD796D3A6D9E
:10363000FB6C664803F042FC7B6A5BB2B5E097F92D
:103640007730002B08DD796D7A6D7B6D5F4803F074
:1036500035FC7B6A5BB2A8E0796D3A6DFB6C5C4827
:1036600003F02CFC07F144031846FFF7BEFE07F1F8
:103670003C031846FFF7B9FE07F134031846FFF77D
:10368000B4FE7B6C43F317031A46B7F84A3092FB3B
:10369000F3F3184605F03AF947A3D3E9002305F000
:1036A0009FF902460B46104619464FF00002494B5F
:1036B00005F0C0FA02460B46C7E91A23FB6B43F339
:1036C00017031A46B7F8423092FBF3F3184605F099
:1036D0001DF939A3D3E9002305F082F902460B4610
:1036E000104619464FF000023A4B05F0A3FA024685
:1036F0000B46C7E918237B6B43F317031A467B8FEE
:1037000092FBF3F3184605F001F92BA3D3E900234C
:1037100005F066F902460B46104619464FF00002C6
:103720002C4B05F087FA02460B46C7E916237B6C43
:10373000BB61BB6CFB61F86B396C7C6BBD6B7B6CEC
:1037400043F317031E46B7F84A307B61FB6B43F324
:1037500017033B61B7F84230FB607B6B43F3170301
:10376000BB607B8F7B60D7E91623CDE90E23D7E9B9
:103770001823CDE90C23D7E91A23CDE90A237A6867
:103780000992BA680892FA6807923A6906927B69C8
:1037900005930496CDE90245CDE90001D7E906235A
:1037A0000D4803F08BFB7B6A5BB218467C37BD4645
:1037B000F0BD00BFAFF30080FCA9F1D24D62204004
:1037C0003C000020889F0000D49F0000E09F000084
:1037D00004A000000000704130A0000000000000C4
:1037E0002DE9F043A7B010AF78623962FA61BB618E
:1037F000574B1B68002B05D1564803F05FFBFB6954
:103800005BB29CE007F138031846FFF7EEFD07F1C5
:1038100030031846FFF7E9FD07F128031846FFF7C4
:10382000E4FDBB6B43F317031A46FB8F92FBF3F3E4
:10383000184605F06BF844A3D3E9002305F0D0F84F
:1038400002460B46104619464FF00002424B05F067
:10385000F1F902460B46C7E914233B6B43F3170308
:103860001A46FB8E92FBF3F3184605F04FF836A389
:10387000D3E9002305F0B4F802460B46104619467A
:103880004FF00002344B05F0D5F902460B46C7E96C
:103890001223BB6A43F317031A46FB8D92FBF3F323
:1038A000184605F033F828A3D3E9002305F098F86B
:1038B00002460B46104619464FF00002264B05F013
:1038C000B9F902460B46C7E91023D7E90E89D7E9B3
:1038D0000C01D7E90A45BB6B43F317031E46FB8F68
:1038E0007B613B6B43F317033B61FB8EFB60BB6A61
:1038F00043F31703BB60FB8D7B60D7E91023CDE951
:103900000E23D7E91223CDE90C23D7E91423CDE9FF
:103910000A237A680992BA680892FA6807923A69A3
:1039200006927B6905930496CDE90245CDE9000135
:1039300042464B46094803F0C1FAFB695BB21846A0
:103940005C37BD46BDE8F083FCA9F1D24D62204052
:103950003C000020A0A0000000007041ECA000008E
:1039600080B588B000AFF860B9607A603B60002332
:10397000FB610023BB61FB690133FB61FA690D4BFD
:10398000A3FB0213D9080B465B000B449B00D31A20
:103990007B61094B1B685B68184603F0B7F9B9698E
:1039A000064803F08BFA00BF7B685BB218462037ED
:1039B000BD4680BDABAAAAAA540000205CA10000AD
:1039C00080B590B002AFF860B9607A603B6007F1F3
:1039D000200310220021184603F020FC3C4BBB6260
:1039E0004FF000024FF00003C7E9082300237B6378
:1039F00080227C21374803F061FABB68013304223E
:103A00003549184603F01FFC0346002B1AD1334BEF
:103A10001B68002242F0550283F87C20002283F8C4
:103A20007D20002283F87E20002283F87F202C4B0B
:103A30001B685B68184603F069F9796B294803F045
:103A40003DFA00BF00237B61CA23BB610023FB61F9
:103A5000224B1B68002B07D0204B1B681B687B6127
:103A60001E4B1B685B68FB610C211F4803F026FAA4
:103A700007F114031846FFF755FC0A2003F064FA17
:103A800007F114030C220092002241F201011748B1
:103A9000FFF710FC07F114030C220092002241F200
:103AA00001011348FFF706FC07F114030C220092F2
:103AB000002241F201010F48FFF7FCFB0E4803F022
:103AC000A1FA7B685BB218463837BD4680BD00BF9F
:103AD00040420F007CA1000094A100003C000020A7
:103AE000540000209CA10000C0A10000801500200F
:103AF000B8250020F0350020ECA1000000000000F7
:103B000080B598B002AFF860B9607A603B6000237E
:103B1000FB610023BB6100237B6100233B61544BAD
:103B20001B68002B05D1534803F0C8F97B685BB2D2
:103B300096E007F1180107F11C0207F11003019349
:103B400007F1140300930B464B49B86803F062FA7F
:103B5000034687F8573097F95730032B09DDF96989
:103B6000BA6978693B6900930346444803F0A6F9B3
:103B70000CE097F95730002B08DDF969FA69F8690C
:103B8000FB69009303463D4803F098F9F969BA6967
:103B90007B693B4803F092F933A3D3E90023C7E9DB
:103BA0001223FB6901337B64BB6901333B647B698E
:103BB0000133FB63786C04F099FE02460B46D7E9AB
:103BC000120105F037F802460B46104619464FF031
:103BD00000022C4B05F02EF802460B46C7E90C23D9
:103BE000386C04F083FE02460B46D7E9120105F05B
:103BF00021F802460B46104619464FF00002214BB1
:103C000005F018F802460B46C7E90A23F86B04F0E2
:103C10006DFE02460B46D7E9120105F00BF802468D
:103C20000B46104619464FF00002164B05F002F8FD
:103C300002460B46C7E90823D7E90C23796C1248E2
:103C400003F03CF9D7E90A23396C104803F036F940
:103C5000D7E90823F96B0E4803F030F97B685BB2B3
:103C600018465837BD4680BD000000009651984167
:103C70003C00002004A2000054A2000064A2000046
:103C800098A2000000003040C8A2000014A3000069
:103C900060A3000080B584B000AFF860B9607A60BE
:103CA0003B600A4803F00AF90948FFF7C5FA0948DA
:103CB000FFF7C2FA0848FFF7BFFA084803F0A2F975
:103CC0007B685BB218461037BD4680BDB0A30000CC
:103CD00080150020B8250020F0350020B09C0000A1
:103CE00080B58CB002AFF860B9607A603B600023A9
:103CF0003B62002387F8273007F1180107F1200203
:103D000007F1170300930B464649B86803F082F9A0
:103D1000034687F8263097F92630032B4CDD97F9B8
:103D20001730592B0FD097F91730792B0BD097F903
:103D30001730542B07D097F91730742B03D097F90D
:103D40001730312B02D1012387F82730396A97F8D1
:103D50002730002B01D0592300E04E231A46324869
:103D600001F056FB3B6A022B14D0022B19D8002B12
:103D700002D0012B07D014E097F8273019462B48C2
:103D8000FFF7B6FA12E097F8273019462848FFF7F0
:103D9000AFFA0BE097F8273019462648FFF7A8FA44
:103DA00004E03B6A1946244801F032FBB86803F08E
:103DB00028FB03465BB231E097F9263019461F48CD
:103DC00001F026FB1948FFF7A1FA0346002B01D0AA
:103DD000592300E04E231946194801F019FB1448F5
:103DE000FFF794FA0346002B01D0592300E04E233D
:103DF0001946144801F00CFB0E48FFF787FA0346FA
:103E0000002B01D0592300E04E2319460E4801F043
:103E1000FFFAB86803F0F5FA03465BB21846283794
:103E2000BD4680BDD8A30000E8A3000028150020EF
:103E300044150020601500201CA4000054A40000BC
:103E4000A4A40000D4A4000004A5000080B58CB098
:103E500002AFF860B9607A603B6000233B620023E8
:103E6000FB610023BB6100237B6107F11C0107F1AB
:103E7000200207F11403019307F1180300930B4686
:103E80001D49B86803F0C6F8034687F8273097F94C
:103E90002730032B21DDF969BA697B6907F110002E
:103EA000FFF754FA3A6A154913465B0013440B4472
:103EB0001A4607F1100319889B78118093703B6AAA
:103EC00019460F4802F0FAFF07F110031846FFF7F2
:103ED00057FA0C4803F096F808E00B4803F092F804
:103EE0000648FFF763FA074803F08CF87B685BB27B
:103EF00018462837BD4680BD54A20000E0090020C6
:103F000034A50000B09C000064A50000F0B58BB0A3
:103F100000AFF860B9607A603B60504B1B68002BC3
:103F200005D14F4803F06EF87B685BB291E0002347
:103F30007B614C49B86803F099F907F114031A46FC
:103F40004949B86803F066F8034687F8233097F9C3
:103F50002330002B76DD00237B627B697B626CE083
:103F60004049002003F082F9F861FB69002B6DD015
:103F7000F86902F09BFD03467B833C497A6A13464D
:103F80005B0013440B441B78052B11D837497A6A20
:103F900013465B0013440B441B78052B08D83349A8
:103FA0007A6A13465B0013440B441B78052B10D927
:103FB000796A2F4802F082FF7A6A13465B00134445
:103FC0002A4A13441846FFF7DBF92A4803F01AF887
:103FD00030E0788B284B1968244C7A6A13465B00D2
:103FE000134423441B781D46204C7A6A13465B0019
:103FF0001344234401331B781E461C4C7A6A134633
:104000005B001344234402331B781C4600023246F3
:1040100092003244D3001A462B469B002B445B018E
:104020001344234441F823007B8B1A46796A1348D2
:1040300002F044FF7B6A01337B627B6AB3F5707FD9
:104040008ED304E00E4802F0DDFF00E000BF7B6885
:104050005BB218462C37BD46F0BD00BF3C000020C7
:10406000A4A50000E4A50000ECA50000E0090020E4
:10407000F0A50000B09C0000400000203CA600001D
:104080006CA60000F0B58BB000AFF860B9607A6044
:104090003B60674B1B68002B05D1664802F0B2FFFE
:1040A0007B685BB2C0E000237B616349B86803F0C2
:1040B000DDF807F114031A466049B86802F0AAFF58
:1040C000034687F8233097F92330002B40F3A5806F
:1040D00000237B627B697B6299E05749002003F0F3
:1040E000C5F8F861FB69002B00F09B80F86902F0CD
:1040F000DDFC03467B8352497A6A13465B00134416
:104100000B441B78052B11D84D497A6A13465B0086
:1041100013440B441B78052B08D849497A6A134687
:104120005B0013440B441B78052B10D9796A454872
:1041300002F0C4FE7A6A13465B001344404A1344FB
:104140001846FFF71DF9404802F05CFF5CE03F4B6A
:1041500019683B487A6A13465B00134403441B7892
:104160001C4637487A6A13465B0013440344013304
:104170001B781D4632487A6A13465B001344034499
:1041800002331B7818462A4692002A44D3001A4666
:1041900023469B0023445B011344034451F823004E
:1041A0007B8BDBB29C46294B1968254C7A6A1346F7
:1041B0005B00134423441B781D46214C7A6A134646
:1041C0005B001344234401331B781E461C4C7A6A5F
:1041D00013465B001344234402331B781C4640EA19
:1041E0000C00324692003244D3001A462B469B0004
:1041F0002B445B011344234441F823007B8B1A4674
:10420000796A134802F05AFE7B6A01337B627B6A4B
:10421000B3F5707FFFF461AF04E00E4802F0F2FEE8
:1042200000E000BF7B685BB218462C37BD46F0BD8E
:104230003C000020A8A60000E4A50000ECA50000BA
:10424000E0090020E4A60000B09C0000400000202F
:104250002CA7000058A70000F0B58BB000AFF860A5
:10426000B9607A603B604F4B1B68002B05D14E480C
:1042700002F0C8FE7B685BB290E000237B614B4993
:10428000B86802F0F3FF07F114031A464849B8680A
:1042900002F0C0FE034687F8233097F92330002B45
:1042A00075DD00237B627B697B626BE03F49002008
:1042B00002F0DCFFF861FB69002B6CD0F86902F0BA
:1042C000F5FB03467B833B497A6A13465B00134444
:1042D0000B441B78052B11D836497A6A13465B00CC
:1042E00013440B441B78052B08D832497A6A1346CD
:1042F0005B0013440B441B78052B10D9796A2E48B8
:1043000002F0DCFD7A6A13465B001344294A134429
:104310001846FFF735F8294802F074FE2FE0284BC5
:10432000196824487A6A13465B00134403441B78D7
:104330001C4620487A6A13465B0013440344013349
:104340001B781D461B487A6A13465B0013440344DE
:1043500002331B781E46788B2A4692002A44D300EB
:104360001A4623469B0023445B011344334441F81F
:1043700023007B8B1A46796A124802F09FFD7B6A04
:1043800001337B627B6AB3F5707F8FD304E00E4804
:1043900002F038FE00E000BF7B685BB218462C37A5
:1043A000BD46F0BD3C0000208CA70000E4A5000045
:1043B000ECA50000E0090020CCA70000B09C0000A4
:1043C0004000002018A8000048A8000080B485B074
:1043D00000AFF860B9607A603B60FB68BA681A6049
:1043E000FB687A685A60FB683A689A60FB6818460E
:1043F0001437BD4680BC704798B500AF244C254BA0
:10440000254A41F201012046FFF7E0FF0C34234B1F
:10441000234A43F202012046FFF7D8FF0C34214B18
:10442000214A43F204012046FFF7D0FF0C341F4B12
:104430001F4A43F209012046FFF7C8FF0C341D4B09
:104440001D4A43F205012046FFF7C0FF0C341B4B09
:104450001B4A43F20B012046FFF7B8FF0C34194BFF
:10446000194A43F20C012046FFF7B0FF0C34174BFA
:10447000174A43F20D012046FFF7A8FF04F10C0094
:10448000144B154A43F20E01FFF7A0FF00BF98BD81
:1044900000020020D54500009CA800004146000015
:1044A000B4A80000A1460000C8A80000D54600003E
:1044B000E4A800005D46000000A90000714700006C
:1044C00018A90000D149000030A90000B14C00003B
:1044D0004CA900002550000064A9000080B500AF81
:1044E000FFF78AFF80BD80B483B000AF78607B683F
:1044F00000221A707B6800225A707B6800229A7032
:104500007B6818460C37BD4680BC7047B0B584B098
:1045100000AF78607B6840F2BF341D4604E0284657
:10452000FFF7E1FF013C0335002CF8DA0023FB73B1
:104530000023BB7300237B730023BB6034E07968E6
:10454000BA6813465B0013440B44FA7B1A7079680F
:10455000BA6813465B0013440B440133BA7B1A70EC
:104560007968BA6813465B0013440B4402337A7BC4
:104570001A707B7B01337B737B7B272B11D9002344
:104580007B73BB7B0133BB73BB7B032B09D900233C
:10459000BB73FB7B0133FB73FB7B052B01D9002332
:1045A000FB73BB680133BB60BB68B3F5707FC6D3D8
:1045B0007B6818461037BD46B0BD80B485B000AFEB
:1045C000F860B9607A603B60002318461437BD4636
:1045D00080BC704780B58AB002AFF860B9607A607D
:1045E0003B6000237B61CA23BB610023FB61124B4C
:1045F0001B68002B03D0104B1B685B68FB610C2110
:104600000E4802F05BFC07F114031846FEF78AFE21
:104610000A2002F099FC07F114030C2200920022F8
:1046200041F201013868FEF745FE7B685BB218462F
:104630002037BD4680BD00BF3C00002020AB0000FD
:1046400080B485B000AFF860B9607A603B607B6889
:104650005BB218461437BD4680BC704780B586B043
:1046600002AFF860B9607A603B600C4B1B68002BAE
:1046700004D00A4B1B68012283F8942007F1080339
:1046800004220092002243F205013868FEF712FE70
:104690007B685BB218461037BD4680BD3C000020E9
:1046A00080B584B000AFF860B9607A603B60BB68E9
:1046B000002B02D07B68172B04D818227968044895
:1046C00002F0FCFB7B685BB218461037BD4680BD2C
:1046D00024AC000080B586B000AFF860B9607A60A5
:1046E0003B6000237B6133E07B69002B00DA0333FE
:1046F0009B10184600F04CFE02460B461046194629
:1047000004F080FB03463B614FF400337A6939695A
:104710001448FFF752FF4FF440337A693969114862
:10472000FFF74BFF4FF430237A6939690D48FFF7E3
:1047300044FF0D4B7A6939690A48FFF73EFF0B4B7E
:104740007A6939690748FFF738FF7B6901337B6174
:104750007B69172BC8DD7B685BB218461837BD46EE
:1047600080BD00BF6C0200200080810000FF41007E
:1047700090B5ADF6743D02AF07F66834A4F65C342C
:10478000206007F66830A0F53660016007F66831F2
:10479000A1F664310A6007F66832A2F66832136047
:1047A00007F66833A3F536631B68002B00F0C98059
:1047B00007F66833A3F664331B68022B40F2C1800E
:1047C00007F66833A3F536631B681B88A7F8603BC0
:1047D000B7F8603BC7F85C3BD7F85C3BB3F5707F3C
:1047E00014D9D7F85C3B19466F4802F067FB07F60F
:1047F0005C3307F66832A2F668300222009200228B
:1048000043F20B010068FEF755FDC2E007F668337E
:10481000A3F664331B68023B644AA2FB03235B08D4
:10482000C7F8583BD7F8582BD7F85C3B1344B3F57F
:10483000707F05D9D7F85C3BC3F57073C7F8583B58
:10484000D7F85C3BD7F8582B1946594802F036FB8D
:10485000D7F85C3BC7F8643B5BE0D7F85C3BD7F824
:10486000642BD21A13465B001344023307F66832F6
:10487000A2F5366212681A4407F65433118892780A
:1048800019809A7097F8543B052B08D997F8543B38
:104890001A46D7F8641B474802F010FB34E097F83B
:1048A000553B032B08D997F8553B1A46D7F8641B9C
:1048B000414802F003FB27E097F8563B272B08D925
:1048C00097F8563B1A46D7F8641B3C4802F0F6FAB4
:1048D0001AE03B49D7F8642B13465B0013440B44A2
:1048E0001A4607F6543319889B7811809370D7F8CD
:1048F000641B344802F0E2FA07F654331846FEF718
:104900003FFD314802F07EFBD7F8643B0133C7F826
:10491000643BD7F85C2BD7F8583B1344D7F8642B8B
:104920009A429AD307F6583307F66832A2F66830EF
:1049300002220092002243F20B010068FEF7BAFC4B
:1049400027E0224802F05EFB0023A7F8523BB7F8AD
:10495000522B07F66833A3F658331A8007F66833EC
:10496000A3F65833164A023311464FF43462184600
:1049700002F039FD07F1100307F66832A2F668303D
:1049800040F642320092002243F20B010068FEF72B
:1049900091FC07F66833A3F664331B685BB21846D4
:1049A00007F66C37BD4690BD64AC0000ABAAAAAA5E
:1049B00098AC0000D4AC000020AD000064AD000055
:1049C000E0090020A8AD0000B0A90000D8AD0000AB
:1049D000B0B5ADF5F86D02AF07F5F764A4F2AC74AD
:1049E000206007F5F760A0F5F660016007F5F76154
:1049F000A1F2B4710A6007F5F762A2F5F7621360DD
:104A0000A74B1B68002B06D107F5F763A3F2B4731D
:104A10001B685BB23FE107F5F763A3F5F6631B681C
:104A2000002B00F0F58007F5F763A3F2B4731B6861
:104A3000012B40F2ED8007F5F763A3F5F6631B68E1
:104A40001B88A7F8A037B7F8A037C7F89C37D7F866
:104A50009C37B3F5707F0ED907F29C7307F5F762A8
:104A6000A2F5F76002220092002243F20C010068D6
:104A7000FEF720FC09E107F5F763A3F2B4731B68A6
:104A8000012B40F2B68007F5F763A3F2B4731B68FD
:104A9000023B5B08C7F89837D7F89827D7F89C37B8
:104AA0001344B3F5707F05D9D7F89C37C3F57073FD
:104AB000C7F89837D7F89C37C7F8B43780E0D7F8ED
:104AC0009C37D7F8B427D31A01335B0007F5F76298
:104AD000A2F5F662126813441B88A7F8AE37714935
:104AE000D7F8B42713465B0013440B441B78052BFF
:104AF00013D86C49D7F8B42713465B0013440B4412
:104B00001B78052B09D86749D7F8B42713465B00F3
:104B100013440B441B78052B0AD9D7F8B427134646
:104B20005B0013445F4A13441846FEF729FC42E039
:104B30000023C7F8A837B7F8AE175A48D7F8B427F4
:104B400013465B001344034402331B781A46564B4A
:104B50009B5C1B040B44C7F8A837544B1968514899
:104B6000D7F8B42713465B00134403441B781C4654
:104B70004C48D7F8B42713465B0013440344013371
:104B80001B781D464748D7F8B42713465B001344EB
:104B9000034402331B7818462A4692002A44D30065
:104BA0001A4623469B0023445B0113440344D7F871
:104BB000A82741F82320D7F8B4370133C7F8B43712
:104BC000D7F89C27D7F898371344D7F8B4279A42D8
:104BD000FFF475AF07F5F36307F5F762A2F5F76029
:104BE00002220092002243F20C010068FEF762FBF1
:104BF0004BE007F29C7307F5F762A2F5F76002221B
:104C00000092002243F20C010068FEF753FB3CE0E7
:104C10000023A7F89637B7F8962707F5F763A3F2AE
:104C2000A4731A800023C7F8B0371AE0D7F8B0375A
:104C300001335B0007F114021344C7F8A4371B4B80
:104C40001B681A46D7F8B0379B0013441B681B0A31
:104C50009AB2D7F8A4371A80D7F8B0370133C7F81B
:104C6000B037D7F8B037B3F5707FDFD307F114034F
:104C700007F5F762A2F5F76040F282720092002217
:104C800043F20C010068FEF715FB07F5F763A3F28A
:104C9000B4731B685BB2184607F5F767BD46B0BD35
:104CA0003C000020E009002014000020400000200B
:104CB000F0B5ADF2BC7D02AF07F5F664A4F2A474C2
:104CC000206007F5F660A0F5F560016007F5F66174
:104CD000A1F2AC710A6007F5F662A2F5F662136004
:104CE000C64B1B68002B09D1C54802F08BF907F5AC
:104CF000F663A3F2AC731B685BB27AE107F5F66367
:104D0000A3F5F5631B68002B00F0328107F5F6630D
:104D1000A3F2AC731B68012B40F22A8107F5F663FE
:104D2000A3F5F5631B681B88A7F89C37B7F89C3779
:104D3000C7F89837D7F89837B3F5707F14D9D7F8F4
:104D400098371946AF4802F0B9F807F5F36307F54D
:104D5000F662A2F5F66002220092002243F20D01F3
:104D60000068FEF7A7FA3EE107F5F663A3F2AC731D
:104D70001B68012B40F2E48007F5F663A3F2AC73E5
:104D80001B68023BC7F89437D7F89427D7F89837B1
:104D90001344B3F5707F05D9D7F89837C3F570730E
:104DA000C7F89437D7F89837D7F894271946964814
:104DB00002F084F8D7F89837C7F8AC37A7E0D7F8EF
:104DC0009837D7F8AC27D31A023307F5F662A2F565
:104DD000F562126813441B7887F8A7378B49D7F818
:104DE000AC2713465B0013440B441B78052B13D8E8
:104DF0008649D7F8AC2713465B0013440B441B7855
:104E0000052B09D88149D7F8AC2713465B0013441A
:104E10000B441B78052B12D9D7F8AC177C4802F04D
:104E20004DF8D7F8AC2713465B001344774A134478
:104E30001846FEF7A5FA774802F0E4F862E0764BF0
:104E400019687248D7F8AC2713465B001344034433
:104E50001B781C466D48D7F8AC2713465B001344FB
:104E6000034401331B781D466848D7F8AC27134626
:104E70005B001344034402331B7818462A46920011
:104E80002A44D3001A4623469B0023445B01134463
:104E9000034451F8234097F8A7075F4B19685B4D0F
:104EA000D7F8AC2713465B0013442B441B781E46EF
:104EB000564DD7F8AC2713465B0013442B440133FF
:104EC0001B789C46514DD7F8AC2713465B00134422
:104ED0002B4402331B781D462043624692006244F5
:104EE000D3001A4633469B0033445B0113442B44E2
:104EF00041F8230097F8A7371A46D7F8AC17474868
:104F000001F0DCFFD7F8AC370133C7F8AC37D7F87E
:104F10009827D7F894371344D7F8AC279A42FFF470
:104F20004EAF07F2947307F5F662A2F5F66002221F
:104F30000092002243F20D010068FEF7BBF952E037
:104F400007F5F663A3F2AC7302221968344801F046
:104F5000B5FF07F5F36307F5F662A2F5F6600222E6
:104F60000092002243F20D010068FEF7A3F93AE037
:104F70000023A7F89237B7F8922707F5F663A3F551
:104F8000F4631A800023C7F8A83718E0D7F8A837C9
:104F9000023307F110021344C7F8A0371E4B1B68F9
:104FA0001A46D7F8A8379B0013441B68DAB2D7F823
:104FB000A0371A70D7F8A8370133C7F8A837D7F841
:104FC000A837B3F5707FE1D307F1100307F5F66258
:104FD000A2F5F66040F2C2320092002243F20D01C7
:104FE0000068FEF767F907F5F663A3F2AC731B6878
:104FF0005BB2184607F2B477BD46F0BD3C00002016
:1050000010AE000050AE000084AE0000E0090020A9
:10501000C0AE0000B0A900004000002010AF0000AA
:1050200040AF0000F0B5ADF67C3D02AF07F5376448
:10503000A4F66434206007F53760A0F6683001609C
:1050400007F53761A1F66C310A6007F53762A2F502
:1050500037621360C34B1B68002B09D1C24801F0B3
:10506000D1FF07F53763A3F66C331B685BB274E1BD
:1050700007F53763A3F668331B68002B00F00D813A
:1050800007F53763A3F66C331B68012B40F20581EB
:1050900007F53763A3F668331B681B88A7F85C3BEA
:1050A000B7F85C3BC7F8583BD7F8583BB3F5707F6F
:1050B00014D9D7F8583B1946AC4801F0FFFE07F663
:1050C000583307F53762A2F53760022200920022BA
:1050D00043F20E010068FEF7EDF838E107F537639B
:1050E000A3F66C331B68012B40F2BF8007F53763D2
:1050F000A3F66C331B68023B9D4AA2FB03235B08AB
:10510000C7F8543BD7F8542BD7F8583B1344B3F5A2
:10511000707F05D9D7F8583BC3F57073C7F8543B77
:10512000D7F8583BD7F8542B1946924801F0C6FEE1
:10513000D7F8583BC7F86C3B7EE0D7F8583BD7F818
:105140006C2BD21A13465B001344023307F5376207
:10515000A2F66832126813441B68C7F8643B86499C
:10516000D7F86C2B13465B0013440B441B78052BBC
:1051700013D88149D7F86C2B13465B0013440B44BA
:105180001B78052B09D87C49D7F86C2B13465B009C
:1051900013440B441B78052B12D9D7F86C1B7748A6
:1051A00001F08CFED7F86C2B13465B001344724A57
:1051B00013441846FEF7E4F8714801F023FF36E087
:1051C000704B19686C48D7F86C2B13465B0013447E
:1051D00003441B781C466848D7F86C2B13465B00C9
:1051E0001344034401331B781D466348D7F86C2BE6
:1051F00013465B001344034402331B781E46D7F862
:10520000643B23F07F402A4692002A44D3001A468A
:1052100023469B0023445B011344334441F823009D
:10522000D7F8642BD7F86C1B574801F047FED7F826
:105230006C3B0133C7F86C3BD7F8582BD7F8543B7D
:105240001344D7F86C2B9A42FFF477AF07F6543328
:1052500007F53762A2F5376002220092002243F27E
:105260000E010068FEF726F871E007F53763A3F634
:105270006C3302221968454801F020FE07F65833C6
:1052800007F53762A2F5376002220092002243F24E
:105290000E010068FEF70EF859E00023A7F8523B14
:1052A000B7F8522B07F53763A3F536631A8000234E
:1052B000C7F8683B37E0D7F8682B13465B00134408
:1052C000023307F110021344C7F8603B2D4B1B68F3
:1052D0001A46D7F8683B9B0013441B68DAB2D7F82C
:1052E000603B1A70274B1B681A46D7F8683B9B0037
:1052F00013441B681A0AD7F8603B0133D2B21A7004
:10530000204B1B681A46D7F8683B9B0013441B6868
:105310001A0CD7F8603B0233D2B21A70D7F8683B48
:105320000133C7F8683BD7F8683BB3F5707FC2D349
:1053300007F1100307F53762A2F5376040F64232F5
:105340000092002243F20E010068FDF7B3FF07F55B
:105350003763A3F66C331B685BB2184607F67437E5
:10536000BD46F0BD3C00002084AF0000C8AF000087
:10537000ABAAAAAA00B00000E009002040B00000DB
:10538000B0A900004000002094B00000C8B00000A8
:1053900080B582B000AF7860786803F0B7FA024653
:1053A0000B46104619460837BD4680BD80B500AF94
:1053B0000248FFF7ABF800BF80BD00BFE009002046
:1053C00080B500AFFFF7F2FF80BD80B586B000AFBB
:1053D000F860B9607A60BB68002B01D1002312E04D
:1053E00000237B610AE0BA687B69134493F90030BB
:1053F000184601F00FFA7B6901337B617A697B689B
:105400009A42F0D37B6818461837BD4680BD00002D
:105410000FB480B582B000AF07F114033B603B6866
:105420003A6900210548FDF785F978607B681846E0
:105430000837BD46BDE8804004B07047CB5300003C
:1054400080B483B000AF7860044A7B681A607B68E0
:1054500018460C37BD4680BC704700BF14B700002B
:1054600080B483B000AF7860044A7B681A607B68C0
:1054700018460C37BD4680BC704700BF14B700000B
:1054800080B582B000AF78607868FFF7E9FF04214B
:10549000786803F073FE7B6818460837BD4680BD08
:1054A00080B483B000AF78607B68002262F0410274
:1054B0001A70002262F045025A70002262F0520215
:1054C0009A70002242F01B02DA707B6800221A7187
:1054D00000225A717B6800229A710022DA717B687F
:1054E00018460C37BD4680BC7047000080B582B0BE
:1054F00000AF78607B681B6819467B689B889BB20D
:105500001A467B68DB889BB2034801F0D7FC00BFDA
:105510000837BD4680BD00BF0CB1000080B582B029
:1055200000AF78607B681846FFF78AFF034A7B6804
:105530001A607B6818460837BD4680BDD0B60000AB
:1055400080B582B000AF7860054A7B681A607B68DE
:105550001846FFF785FF7B6818460837BD4680BDB3
:10556000D0B6000080B582B000AF78607868FFF7F1
:10557000E7FF0421786803F001FE7B6818460837CE
:10558000BD4680BD80B487B000AFF860B9607A6076
:105590003B6000237B610EE0BA687B6913441B68A3
:1055A0000A4A934204D13B687A691A60012308E0F1
:1055B0007B6901337B617B68043B7A699A42EBD358
:1055C000002318461C37BD4680BC7047BEBAAD1BD1
:1055D00080B487B000AFF860B9607A603B600023A8
:1055E0007B610EE0BA687B6913441B680A4A9342E8
:1055F00004D13B687A691A60012308E07B690133B2
:105600007B617B68043B7A699A42EBD90023184698
:105610001C37BD4680BC7047EDAD0F0A80B483B027
:1056200000AF7860082318460C37BD4680BC704731
:1056300080B483B000AF7860082318460C37BD46AD
:1056400080BC704780B483B000AF786008231846F0
:105650000C37BD4680BC704780B483B000AF786023
:105660004FF6FF7318460C37BD4680BC704780B4B8
:1056700085B000AFF860B9607A603B6000231846DF
:105680001437BD4680BC704780B485B000AFF86069
:10569000B9607A603B604FF000024FF000031046A3
:1056A00019461437BD4680BC704780B487B000AF40
:1056B000F860B9607A603B603B6808337A689A4268
:1056C00001D2002306E0BA683B6813447B617B6922
:1056D000DB889BB218461C37BD4680BC7047B0B40F
:1056E00087B000AFF860B9607A603B603B68083310
:1056F0007A689A4204D24FF000044FF000050AE0A5
:10570000BA683B6813447B617B699B889BB29BB200
:1057100000221C46154622462B46104619461C37C9
:10572000BD46B0BC704780B487B000AFF860B960C8
:105730007A603B603B6808337A689A4201D2002362
:105740000DE0BA683B6813447B617B699B889BB220
:105750001A467B6A934201D1012300E000231846D8
:105760001C37BD4680BC704780B588B000AFF8607C
:10577000B9607A603B603B6810337A689A4201D224
:10578000002338E0BA683B681344FB61FB69DB889F
:105790009BB21A463B68134410337A689A4201D28E
:1057A000002328E0FB691B68154A934201D00023BF
:1057B00021E0FB69DB889BB21A463B68134408333F
:1057C000BA681344BB61BB695B680E4A934201D05F
:1057D000002310E0FB69DB889BB208331946F869A7
:1057E000FAF7B4FF7861BB691B687A699A4201D005
:1057F000002300E0012318462037BD4680BD00BFCE
:10580000BEBAAD1BEDAD0F0A80B588B000AFF86031
:10581000B9607A603B60BB68002B0AD03B68002B04
:1058200002D1FB6A002B04D1FB6A10337A689A42DA
:1058300001D200233CE007F110031846FFF730FEC9
:105840003B8DBB82FB6A9BB2FB82BB681A4607F1A9
:10585000100303CB106051603B68002B06D0BB687F
:105860000833FA6A3968184601F0BDFDFB6A08334F
:10587000BA681344FB61FB6A08331946B868FAF743
:1058800065FFB861FB69BA691A60FB69002262F0C2
:1058900012021A71002262F052025A71002242F082
:1058A0000F029A71002242F00A02DA71FB6A103389
:1058B00018462037BD4680BD80B483B000AF786005
:1058C000044A7B681A607B6818460C37BD4680BC6A
:1058D000704700BFA8B6000080B483B000AF786006
:1058E000044A7B681A607B6818460C37BD4680BC4A
:1058F000704700BFA8B6000080B582B000AF7860E6
:105900007868FFF7E9FF0421786803F037FC7B68CB
:1059100018460837BD4680BD80B483B000AF7860BC
:105920003960064A7B681A607B683A685A607B680F
:1059300018460C37BD4680BC704700BF94B60000C7
:1059400080B483B000AF7860044A7B681A607B68DB
:1059500018460C37BD4680BC704700BF94B60000A7
:1059600080B582B000AF78607868FFF7E9FF082162
:10597000786803F003FC7B6818460837BD4680BD95
:1059800080B483B000AF7860044A7B681A607B689B
:1059900018460C37BD4680BC704700BF74B6000087
:1059A00080B483B000AF7860044A7B681A607B687B
:1059B00018460C37BD4680BC704700BF74B6000067
:1059C00080B582B000AF78607868FFF7E9FF042106
:1059D000786803F0D3FB7B6818460837BD4680BD66
:1059E00080B485B000AFF860B9607A6000BF14374A
:1059F000BD4680BC704780B485B000AFF860B96028
:105A00007A6000BF1437BD4680BC704780B485B053
:105A100000AFF860B9607A6000BF1437BD4680BC43
:105A2000704780B485B000AFF860B9607A6000BF9D
:105A30001437BD4680BC704780B584B000AFF860B5
:105A4000B9607A603B60FB68B9681846FFF764FF8D
:105A5000264AFB681A60FB6800229A60FB6803F51F
:105A6000805300229A81FB6803F580531A467B68B5
:105A70001361FB6803F580531A463B685361FB686A
:105A800003F580531A46BB699361FB6803F58053A5
:105A90001A46FB69D361FB6803F58053002283F843
:105AA0002020FB6803F58053002283F82120FB6847
:105AB00003F580531A4600235362FB6803F58053B5
:105AC0001A4600239362FB6803F58153103319468D
:105AD000D7E90A23C1E90023D7E90A23F86800F0CF
