:1000000000000120910100007F030000F1040000C6
:100010008303000003050000150500000000000038
:100020000000000000000000000000008903000044
:100030008B030000000000008D0300008F03000010
:100040009103000093030000950300009703000054
:10005000990300009B0300009D0300009F03000024
:10006000A1030000A3030000A5030000A7030000F4
:10007000A9030000AB030000AD030000AF030000C4
:10008000B1030000B3030000B5030000B703000094
:10009000B9030000BB030000BD030000BF03000064
:1000A000C1030000C3030000C5030000C703000034
:1000B000C9030000CB030000CD030000CF03000004
:1000C000D1030000D3030000D5030000D7030000D4
:1000D000D9030000DB030000DD030000DF030000A4
:1000E000E1030000E3030000E5030000E703000074
:1000F000E9030000EB030000ED030000EF03000044
:10010000F1030000F3030000F5030000F703000013
:10011000F9030000FB030000FD030000FF030000E3
:1001200001040000030400000504000007040000AF
:10013000090400000B0400000D0400000F0400007F
:10014000110400001304000015040000170400004F
:10015000190400001B0400001D0400001F0400001F
:1001600021040000230400002504000027040000EF
:10017000290400002B0400002D0400002F040000BF
:100180003104000033040000000000000000000003
:100190004FF0000BDFF8BE020068DFF8B612096806
:1001A00001F0030100F01C00142801D14BF0020BF8
:1001B000002901D04BF0010BBBF1000F05D0A7487F
:1001C000A749DFF8722200F09FF8A64880470BF09D
:1001D000020ABAF1000F0CD0DFF86E02DFF86E12DF
:1001E00002680B680FB44FF000024FF0FF0302608B
:1001F0000B609D484FF000024FF00103022808D128
:10020000DFF83A120A60DFF83E120A60DFF83212B5
:100210000B60012808D1DFF82A120A60DFF82612E5
:100220000A60DFF81A120B609048002809D1904844
:100230009049914A00F030F890489149914A00F075
:100240002BF891489149924A00F026F8914892493A
:10025000DFF8E22100F058F8BBF1000F10D08F4812
:100260008F49DFF8D62100F04FF80BF0020ABAF1FF
:10027000000F05D00FBC02600B6000BFAFF3008021
:10028000DFF820020FF2030E00474FF000004FF09E
:100290000001DFF814F2FEE72DE9F841884225D08D
:1002A000B2EB010200D5FEE740EA010313F00303BD
:1002B00002D000F01DF819E04FF000039046121133
:1002C000F7D09A421CBFF0C8F0C103F10103F8D186
:1002D00008F00F08B8F1000F08D004780C7000F196
:1002E000010001F10101B8F10108F6D1BDE8F88182
:1002F00008B54FF0000303780B7000F1010001F125
:100300000101013AF7D108BD884237D000F0030659
:10031000002E14D04FF00405A5EB06044FF008079B
:1003200007FB06F8914669FA08F9002C07D080F817
:10033000009069FA07F900F10100013CF5E74FF080
:1003400000060F46091A88460911914614461546BB
:10035000B14206D018BFA0E8340206F10106B1424E
:10036000F8D108F00F08B8F1000F07D002704FEA7B
:10037000322200F10100B8F10108F4E77047FEE70E
:10038000FEE7FEE7FEE7FEE7FEE7FEE7FEE7FEE745
:10039000FEE7FEE7FEE7FEE7FEE7FEE7FEE7FEE735
:1003A000FEE7FEE7FEE7FEE7FEE7FEE7FEE7FEE725
:1003B000FEE7FEE7FEE7FEE7FEE7FEE7FEE7FEE715
:1003C000FEE7FEE7FEE7FEE7FEE7FEE7FEE7FEE705
:1003D000FEE7FEE7FEE7FEE7FEE7FEE7FEE7FEE7F5
:1003E000FEE7FEE7FEE7FEE7FEE7FEE7FEE7FEE7E5
:1003F000FEE7FEE7FEE7FEE7FEE7FEE7FEE7FEE7D5
:10040000FEE7FEE7FEE7FEE7FEE7FEE7FEE7FEE7C4
:10041000FEE7FEE7FEE7FEE7FEE7FEE7FEE7FEE7B4
:10042000FEE7FEE7FEE7FEE7FEE7FEE7FEE7FEE7A4
:10043000FEE7FEE7704700000000A2A2A2A2008033
:100440000340088003401080034030800340348024
:1004500003403880034018080240000000F00020EC
:10046000000001202905000000000000000000003D
:10047000000000000000000090010000B004000037
:10048000B004000008A0000010A000000000002040
:100490009000002090000020D03F0020D03F00209E
:1004A00000F0002071650000E5550000000000002C
:1004B00010B5054C237833B9044B13B10448AFF39E
:1004C00000800123237010BD900000200000000078
:1004D000CC9F000008B5034B1BB103490348AFF3A1
:1004E000008008BD0000000094000020CC9F0000A8
:1004F0001EF0040F0CBFEFF30880EFF3098002F049
:1005000055BD1EF0040F0CBFEFF30880EFF3098018
:1005100002F0B6BD1EF0040F0CBFEFF30880EFF33E
:10052000098002F0C5BD00004FF602020B4BD3F864
:100530004C1191420BD1D3F8982042F48072C3F849
:100540009820D3F8982022F08062C3F89820044ABB
:10055000536943F400735361FFF76CBF008003409D
:1005600000ED00E04FF0FF30704700BFFEE700BF36
:100570004FF4005300204B60704700BF01207047CC
:100580000120704708B505F0EDFF162203461A60FA
:100590004FF0FF3008BD00BF0020704700207047BB
:1005A000002070470A490B4A0B68002B08BF13460E
:1005B000EFF3088C9C4503EB000202D9944503D26B
:1005C000FEE70548824202D818460A607047FEE7F7
:1005D000AC000020D03F002000F0002089B14FF097
:1005E000FF3210B4084C014410F8013B83EA126357
:1005F00054F82330884283EA0222F5D1D04310BC5C
:1006000070470846704700BFE47F00002DE9F84FAF
:10061000DDF82C900746DDE90DA48B461E4690467A
:1006200082B1154608680E94102D2C4628BF102460
:1006300026492246B847CBF80000002843D02D1B9E
:10064000F2D10E9C66B10A9B53B131461A46DBF8D3
:100650000000B847CBF80000002834D00A9B98442B
:10066000B9F1000F0ED04D46DBF80000102D2E46DC
:1006700028BF102616493246B847CBF8000010B301
:10068000AD1BF3D10AEB0405BAF1000F07D05246B7
:100690000C99DBF80000B847CBF8000098B1A944EA
:1006A0006CB1DBF80000102C254628BF1025074947
:1006B0002A46B847CBF8000028B1641BF3D108EBF9
:1006C0000900BDE8F88F4FF0FF30FAE7C49C000046
:1006D000B09C00002DE9F04F40F2FF75C1F30A54C1
:1006E00083B0AC420F460C9EC1F3130C00F0B280F5
:1006F00050EA0C0178D0002C40F0AF80390307F4A9
:10070000002800F1B580C646011864464CEB0C0C7D
:100710001CF4002F0546084671460EF1FF3EF3D04B
:100720000020C4464FEA443848EAD548A1F2FF31D8
:100730006D03554CDFF854E10AE06D1948EB0808E9
:1007400001344EF1000E640844EACE744FEA5E0EA6
:10075000B8F1000FF1DA20184CEB0E0C6D1948EBD4
:10076000080855EA0809EBD1002945DD00244FF0BF
:10077000CC3ADFF81C91DFF81C81474D019200183C
:100780004CEB0C029446814578EB0C021ED2421DC4
:100790004CF1000C12EB0C0040F10000A5FB00EB4B
:1007A0002BF0030E0EEB9B0EA0EB0E00121A0AFBB1
:1007B00002FE6CF1000CA2FB050205FB0CEE4008EA
:1007C0007244013440EAC2704FEA520C0139D6D16A
:1007D000019A0AB1FF0F17600BB1C3E9000C06B113
:1007E000346003B0BDE8F08F002CF2D02B48DFF866
:1007F000B0C0A4F2FF31B7E743D00024DFF8A480F3
:10080000DFF8A4E080454FEA8C097EEB0C0A4FEA42
:10081000800549EA907912D328184CEB0909001891
:1008200049EB0909013049F1000C4008013140EA67
:10083000CC7004F1FF344FEA5C0CE3D1C9E701301E
:100840004CF1000C4008013140EACC704FEA5C0CDE
:10085000D8D1BEE76FF00044BBE74FEA0C3848EA56
:1008600010580503DFF838C00C48A4F2FF3160E7E8
:100870004FEA0C3848EA10580503A44620460B49B5
:1008800057E70C46A5E700BF00406352BFC6010012
:10089000FFFFC06FF2862300CDCCCCCC0080C6A475
:1008A0007E8D0300FFFF8C49FD1A070002FCFFFF4D
:1008B0002DE9F04F00269B46C3689DB067299246FC
:1008C000289C299DD0F804900B9009918DF85B60CD
:1008D000089300F0898647292CD0662909F0200268
:1008E00001F018824629089B00F0A786002BC1F270
:1008F0009E821093269B002B01F0F382002A01F0C8
:1009000085830A4B14932A9B094E86FB03362A9B48
:10091000A6EBE37606EB46069E1B00D503360123C5
:100920000E9320230793002313933DE0E4830000FC
:10093000565555552A9A29F02003111D436080F21F
:100940006F86089A002AC1F2F48245230993002396
:10095000002A41F0538201210B980891D0F80490AD
:10096000C16009F0200210912699002941F0C5814B
:10097000012119F0020F139101F0B681EA480E919E
:100980001490002A01F096812A99E84A82FB0126F8
:10099000A6EBE17606EB46068E1B48BF0336002B1E
:1009A00040F06886202307934FF00008002EB8BF60
:1009B0007642089B1E444FF0CC3EDD4BDD49DE48BD
:1009C0005A1842F10002A0FB027C2CF0030707EB4F
:1009D0009C07D21B9B1A61F100020EFB03F100FB86
:1009E0000211A3FB0032013E11445B08721C43EA72
:1009F000C1734FEA5101E3D1D04A1C19D04B41EBEE
:100A00000505A242AB4120D24FF0CC312A9B0534E0
:100A100045F100050133C84A2A93631943F10003E5
:100A2000A2FB030626F0030000EB96001B1AE31A54
:100A300003FB01F165F1000502FB0511A3FB022395
:100A40000B44520842EAC3745D0854EA050301F0FE
:100A5000D2804FF0CC310522B74B601940F1000035
:100A6000A3FB006727F0030606EB9706801B271AF7
:100A700001FB07F665F1000C03FB0C66A7FB03C73F
:100A80003E440CF00107A7FB02E71EEB000E47F106
:100A900000074FEA5C0C5EEA07074CEAC67C4FEAA7
:100AA000560641F0138364463546A01940F1000014
:100AB000A3FB006727F0030606EB9706801BBCEB41
:100AC000000601FB06F765F1000EA6FB03C603FB5B
:100AD0000E7737440CF00106A6FB026E36184EF175
:100AE000000E4FEA5C0C56EA0E0E4CEAC77C4FEA49
:100AF000570741F0F08264463D46E01940F100009E
:100B0000A3FB006727F0030606EB9706801BBCEBF0
:100B1000000601FB06F765F1000EA6FB03C603FB0A
:100B20000E7737440CF00106A6FB026E36184EF124
:100B3000000E4FEA5C0C56EA0E0E4CEAC77C4FEAF8
:100B4000570741F0CE8264463D46E01940F100006F
:100B5000A3FB006727F0030606EB9706801BBCEBA0
:100B6000000601FB06F765F1000EA6FB03C603FBBA
:100B70000E7737440CF00106A6FB026E36184EF1D4
:100B8000000E4FEA5C0C56EA0E0E4CEAC77C4FEAA8
:100B9000570741F0A98264463D46E61946F1000632
:100BA000A3FB060727F0030000EB9700361ABCEB07
:100BB000060001FB00F765F1000EA0FB03C003FB7C
:100BC0000E7707440CF00100A0FB020E80194EF1D5
:100BD000000E4FEA5C0C50EA0E0E4CEAC77C4FEA5E
:100BE000570741F0848264463D46E61946F1000607
:100BF000A3FB060727F0030000EB9700361ABCEBB7
:100C0000060001FB00F765F1000EA0FB03C003FB2B
:100C10000E7707440CF00100A0FB020E80194EF184
:100C2000000E4FEA5C0C50EA0E0E4CEAC77C4FEA0D
:100C3000570741F05F8264463D46E61946F10006DB
:100C4000A3FB060727F0030000EB9700361ABCEB66
:100C5000060001FB00F765F1000EA0FB03C003FBDB
:100C60000E7707440CF00100A0FB020E80194EF134
:100C7000000E4FEA5C0C50EA0E0E4CEAC77C4FEABD
:100C8000570741F03A8264463D46E61946F10006B0
:100C9000A3FB060727F0030000EB9700361ABCEB16
:100CA000060001FB00F765F1000EA0FB03C003FB8B
:100CB0000E7707440CF00100A0FB020E80194EF1E4
:100CC000000E4FEA5C0C50EA0E0E4CEAC77C4FEA6D
:100CD000570741F0268264463D46E61946F1000674
:100CE000A3FB060727F0030000EB9700361ABCEBC6
:100CF000060001FB00F765F1000EA0FB03C003FB3B
:100D00000E7707440CF00100A0FB020E80194EF193
:100D1000000E4FEA5C0C50EA0E0E4CEAC77C4FEA1C
:100D2000570741F005820DE0E88300005655555500
:100D30000080E03779C31100CDCCCCCCFFFFC06F71
:100D4000F286230064463D46E61946F10006A3FB01
:100D5000060727F0030000EB9700361ABCEB0600ED
:100D600000FB01F1A0FB030765F1000C03FB0C1174
:100D700000F00103A3FB02329B1942F10002394447
:100D800040081A4340EAC1704FEA510141F0D38153
:100D90000D4604464FF0CC3105224619E64B46F18C
:100DA0000006A3FB060727F0030000EB9700361AA6
:100DB000A01B01FB00F765F1000EA0FB03C003FBC5
:100DC0000E7707440CF00100A0FB020E80194EF1D3
:100DD000000E4FEA5C0C50EA0E0E4CEAC77C4FEA5C
:100DE000570741F0AB8164463D46E61946F10006DF
:100DF000A3FB060727F0030000EB9700361ABCEBB5
:100E0000060001FB00F765F1000EA0FB03C003FB29
:100E10000E7707440CF00100A0FB020E80194EF182
:100E2000000E4FEA5C0C50EA0E0E4CEAC77C4FEA0B
:100E3000570741F0908164463D46E01940F10000BB
:100E4000A3FB006727F0030606EB9706801BBCEBAD
:100E5000000601FB06F765F1000EA6FB03C603FBC7
:100E60000E7737440CF00106A6FB026E36184EF1E1
:100E7000000E4FEA5C0C56EA0E0E4CEAC77C4FEAB5
:100E8000570741F0768164463D46E61946F1000673
:100E9000A3FB060727F0030000EB9700361ABCEB14
:100EA000060001FB00F765F1000EA0FB03C003FB89
:100EB0000E7707440CF00100A0FB020E80194EF1E2
:100EC000000E4FEA5C0C50EA0E0E4CEAC77C4FEA6B
:100ED000570741F0558164463D46E71947F1000741
:100EE000A3FB070626F0030000EB96003F1ABCEBBD
:100EF000070001FB00F665F1000EA0FB03C003FB39
:100F00000E6606440CF00100A0FB020EC0194EF163
:100F1000000E4FEA5C0C50EA0E0E4CEAC67C4FEA1B
:100F2000560641F0388164463546A61946F100065A
:100F3000A3FB060727F0030000EB9700361ABCEB73
:100F4000060000FB01F1A0FB030765F1000C03FBA9
:100F50000C1100F00103A3FB02329B1942F10002C5
:100F6000394440081A4340EAC1704FEA510141F048
:100F70000F81002304460D4612930C93079BB8F192
:100F8000000F00F08B83002B40F0828600230F932C
:100F90002A9B0C9A43EAE3735E1C0899931B23EA8D
:100FA000E3738B42A8BF0B46194607930E9B11961D
:100FB000F3180A93139B002B00F0678606EB010ED3
:100FC000964581F27F801746234629464FF0CC385C
:100FD00059480D965A1842F10002A0FB026C2CF001
:100FE000030606EB9C06921B9A1A61F1000308FBAC
:100FF00002F100FB0311A2FB0023013F1944520838
:10100000BE4542EAC1734FEA5101E3D10D9E0798F4
:10101000002800F0C8824FF0CC37474A13EB010C90
:101020004CF1000CA2FB0CE828F0030E0EEB980E1E
:10103000ACEB0E0CB3EB0C0307FB03FE61F10001FC
:10104000A3FB028302FB01E108F0010E19444FEA01
:1010500058034FF00508AEFB088E18EB0C084EF154
:10106000000E58EA0E0E43EAC1734FEA510140F0F8
:101070009A82013800F0FB8613EB010C4CF1000C56
:10108000A2FB0CE828F0030E0EEB980EACEB0E0C56
:10109000B3EB0C0307FB03FE61F10001A3FB02832A
:1010A00002FB01E108F0010E19444FEA58034FF02A
:1010B0000508AEFB088E18EB0C084EF1000E58EA3E
:1010C0000E0E43EAC1734FEA510140F0D0860798F3
:1010D000023800F0CC8613EB010C4CF1000CA2FBA3
:1010E0000CE828F0030E0EEB980EACEB0E0CB3EBF5
:1010F0000C0307FB03FE61F10001A3FB028302FB6B
:1011000001E108F0010E19444FEA58034FF00508B9
:10111000AEFB088E18EB0C084EF1000E58EA0E0ECE
:1011200043EAC1734FEA510140F0A18607980338A2
:1011300000F09D8602E000BFCDCCCCCC13EB010CBF
:101140004CF1000CA2FB0CE828F0030E0EEB980EFD
:10115000ACEB0E0CB3EB0C0307FB03FE61F10001DB
:10116000A3FB028302FB01E108F0010E19444FEAE0
:1011700058034FF00508AEFB088E18EB0C084EF133
:10118000000E58EA0E0E43EAC1734FEA510140F0D7
:101190006E86079804380D9000F0698613EB010EF7
:1011A0004EF1000EA2FB0EC828F0030C0CEB980CBD
:1011B000AEEB0C0CB3EB0C0303FB07F761F1000182
:1011C00002FB01710527A3FB02230B4402F001017E
:1011D000A1FB071011EB0C0140F10000520808437D
:1011E00042EAC3724FEA530740F051870798431F02
:1011F0000D9300F0E9874FF0CC3E4FF00508E64B29
:10120000D01940F10000A3FB001C2CF0030101EBFE
:101210009C01401A121A0EFB02F167F10007A2FBB3
:1012200003C203FB07110CF0010711444FEA5C02F3
:10123000A7FB08C71CEB000C47F100075CEA070797
:1012400042EAC1724FEA510140F021870798871F97
:101250000D9700F00587501840F10000A3FB007CBB
:101260002CF0030707EB9C07C01B121A0EFB02F7BA
:1012700061F10001A2FB03C203FB01710CF0010745
:1012800011444FEA5C02A7FB08C71CEB000C47F1B6
:1012900000075CEA070742EAC1724FEA510140F0D9
:1012A000F6860798C71F0D9700F0DA86501840F1B0
:1012B0000000A3FB007C2CF0030707EB9C07C01B7E
:1012C000121A0EFB02F761F10001A2FB03C203FB3D
:1012D00001710CF0010711444FEA5C02A7FB08C73B
:1012E0001CEB000C47F100075CEA070742EAC172F9
:1012F0004FEA510140F0CB860798B0F108070D97EF
:1013000000F0AE86501840F10000A3FB007C2CF0EA
:10131000030707EB9C07C01B171A0EFB07F261F1CE
:10132000000103FB0122A7FB03173A4401F0010768
:10133000A7FB08C71CEB000C47F1000749085CEA53
:10134000070741EAC2714FEA520240F0A0860798AF
:10135000B0F109070D9700F083868F1847F1000759
:10136000A3FB070C2CF0030000EB9C00381A091AB1
:101370000EFB01FC62F1000203FB02C7A1FB03218B
:101380007B1802F00101A1FB0817091847F10007BB
:1013900052080F4342EAC3724FEA530340F0778684
:1013A0000798B0F10A0E00F089864FF0CC38D018BB
:1013B000794940F10000A1FB007C2CF0030707EB0A
:1013C0009C074FF0050CC01B171A08FB07F263F1CE
:1013D000000301FB0322A7FB01373A4403F0010796
:1013E000A7FB0CC71CEB000C47F100075B085CEA8D
:1013F000070743EAC2734FEA520240F05F8607983C
:10140000B0F10B0E00F05A86981840F10000A1FBD5
:10141000007C2CF0030707EB9C07C01B1B1A08FB82
:1014200003F762F10002A3FB01C301FB02720CF09F
:1014300001071A444FEA5C034FF0050CA7FB0CC7E9
:101440001CEB000C47F100075CEA070743EAC27394
:101450004FEA520240F032860798B0F10C0E00F0CD
:101460002D86981840F10000A1FB007C2CF00307AA
:1014700007EB9C07C01B1B1A08FB03F762F1000275
:10148000A3FB01C301FB02720CF001071A444FEAEF
:101490005C034FF0050CA7FB0CC71CEB000C47F1DD
:1014A00000075CEA070743EAC2734FEA520240F0C2
:1014B00005860798B0F10D0E00F00086981840F1EF
:1014C0000000A1FB007C2CF0030707EB9C07C01B6E
:1014D0001B1A08FB03F762F10002A3FB01C301FB27
:1014E00002720CF001071A444FEA5C034FF0050C3E
:1014F000A7FB0CC71CEB000C47F100075CEA0707D1
:1015000043EAC2734FEA520240F0D8850798B0F11F
:101510000E070D9700F0A485981840F10000A1FB7C
:10152000007C2CF0030707EB9C07C01B1B1A08FB71
:1015300003F762F1000201FB0277A3FB01231F44C2
:10154000052302F0010CACFB033C1B184CF1000C12
:10155000520853EA0C0C42EAC7724FEA570740F0B0
:101560009685079B102B40F02E8608FB02F301FBAB
:101570000733A2FB011213444A0842EAC37212F174
:10158000663F4FEA5303054A43EAC17373EB020215
:1015900028BF012304E000BFCDCCCCCC9999991988
:1015A00038BF002307930A9B079A1344002E40F08C
:1015B0003F83012201330A960D922A9A0132C0F22A
:1015C00043830F9A002A40F0C783079A10998A42F2
:1015D000C0F0B28340F224831099079A07918A1AC7
:1015E000134400220F921BE32A9A29F02003171DAF
:1015F000436009DA089A002AC0F2648465223346FF
:101600000992089AFFF7A4B91146089A9142F2DAB2
:10161000B242C0F2AF83662309930123FFF798B962
:1016200008998A42BFF68DA900290A46C0F233857F
:10163000462309930123FFF78BB9002BC0F26E8379
:101640001093269B002B00F04983002A00F0B18400
:10165000104B14932A9B104E86FB03362A9BA6EB55
:10166000E37606EB46069E1B00F1218501230E93CF
:10167000002313932A9A82EAE273A3EBE273182BF6
:1016800040F37283183B1E4420234FF00108079358
:10169000FFF78FB9E483000056555555002B00F035
:1016A000AF82BC4A2A9B82FB03232A9AA3EBE273F4
:1016B00003EB4303D31A2A9A48BF0333D21A5E1CA2
:1016C0000C9B2A929B1B089A23EAE3739A42A8BFB9
:1016D0001A46119607920E9B2A9A991C119B19443F
:1016E00082EAE273A3EBE273002A00F0098400228D
:1016F000A948A0FB0373DB0802F10102F9D1022A19
:1017000038BF02220F92079A109853180F998242FD
:101710000B4480F082821399002940F05583821A8D
:101720001591109213440A910D91012201331392E5
:101730000B9A926893422CBF0023D31A19F004012C
:1017400015BF002018460893089119F0400F07D0E4
:10175000002914BF1A465A1CA3EB520308935008E1
:1017600019F0100F03D00D9B034400200D93002EA1
:1017700000F03C82119B0A9A29469A1A0C9BA3EB13
:10178000020EBEF1000F234620DD4FF0CC39824F10
:101790005E1846F10006A7FB06C828F0030C0CEB08
:1017A000980CA6EB0C069B1B61F1000609FB03F1EC
:1017B00007FB0611A3FB0736BEF1010E31444FEAC9
:1017C000530343EAC1734FEA5101E1D1002A00F00B
:1017D00095834FF0CC384FF0050ECDE90B2018AEB5
:1017E0006D4F06EB020C5A1842F10002A7FB0209EA
:1017F00029F0030000EB9900121A9B1A61F1000016
:1018000008FB03F107FB0011A3FB070300F001092C
:101810001944A9FB0E399B1830330CF8013D4008E0
:10182000B44540EAC1734FEA5101DCD1DDE90B2038
:1018300011990A9B5B1A12991944129100210D9B70
:10184000039201930E9B024600930491149B594608
:1018500050460296FEF7DAFE431C074600F03E842F
:101860000A9BCBB1A14698465446DBF80000B8F17C
:10187000100FC24628BF4FF0100A48495246A047F1
:10188000CBF80000002800F02984B8EB0A08EED15C
:10189000A2464C460A9B1F44079B002B52D0129A2B
:1018A000D11A00291FDD4FF0CC303B4A631943F1B8
:1018B0000003A2FB03CE2EF0030C0CEB9E0CA3EB5B
:1018C0000C03E41A65F1000300FB04F502FB035569
:1018D000A4FB024301391D444FEA540444EAC57491
:1018E0004FEA5505E2D14FF0CC384FF0050E079B7B
:1018F000294806EB030C14EB050949F10009A0FB8C
:10190000093222F0030303EB9203A9EB0309B4EBC2
:10191000090408FB04F265F10005A4FB001400FBB8
:10192000052201F001032244A3FB0E3413EB09034B
:1019300030330CF8013D4908B44541EAC2744FEA1E
:101940005205D8D10022079B59460393159B504658
:101950000193139B029600930492114BFEF756FEDF
:10196000441C00F0BB83109BC4191BB3A0461D464A
:101970005446DBF80000102D2F4628BF10270749DA
:101980003A46A047CBF80000002800F0A783ED1BE3
:10199000F1D107E056555555CDCCCCCCB09C0000CC
:1019A000408C0000A2464446109B591C18BFE41806
:1019B00000F094830F9A002A00F0E780099BDBF87F
:1019C00000008DF85C302A9B83EAE375002BA5EBC1
:1019D000E375ACBF2B232D23002A8DF85D3040F337
:1019E00049829646B94B971EA3FB0521C908A3FB64
:1019F00001C24FEAD20C01EB8102A5EB420505F1D1
:101A000030020CEB8C05A1EB45010EF170056D4425
:101A100005F8112C30310DEB0E0282F85E10002F0C
:101A200000F09F80A3FB0C12D70807EB8702ACEBFA
:101A3000420230320DEB0E0CAEF103018CF85D204A
:101A4000002900F08E80A3FB0712D10801EB810270
:101A5000A7EB420230320DEB0E0CAEF104078CF80E
:101A60005C20002F7DD0A3FB0172D70807EB870213
:101A7000A1EB420230320DEB0E0CAEF105018CF8F9
:101A80005B2000296DD0A3FB0712D10801EB810276
:101A9000A7EB420230320DEB0E0CAEF106078CF8CC
:101AA0005A20002F5DD0A3FB0172D70807EB8702F5
:101AB000A1EB420230320DEB0E0CAEF107018CF8B7
:101AC000592000294DD0A3FB0712D10801EB810258
:101AD000A7EB420230320DEB0E0CAEF108078CF88A
:101AE0005820002F3DD0A3FB0123DB0803EB83022A
:101AF000A1EB42020EF1670730326F44AEF10901EB
:101B000007F8102C69B330330DEB0E01AEF10A0269
:101B100081F856302AB33023AEF10B02D118694454
:101B200081F83030EAB1AEF10C02D118694481F885
:101B30003030B2B1AEF10D02D118694481F83030C5
:101B40007AB1AEF10E02D118694481F8303042B159
:101B5000AEF10F02D118694481F830300AB105F8AE
:101B6000203C022217A9D047CBF80000002800F043
:101B7000B5820F9D31462A46D047CBF80000002899
:101B800000F0AC822B4602331C449DF95B30002BE5
:101B900014BF012700270AD00122DBF800000DF155
:101BA0005B01D047CBF80000002800F09782089B2B
:101BB000FBB1A0461D465446DBF80000102D2E4612
:101BC00028BF102642493246A047CBF80000002823
:101BD00000F08482AD1BF1D1089B44463B44581C65
:101BE00000F07C82E0181DB0BDE8F08F324618AEE0
:101BF00024E63B46F6E7002312930C93FFF7BEB9A9
:101C00000C9B089A013B23EAE3739A424FF00106CA
:101C1000A8BF1A46119607925DE500220A920D921E
:101C2000079A002A40F318810022109215927CE551
:101C30000C9A964240F3F7820021B21A0A922A9A2D
:101C40000D910132BFF6BDAC089A002A00F0DF808A
:101C50002A9A1098D243824228BF024607991592C9
:101C600013440A440F99002940F01781824280F002
:101C7000A6811399002940F0C8820E4610990F964C
:101C80008A1A1092134411964FE50A9B0B448DE477
:101C900008232A9A022A37DC002AC0F2E5802A9219
:101CA0000C4AD3560F938DF85B30FFF771B90A4990
:101CB00008921491002B6DD12A9B002B80F2D381C6
:101CC000002307932A9B5E1CFEF76EBECDCCCCCCC6
:101CD000C49C0000749C0000B898000019F0020336
:101CE00040F05E811393012319F001010E9100F081
:101CF0008180A3491491FEF744BE0121A1481391AC
:101D000014900E91FEF73DBE0133033A591E0E2981
:101D1000C0D9C4E7089B002BBFF692AC06232699D6
:101D2000C360002900F0F6801093002A00F07F8144
:101D3000944A089314928DE4139A002A00F0398291
:101D400019F0080215924CD1079A002A00F07D8103
:101D5000159ACDE90F22E8E4079A109901338A42D7
:101D6000EAD33FF639AC3CE420234FF00108079357
:101D7000FEF71FBE06222699C260002900F02181CD
:101D800099460123662110920E9309917D4908928C
:101D900014911393089B2A9A9B1840F1D2817A4B95
:101DA0007A4AE4187A4B43EB05057A4BA242AB41E1
:101DB000C0F0AA8054EA050300F02E8100234FF002
:101DC00001080793FEF745BE19F008020D925BD19A
:101DD000079A002A00F03E810D9A109215920A92FD
:101DE000A3E4109A0799521A1092134400220F92FA
:101DF00015929AE468491491FEF7C3BD0B9AD2F884
:101E00000490089A109209F02002FEF7ADBD0F9AD7
:101E1000002A00F0A080079A109901338A42C0F08E
:101E200027813FF6D9AB089E0F961196F8E6062358
:101E30002699C3601093002940F0978019F00201A1
:101E400000F06381002A40F0C881139201220E92B3
:101E5000524A089314922FE719F0080215927FF462
:101E6000E3AE1392109263E4013B03324EE7079016
:101E7000FFF799BB022217A9D047CBF80000002832
:101E800000F02C8102237FE60799421A1092134436
:101E9000002215920A920D9247E48242014603F114
:101EA0000103FFF4E6AE8A4240F2C88008460026ED
:101EB000891A0B440799121A8A1ACDE910660F96EF
:101EC000079232E40622C260269A002A40F09080EF
:101ED00019F0020F994640F06181652309930023B0
:101EE00077E019F0020300F08F80002A40F044816F
:101EF00001230E93294B13921493DDE618AE9DE453
:101F000002230F93FFF7FFBB00234FF00108079355
:101F1000FEF77ABD19F0020100F083801093002AC9
:101F200040F03181139201220E921C4A08931492C0
:101F300030E706220B99CA602699002900F05281E9
:101F400045219946012309910E4908920E93149157
:101F500010921393B0E6079A10998A42C0F08880D5
:101F60003FF63AAB0F9E11965AE6002A40F0C88021
:101F7000139201220E92034A089314929CE600BF2A
:101F8000B8980000E48300000080E037FFFFC06FD6
:101F900079C31100F28623002C840000E88300003E
:101FA000002A40F0C18001230E93A44B1392149396
:101FB000F0E601230E93A24B13921493EAE6014636
:101FC00071E719F0020F40F0C98099466623099322
:101FD000012319F001024FF001010E924FF00602A9
:101FE000139110927FF463AE96490892149161E6C2
:101FF0006521062299460123099191490E93CDE965
:1020000013311092089257E613936DE601230E9355
:102010008B4B139214934FE6002312930C93FEF70D
:10202000B5BF184610931391012308905CE61392F4
:1020300001220E92824A08931492ABE600221646C1
:10204000CDE910220F92FFF770BBCDE90F2213925A
:10205000FFF76EBB1392109215920A92FFF768BBBE
:102060000797FFF7A0BA1E4600230793FEF79CBC14
:10207000139A002A7FF464AE16460799109A0F96B9
:10208000521A1092134415961196FFF74EBB0D9BF2
:102090000793FFF788BA06220B99CA602699002990
:1020A00037D099460123462110920E936DE6012305
:1020B0000E93002303361393FFF7DCBACDF81CE030
:1020C000FFF771BA23462946FEF7A1BF10230C93F0
:1020D0001293FEF753BF0F230C93F9E74FF0FF3035
:1020E00081E50E230C93F3E70D230C93F0E70C230B
:1020F0000C93EDE70B230C93EAE70A230C93E7E735
:102100004F4A08931492FEF7FEBB089313910B46B7
:10211000EAE519F0020F5AD19946462309930123A3
:1021200057E709230C93D3E7444B1493FFF792BA74
:1021300008230C93CCE707230C93C9E706230C93E1
:10214000C6E75E1C002326EAE6764FF00108013E52
:102150000793FEF730BC13460C92B9E7994601236A
:10216000662110920E9309913449089214911393A9
:1021700010E604230C93ABE7304B1493FEF7C3BB7C
:1021800003230C93A4E72D4A08931492FFF762BA35
:1021900001230C939CE702230C9399E7652101230B
:1021A0000622099125490E93CDE913311092089228
:1021B00082E5104607990F92109A1590521A1092C4
:1021C0001344FFF7B2BA00230793FFF7ECB999461F
:1021D0000123462110920E93C5E7184A08931492E2
:1021E000FEF791BB19F0020F04D1994645230993DC
:1021F000269BEEE645219946012309910F49089255
:102200000E9314911092139356E519F00801119151
:102210000ED010998A1A10921344002216460F927B
:102220001192FFF782BA00220A920D92FFF7C5B908
:10223000119ECDE90F66FFF778BA00BFE883000072
:10224000E48300002C8400002DE9F04FC5B0139109
:102250001593002A00F03E8111464FF0000A074610
:1022600091F90030A3B18B4602E01BF9013F0BB19D
:10227000252BFAD1BBEB010507D02A461398B847A6
:102280001390002800F02681AA449BF900301BB966
:10229000504645B0BDE8F08F9BF901800BF1010B72
:1022A000B8F1000F42D0002543468D4CA8468D4E14
:1022B0001D4608E0001B56F820301BF9015F48EA74
:1022C0000308002D37D02946204604F09CF800284A
:1022D000F0D12B462A2B45462ED1159A0BF1010B36
:1022E000111D15911668002EBCBF764245F00405FD
:1022F000B6F5FA7F00F3EE809BF900402E2C00F03B
:10230000D2804FF0FF383A2C2ED05B2C4FF00009D2
:1023100000F030817B2C00F0EB8010230021202284
:102320000A93079109930C91002C4CD1159B1A1D0F
:102330001592196894E745469BF90020002AF5D0CC
:102340000026694808E0B6F5FA7FD1DA1BF9012FBB
:10235000A3F13006002ACBD0815C06EB86034C0744
:1023600002EB4303C4D5EEE79BF901402A2C00F0B1
:10237000EE800BF1010B002CD8D04FF000095A4829
:1023800009E0B9F1230F0DDC1BF9014FA3F130096E
:10239000002C00F01085025D09EB8903520704EB65
:1023A0004303EED4B9F1240F00F394805B2C00F0CA
:1023B000E1807B2C00F09C801023002120220A93D6
:1023C0000C910993079121464848089204F01BF8A4
:1023D000089A002800F0C3819BF901100029A5D0BC
:1023E000A14200F0888108940C460BF101030B9385
:1023F000432C00F08E81A4F125038DF853404E2B21
:1024000000F2D680DFE813F03702D400D400D40005
:10241000D400D400D400D400D400D400D400D4001C
:10242000D400D400D400D400D400D400D400D4000C
:10243000D400D400D400D400D400D400D400D400FC
:10244000D400D4001704D400390139013901D40073
:10245000D400D400D400D400D400D400D400D400DC
:10246000D400D400D400D400D400D400D400D400CC
:10247000D400D400D400D400D400D400D400D400BC
:10248000D400D4001704D400390139013901D40033
:10249000D400D4006802D400D4004502D400FF0167
:1024A000D400D400CA019BF901402A2C40F0AC8032
:1024B000159A111D1591D2F80080B8F5FA7F09DC44
:1024C0009BF902400BF1020B1DE7B9F1010F4A46DF
:1024D00040F07C844FF0FF3045B0BDE8F08F00BF86
:1024E000A89C0000889C0000999D000004840000C6
:1024F0009BF901202A2A40F0A6807B22159B0BF134
:102500000201181D15901B680993202BE2D891F940
:1025100000302E2BDED191F901402A2C40F023818E
:10252000159B0231181D15901B680A93002AD1D003
:102530000A9B01F1010B202BCCD8099A1A441F2ABF
:10254000C8D8002391F9014007930C93ECE6159A43
:10255000111D1591D2F80090B9F1000FC0F28881D9
:10256000B9F1240FB6DC9BF902400BF1020B5B2C96
:102570007FF4D0AE9BF901400BF101030C93002CCA
:10258000A8D00BF1010201E0002CA3D023465D2B63
:10259000104692F9014002F10102F5D1A0EB0B00C7
:1025A000431E0793102393460A9320220993BBE608
:1025B000642C00F00684692C00F00282492C00F0A3
:1025C000FF81782C40F07E843346102205F0800095
:1025D0001599002840F0FF8108986A38102800F209
:1025E0001C83DFE810F006041A0353021A031A03CF
:1025F0001A031A031A031A031A0353021A031A03BB
:102600001A031A031A0353020BF1010B002C3FF4B7
:102610008DAE4FF00008AF4809E0B8F5FA7F0DDA4B
:102620001BF9014FA3F13008002C00F0BD83025DBF
:1026300008EB8803510704EB4303EED4B8F5FA7FA7
:102640007FF761AE46E7002A3FF444AF0023A1487C
:102650000BF1010106E01F2B0DD811F9012FA4F198
:10266000300342B110F802C003EB83041CF0040FE6
:1026700002EB4404EFD1099347E7089B4C2B3FF44E
:1026800029AF159B17AA073323F0070303F10801AD
:102690001591D3E90001009222AB16AAFEF71AF8B1
:1026A000DDE91613DDE922026FF0004C634500F00E
:1026B00008820493089BCDE902028DF874300C9BCC
:1026C00000911E93079B21461F93099B3A46209336
:1026D0000A9B18A8219300238DF8753013ABCDE920
:1026E00018A5CDE91A68CDF87090FEF7E1F8DDF88D
:1026F00060A0044682E044F001039BF90240089385
:102700000BF102030B93002C3FF410AE432C7FF42B
:1027100072AE0B9A92F90130561C002B3FF4DAAEE0
:102720008DF85340B8F1000F8DF88830C0F28082E8
:10273000B8F1010FB8BF4FF001080DF1880C444605
:102740000025E146139801224946B8470135139008
:10275000002800F019844545F5D10B964EE0CDF8E0
:102760002CB0089044E6002C3FF4B4AE0023594846
:10277000013108E01F2B0FD811F9014FA2F13003EE
:10278000002C3FF4A7AE10F804C003EB83021CF04A
:10279000040F04EB4202EDD10A93C9E6159B1A1D02
:1027A00015921C68002C00F07E81204603F015FF76
:1027B0000346B8F1000F02DB434528BF43469E4263
:1027C00094BF0026F61A15F0040019BF3146002206
:1027D000014632466D0606D5002814BF3246721CEB
:1027E000A6EB52015208CDE903310023029438468A
:1027F000CDE9003313A9FDF709FF0446002CFFF6CD
:1028000069AEA24442E04FF008093022159B5824DB
:10281000191D15911E684FF0280B8DF85C204B4652
:10282000C84610228DF853401BF0200F00F036816F
:1028300044F020018DF85D100221B9F1000F40F045
:10284000E282CDF83490911E0E2900F2FE80DFE87E
:1028500011F0E101FC00FC00FC00FC00FC00BE01EA
:10286000FC007301FC00FC00FC00FC00FC00FD010E
:102870004FF0000977E6012213980DF15301B84794
:10288000139000283FF426AE0AF1010A0B9901319A
:10289000E6E4159B1A1D15921B68002BF6D0089ACA
:1028A000683A122A00F24581DFE812F0FB020903C0
:1028B0000403430143014301430143014301430135
:1028C00043014301430143014301430143014301E8
:1028D000430100BF999D0000002A3FF4FBAD159B0A
:1028E000191D15911968002900F0AC810123013AE6
:1028F000934001EA0302002A16BF0120002049424A
:1029000003F1FF3303EA01034FEAE374169018BFA3
:102910004FF000421846214622932394002B00F0EA
:102920002E834FF0FF3C5B100CF1010CFBD10A9B96
:10293000B4F5801FACEB0303179306D2001849418E
:10294000B1F5801FFAD3CDE92201C3F30A030E903B
:1029500003F2FF30C1F3130343EA005323F00043B3
:1029600013430F9317AB009316AA22ABDDE90E01B8
:10297000FDF7B0FEDDE91601DDE92223CDE90223F2
:102980000022089B04918DF874300C9B00901E93DC
:10299000079B8DF875201F93099B3A4620930A9B4D
:1029A0006621219318A813ABCDE918A5CDE91A68C3
:1029B000CDF87090FDF77CFFDDF860A004461DE7C0
:1029C00025F0080545F08005B9F1000F7FF47DADD5
:1029D00033460A22159908986A38102866D8DFE825
:1029E00010F0460265001100650065006500650095
:1029F0006500650065001100650065006500650003
:102A000065001100081D1590096881EAE17600292A
:102A1000A6EBE176C0F21582A80700F1FF8115F060
:102A2000010040F07B82AB468DF85C006F2C05F016
:102A3000080900F0EC8124F0200158293FF4F4AE9D
:102A4000622C3FF4F1AE0021F7E6002E00F0A781E2
:102A5000692C00F07E823146DFF8B4E200260DF5E5
:102A6000857C00E02946B1FBF2F502FB15101EF94A
:102A70000000752C08BF40F020008A4206F10106D4
:102A80000CF8010DEED9C6F182046DE0081D159019
:102A90000E683021AB468DF85C10C7E7002E40F081
:102AA000BA813146C9E606239A4C82E6081D159084
:102AB00008980968682800F0E781692808BF49B2CA
:102AC000A3E7A4F165030243DBB200F0EF81022B20
:102AD00000F2EA819048002940F0DF81AB0700F165
:102AE000D88115F0010400F0D18104218B4B8E4276
:102AF00094BF0021711A15F0040C19BF0E46002274
:102B000066460A466D0607D5BCF1000F14BF0A469B
:102B10004A1CA1EB520652080321039100210290A6
:102B2000009401913846049613A9FDF76FFD044601
:102B300064E6C3F800A0A9E6002E00F0308100246E
:102B4000774D0DF585713246A5FB0606F60806EBB6
:102B50008600A2EB40023032013401F8012D002E34
:102B6000F1D12646C4F18204079A002A00F01981A7
:102B70000C981546013A104400220DF1880C07927A
:102B80003A4667469C460346CDE908890C9693F978
:102B900000102D2918D02A295BD1159901F10408BC
:102BA000CDF85480D1F80080B8F1000F0CDB013D66
:102BB00003F1FF3908D0013D09F1FF33B8F1000FEF
:102BC00040F0BD80002DE2D1DDF820805DE00720DF
:102BD0000325002E00F0E380A4F16901C9B20F299A
:102BE00000F2F7804F4A0A4112F0010240F0F180F2
:102BF0001446DFF81CE10DF5857106EA00021EF9A6
:102C00000220EE4042F0200204F1010401F8012DFF
:102C1000F3D1A6E701200546DBE7081D15900E68F5
:102C20000899682900F0ED80692908BFF6B230E7FD
:102C30004FF0010881E5159B0B9E1A1D159293F923
:102C400000306FE508460022002397E60F20042598
:102C5000BFE719464FF0000801230A9610948946F1
:102C600011F9010903EB830EA0F1300600285DD0B5
:102C70002D4C205C400759D5013D03FB06884FEAE7
:102C80004E03ECD1DDF820800A9E6346BC46174611
:102C9000DDF82490C6F18204B8F1000FB8BF4FF000
:102CA0000108079AA8BF2BF0100B4244ACBF0020CC
:102CB0000BF01000B242114638BF314601EB090259
:102CC0009A422CBF00239B1A1BF0040E19BF1D460D
:102CD000002275461A461BF0400F07D0BEF1000FC8
:102CE00014BF1A465A1CA3EB52055208891B08B19F
:102CF000114400226444CDE901143846CDE903654E
:102D00000D9BCDF8009013A9FDF780FC044675E5F6
:102D10004C9C0000EC830000F4830000B898000095
:102D2000CDCCCCCCFE6FFFFF999D00000A9E109C7D
:102D3000013D09F1FF33B8F1000F3FF443AF99F9BA
:102D400000100C981191CDF828B0109221468146C0
:102D5000E34602460C93904504F1FF343944A2EB5C
:102D6000080280F0EC803819129203F02BFB09EB7B
:102D70000401119BA1EB0801694481F88830079B8D
:102D8000129A01330136079335B1DC460C9BDDF80E
:102D900028B00C92109AFAE621469146DBE782248D
:102DA00007960DF1880C77E7B8F5FA7F3FF792ABFD
:102DB000A146FFF7B2BAB9F1240F7FF7B7AAFFF720
:102DC00089BB0A2225F0080545F080053346159990
:102DD00001E60024DFF8B8E10DF5857200EA06018E
:102DE0001EF80110EE4004F1010402F8011DF5D1B6
:102DF000B7E6073121F0070101F1080015900E68D0
:102E000047E6B6B245E6894617A90D911BE5311E86
:102E100018BF012111E58DF85D400DE52B206F2CC9
:102E20008DF85C0045F0080B00F0838024F0200151
:102E3000582975D0622C24D1A90620D58DF85D4083
:102E400012E02D216F2C8DF85C1045F0080B18D086
:102E500024F02001582901D0622C12D1AD06EDD505
:102E600044F020018DF85D104FF00209CCE70731E6
:102E700021F0070101F1080015900968C5E5002E51
:102E8000DCD14FF00109BFE709B2BEE50321414B98
:102E90002DE604210124404B29E6042101243F4B67
:102EA00025E6A3F800A0F1E43D4814E6022B2DD856
:102EB0003C4810E60022C3F800A05A60E6E483F81C
:102EC00000A0E3E4582C3FF47FAB24F02003552B03
:102ED0000AD06F2C1CD0622C7FF4FCAA334602224D
:102EE00005F08000FFF774BBB9F1000F05D1334640
:102EF0000A2205F08000FFF76BBB4A46012A3FF427
:102F0000E9AA334605F08000FFF762BB2648E2E5F8
:102F10003346082205F08000FFF75ABB20207EE7E9
:102F2000A806ACD544F020014FF002098DF85D10E1
:102F30006AE7002908BF00264FF0010964E75B46F5
:102F4000DDE90889BC46DDF828B0109FC6F182048F
:102F5000A2E60024DFF838E00DF58571B6FBF2F04B
:102F6000354602FB106C06461EF90C00954240F0F7
:102F7000200004F1010401F8010DEFD2F1E50A9BF4
:102F80000146DB431793D9E44FF0FF34FFF7E5BB6D
:102F90004C9C00002C840000E8830000E4830000C7
:102FA000F8830000FC830000008400002DE9F04756
:102FB0000446254801F00EFFD4E901A9D4E90476BE
:102FC00021682248D4F80C80D4E9065401F002FFAD
:102FD00051461F4801F0FEFE49461E4801F0FAFE28
:102FE00041461D4801F0F6FE39461C4801F0F2FE4C
:102FF00031461B4801F0EEFE29461A4801F0EAFE70
:1030000021464FF0E024184801F0E4FED4F8381DC2
:10301000164801F0DFFED4F8281D154801F0DAFE4D
:10302000D4F82C1D134801F0D5FED4F8301D1248F9
:1030300001F0D0FED4F83C1D104801F0CBFEBDE8F5
:10304000F0470023184700BF0C84000030840000C4
:103050003C84000048840000548400006084000028
:103060006C8400009C840000BC840000C8840000C4
:10307000D4840000E0840000EC840000F8840000A8
:1030800010B50446074801F0A5FEA1696469064829
:1030900001F0A0FE2146054801F09CFEBDE810406D
:1030A00000231847048500001485000024850000D3
:1030B00010B50446074801F08DFEA1696469064811
:1030C00001F088FE2146054801F084FEBDE810406D
:1030D0000023184734850000148500002485000073
:1030E0002DE9F0410724674B06211C72664C012232
:1030F0001C61664C08205C61654CDFF89881DC61DE
:10310000DC63654CC3F800801C640924DFF88C8103
:1031100083F8581083F87810C3F804806049DFF80A
:1031200084815964C3F80C805F49DFF88081196598
:10313000C3F820805E49DFF87C815965C3F824809C
:103140005D49DFF87881D965D966C3F830805C497C
:10315000DFF870815C4D196783F828405B495C4C4F
:10316000C3F83480DFF86C8183F8382083F8482076
:1031700083F868205967DC62DC641876DD67C3F881
:10318000608083F8882083F8B820534A0C21C3F864
:10319000C020524A4FF0040EC3F8C420504A4FF0EA
:1031A0000D0CC3F8CC204F4A0A26C3F8D0204E4A53
:1031B0004E4CC3F8D4204E4A4E4FC3F8DC204E4A42
:1031C000DFF83881C3F8E0204D4AC3F8AC40C3F8BB
:1031D000E4204C4AC3F8BC40C3F8EC204A4AC3F888
:1031E0006480C3F8F020494AC3F88070C3F8F42023
:1031F000474AC3F88C50C3F8FC20464A83F8F8606D
:10320000C3F88420444A83F898E0C3F89020434AE6
:1032100083F8A8E0C3F89420414A83F8C810C3F8A3
:103220009C20404A83F8D810C3F8A0203E4A83F877
:10323000E8C0C3F8A4203D4A3D4CC3F8B0203D4A45
:10324000C3F8B4203C4A83F808C1C3F800213B4AC4
:1032500083F81801C3F80421394A83F82811C3E917
:103260004342384A384CC3F81C21384AC3F8144149
:10327000C3F82021364C374AC3F82441C3F82C2127
:10328000BDE8F081B0000020888500009485000032
:103290006935000048850000EC850000508500007D
:1032A000F08500001135000010860000A8850000A0
:1032B00018860000B485000069360000D085000043
:1032C000B4860000D4850000E5360000BC8600000E
:1032D0000536000064860000A4870000B487000063
:1032E00029380000048800001488000029370000F5
:1032F00055390000B0850000548800006886000041
:1033000064880000513A0000AC880000B8880000D2
:103310006D3B0000F0860000248700002C87000031
:103320000537000060870000688700008487000080
:10333000213C0000888700001089000020890000DF
:1033400070890000313D00007C890000CC890000BC
:10335000DC890000413E00004369084603B1196062
:10336000704700BFF8B5079D0C46BDF8180019B3AB
:103370000BB305F11007BA421ED388801946154BCE
:103380002A46E580236004F1080003F018F90835A7
:1033900029462046FDF722F96FF0120C6FF052011A
:1033A0000F220A236619605186F804C07171B27148
:1033B000F3713846F8BD15B100273846F8BD0F2A1D
:1033C00005D9044B102788800B60CD80DFE72F469E
:1033D000EFE700BFBEBAAD1B2DE9F04FADF5805D44
:1033E00083B000F580590DF581520646D9F81000DA
:1033F0001032D2F8008002683F4D946B0F46AC4209
:103400005FD11946002B51D008F11005B5F5805F4A
:103410004FD83A4B424604A80DF1080ACAF80030CA
:10342000AAF80470AAF8068003F0C9F808F1080B9E
:1034300059465046FDF7D2F86FF012030AEB0B0421
:103440004AF80B0023716FF0520363710F23A371CD
:103450000A23E3716DB35446DFF8A4B0554404E089
:10346000436903B11960A54209D0706814F9011BC2
:1034700003681B695B45F3D09847A542F5D199F8DD
:103480002030CBB1424639461E4801F0A3FC1AF861
:10349000011B1D4802F0E6FD5545F8D11B4802F01E
:1034A00085FE0DF5805D03B0BDE8F08FB8F1000F2B
:1034B00011D099F82030CBB90DF5805D03B0BDE88F
:1034C000F08F0DF1080ACDE900184FF480525146F3
:1034D000A0470546BEE7094B0DF1080A1025AAF8DA
:1034E0000470AAF80680CAF800309FE742463946C1
:1034F000044801F06FFCD1E765330000BEBAAD1B94
:1035000059330000288A0000508A00007C9A00008D
:1035100010B5104B0C461B6882B07BB158680E4A40
:103520001968CDE90020FD230C4A0D4802F09AFDF0
:10353000204603F052F840B202B010BDFD22064B07
:103540000649084802F08EFD204603F046F840B2D6
:1035500002B010BD2C000020D89C0000588A00004A
:10356000848A0000E88A000070B5002482B0084612
:1035700015461D4901AA019402F020FE40B2A04266
:1035800016DD1A4A019B12681948D45C02F06AFDE4
:1035900022460199174802F065FD2146164802F0BF
:1035A00061FD2146154802F05DFD68B202B070BDB4
:1035B0000F4802F057FD21460C4E019433680D4828
:1035C0005C5C224602F04EFD21460B4802F04AFDAB
:1035D0000199013180290191F0D9094802F0E6FDF5
:1035E00068B202B070BD00BF248B00002C00002028
:1035F000288B00003C8B0000508B0000588B000093
:103600007C9A000070B50C46002582B01646204614
:103610006A46104901ABCDE9005502F0CFFD40B23A
:1036200001280FDD0C4A009B126801990B48D15408
:10363000019902F017FD0A48009902F013FD70B2DB
:1036400002B070BD02462146064802F00BFD4FF065
:10365000FF30F5E7648B00002C000020C88B0000D1
:10366000EC8B00006C8B0000002330B5184887B04D
:1036700005681446CDE904330393DDB105AB084674
:103680000093144904AB03AA02F098FD40B202284B
:10369000039915DC002805DCDDE904230E4802F05F
:1036A000E1FCFFDE0B460A460C4802F0DBFC60B290
:1036B00007B030BD0A4802F0D5FC60B207B030BD9B
:1036C000DDE90423054802F0CDFC60B207B030BD4F
:1036D0002C000020448C0000748C0000508C0000F2
:1036E000F88B0000054B1B6803B1FFDE10B51446D4
:1036F000034802F0B7FC60B210BD00BF2C000020F0
:10370000A08C000010B51446054B1B68586802F0E9
:10371000D1FB0021034802F0A5FC60B210BD00BF40
:103720003C000020EC8C000070B500230C463149B1
:103730008AB0089115467C2180222F48CDE90633B6
:10374000099302F08FFC04222C49601C02F068FEF1
:10375000002838D02A4E0020FD2100223368CDE910
:10376000020104921BB11A6802925B6804930C2454
:103770000C21244802F076FCDDE90323029922485B
:1037800002F070FC0A2002F0B3FC02AB002241F20E
:1037900001011E480094FFF71FFE02AB002241F218
:1037A00001011B480094FFF717FE002241F20101BE
:1037B00002AB18480094FFF70FFE174802F0F6FC22
:1037C00068B20AB070BD552104460D4E134A3368E5
:1037D000126883F87C1083F87D0083F87E0083F8FC
:1037E0007F00506802F066FB21460D4802F03AFC6B
:1037F000B1E700BF40420F000C8D0000248D000097
:103800002C000020508D00007C8D0000E82D002051
:10381000B01D0020780D0020E08D00003C0000204D
:103820002C8D0000000000000023F0B5404887B058
:103830000468CDE90233CDE9043357B2002C6CD0D3
:1038400005AA04ABCDE90032084603AB394902AA08
:1038500002F0B4FC40B20328029B54DC00284ADC8E
:103860001946DDE90323344802F0FCFBDDE902657B
:103870000136304604F026F902460B462AA1D1E96A
:10388000000104F0C3FA00222C4B04F095F9013535
:1038900002460B462A483146049C02F0E3FB2846C8
:1038A00004F010F902460B461FA1D1E9000104F013
:1038B000ADFA0022214B04F07FF9013402460B4699
:1038C0002048294602F0CEFB204604F0FBF80246D1
:1038D0000B4615A1D1E9000104F098FA0022174B1C
:1038E00004F06AF902460B461748214602F0BAFB7B
:1038F000384607B0F0BD1A4619460093134802F047
:10390000B1FB029BACE705981946DDE90323009063
:103910000E4802F0A7FB029BA2E70D4802F0A2FBB3
:10392000384607B0F0BD00BF000000009651984136
:103930002C000020488E00008C8E00000000B03F5C
:10394000BC8E0000088F0000548F0000588E0000CD
:10395000F88D00002DE9F041364F3748154602F04A
:1039600081FB97F821207B6A002A0CBF4E22592246
:10397000B989324801F02EFABB897BB1A7F580588E
:1039800008F10B0634462E4816F8011F02F06AFBB8
:103990000A3CBB89A4EB0804A342F3D8294F2A4868
:1039A00002F004FC97F821207B6A002A0CBF4E220B
:1039B0005922B989214801F00DFABB89A7F5805831
:1039C0006BB108F10B0634461D4816F8011F02F0D2
:1039D00049FB0A3CBB89A4EB0804A342F3D81B4F64
:1039E000194802F0E3FB97F821207B6A002A0CBFFC
:1039F0004E225922B989114801F0ECF9BB89A7F58B
:103A000080586BB108F10B0634460D4816F8011FBB
:103A100002F028FB0A3CBB89A4EB0804A342F3D8BC
:103A2000094802F0C3FB084802F0C0FB68B2BDE8D9
:103A3000F08100BFE83D0020A48F0000CC8F000083
:103A4000508A0000B02D00207C9A0000781D0020D4
:103A500030B50C46002587B00DF10B0339490093B2
:103A6000204604AB03AA039502F0A8FB41B2032948
:103A70001EDD9DF90B200399592A58D03CDC312AD0
:103A800001D0542A3CD1012559222F4801F0A2F936
:103A9000039901293BD002294BD000293FD02B4864
:103AA00001F098F9204602F098FD40B207B030BD11
:103AB000274801F08FF9274B27481B79002B0CBFB3
:103AC0004E21592101F086F9244B25481B79002B02
:103AD0000CBF4E21592101F07DF9224B22481B7960
:103AE000002B0CBF4E21592101F074F9204602F041
:103AF00074FD40B207B030BD742AC4D0792AC2D058
:103B00004E22114801F066F903990129C3D1134BE4
:103B100020461D7102F061FD40B207B030BD0D4B73
:103B200020461D7102F059FD40B207B030BD01259D
:103B3000ABE70C4B20461D7102F04FFD40B207B0C1
:103B400030BD00BFE88F0000F88F00002C9000000F
:103B500064900000583E0020B49000003C3E0020DD
:103B6000E4900000203E0020149100002DE9F04177
:103B7000002486B004AB164605AACDE900320846FB
:103B800003AB214902AACDE90244CDE9044402F085
:103B900015FB40B203281DDD0299039D1B4C01EB70
:103BA0004103049FDDF81480E55419481C446770F4
:103BB00084F8028002F056FA5FFA88F3FAB2E9B2AA
:103BC000144802F04FFA144802F0F0FA70B206B04E
:103BD000BDE8F081114802F0E9FA0C4C04F53465B7
:103BE000A37862780B4814F8031B02F03BFA0A2012
:103BF00002F07EFAAC42F3D1074802F0D7FA70B275
:103C000006B0BDE8F08100BF488E000034020020FD
:103C100044910000749100007C9A0000C89100005B
:103C20002DE9F041364B82B01B6856B2002B5FD0B5
:103C300000230C4608463349019302F003FC20465A
:103C4000314901AA02F0BAFA40B2002849DD019DCB
:103C5000B5F5707F41D22D4B05EB4504DFF8B08000
:103C60002C4F1C4411E0294602F0FCF9A37862783D
:103C70002178294802F0F6F90135284802F096FA31
:103C8000B5F5707F04F1030427D000201D4902F030
:103C9000D9FB10B301F0DEFF2178024601EB81036E
:103CA00005291F484FEA4313DDD86178A07801EB5E
:103CB0008101D8F800E003EBC103034407EA022CBA
:103CC000294618484EF823C092B2013502F0CAF9CD
:103CD000B5F5707F04F10304D7D1304602B0BDE8DA
:103CE000F081114802F062FA304602B0BDE8F0817E
:103CF0000E4802F05BFA304602B0BDE8F08100BF2A
:103D00002C00002048920000688B00003402002044
:103D10002800002000FFFF00749100007C9A000042
:103D2000509200009C920000CC920000089200008B
:103D30002DE9F041374B82B01B6856B2002B61D0A1
:103D400000230C4608463449019302F07BFB2046D1
:103D5000324901AA02F032FA40B200284BDD019D3F
:103D6000B5F5707F43D22E4B05EB45042D4F1C4417
:103D700011E0294602F076F9A378627821782A4882
:103D800002F070F90135294802F010FAB5F5707F9C
:103D900004F103042BD000201F4902F053FB30B381
:103DA00001F058FF2178024601EB810305292048E4
:103DB0004FEA4313DDD86178A07801EB8101D7F891
:103DC00000E003EBC10303445EF823C05FFA82F80E
:103DD0004CEA080C294617484EF823C092B2013528
:103DE00002F040F9B5F5707F04F10304D3D13046F9
:103DF00002B0BDE8F081104802F0D8F9304602B0B8
:103E0000BDE8F0810D4802F0D1F9304602B0BDE8BE
:103E1000F08100BF2C00002048920000688B000059
:103E20003402002028000020749100007C9A0000D9
:103E3000449300008C930000B893000008930000A6
:103E4000F0B5334B83B01B6856B2002B59D000231A
:103E50000C4608462F49019302F0F4FA20462E49F9
:103E600001AA02F0ABF940B2002844DD019DB5F58E
:103E7000707F3DD2294B05EB4504294F1C4411E0CE
:103E8000294602F0EFF8A37862782178254802F0FD
:103E9000E9F80135244802F089F9B5F5707F04F19D
:103EA000030425D000201B4902F0CCFA00B301F036
:103EB000D1FE2178024601EB810305291B484FEA18
:103EC0004313DDD86178A07801EB8101D7F800C0F9
:103ED00003EBC103034492B2294615484CF8232052
:103EE000013502F0BFF8B5F5707F04F10304D9D1B4
:103EF000304603B0F0BD0F4802F058F9304603B029
:103F0000F0BD0D4802F052F9304603B0F0BD00BFDD
:103F10002C00002048920000688B00003402002032
:103F200028000020749100007C9A00002C9400006E
:103F300078940000A8940000EC93000043F2010183
:103F400043F2020241F20100174B30B443F2030482
:103F5000D9609A611549164A1961DA611549164AFC
:103F600059611A6243F2050143F2060243F2040565
:103F7000186012485C6298621148124CD86212486C
:103F8000D963C3E90D40114C11489A64C3E910404C
:103F90001049114C1148124AC3E91340C3E90112F8
:103FA0001D6330BC704700BFE0010020F8940000A2
:103FB00014950000E5440000B54000003095000075
:103FC000D54000004C950000614000006495000061
:103FD000D9400000E09400007C950000D948000022
:103FE000E53F00002DE9F0434FF000084FF0FD09D8
:103FF0000025174987B0096816461C46CDE9028995
:10400000049509B14B6804930C21124802F02AF878
:10401000DDE903231048029902F024F80A2002F097
:1040200067F86CB10C27256800972046002241F202
:104030000101EC6802ABA04770B207B0BDE8F083A5
:10404000064800F0C7FE70B207B0BDE8F08300BFBD
:104050002C000020949500007C8D0000CC95000081
:1040600070B50125114984B00968144618460395B6
:1040700041B1002381F8945081F8953081F8963051
:1040800081F8973058B1042605680096002243F263
:104090000401ED6803ABA84760B204B070BD0448EA
:1040A00000F098FE60B204B070BD00BF2C0000208C
:1040B000CC95000010B5144619B1172A01D960B289
:1040C00010BD18222146024801F0CCFF60B210BD9D
:1040D0002C96000050B270472DE9F04FADF5DA5D37
:1040E00091461E4687B0002959D0022A57D90F465B
:1040F00009880DF65834A4F64835B1F5707F29606B
:1041000000F21381BA4B023AA3FB023201EB5203D5
:10411000B3F5707F4FEA5202A4F6443588BFC1F56B
:1041200070722A60B34801F09DFFA4F6483210680F
:104130002B680344984280F0A180AF4B00EB40080D
:104140000546984418E0B1F5806F80F0918083783F
:10415000AA48272B79D91A46294601F083FFA4F6ED
:104160004832A4F6443310681B6801350344AB425F
:1041700008F1030840F28280281A00EB4000023068
:10418000395A38445FFA81FABAF1050F4FEA112B18
:10419000D9D9524629469A4801F064FFDFE7002743
:1041A0000DF658349748A4F6443501F0FFFF4FF45C
:1041B000346291492F80A4F6423002F000FA002EBA
:1041C00000F0A9803368D3F80C808F4B984540F0FD
:1041D000048106F58058D8F810008C4B0268976B64
:1041E0009F4240F02B818A4B8A4A2946C4E900232A
:1041F0000DF5366040F6423202F0E1F940F64A3100
:104200002046FCF7EBF94AF6ED53A4F84E3B40F696
:104210000F2340F65237C4F84A0BA4F8503B25460A
:104220002744706815F9011B03681B699847AF4262
:10423000F7D198F82030002B40F0BD804FFA89F07C
:104240000DF5DA5D07B0BDE8F08FA8F8001088F82A
:10425000023029467048039301F004FF5A46514644
:10426000039B6E4801F0FEFE6D4801F09FFF76E76C
:104270005A4629466B4801F0F5FE70E7002E4AD0F9
:104280003268614BD5689D4240F0F28006F5805857
:10429000D8F810005D4B0268D2F838A09A4540F07B
:1042A000F0805C49604B2046C4E90013A4F6443317
:1042B0001B880A212381FCF791F94AF6ED53E3812B
:1042C00040F60F23C4F80A0012202382254607195E
:1042D000706815F9011B03681B699847AF42F7D155
:1042E00098F82030002BA9D0022243F205014F4854
:1042F00000F070FD14F8011B4D4801F0B3FEA74219
:10430000F8D1474801F052FF4FFA89F00DF5DA5D18
:1043100007B0BDE8F08F474800F05CFD4FFA89F028
:104320000DF5DA5D07B0BDE8F08F434801F09AFE65
:10433000002EF0D03368DF68334B9F4240F0B980E5
:1043400006F58058D8F81000304B0268D2F838A033
:104350009A4540F0B7802B882E482381324B0A21A2
:10436000C4E900032046FCF739F94AF6ED53E3812E
:1043700040F60F23C4F80A001220238225460719AD
:10438000706815F9011B03681B699847BD42F7D196
:1043900098F82030002B3FF451AF022243F2050180
:1043A000224800F017FD14F8011B214801F05AFEC5
:1043B000A742F8D1A5E740F6423243F205011B4877
:1043C00000F008FD14F8011B194801F04BFEA7424C
:1043D000F8D1134801F0EAFE96E740F642343A4637
:1043E000304643F2050105AB0094C04726E700BF05
:1043F000ABAAAAAAA0960000340200206C97000085
:10440000DC960000B0970000D9330000653300004F
:104410000530420BBEBAAD1B449100007491000000
:104420007C9A00002897000005300200288A0000CE
:10443000508A0000CC9500006C96000040F6423A8D
:1044400043F205054FF480522146CDE9005A05ABF1
:10445000B847074600287FF4E2AE98F82030002BDA
:104460003FF4ECAE524629461D4800F0B3FC48E745
:1044700002240022304643F2050105AB0094A84710
:10448000DCE6022743F205054FF480522146CDE9D0
:10449000005705ABD04700287FF418AF98F82030BC
:1044A000002B3FF4CBAE3A4629460D4800F092FC73
:1044B00027E702240022304643F2050104AB0094B2
:1044C000B847BBE6022743F205054FF48052214668
:1044D000CDE9005704ABD0470028DFD04EE700BF3E
:1044E000288A00002DE9F04FBF48ADF5BC5D00689B
:1044F00085B056B2002800F0728189461D46002919
:104500004CD0012A4AD908880DF5F264A4F5F16768
:10451000B0F5707F386000F207815308013BC21884
:10452000B2F5707F88BF4FF47072A4F2847188BFB7
:10453000131A90420B6080F0A1800146AB4B00EB58
:104540004007DFF8ACB2DFF8ACA21F443B7801F1C2
:104550000108052B03EB8303A8EB00004FEA43138C
:1045600076D87A7839F81010B87802EB820203EB2B
:10457000C2031AF80020034401EB0241DBF80020DB
:10458000033742F82310A4F5F1631868A4F284738A
:104590001B680344434571D94146D7E70021944B3A
:1045A0000DF5F2641868A4F2847204AB118004382B
:1045B000991E03F27E7C50F8042F120A21F8022B78
:1045C0008C45F8D1002D00F0A6802A68D7688A4A69
:1045D000974240F02B8105F58059D9F81000874AA1
:1045E0000168D1F83880904540F02A81844B854A93
:1045F000A4F28471C4E900230DF5F36040F28272E5
:1046000001F0DDFF40F28A712046FBF7E7FF4AF632
:10461000ED53A4F88E3740F60F2340F29278C4F899
:104620008A07A4F890372746A044686817F9011B49
:1046300003681B699847B845F7D199F82030002BDB
:1046400040F0BB8030460DF5BC5D05B0BDE8F08F95
:104650006D4801F007FDBB787A786C4817F8031BAA
:1046600001F000FD6A4801F0A1FDA4F5F1631868AE
:10467000A4F284731B68034498458DD3002D4AD05F
:104680002A685D4BD7689F4240F0F48005F5805959
:10469000D9F81000594B0268D2F83880984540F09C
:1046A000F28058495B4B2046C4E90013A4F284739E
:1046B0001B880A212381FBF791FF4AF6ED53E38122
:1046C00040F60F234FF01208C4F80A002382274651
:1046D000A044686817F9011B03681B699847B8452F
:1046E000F7D199F82030002BACD0022243F201011F
:1046F000494800F06FFB14F8011B484801F0B2FC78
:10470000A045F8D1424801F051FD30460DF5BC5DA1
:1047100005B0BDE8F08F424800F05CFB30460DF577
:10472000BC5D05B0BDE8F08F01463E4801F09AFC43
:10473000002DF0D02B68D3F80C802F4B984540F01B
:10474000B18005F58059D9F810002C4B0268D2F8D9
:104750003880984540F0AF803B882A4823812D4B14
:104760000A21C4E900032046FBF738FF4AF6ED535F
:10477000E38140F60F234FF01208C4F80A002382A9
:104780002746A044686817F9011B03681B6998470E
:10479000B845F7D199F82030002B3FF453AF0222EF
:1047A00043F201011C4800F015FB14F8011B1B48E3
:1047B00001F058FC4445F8D1A4E740F2827243F27C
:1047C0000101154800F006FB14F8011B134801F025
:1047D00049FCA045F8D10E4801F0E8FC95E71248E5
:1047E00001F0E4FC2EE700BF2C0000203402002082
:1047F0002800002000000020D933000065330000AD
:1048000001308207BEBAAD1B6898000074910000A9
:104810007C9A000001300200288A0000508A0000C3
:10482000CC95000030980000E897000040F28274B8
:104830002846002243F20101043B0094B84701E7F7
:1048400040F2827A43F201074FF480522146CDE9CB
:10485000007A043BC047804600287FF4E4AE99F814
:104860002030002B3FF4EEAE52463946194800F096
:10487000B1FA47E702240022284643F2010103ABC4
:104880000094B847DEE64FF0020A43F201074FF406
:1048900080522146CDE9007A03ABC047804600280C
:1048A000DDD014E702240022284643F2010102ABC6
:1048B0000094C047C6E64FF0020A43F201074FF4E6
:1048C00080522146CDE9007A02ABC04780460028DD
:1048D000C5D055E7288A00002DE9F047B848ADF566
:1048E000BC5D006884B056B2002800F09D81894606
:1048F0001D46002900F09780012A40F29480098823
:104900000DF5F264A4F5F167B1F5707F396000F23E
:104910000F81023A8B18B3F5707F88BFC1F57072B2
:10492000A4F284773A60A74801F09CFBA4F5F162F9
:1049300012683B6813449A4227D29046A24B02EB7E
:104940004207DFF888A21F443B78052B03EB830363
:104950004FEA431340F2BE8041469D4801F082FB7E
:10496000BB787A789B4817F8031B01F07BFB9A48C9
:1049700001F01CFCA4F5F1631A68A4F284731B68AF
:1049800008F1010813449845DED3002D00F0C780DC
:104990002A68924BD7689F4240F06E8105F5805996
:1049A000D9F810008E4B0268D2F83880984540F054
:1049B0006C818C498C4B2046C4E90013A4F28473AB
:1049C0001B880A212381FBF709FE4AF6ED53E38198
:1049D00040F60F234FF01208C4F80A00238227463E
:1049E000A044686817F9011B03681B699847B8451C
:1049F000F7D199F82030002B66D0022243F206014D
:104A00007A4800F0E7F914F8011B794801F02AFB15
:104A1000A045F8D1704801F0C9FB30460DF5BC5DEA
:104A200004B0BDE8F0870021684B0DF5F26418680A
:104A3000A4F2847204AB118004389A1E03F2BE3CC7
:104A400050F8041F02F8011B9445F9D1002D66D0DF
:104A50002A68D768614A974240F0EA8005F5805994
:104A6000D9F810005E4A0168D1F83880904540F0CE
:104A7000E980191F5B4A5F4B0DF5F360C4E9002321
:104A800040F2C23201F09BFD40F2CA312046FBF7F2
:104A9000A5FD4AF6ED53A4F8CE3340F60F2340F2BD
:104AA000D238C4F8CA03A4F8D0332746A0446868B3
:104AB00017F9011B03681B699847B845F7D199F8A6
:104AC0002030002B40F09E8030460DF5BC5D04B0D8
:104AD000BDE8F0877978DAF8000001EB810103EB9B
:104AE000C103B97803370B4408F102018A1A19F897
:104AF000022050F82310114340F8231041463E484D
:104B000001F0B0FAA4F5F1631A68A4F284731B688B
:104B100008F10108134443453FF616AF35E737481F
:104B200000F058F930460DF5BC5D04B0BDE8F087E3
:104B3000334801F097FA002DF1D02B68D3F80C80A0
:104B4000264B984540F0B08005F58059D9F8100003
:104B5000234B0268D2F83880984540F0AE803B88FD
:104B600020482381204B0A21C4E900032046FBF79B
:104B700035FD4AF6ED53E38140F60F234FF012085E
:104B8000C4F80A0023822746A044686817F9011B6D
:104B900003681B699847B845F7D199F82030002B76
:104BA00092D0022243F20601104800F013F914F8E3
:104BB000011B0F4801F056FA4445F8D12AE700BF1F
:104BC0002C00002030990000340200202800002032
:104BD0006C990000749100007C9A0000D9330000A9
:104BE00065330000BEBAAD1B06300200288A000003
:104BF000508A00000630C203BC990000CC9500002A
:104C0000FC98000040F2C23243F20601324800F044
:104C1000E1F814F8011B314801F024FAA045F8D15D
:104C20002F4801F0C3FAF8E62E4801F0BFFA4BE72F
:104C300040F2C2342846002243F20601043B0094AD
:104C4000B84741E740F2C23A43F206074FF48052B8
:104C50002146CDE9007A043BC047804600287FF416
:104C600024AF99F82030002B3FF42EAF524639463E
:104C7000194800F0AFF8CDE602240022284643F29E
:104C8000060103AB0094B8471EE74FF0020A43F257
:104C900006074FF480522146CDE9007A03ABC047A6
:104CA00080460028DDD09AE602240022284643F2FE
:104CB000060102AB0094C04706E74FF0020A43F238
:104CC00006074FF480522146CDE9007A02ABC04777
:104CD00080460028C5D056E7288A0000508A000088
:104CE0007C9A0000BC980000002130B52F4BA3F146
:104CF0000C0203F5346043F8041C43E903110C3340
:104D00009842F8D10020012503460146864602F567
:104D1000346C10E0D01C844533D0D17006329445F9
:104D2000437080F802E02CD002201170537095700F
:104D30000332944525D0441C9070E0B228281170AD
:104D40005370F5D10133DBB2032BE3D90131C9B282
:104D5000052902F1030315D89C4512D0D170063203
:104D6000944583F801E083F802E00AD0117082F8DC
:104D700001E09570033294454FF002004FF00003BC
:104D8000D9D130BD9C45FCD082F803E00632944571
:104D900083F801E083F802E0F3D0002302201946F3
:104DA00082F800E082F801E09570C1E7400200203F
:104DB00069B170B5164642B1531E4C1ECD1814F998
:104DC000010F00F007FCAC42F9D1304670BD084637
:104DD000704700BF0FB400B583B004AB53F8042B89
:104DE000002104480193FDF72FFA03B05DF804EBAE
:104DF00004B07047B14D0000704700BF042A12D0C4
:104E000010B4A2F1040C094C002202E00132624508
:104E100006D08858A042F9D1012010BC1A60704712
:104E2000002010BC70470020704700BFBEBAAD1B09
:104E3000043A04488958814206BF01201A600020C4
:104E4000704700BFEDAD0F0A08207047082070477B
:104E5000082070474FF6FF70704700BF0020704772
:104E600000200021704700BF03F1080090429ABF64
:104E7000C918C8880020704703F1080090429ABF03
:104E8000C918888800200021704700BF03F108007E
:104E9000904207D819448888019BC01AB0FA80F064
:104EA0004009704700207047704700BF704700BF3F
:104EB000806818B10078C04300F00100704700BF5F
:104EC000C36863B1026962B100201968136882B0D7
:104ED000019001910193019840B202B070471846C9
:104EE00070471046704700BF704700BF704700BF53
:104EF00001207047704700BF704700BF704700BF78
:104F000038B5146801B12CB92146BDE838400D48C8
:104F1000FFF760BF0C480D4601F0A4F8202C214695
:104F200028BF202101396C1E0D4414F8011F0748C9
:104F300001F098F8AC42F8D1BDE83840044801F0DF
:104F400035B900BFEC9900001C9A0000508A00009F
:104F50007C9A000010B50C4611680CB1072904D8E2
:104F6000BDE81040084801F07DB8084801F07AF823
:104F7000E388A2882168064801F074F8BDE8104073
:104F8000044801F013B900BF4C9A0000809A000059
:104F9000AC9A00007C9A000038B50C4603F1100171
:104FA000914212D8E018C18801EB030C0CF11005F6
:104FB00095420AD8E2580A4B9A4206D10CF10805EC
:104FC00063195A68074B9A4201D0002038BD083156
:104FD000FBF704FB6359181AB0FA80F0400938BD9A
:104FE000BEBAAD1BEDAD0F0A10B50446042102F0A8
:104FF000F5FF204610BD00BF10B50446042102F0A5
:10500000EDFF204610BD00BF10B504461C2102F084
:10501000E5FF204610BD00BF10B5044641F238013F
:1050200002F0DCFF204610BD00222DE9F04F0446BF
:1050300000F5805587B082602869994B026804F1B9
:105040000C06D768AA899F4208D1131F9549F758C3
:105050008F4200F0AB8007B0BDE8F08F314604F11D
:105060000803B8470028F6D02869AA890168DFF844
:1050700038C20F6A6B6A674540F09A8003F10807EF
:10508000974234D8F718FF8802974F6A87498F42B2
:1050900033D103F11001914211D8F018C188CF1813
:1050A00007F1100C94450AD8F258814B9A4206D168
:1050B0000837F3195A687B4B9A4200F0428195F801
:1050C0002030002B40F0E880E869AA890368314667
:1050D0009B68059205AA9847002304F5815485F83A
:1050E0002130AB81C4E9013307B0BDE8F08F002760
:1050F00002974F6A6D498F42CBD0A168009131462B
:10510000B8470028DBD041F2300704EB070A54F817
:105110000790DAF804806A6AB8F1FF3F08BFB9F176
:10512000FF3F4ED02869634B0168D4F808C0D1F81E
:1051300028B09B4540F0F580CF6ADFF87CB15F4531
:1051400040F00B8100200146414508BF484538D05A
:1051500095F820308BB1DAE9008928690368DF6AA5
:105160005F4540F0048100200146424600904B46D6
:1051700052480191FFF72EFE6A6AE8690368DE680B
:10518000A3689B1A0C32A118059305AAB047E869D9
:10519000696A03681E69A3685B1A0593484B9E42BF
:1051A0009AD00C31214405AAB04795E7A3605DE78A
:1051B0003146B8470346286902930168AA896B6A99
:1051C00063E72869DFF8FC800168B5F80CC00F6B55
:1051D000474540F0818002F108039C4537D306EB38
:1051E000020EBEF80470D1F83490DFF8DCA007F0AE
:1051F0000F076B6907EB4707BF00D14553F807B0AE
:10520000A3682ED1BEF804C0DC4535D095F8201037
:1052100099B1286901680F6B474540F0A38003F1FD
:105220000801914278D8F21800239288A96927488A
:105230000091FFF7CFFD6A6AA368E8699B1A0C32F8
:10524000A1180268D668059305AAB0479FE7D1F870
:1052500034901D49A3688945D8D000276969D1F8E1
:1052600000B0CDE9003B314613466246C8476A6A42
:10527000002854D0286901688B6915498B4268D190
:1052800008200C32111868692346C619029AC059C1
:10529000B6682144B0477AE70E48FFF79BFD13E755
:1052A000314E0000EDAD0F0A694E0000994F00002D
:1052B000BEBAAD1B5D4E0000614E0000309B000089
:1052C000A94E0000794E00008D4E0000F89A0000B3
:1052D000514E0000989B0000134631466246B84785
:1052E00000F00F0000EB40008700D5E904030168DF
:1052F000DFF884E0D1F8349053F807B0F145B5F801
:105300000CC06A6AA368ACD102F1080EE6453FF60C
:105310007DAF06EB020E75E70022134686E7A36811
:1053200074E763463146D8476A6A00287FF449AF7C
:10533000286954F80790DAF804800168D4F808C0A6
:10534000FAE60831FBF74AF9F35998427FF4B7AE11
:10535000D9E603929847039A93E763463146B847E4
:105360006A6AF1E63146B84702460B465EE73146C7
:10537000A368B847F9E600BF8D4E000000232DE971
:10538000F04F044689B0406805930368874A9B68DC
:10539000934240F0A6808368002B00F09D801E7829
:1053A000F64306F00106002E00F096806068804A01
:1053B0000368DB68934240F0BD80C3685BB102695B
:1053C000002A00F0D9800020196813680690069121
:1053D0000693069B5BB204F58057BA89B2F5805FED
:1053E0004BD2013292B2A118DFF8C8A1BA81CB72B8
:1053F000386997F8213015460268002B00F0D180FB
:10540000DFF8B481D2F820B0DFF8B0C1D8F80030AE
:10541000E345D3F8989004F10C017B6A40F0A58035
:1054200003F1080CAC4500F28E800B44B3F806B0D3
:105430001369534540F0938008275369604A9342AB
:1054400040F08A80082307EB0B001844A8426DD96E
:105450000427D8F800302568D3F898300097A3EBDC
:10546000090320460593002243F20201EC6805ABD4
:10547000A047304609B0BDE8F08F97F8203004F11E
:105480000C05002B62D1F8692946036807925B6915
:1054900007AA9847002104F581532846B9814FF4A3
:1054A0008052C3E9011187F8211000F0A4FF97F89A
:1054B00020503869C5B10368DFF8F8A01A69524571
:1054C00061D108215B693E4A934257D108223D4889
:1054D000FFF780FCBA898BE70026304609B0BDE8AB
:1054E000F08F984706465EE7036832491B698B4296
:1054F000BFD09847A842BCD83869BA8903689D686C
:10550000314B9D4244D1042AA2F10400B1D00023C2
:105510002E4902E001338342ABD0E218D2688A42BE
:10552000F8D17B62012387F82130A2E72046FFF7FC
:105530007BFD8DE7984704F58057BA890346B2F59D
:10554000805F9AD24DE74FF0000B71E72946204863
:10555000FFF740FCBA8996E79847034673E79847F8
:10556000034638691F46026867E72A46D8478346DC
:105570003869BD8902685BE713462CE703919847B9
:1055800003990246A3E7904701463869036899E703
:1055900004F58153043304F10C01A8470028C1D15C
:1055A00067E713695345A4D10820A3E7B14E000073
:1055B000C14E0000494E00002C000020694E000042
:1055C0004D4E0000209C0000FD4D0000BEBAAD1BFA
:1055D000C89B0000024B5B690BB142B21A60704776
:1055E000583E002000242DE98048DFF870829C4F4F
:1055F000DFF870B2DFF870928BB008F5805607F5CF
:105600008055D8F80400079403689B685B4540F018
:1056100088818368002B66D01878C04300F00100B1
:10562000002860D0D8F80400904A0368DB689342F1
:1056300040F0BD81C368002B00F0FF81006930B1EC
:1056400019680368069406910693069840B2B389D8
:10565000B3F5805F80F0B8805A1C92B208EB020369
:10566000D872306996F82130B2810168002B00F0C1
:105670008D81D9F80030D1F820A0DFF8F4C1D3F83B
:105680009830E2450393736A40F0D98103F1080C26
:10569000944500F2A881DFF8DCC16344B3F806A0AA
:1056A0000B69DFF8D4C1634540F0A5814969DFF893
:1056B000CCC10823614540F0AA8108209A44824465
:1056C000924540F26A810422D9F800300399D3F858
:1056D000983062485B1A0793009243F2020100225D
:1056E00007ABFDF779FE7868079403689B685B4514
:1056F00040F015818368002B83D01878C04300F0F8
:10570000010000283FF47DAF7868584A0368DB68E1
:10571000934240F04A81C368002B00F08C810069FD
:1057200030B119680368089408910893089840B24A
:10573000AB89B3F5805F80F0AB805A1C92B2BB1886
:10574000D872286995F82130AA810168002B00F0F1
:105750000181D9F80030D1F820A0DFF814C1D3F8C6
:105760009830E24503936B6A40F0708103F1080CB6
:10577000944500F21E81DFF808C16344B3F806A027
:105780000B69DFF8F4C0634540F01B814969DFF81D
:10579000ECC00823614540F0208108209A448244EF
:1057A000924540F2FE800422D9F800300399D3F8E4
:1057B00098302B485B1A0793009243F202010022B3
:1057C00007ABFDF709FE1CE796F82020002A40F001
:1057D0002481F06909AA0168D1F814A02549099328
:1057E000D047284B4FF4805200212248C3E901449E
:1057F000B48186F8214000F0FEFD306996F8202043
:105800000368002A40F0AC801B691B498B423FF4BF
:105810006AAF03929847039A90423FF664AF3069AB
:10582000B2890368D3F808A0174B9A4540F030813D
:10583000042AA2F104013FF456AF002303E0013330
:1058400099423FF450AF0B4A1048D2588242F6D1E9
:105850007362012386F8213045E700BF780D0020F0
:10586000E82D0020B14E00002C000020C14E0000A9
:10587000694E0000840D0020494E00004D4E00008E
:10588000F42D0020981D0020FD4D0000BEBAAD1B78
:1058900095F82020002A40F0C780E86909AA01682D
:1058A000D1F814A07E490993D0477E4B4FF4805223
:1058B00000217B48C3E90144AC8185F8214000F018
:1058C0009AFD286995F82020036862BB1B69764918
:1058D0008B423FF496AE03929847039A90423FF66C
:1058E00090AE2869AA890368D3F808A06F4B9A453F
:1058F00040F0C780042AA2F104013FF482AE0023E5
:1059000003E001338B423FF47CAE654A6848D258CD
:105910008242F6D16B62012385F8213071E6984707
:10592000EFE698477CE61A695F498A4240F09A8020
:1059300008215B695F4A934240F08F8008225E48ED
:10594000FFF748FA286995F82130AA890168002BE9
:105950007FF4FFAE0B6954498B42BCD10820BDE7F0
:105960001A6951498A4240F0878008215B69514A8F
:1059700093427CD108225048FFF72CFA306996F800
:105980002130B2890168002B7FF473AE0B69464960
:105990008B427FF43EAF08203EE74848FFF744FBC8
:1059A00091E64748FFF740FBFDE69847C0E6984779
:1059B0004DE60B69DFF8F0C04FF0000A63453FF495
:1059C000E5AE0492984703462869DFF8E8C001680D
:1059D000049A496961453FF4E0AECDE90432884755
:1059E000DDE90432DAE60B69DFF8BCC04FF0000AEB
:1059F00063453FF45BAE0492984703463069DFF895
:105A0000B4C00168049A496961453FF456AECDE9D6
:105A100004328847DDE9043250E61A4629492A480B
:105A2000FFF7D8F9B389D4E61A461D492648FFF78F
:105A3000D1F9AB8931E718467AE6184607E62149DD
:105A4000D04782463069B289016829E61449D047B7
:105A500082462869AA89016892E6039198470399CA
:105A600002466CE7904701462869036861E70391A5
:105A70009847039902467EE79047014630690368DC
:105A800074E7124B0649D04700287FF444AFB8E5CD
:105A90000F4B0C49D04700287FF4DBAE23E600BF54
:105AA000F42D0020083E0020494E0000FD4D00006E
:105AB000BEBAAD1B4D4E0000209C0000780D0020AA
:105AC000E82D0020840D0020C89B00000C3E002023
:105AD0009C1D00202DE9F84F21247E204FF0400E20
