:1000000000000120910100007F030000F1040000C6
:100010008303000003050000150500000000000038
:100020000000000000000000000000008903000044
:100030008B030000000000008D0300008F03000010
:100040009103000093030000950300009703000054
:10005000990300009B0300009D0300009F03000024
:10006000A1030000A3030000A5030000A7030000F4
:10007000A9030000AB030000AD030000AF030000C4
:10008000B1030000B3030000B5030000B703000094
:10009000B9030000BB030000BD030000BF03000064
:1000A000C1030000C3030000C5030000C703000034
:1000B000C9030000CB030000CD030000CF03000004
:1000C000D1030000D3030000D5030000D7030000D4
:1000D000D9030000DB030000DD030000DF030000A4
:1000E000E1030000E3030000E5030000E703000074
:1000F000E9030000EB030000ED030000EF03000044
:10010000F1030000F3030000F5030000F703000013
:10011000F9030000FB030000FD030000FF030000E3
:1001200001040000030400000504000007040000AF
:10013000090400000B0400000D0400000F0400007F
:10014000110400001304000015040000170400004F
:10015000190400001B0400001D0400001F0400001F
:1001600021040000230400002504000027040000EF
:10017000290400002B0400002D0400002F040000BF
:100180003104000033040000000000000000000003
:100190004FF0000BDFF8BE020068DFF8B612096806
:1001A00001F0030100F01C00142801D14BF0020BF8
:1001B000002901D04BF0010BBBF1000F05D0A7487F
:1001C000A749DFF8722200F09FF8A64880470BF09D
:1001D000020ABAF1000F0CD0DFF86E02DFF86E12DF
:1001E00002680B680FB44FF000024FF0FF0302608B
:1001F0000B609D484FF000024FF00103022808D128
:10020000DFF83A120A60DFF83E120A60DFF83212B5
:100210000B60012808D1DFF82A120A60DFF82612E5
:100220000A60DFF81A120B609048002809D1904844
:100230009049914A00F030F890489149914A00F075
:100240002BF891489149924A00F026F8914892493A
:10025000DFF8E22100F058F8BBF1000F10D08F4812
:100260008F49DFF8D62100F04FF80BF0020ABAF1FF
:10027000000F05D00FBC02600B6000BFAFF3008021
:10028000DFF820020FF2030E00474FF000004FF09E
:100290000001DFF814F2FEE72DE9F841884225D08D
:1002A000B2EB010200D5FEE740EA010313F00303BD
:1002B00002D000F01DF819E04FF000039046121133
:1002C000F7D09A421CBFF0C8F0C103F10103F8D186
:1002D00008F00F08B8F1000F08D004780C7000F196
:1002E000010001F10101B8F10108F6D1BDE8F88182
:1002F00008B54FF0000303780B7000F1010001F125
:100300000101013AF7D108BD884237D000F0030659
:10031000002E14D04FF00405A5EB06044FF008079B
:1003200007FB06F8914669FA08F9002C07D080F817
:10033000009069FA07F900F10100013CF5E74FF080
:1003400000060F46091A88460911914614461546BB
:10035000B14206D018BFA0E8340206F10106B1424E
:10036000F8D108F00F08B8F1000F07D002704FEA7B
:10037000322200F10100B8F10108F4E77047FEE70E
:10038000FEE7FEE7FEE7FEE7FEE7FEE7FEE7FEE745
:10039000FEE7FEE7FEE7FEE7FEE7FEE7FEE7FEE735
:1003A000FEE7FEE7FEE7FEE7FEE7FEE7FEE7FEE725
:1003B000FEE7FEE7FEE7FEE7FEE7FEE7FEE7FEE715
:1003C000FEE7FEE7FEE7FEE7FEE7FEE7FEE7FEE705
:1003D000FEE7FEE7FEE7FEE7FEE7FEE7FEE7FEE7F5
:1003E000FEE7FEE7FEE7FEE7FEE7FEE7FEE7FEE7E5
:1003F000FEE7FEE7FEE7FEE7FEE7FEE7FEE7FEE7D5
:10040000FEE7FEE7FEE7FEE7FEE7FEE7FEE7FEE7C4
:10041000FEE7FEE7FEE7FEE7FEE7FEE7FEE7FEE7B4
:10042000FEE7FEE7FEE7FEE7FEE7FEE7FEE7FEE7A4
:10043000FEE7FEE7704700000000A2A2A2A2008033
:100440000340088003401080034030800340348024
:1004500003403880034018080240000000F00020EC
:10046000000001202D050000000000000000000039
:10047000000000000000000090010000B004000037
:10048000B004000048B2000050B20000000000209C
:1004900080000020800000203057002030570020CE
:1004A00000F00020955F000075540000000000007F
:1004B00010B5054C237833B9044B13B10448AFF39E
:1004C00000800123237010BD800000200000000088
:1004D00004B2000008B5034B1BB103490348AFF356
:1004E000008008BD000000008400002004B200006D
:1004F0001EF0040F0CBFEFF30880EFF3098004F047
:100500001DBD1EF0040F0CBFEFF30880EFF3098050
:1005100004F014BD1EF0040F0CBFEFF30880EFF3DE
:10052000098004F00BBD0138FDD170474FF602027F
:100530000B4BD3F84C1191420BD1D3F8982042F4D5
:100540008072C3F89820D3F8982022F08062C3F814
:100550009820044A536943F400735361FFF76ABF5C
:100560000080034000ED00E04FF0FF307047FEE7F1
:100570004FF4005300204B6070470120704701206A
:10058000704708B505F000FD162303604FF0FF30FB
:1005900008BD002070470020704700207047000011
:1005A0000A4A0346116809B9094911601068EFF356
:1005B00008818842034402D2994204D2FEE70549E9
:1005C0008B4200D9FEE71360704700BF9C000020FB
:1005D0003057002000F0002038B50446074B084A89
:1005E000D3E90005A0FB0401002304FB051107F07B
:1005F00087FABDE838400130FFF795BF18000020AA
:1006000040420F004FF47A735843FFF7E5BF0000F4
:100610004FF0FF3310B5074C0144884201D1D84355
:1006200010BD10F8012B82EA136254F8222082EAEE
:100630000323F2E7F07D000008B52B4804F026FC08
:100640002A4B2B48196804F021FC2A4B2A481968C8
:1006500004F01CFC294B2A48196804F017FC294BAC
:100660002948196804F012FC284B2948196804F03D
:100670000DFC284B2848196804F008FC274B284833
:10068000196804F003FC274B2748196804F0FEFBA7
:10069000264B2748196804F0F9FB264B26481968B1
:1006A00004F0F4FB254B2648196804F0EFFB254BBA
:1006B0002548196804F0EAFB244B2548196804F022
:1006C000E5FB244B2448196804F0E0FB6946234805
:1006D00004F0DCFB224B2348196804F0D7FBBDE88B
:1006E0000840214804F0D2BBF08100000000000067
:1006F000058200009001000024820000B004000088
:100700003D82000048B200005482000040B2000068
:100710006582000048B200007D82000000000020D9
:100720009382000080000020AA8200008000002048
:10073000BB82000030570020D382000030570020D9
:10074000E382000000F00020FC82000000F00020A6
:100750000D83000000000120278300003983000082
:1007600030570020848200007DA6000038B5154671
:100770000A46014618681C46A8472060B0FA80F077
:100780004009404238BD2DE9F04105460C46164669
:100790001F4614B92046BDE8F081102CA04628BFA2
:1007A0004FF010083B46324641462846FFF7DEFF31
:1007B000002802DBA4EB0804EBE74FF0FF30EAE788
:1007C0002DE9F84F0546DDE90ABADDE90D980E4638
:1007D0001F461446F2B94FBBBAF1000F33D109EBF3
:1007E0000807B9F1000F07D033462A4649460C984E
:1007F000FFF7BCFF002815DB5744B8F1000F07D006
:1008000033462A4641461448FFF7BDFF002809DB5E
:10081000E01909E00B46024621460F48FFF7B3FFF7
:100820000028D8DA4FF0FF30BDE8F88FBBF1000F99
:10083000D2D033462A4659463846FFF797FF00285C
:10084000F0DB5C44C8E733462A4651460348FFF7CD
:100850009AFF0028C3DAE5E7CDAE0000BCAE000089
:100860002DE9F84F0D461E4640F2FF73C5F30A54BA
:100870009C429246C1F313014FEAD57577D050EAF6
:1008800001032DD124B33B4A3B4B0F0347EA1057DA
:1008900019464FEA003C394B1046394A5CEA070ECC
:1008A0002CD1A4F2FF39C8460027DFF8D8B0B8F140
:1008B000000F33DC40F2FF330A229C42ACBF1B1B0B
:1008C000DB1A3C469944304F304BB9F1000F39D117
:1008D000CAF800500A9BC6E900011C60BDE8F88F09
:1008E000002CD0D1012402E01C46001849410A0323
:1008F00004F1FF33F8D500221346C6E7002F02DAD1
:10090000181841EB02011CEB0C0C7F41013342F142
:1009100000025B0843EAC2735208BFE71C4B001891
:10092000494183427BEB010309D205304FF00A02B3
:100930004FF0000341F1000107F0E2F8013708F140
:10094000FF38B4E7874273EB010C21BF02FB01FCC7
:10095000A0FB020104F1FF346144013041F10001C8
:10096000400840EAC17009F101094908ADE76FF09C
:100970000044ADE70080C6A47E8D030000406352B2
:10098000BFC60100F2862300FFFF8C49FD1A070055
:10099000FFFFC06F30B584688C4294BF0021611A9C
:1009A000446814F0040516BF084628460021640672
:1009B00007D50844002D14BF0446441C6108A0EB71
:1009C00054001160186030BD2DE9F04F9DB0CDE9A5
:1009D0000D23DDE928760023CDE909010A9ACDE946
:1009E000163322F02008B8F1470F26992A9CC268D6
:1009F0008DF853301ED14368251D23F0200343603A
:100A00000A9B01DB94420DDB672B40F06282652379
:100A10004FF000080A93002A4FF0010380F2C780CC
:100A2000109310E0672B40F0568266234FF00108C8
:100A30000A93F0E7A8F14600D0F1000848EB00085F
:100A4000002A109302DA0623099AD360099B5B6897
:100A50000C93002940F0B2809A0700F1B180834ADC
:100A600013F0010F824B08BF13461293129805F042
:100A7000D0FA099B1390D3F80CA00C9B13F020051F
:100A800000F0A080032394FBF3F303EB4303E31A8A
:100A900048BF0333B8F1000F00F09B8084EAE47292
:100AA000A2EBE472182A01DD183A134453440133CF
:100AB00023EAE3736F4870491193119B013B119333
:100AC000013340F08C8010EB070B41EB06030793DA
:100AD0006A4B079A5B456A4B93410DD207991BF10C
:100AE00005004FF00A024FF0000341F1000107F04A
:100AF00007F8834607910134079B5BEA030379D02B
:100B00000A2200235846079906F0FAFF1A434FF0CD
:100B1000100308930DD1089B5846013B0799089391
:100B20000A22002306F0ECFF089B83460791002B66
:100B30005AD1B8F1000F65D05DB10823022C5CDDFD
:100B40000133033C5A1E0E2AF8D94E4AD35C8DF865
:100B5000533044EAE4750135089B5F1B27EAE777C9
:100B60005745A8BF5746B8F1000F02D0109B002B85
:100B700067D1139BE9183944B8F1000F00F0888061
:100B8000002D64D14FF0010901310F95661C6BDA1D
:100B9000BAF1000F68DDE643564528BF564631449A
:100BA0009DF953300BB1002301310B9381E002D04A
:100BB000012310934AE7099AD360F9E7324B54E7CF
:100BC000324B52E7B8F1000F07D1002CACBF2346DF
:100BD000631C002BB8BF5B4268E7234666E70A2226
:100BE000002306F08DFF68E70A22002306F088FF45
:100BF0001A438FE7002308939BE7002CA5DA013BFB
:100C000003349FE755B1032394FBF3F303EB430352
:100C1000E31A48BF03335D1CE41A9DE701259BE7F7
:100C20000A220023013E06F06BFFB145F8DB002FDE
:100C30009FDD0A22002306F063FF1A4399D1013F8A
:100C4000F5E75846089E079905EB0709EDE7089B6D
:100C5000AB42AFBF4FF00009EB1A4FF000090F9302
:100C6000A8BFCDF83C9091E7002699E7328F0000AD
:100C70001AAE00000080E03779C31100FFFFC06F9B
:100C8000F286230082AE000058AE000051830000BF
:100C900043460A2284EAE476A6EBE476002E40F08E
:100CA000E680022B38BF0223B14602310B93194470
:100CB0000F96BB19534580F0DE80109B1BB10C9B37
:100CC000180740F1E280AAEB0708A8EB060856EAED
:100CD0000803414408D1002F04DC0C9B13F00808E2
:100CE00000F0D7804FF0000801230131109317ABBB
:100CF00016AA0998FFF74EFE0C9BDA0641BF169B19
:100D00009944002316937DB158460F9B0799ED1A1D
:100D1000089BA3EB050ABAF1000F00F3BD80AA46B9
:100D2000BAF1010A80F0BF80DDE90D014FF0000A41
:100D300018ABCDE90193139BCDE9035A0093169AA2
:100D4000129BFFF73DFDB0F1FF3F814600F08B8025
:100D5000DDE90D010F9B5246CDE900A3CDE903AAC1
:100D60005346CDF808A0FFF72BFD431C7BD08144F0
:100D7000DFB1089B5D1BED1B0A2200235846079933
:100D800006F0BEFE002D00F397807D1E0DF1600A77
:100D9000584607990A22002306F0B2FE303205F8C1
:100DA0000A20013D83460791F2D2DDE90D014FF0A3
:100DB000000A109B18ADCDE9016500935246CDE9BC
:100DC000037A464BFFF7FCFC461C4CD05346524678
:100DD000CDE903AACDE9018A09EB0006CDF800A010
:100DE000DDE90D01FFF7ECFC411C3CD00B9B0644F8
:100DF00013B30A9A54458DF85420ACBF2B222D22F0
:100E00000A2184EAE4738DF855200B9AA3EBE4736E
:100E1000002A55DCDDE90D010B9B002223EAE37378
:100E2000CDE90253022304920192009315ABFFF720
:100E3000C7FC421C17D00644179BDDE90D01049343
:100E40009DF95330003B18BF012303930DF1530369
:100E5000029300231A46CDE90033FFF7B1FC431C8F
:100E600001D03318119311981DB0BDE8F08FB6FB77
:100E7000F2F6013312E7B8F1000F06D0534504D95A
:100E80005144C91AA3EB0A03FF1A002E7FF42AAFBC
:100E900021E7CDF840802AE70A22002306F030FE41
:100EA0000AF1FF3A37E70A22002306F029FE18ABC1
:100EB000303203F80A2033E78346013D07915BE7B0
:100EC000B3FBF1F001FB1033013A3033AB5403466E
:100ED0009EE745239CE54623A8E500BFA1900000BE
:100EE0002DE9F04FBFB006464FF0000810460B91B9
:100EF0000D93002A00F0D080CDF8488090F90030A2
:100F0000002B00F0938403461D4613F9012B0AB110
:100F1000252AF9D12C1A0AD0324621460BABFFF70D
:100F200025FC0028C0F2B880129B2344129395F947
:100F30000030002B00F077840027DFF87C92DFF888
:100F40007CA201352C4614F901BB1397BBF1000FAD
:100F500069D05946984804F05BFF50B9BBF12A0F9D
:100F600061D10D9B1A1D0D921B68002B08DB149399
:100F70000BE0A0EB09005AF8203025461F43E1E7BB
:100F80005B4247F0040714931397149BB3F5FA7F61
:100F900000F3828094F900302E2B5ED04FF0FF33A7
:100FA000159394F900303A2B00F0868000231693B5
:100FB00010230021CDE91A3394F90030CDE918113E
:100FC0005B2B40F0A980631C189393F900101A461C
:100FD0000133002960D05D29F7D1121B1C46013A6C
:100FE000199294F900503DB12946754804F010FF5C
:100FF000002800F0DF8001348DF85C504DB194F989
:10100000003033B19D4202BF45F001058DF85C50C0
:10101000013494F90050002D40F0D6800D9B1A1D2C
:101020000D9218686AE700220A2713466548149251
:1010300095F900102C46013511B9002A97D1A4E783
:1010400010F801C01CF0040FF7D0B3F5FA7FF4DA02
:1010500007FB03130122303BEAE794F901302A2B06
:1010600009D10D9B1A1D0D921B68B3F5FA7F1593DC
:1010700012DC023495E700230A271A46514D1593D6
:10108000601C90F900100446013041B9002B88D053
:10109000B2F5FA7F159284DD4FF0FF30C7E315F803
:1010A00001C01CF0040FF1D0B2F5FA7FEEDA07FBB5
:1010B00002120123303AE4E794F901302A2B0CD1D3
:1010C0000D9B1A1D0D921B68002B04DB242BE3DC07
:1010D000169302346CE70023FAE700230A271A4626
:1010E000384D1693601C90F900100446013039B950
:1010F000002B3FF45DAF242A16927FF759AFCBE760
:1011000015F801C01CF0040FF2D0232AF0DC07FB15
:1011100002120123303AE6E77B2B7FF462AF94F9A9
:1011200001302A2B11D00A252648621C144612F9D8
:10113000013B002BB0D0C75C7F070BD51F2909D816
:1011400005FB0133A3F13001F0E70D9B02341A1DBA
:101150000D92196820299FD894F900302E2B9BD12D
:1011600094F901302A2B14D000230A27154D601C56
:10117000044610F9012B002A8ED015F802C01CF08D
:10118000040F0BD01F2B09D807FB0322A2F1300359
:10119000EEE70D9B02341A1D0D921B68202B04F103
:1011A00001043FF679AFCA181F2A3FF675AFCDE9A3
:1011B0001A1316E705461FE7B4AE000094AE000010
:1011C0006A830000F5B00000432D2FD1631C079304
:1011D00094F90130002B3FF45FAF732D8DF85D3033
:1011E0008DF8335008DC622D23DC432D00F0D280D3
:1011F00048DC252D00F0BD809DF93320642A22F0C3
:10120000200402D0492C40F07981139B492C23F013
:10121000080343F08003139340F01B8316990029C1
:1012200008BF0A21552A00F06D81A4E1002307942C
:10123000D3E7A5F16303102BDED801A252F823F007
:101240008B130000F91100008F1200008F120000B4
:101250008F120000F9110000F9110000F9110000CF
:1012600039140000F9110000F911000023130000E7
:10127000F9110000E3140000F9110000F911000059
:10128000CB130000A5F14503DBB2022BB4D89DF9C6
:101290005C304C2B3FF400AF0D990EAA073121F0C2
:1012A000070101F108030D930FAB0093D1E9000191
:1012B0001CABFFF7D5FA6FF000420F9B0E999342DB
:1012C00040F0AC80DDE91C32134319BF9E4F9F4BA9
:1012D0009F4FA04B653DEDB2022D98BF1F460029E0
:1012E00040F09880139B9A0700F1968013F0010F4D
:1012F000994B9A4C18BF1C46204604F08AFE11AB4D
:101300000546C11C10AA12A8FFF744FB119B0493C9
:101310000323CDE902730023CDE900532346109A3D
:1013200073E00D9B1A1D0D921B689BB19DF95C101B
:10133000129A74291BDC672919DD68390C2916D823
:10134000DFE801F0070F1115151515151515151501
:1013500015001A800024129B079823441293013031
:10136000CCE51A70F6E71A6000225A60F2E71A60BC
:10137000F0E7324601210BAB0DF13300FFF7F6F930
:101380000028FFF689AE0124E5E70D9B1A1D0D929A
:1013900093F900308DF87030159B0024002BBCBFF2
:1013A00001231593159D012DB8BF0125324601215A
:1013B0000BAB1CA8FFF7DAF90028FFF66DAE01347D
:1013C000A542F3D1002CC6DA66E60D9B1A1D0D92DC
:1013D0001D68634B002D08BF1D46284604F019FE0A
:1013E000159B0446002B02DB984228BF1C461CAB11
:1013F00011AA214612A8FFF7CDFA1C9B119ACDE93C
:1014000003430023CDE90033029530460BA9FFF7D3
:10141000D7F90FE0534C6FE7534C6DE704930091FD
:10142000DDE91C232946CDE9022332460BAB12A885
:10143000FFF7CAFA0446C5E7DDE91A342344D81D8C
:1014400007287FF629AE0D9A111D0D91116889B9F3
:1014500000220023CDE91C2310911191119B6621DC
:101460000493DDE91C23CDE90223109B324600934F
:101470000BABDCE75A1E0123934001EA0302002A6A
:1014800018BF494203F1FF3303EA010314BF0120EF
:1014900000201A464FF0FF31DD17D3B9091BB5F50F
:1014A000801F19D3C1F30A0101F2FF31C5F3130301
:1014B00043EA015323F0004343EAC07308920993BF
:1014C00011AB009310AA1CABDDE90801FFF7C8F9C6
:1014D000C4E75B100131E0E7921845EB05031D46B8
:1014E000DDE758238DF8333000234FF0280C8DF8BA
:1014F0005C300823CDE913C315937DE6582C3FD00B
:10150000752A33D11699002937D10A210023139D5A
:10151000CDE9103315F080079DF95CC00D9B00F0FC
:101520008780BCF1740F7CD030DCBCF16A0F30D006
:10153000BCF16C0F75D0181D0D90BCF1680F1868C8
:1015400071D100B22CE000BF5E8300005A8300001E
:1015500066830000628300001AAE0000328F000034
:101560005383000058AE000051830000552AC9D0B3
:101570006F2A07D00021622A06D00129C6D88BE540
:101580001021F8E70821C1E70221BFE7BCF17A0F7B
:10159000D0E7073323F0070303F108000D90186824
:1015A00080EAE0730028A3EBE073C0F24681AF0746
:1015B00000F14B8115F0010740F049818DF83C7036
:1015C00013986F2A06905AD1002B18BF012706984E
:1015D00010F008000BBF07460FA80A970A900A29C7
:1015E00064D05DD8022900F0A180082900F0BE80F7
:1015F0000024DFF864C20DF1F200002B5BD0B3FBD6
:10160000F1F501FB1535692A1CF9055001D0752A41
:1016100001D145F02005B3FBF1F3013400F8015D81
:10162000EBE7181DBAE7BCF1690F08BF40B2B7E796
:10163000BCF1740F1CD00DDCBCF16A0F0DD0BCF1F5
:101640006C0F15D0181D0D90BCF1680F1B6811D1DF
:101650009BB209E0BCF17A0FF3E7073323F00703ED
:1016600003F108000D901B6830208DF83C00A7E7BF
:10167000181DF7E7BCF1690F08BFDBB2F4E7582C7F
:1016800001D0622AA3D10698800605D542F0200039
:1016900002278DF83D009AE7002B98D01046F7E717
:1016A0001029A5D10F254FF0040C41E000246B4810
:1016B0000DF1F2026BBB199B002B62D0002518992B
:1016C0005A1E1144AE462246C4F1820C002A57D05D
:1016D000002B00F0AF8091F900002D2850D02A286F
:1016E00048D000254FF001098A4611F90109002868
:1016F00075D0DFF86CB11BF800B01BF0040F6ED092
:10170000303809FB00550A20013B00FB09F9EBD1F9
:1017100036E0A0FB0351C90801EB8105A3EB4503AB
:10172000303302F8013D01340B46C3E70125AC46D6
:1017300049F201000024693AD2B2D04040F30000DF
:10174000DFF814910DF1F20100F02000002BB2D06F
:1017500003EA050E19F90EE00F2A98BF4EEA000EB3
:10176000013401F801ED23FA0CF3EFE707254FF000
:10177000030CDDE70D98051D0D950568002D2ADA8F
:101780007346159A12A8002ABABF01221592069A2A
:10179000159DA8BF22F010021D44A8BF1392A542B8
:1017A00038BF254611ABE91910AAFFF7F3F8139BD0
:1017B0002D1BDB0648BF109B009742BFED1800238E
:1017C0001093119BCDE903433EAB1C1B063CCDE9B6
:1017D00001540A9BA3E5013B01F1FF3AD0D05146E9
:1017E000013B11F90189D5B19542C9D21CA8A2EBE0
:1017F000050A00EB0C09504619F901BB013809F83C
:1018000002BCF9D10CF1FF3C6244521BF8326A442D
:1018100002F8888C013452460EF1010E56E7002B77
:101820007FF454AFACE72846FFF768BB12983FB08F
:10183000BDE8F08F002DD7D1A2E72D2045F0080597
:1018400001278DF83C001395BAE62B20F6E72020FF
:10185000F4E70A21E6E400BF5DAE0000CDCCCCCCBD
:10186000F5B00000B0F90030B0F904105A1A002A9F
:10187000B8BF52428B42A8BF0B4603EB620000B2D6
:101880007047000010B50446026843680A4803F038
:10189000FDFAB4F90010094803F0F8FAB4F904109D
:1018A000074803F0F3FA2046FFF7DCFFBDE81040DD
:1018B0000146044803F0EABA718300008A830000FD
:1018C00098830000A7830000F0B5664B85B01A68C6
:1018D0006B46D2F88C00D2F8901003C3D2F8AC005B
:1018E000D2F8B01003C3604803F0D0FA6846FFF79F
:1018F000C9FF5E4803F0CAFA02A8FFF7C3FFBDF9AB
:101900000020BDF90400002A00F0A680051E18BFC3
:101910000125BDF90830BDF90C10002B00F09E80A8
:101920000E1E18BF012640F2DA2492FBF4F7824221
:1019300008BF002504FB172290FBF4F704FB1700F7
:1019400093FBF4F78B4208BF002604FB173391FB8F
:10195000F4F7002AADF80020B8BF121904FB1711E4
:10196000B8BFADF800200028ADF80400BCBF00F2FD
:10197000DA20ADF80400002BADF80830BCBF03F24C
:10198000DA23ADF80830BDF900200029BDF9043094
:10199000ADF80C10BCBF01F2DA21ADF80C10D11A71
:1019A0000029B8BF4942B1F5B77F09DB9A42B5BFFC
:1019B00002F2DA2203F2DA23ADF80020ADF80430A7
:1019C000BDF90820BDF90C30D11A0029B8BF494231
:1019D000B1F5B77F09DB9A42B5BF02F2DA2203F212
:1019E000DA23ADF80820ADF80C30BDF90420BDF9BC
:1019F00000301F489B1A002BB8BF5B42B3F5B77F7E
:101A0000A8BF0025BDF90C20BDF908309B1A002B9A
:101A1000B8BF5B42B3F5B77FA8BF002603F036FA24
:101A20006846FFF72FFF114803F030FA02A8FFF7CE
:101A300029FFADB16846FFF715FF04464EB102A875
:101A4000FFF710FF044424B21DB104EBD47444F337
:101A50004F04204605B0F0BD15465AE71E4662E722
:101A60002C46EBE714000020B6830000E283000060
:101A7000E483000007232DE9F0414A4C86B0226838
:101A8000642013620193FEF7BDFD00224FF4FA6556
:101A9000236883F8242083F825202368B3F926607F
:101AA000B3F9243032B2934204D00120FEF7AAFDEC
:101AB000013DF2D16FF0110223684FF4FA6583F80B
:101AC00024200222019883F825201862DE842368EE
:101AD000B3F92660B3F9243032B2934204D0012026
:101AE000FEF790FD013DF2D1FFF7EEFE2368A0F175
:101AF0002D07DE84054639462B489F8403F0C6F93E
:101B00004FF4FA662368B3F926800FFA88F39F42F0
:101B100004D00120FEF776FD013EF3D1236829466B
:101B200021489D84A3F8268003F0B0F9002623689D
:101B3000B3F92670BD4206D001200136FEF762FDE2
:101B4000B6F5FA6FF3D132463946184803F09EF9DC
:101B500023680198D3F890101862D3F88C0002AA79
:101B600003C2D3F8AC00D3F8B01003C2104803F09E
:101B70008DF902A8FFF786FE0E4803F087F904A846
:101B8000FFF780FE01220C4B1A609DF8043023F011
:101B900007038DF8043001982368186206B0BDE889
:101BA000F08100BF14000020128400003C8400007B
:101BB0006F840000E28300000000002008282DE967
:101BC000F347054601D9FFF755FF2F4F3B68AB425E
:101BD00054D0002D55D005EB450405EB8404C4EB2F
:101BE000C4045B3C24B20723284E6420326801936E
:101BF0001362FEF707FDA4F12D0933684946244816
:101C0000B3F9268003F042F93368A3F826804FF435
:101C1000FA68A3F824903368B3F926A00FFA8AF380
:101C2000994505D00120FEF7EDFCB8F10108F2D18D
:101C30004FF000082146164803F028F933689C84C9
:101C4000A3F826A03368B3F926904C4507D00120AD
:101C500008F10108FEF7D6FCB8F5FA6FF2D142465A
:101C600049460C4803F012F99DF804303D6023F01A
:101C700007038DF8043001983368186202B0BDE89C
:101C8000F0878724AFE700BF000000201400002089
:101C9000128400003C8400002DE9F04FDFF8108230
:101CA00089B0D8F80030082B01D9FFF7E3FE814D49
:101CB0002B68B3F92440B3F9261022468C4240F039
:101CC000F380D8F800107C4803F0E0F8D8F8003032
:101CD0004BB9A4F1860080B202288CBF00200120FD
:101CE00009B0BDE8F08F03232A68642013620693CD
:101CF000FEF788FC2B68986A0790704803F0C6F8D6
:101D000007996F4803F0C2F89DF81C106D4801F068
:101D1000010103F0BBF89DF81C106B48C1F34001B2
:101D200003F0B4F89DF81C106848C1F3800103F07B
:101D3000ADF89DF81C106648C1F3C00103F0A6F889
:101D40009DF81C106348C1F3001103F09FF89DF843
:101D50001C106148C1F3401103F098F89DF81C1065
:101D60005E48C1F3801103F091F89DF81C105C48A7
:101D7000C90903F08BF89DF81D105A4801F00F01B6
:101D800003F084F89DF81D105648090903F07EF809
:101D90009DF81C2002F0030902F0040502F0300E49
:101DA00009F1FF36B5FA85F57042AEF1100C7041BD
:101DB000C2F38003DCF1000B02F0400400EA92065B
:101DC0004BEB0C0BC2F38011B4FA84F4019302F0D4
:101DD0000803B3FA83F3C2F3C00702910396D10953
:101DE0000BEA9216D243A9F1030C0496DCF100062B
:101DF00046EB0C066D09AEF1300C05962E40054001
:101E0000D8F80000DCF1000A4FEA54144AEB0C0A3F
:101E100001380AEA040C5B090BEA0404C2F3C0129D
:101E2000072843D8DFE800F004171C212631353B92
:101E3000029B01980B4019463840B9F1020F14BFBC
:101E4000002000F00100BEF1200F14BF002101F0BE
:101E50000101084344E70398049B38401940F8E720
:101E600001EA0C003E4030433AE72F40214047EA68
:101E7000010035E70199059801401940029B03EAEA
:101E80000A03134041EA03002AE703991940049B1F
:101E9000F7E71E4002EA0C0C46EA0C0020E72B4054
:101EA000224043EA02001BE7012019E7002017E760
:101EB00000000020140000208F840000C484000073
:101EC000C7840000F1840000068500001B85000027
:101ED00030850000458500005A8500006F850000B0
:101EE000848500009985000010B50446C4E90012FD
:101EF000002208462272E36004F08BF8207220462C
:101F000010BD000070B5424C424E434D2046434B3D
:101F1000434A4449FFF7E8FF3346434A434904F143
:101F20001000FFF7E1FF2B46414A424904F120002F
:101F3000FFF7DAFF3346404A404904F13000FFF72B
:101F4000D3FF2B463E4A3F4904F14000FFF7CCFF48
:101F50003D4B3E4A3E4904F15000FFF7C5FF3D4B63
:101F60003D4A3E4904F16000FFF7BEFF3C4E3D4D47
:101F70003D4B3E4A3E4904F17000FFF7B5FF3D4B33
:101F80003D4A3E4904F18000FFF7AEFF33462A4642
:101F90003B4904F19000FFF7A7FF33462A46394E2C
:101FA000394D3A4904F1A000FFF79EFF33462A4617
:101FB000374904F1B000FFF797FF33462A46354909
:101FC00004F1C000FFF790FF334B344A344904F169
:101FD000D000FFF789FF334B334A344904F1E00066
:101FE000FFF782FF324B334A334904F1F000FFF729
:101FF0007BFF324B324A334904F58070FFF774FFA0
:10200000314B324A324904F58870FFF76DFF70BDDD
:10201000A000002019230000C5230000CD220000ED
:10202000AE850000E3850000EB850000FE85000022
:1020300007860000238600002D86000044870000EC
:1020400042860000608600002524000062860000B1
:10205000AD8600006D250000B686000004870000F4
:1020600071430000B4B00000892700001087000011
:10207000408700002D28000046870000CA87000026
:10208000E5B00000394500007CB000000E8700007C
:10209000A5B00000D587000041460000FCAF00005D
:1020A00068B00000ED280000D78700000A88000013
:1020B000112900000F88000070880000A92A000084
:1020C0007D880000BB880000E52A0000C888000069
:1020D0001489000010B504460168434802F0D6FE9A
:1020E0002178424801F0010102F0D0FE21784048F9
:1020F000C1F3400102F0CAFE21783E48C1F38001DD
:1021000002F0C4FE21783C48C1F3C00102F0BEFEDB
:1021100021783A48C1F3001102F0B8FE217838481E
:10212000C1F3401102F0B2FE21783648C1F38011AC
:1021300002F0ACFE21783448C90902F0A7FE6178AC
:10214000324801F0010102F0A1FE61783048C1F38C
:10215000400102F09BFE61782E48C1F3800102F03D
:1021600095FE61782C48C1F3C00102F08FFE6178C2
:102170002A48C1F3001102F089FE61782848C1F3B2
:10218000401102F083FE61782648C1F3801102F00D
:102190007DFE61782448C90902F078FEA1782348C1
:1021A00001F0010102F072FEA1782148C1F3400163
:1021B00002F06CFEA1781F48C1F3800102F066FEB8
:1021C000A1781D48C1F3C00102F060FEA1781B4850
:1021D000C1F3001102F05AFEA1781948C1F3401171
:1021E000BDE8104002F052BE228900004E89000076
:1021F00060890000728900008589000097890000CD
:10220000A9890000BC890000CE890000E189000096
:10221000F0890000FF8900000E8A0000208A00007B
:10222000318A00003D8A0000498A0000558A00007A
:10223000648A0000738A0000828A0000918A00008C
:10224000A28A000010B504460168074802F01EFE8D
:10225000B4F90010054802F019FEB4F90210044860
:10226000BDE8104002F012BEB38A0000E38A00000D
:10227000F48A0000F8B500F5805595F82130044641
:10228000002B0CBF4E2259226B6AA9890C4802F020
:10229000FDFD04F10B06C4F1FF2404F57F04094F92
:1022A000F534AA89A3199A4204D8BDE8F840064833
:1022B00003F0E4BB384616F8011F03F077FBF0E7A4
:1022C000088B0000248B00007EA6000013B50D4B88
:1022D0000C461B687BB119685B680B4A01930B4B7A
:1022E0000B480093652302F0D1FD204603F091FED8
:1022F00040B202B010BD6522044B0349054802F00C
:10230000C5FDF2E7140000202A8B0000DFAE0000BC
:102310002E8B00008D8B00002DE9F3410024084630
:1023200015461F4901AA019403F064FC40B2A04283
:102330001EDC1C4802F0AAFD21461B4E1B4FDFF895
:1023400070808029019106D91A4802F09FFD68B279
:1023500002B0BDE8F081336838465C5C224602F08A
:1023600095FD2146404602F091FD01990431E8E7D0
:10237000019B0D4A23F0030312680193D45C0948C2
:1023800002F084FD224601990B4802F07FFD2146B0
:102390000A4802F07BFD2146094802F077FDD6E7A6
:1023A000C78B0000CB8B000014000020DE8B0000E8
:1023B000F08B00007DA60000F58B0000088C00006B
:1023C0000E8C000037B500230D46CDE900331446CE
:1023D00028466A460E4901AB03F00CFC42B2012AC2
:1023E00007DC29460B4802F051FD4FF0FF3003B0E7
:1023F00030BD094B09481A68DDE90031D154019913
:1024000002F044FD0099064802F040FD60B2EEE79C
:10241000188C0000208C000014000020798C000033
:102420009A8C0000002330B53F4D85B0CDE90133D3
:102430002B6854B22BB93D4802F028FD204605B068
:1024400030BD24223A48114602F020FD28223948A6
:10245000114602F01BFD20223748114602F016FDFE
:102460002B68186A0190586A0290986A0390334862
:1024700002F00CFD01A8FFF72DFE314802F006FD29
:1024800002A8FFF7DFFE2E4802F000FD03992D4859
:1024900002F0FCFC9DF80C102B4801F0010102F049
:1024A000F5FC9DF80C102948C1F3400102F0EEFC48
:1024B0009DF80C102648C1F3800102F0E7FC9DF85E
:1024C0000C102448C1F3C00102F0E0FC9DF80C1090
:1024D0002148C1F3001102F0D9FC9DF80C101F48EF
:1024E000C1F3401102F0D2FC9DF80C101C48C1F35E
:1024F000801102F0CBFC9DF80C101A48C90902F0BB
:10250000C5FC9DF80D10184801F00F0102F0BEFC4B
:102510009DF80D101448090902F0B8FC084802F0B3
:10252000B5FC074888E700BF14000020A48C000019
:10253000F78C0000448D00008D8D0000D68D0000CA
:102540007EA60000C7840000F1840000068500001C
:102550001B85000030850000458500005A8500007D
:102560006F850000848500009985000038B5684CAF
:1025700055B2236823B9674802F088FC284638BD65
:102580008C226548114602F081FC4FF4A4724FF48E
:10259000A271624802F07AFC614802F077FC61485F
:1025A00002F074FC20688C30FFF76CF95E4802F092
:1025B0006DFC20689430FFF765F95C4802F066FC1A
:1025C00020689C30FFF75EF9594802F05FFC2068F4
:1025D000A430FFF757F9574802F058FC2068AC3098
:1025E000FFF750F9544802F051FC2068B430FFF76F
:1025F00049F9524802F04AFC2068BC30FFF742F922
:102600004F4802F043FC2068C430FFF73BF94D48C7
:1026100002F03CFC4C4802F039FC2068CC30FFF75B
:1026200031F94A4802F032FC2068D430FFF72AF929
:10263000474802F02BFC2068DC30FFF723F94548BF
:1026400002F024FC2068E430FFF71CF9424802F055
:102650001DFC2068EC30FFF715F9404802F016FC2D
:102660002068F430FFF70EF93D4802F00FFC2068B7
:10267000FC30FFF707F93B4802F008FC206800F542
:102680008270FFF7FFF82F4802F000FC364802F096
:10269000FDFB206800F58670FFF7F4F8334802F080
:1026A000F5FB206800F58A70FFF7ECF8304802F07F
:1026B000EDFB206800F58E70FFF7E4F82D4802F07E
:1026C000E5FB206800F59270FFF7DCF82A4802F07D
:1026D000DDFB206800F59670FFF7D4F8274802F07C
:1026E000D5FB206800F59A70FFF7CCF8244802F07B
:1026F000CDFB206800F59E70FFF7C4F8214802F07A
:10270000C5FB206800F5A270FFF7BCF836E700BFF4
:1027100014000020FA8D0000508E00009F8E0000F3
:10272000EC8E0000138F0000238F0000338F000019
:10273000438F0000538F0000638F0000738F0000F1
:10274000838F00007EA60000938F00009F8F000003
:10275000AB8F0000B78F0000C38F0000CF8F000049
:10276000DB8F0000E78F0000F38F0000FF8F000079
:102770000B90000017900000239000002F900000A5
:102780003B900000479000007FB50023214C01934F
:102790002368084655B22BB91F4802F077FB28463C
:1027A00004B070BD1D4902AA03F024FA40B200280B
:1027B0001EDD07224FF4FA66236803921A62029A1A
:1027C000ADF80420019858622368586A03B2B3EB4D
:1027D000204F019017D10299114802F057FB9DF844
:1027E0000C3023F007038DF80C300398236818622F
:1027F0002368586A01900B4802F048FB01A8FFF7D4
:1028000021FD0948C9E70120FDF7FCFE013EDBD1AF
:10281000E1E700BF1400002053900000E59800009D
:10282000A3900000C09000007EA60000002313B516
:1028300008461446234901AA019303F0DBF940B28C
:10284000002864B221DD0199082906D908221E4812
:1028500002F01CFBFFF70EF914E01C4802F016FB17
:102860000198FFF7ABF9FFF717FA58B9184802F0CB
:102870000DFBFFF7FFF80199144802F007FB0198E0
:10288000FFF79CF9204602B010BD124802F0FEFA94
:10289000114B1B68B3F92420B3F926309A4205D0B6
:1028A0000E4B0F48196802F0F1FAEBE7FFF7F4F965
:1028B00018B90C4802F0EAFACCE7084B0A48196844
:1028C000F1E700BFE5980000E19000006291000090
:1028D00089910000AE91000014000020000000204B
:1028E000E3910000269200006C92000010B514469F
:1028F000044B05481B6893F9031002F0C7FA60B255
:1029000010BD00BF140000209A92000000000000DB
:1029100000232DE9F0475A4C8AB0CDE90633CDE9C2
:102920000833236808464FFA82FA33B9554802F053
:10293000ADFA50460AB0BDE8F08709AB019308AB89
:102940000093514907AB06AA03F054F940B203289B
:1029500040F381802068099D0699079A089B80F8BA
:10296000401080F8412080F8423080F843500095B4
:10297000464802F08BFA206890F8412090F84230E7
:1029800090F8401090F8430007920990009040485A
:102990000893069102F07AFA079E089D01363046A8
:1029A00004F022FE02460B4633A1D1E9000104F0F7
:1029B000BFFF0022374B04F091FE0135CDE9020143
:1029C000284604F011FE02460B462BA1D1E9000176
:1029D00004F0AEFF00222F4B04F080FE099CCDE9ED
:1029E00004010134204604F0FFFD02460B4622A1FB
:1029F000D1E9000104F09CFF0022264B04F06EFE9A
:102A0000069F804601373846894604F0EDFD0246B0
:102A10000B4619A1D1E9000104F08AFF00221D4BE9
:102A200004F05CFE02460B461B48394602F02EFAC3
:102A3000DDE902233146194802F028FADDE90423D2
:102A40002946174802F022FA42464B4621461548CD
:102A500002F01CFA6DE700288DDD069B2268D9B2D2
:102A600082F8401082F8411082F8421082F8431038
:102A70001A46194600937BE70000000096519841E2
:102A800014000020B492000004930000149300008E
:102A9000459300000000B03F75930000C193000013
:102AA0000D9400005A94000010B51446084802F036
:102AB000EDF90848FFF7DEFB0748FFF7DBFB0748A7
:102AC000FFF7D8FB064802F0E1F960B210BD00BF85
:102AD000A7940000A0220020D8320020104300203C
:102AE0007DA60000002330B50D4687B003930DF19D
:102AF0000B0330490093284604AB03AA03F07AF88D
:102B000041B203292FDD9DF90B30039923F02002F8
:102B1000592A11D0542A11D0312B0BBF0124002483
:102B200059224E22244802F0B1F90399032916D8FC
:102B3000DFE801F0070F11130124F3E70124592204
:102B4000F0E71E4B1C71284603F063FA40B207B051
:102B500030BD1B4BF6E71B4BF4E71B4BF2E71B4862
:102B600002F094F9EFE71A4802F090F9134B194874
:102B70001B79002B0CBF4E21592102F087F9104B15
:102B800015481B79002B0CBF4E21592102F07EF90C
:102B90000C4B12481B79002B0CBF4E21592102F01F
:102BA00075F9094B0E481B79002B0CBF4E2159219A
:102BB000D6E700BFCD940000DA940000C053002097
:102BC000A4530020885300206C5300200C95000073
:102BD0004295000091950000C0950000EF9500001F
:102BE0001E96000041F20102184B1A60184A5A6002
:102BF000184A9A6044F20102DA60174A1A61174AC9
:102C00005A6144F202029A61154ADA61154A1A625F
:102C100044F203025A62144A9A62144ADA6244F293
:102C200004021A63124A5A63124A9A6344F2050272
:102C3000DA63114A1A64114A5A6444F206029A6429
:102C40000F4ADA640F4A1A65704700BFC0010020BE
:102C50004D960000612D00006F960000C12D000010
:102C6000A09600002D2E0000D4960000992E0000A2
:102C7000FF9600009D2F00002D970000C934000032
:102C8000539700005536000010B50446084604F07E
:102C9000BBFC09A3D3E9002304F020FD0022084B6C
:102CA00004F046FED4E9002304F018FDD4E9022321
:102CB00004F05EFB10BD00BFFCA9F1D24D621040D4
:102CC00000005E412DE9F04F1F4600F5805AADF53A
:102CD000805D8046DAF8100083B00368CDE9001704
:102CE0000E469C6B02A913464FF48052A04702ACDB
:102CF0008146A3460025A94513D19AF820305BB13F
:102D00003A4631460F4802F0C1F800260E4FB54250
:102D100010D10E4802F0B2FE0DF5805D03B0BDE8A3
:102D2000F08FD8F804001BF9011B036801351B69FB
:102D30009847E0E7384614F8011B02F037FE0136E9
:102D4000E5E700BFCB970000248B00007EA60000C3
:102D500008B1FFF7B7BF014802F098B8F397000039
:102D600030B514461D466522002385B0CDE90132F9
:102D700003930F4B1B681BB11A6801925B680393A6
:102D80000C210C4802F082F8DDE9022301990A487F
:102D900002F00CFE094802F079F828460C2341F2B3
:102DA000010101AAFFF7D4FF60B205B030BD00BF3A
:102DB0001400002052980000879800007EA60000B2
:102DC000F8B50D461448114614461E46134F02F03E
:102DD0005DF86DB1032C0BD9114802F057F8284665
:102DE000FFF778F90F4802F051F83B682A681A6239
:102DF0000D4802F04BF838682030FFF76BF90948AE
:102E000002F044F83A683046042344F201012032CB
:102E1000FFF79EFF60B2F8BDE998000014000020A3
:102E2000249900007EA6000057990000F8B50D46D1
:102E30001448114614461E46134F02F027F86DB190
:102E4000032C0BD9114802F021F82846FFF7FAF9B4
:102E50000F4802F01BF83B682A685A620D4802F0DE
:102E600015F838682430FFF7EDF9094802F00EF83C
:102E70003A683046042344F202012432FFF768FF27
:102E800060B2F8BD8999000014000020C1990000CB
:102E90007EA60000F19900002DE9F0411146314F66
:102EA000314815461E4601F0F1FF304801F0EEFFB3
:102EB0003C682F48A16A01F0E9FF94F828102D48DA
:102EC00001F0010101F0E2FF94F828102A48C1F353
:102ED000400101F0DBFF94F828102848C1F380017D
:102EE00001F0D4FF94F828102548C1F3C00101F087
:102EF000CDFF94F828102348C1F3001101F0C6FF5C
:102F000094F828102048C1F3401101F0BFFF94F855
:102F100028101E48C1F3801101F0B8FF94F8281062
:102F20001B48C90901F0B2FFDFF8688094F8291046
:102F3000404601F00F0101F0A9FF94F82910404626
:102F4000090901F0A3FF144801F0A0FF3A683046D8
:102F5000042344F203012832FFF7FAFE68B2BDE809
:102F6000F08100BF14000020209A0000609A000049
:102F7000C7840000F1840000068500001B85000066
:102F800030850000458500005A8500006F850000EF
:102F900084850000998500007EA6000070B511466A
:102FA00098B0E048E04C15461E4601F06FFFDF4840
:102FB00001F06CFFDE4801F069FF20688C30FEF7FD
:102FC00061FC2368DB4893F88D1093F88C2042EA6B
:102FD0000122ADF8002093F8902093F8913042EA56
:102FE0000323ADF8023001F051FF20689430FEF762
:102FF00049FC2368D04893F8951093F8942042EA4E
:103000000122ADF8042093F8982093F8993042EA11
:103010000323ADF8063001F039FF20689C30FEF73D
:1030200031FC2368C54893F89D1093F89C2042EA30
:103030000122ADF8082093F8A02093F8A13042EACD
:103040000323ADF80A3001F021FF2068A430FEF719
:1030500019FC2368BA4893F8A51093F8A42042EA13
:103060000122ADF80C2093F8A82093F8A93042EA89
:103070000323ADF80E3001F009FF2068AC30FEF7F5
:1030800001FC2368AF4893F8AD1093F8AC2042EAF6
:103090000122ADF8102093F8B02093F8B13042EA45
:1030A0000323ADF8123001F0F1FE2068B430FEF7D2
:1030B000E9FB2368A44893F8B51093F8B42042EADA
:1030C0000122ADF8142093F8B82093F8B93042EA01
:1030D0000323ADF8163001F0D9FE2068BC30FEF7AE
:1030E000D1FB2368994893F8BD1093F8BC2042EABD
:1030F0000122ADF8182093F8C02093F8C13042EABD
:103100000323ADF81A3001F0C1FE2068C430FEF789
:10311000B9FB23688E4893F8C51093F8C42042EA9F
:103120000122ADF81C2093F8C82093F8C93042EA78
:103130000323ADF81E3001F0A9FE2068CC30FEF765
:10314000A1FB2368834893F8CD1093F8CC2042EA82
:103150000122ADF8202093F8D02093F8D13042EA34
:103160000323ADF8223001F091FE2068D430FEF741
:1031700089FB2368784893F8D51093F8D42042EA65
:103180000122ADF8242093F8D82093F8D93042EAF0
:103190000323ADF8263001F079FE2068DC30FEF71D
:1031A00071FB23686D4893F8DD1093F8DC2042EA48
:1031B0000122ADF8282093F8E02093F8E13042EAAC
:1031C0000323ADF82A3001F061FE2068E430FEF7F9
:1031D00059FB2368624893F8E51093F8E42042EA2B
:1031E0000122ADF82C2093F8E82093F8E93042EA68
:1031F0000323ADF82E3001F049FE2068EC30FEF7D5
:1032000041FB2368574893F8ED1093F8EC2042EA0D
:103210000122ADF8302093F8F02093F8F13042EA23
:103220000323ADF8323001F031FE2068F430FEF7B0
:1032300029FB23684C4893F8F51093F8F42042EAF0
:103240000122ADF8342093F8F82093F8F93042EADF
:103250000323ADF8363001F019FE2068FC30FEF78C
:1032600011FB2368414893F8FD1093F8FC2042EAD3
:103270000122ADF8382093F8002193F8013142EA99
:103280000323ADF83A3001F001FE206800F58270AA
:10329000FEF7F8FA2368364893F8051193F80421ED
:1032A00042EA0122ADF83C2093F8082193F8093155
:1032B00042EA0323ADF83E3001F0E8FD206800F556
:1032C0008670FEF7DFFA23682A4893F80D1193F809
:1032D0000C2142EA0122ADF8402093F8102193F826
:1032E000113142EA0323ADF8423001F0CFFD2068EE
:1032F00000F58A70FEF7C6FA23681F4893F8151187
:1033000093F8142142EA0122ADF8442093F81821E1
:1033100093F8193142EA0323ADF8463001F0B6FDC7
:1033200020682BE0979A000014000020CA9A000041
:10333000F49A0000039B00000F9B00001B9B000001
:10334000279B0000369B0000429B00004E9B000024
:10335000938F00009F8F0000AB8F0000B78F00009D
:10336000C38F0000CF8F0000DB8F0000E78F0000CD
:10337000F38F0000FF8F00000B90000000F58E70AF
:10338000FEF780FA23684B4893F81D1193F81C212F
:1033900042EA0122ADF8482093F8202193F8213128
:1033A00042EA0323ADF84A3001F070FD206800F5D1
:1033B0009270FEF767FA22683F4892F8251192F85A
:1033C000243143EA0123ADF84C3092F8283192F8C9
:1033D000292143EA0223ADF84E3001F057FD206861
:1033E00000F59670FEF74EFA2268344892F82D11D7
:1033F00092F82C3143EA0123ADF8503092F8303185
:1034000092F8312143EA0223ADF8523001F03EFD3B
:10341000206800F59A70FEF735FA2268284892F87D
:10342000351192F8343143EA0123ADF8543092F863
:10343000383192F8392143EA0223ADF8563001F0D1
:1034400025FD206800F59E70FEF71CFA22681D48D5
:1034500092F83D1192F83C3143EA0123ADF858301F
:1034600092F8403192F8412143EA0223ADF85A30F4
:1034700001F00CFD206800F5A270FEF703FA226847
:10348000304692F8451192F8443143EA0123ADF8F1
:103490005C3092F8483192F8492144F2040143EA41
:1034A0000223ADF85E306A466023FFF751FC68B234
:1034B00018B070BD17900000239000002F900000FE
:1034C0003B9000004790000070B5484C96B0114604
:1034D000474815461E4601F0D9FC61684548FFF78C
:1034E000D3FBCDE90001A1684348FFF7CDFBCDE94F
:1034F0000201E1684148FFF7C7FBCDE904012169FA
:103500003F48FFF7C1FBCDE9060161693D48FFF780
:10351000BBFBCDE90801A1693B48FFF7B5FBCDE94D
:103520000A01E1693948FFF7AFFBCDE90C01216AD7
:103530003748FFF7A9FBCDE90E01616A3548FFF76F
:10354000A3FBCDE91001A16A3348FFF79DFBCDE94C
:103550001201E16A3148FFF797FBCDE914013048C9
:1035600001F094FCDDE900232E4801F08FFCDDE939
:1035700002232D4801F08AFCDDE904232B4801F0E9
:1035800085FCDDE906232A4801F080FCDDE90823FB
:10359000284801F07BFCDDE90A23274801F076FC8E
:1035A000DDE90C23254801F071FCDDE90E232448F8
:1035B00001F06CFCDDE91023224801F067FCDDE935
:1035C0001223214801F062FCDDE914231F4801F0B9
:1035D0005DFC1F4801F05AFC304658236A4644F20D
:1035E0000501FFF7B5FB68B216B070BDE0540020CE
:1035F0005A9B0000D0540020C0540020B05400203A
:10360000A0540020805400207054002090540020CA
:1036100060540020505400204054002030540020BA
:103620008C9B0000BC9B0000CC9B0000DC9B00003E
:10363000EC9B0000FC9B00000B9C00001A9C00000F
:103640002B9C00003B9C00004B9C00005B9C0000FE
:103650006A9C0000F7B515460E461C46002311462D
:103660003E4800936FB201F011FC002E48D0032DAC
:1036700046D93168082900910BD90822384801F051
:1036800005FCFEF7F7F94FF0FF3300936A46042379
:1036900030E04FF0FF330193042344F206010DEBB9
:1036A00003022046FFF754FB00992E4801F0EEFB81
:1036B0000098FEF783FAFEF7EFFAB0B96FF0010356
:1036C0000193042344F206010DEB03022046FFF7A9
:1036D0003FFB254801F0DAFBFEF7CCF900992348BF
:1036E00001F0D4FB0098FEF769FA009B01930423D4
:1036F0000DEB030244F206012046FFF729FB22E00E
:103700001B4801F0C3FB1B4B1B68B3F92420B3F922
:1037100026309A4205D0184B1848196801F0B6FBBC
:10372000B1E7FEF7B9FA88B9154801F0AFFB6FF0C1
:1037300001036A4644F20601204600930423FFF782
:1037400007FBFEF797F9384603B0F0BD0A4D0D4868
:10375000296801F09BFB2B6897E700BF959C000050
:10376000C79C00007D9D00004F9D00007C9D0000D7
:10377000AB9D00001400002000000020E89D000028
:10378000339E00006E9E0000704701207047704716
:103790007047806818B10078C04300F0010070479E
:1037A000436903B1196008467047704770470120AC
:1037B00070477047002030B5064C043A824201D869
:1037C000002004E00D58A54202D11860012030BD50
:1037D0000130F3E7BEBAAD1B002030B5064C043A09
:1037E0000D58A54202D11860012030BD0130904231
:1037F000F6D90020F9E700BFEDAD0F0A08207047A9
:1038000008207047082070474FF6FF70704700206F
:10381000704700200021704703F1080090429ABFD2
:10382000C918C8880020704703F1080090429ABF69
:10383000C918888800200021704703F108009042D1
:1038400006D819448888019BC31A584258417047CA
:103850000020704700487047040000207047704700
:103860007047704707B5C2680346A2B1006978B1D6
:103870000021126801910192026801921A792AB11D
:10388000019A93F91810054801F000FB019840B225
:1038900003B05DF804FB1046FAE700BFA49E0000E9
:1038A00070B50C4603F11001914218D8E018C18898
:1038B000CD1805F11006964211D8E258094B9A42EC
:1038C0000DD1083563195A68074B9A4207D1083160
:1038D000FCF79EFE63591B1A5842584170BD0020E8
:1038E000FCE700BFBEBAAD1BEDAD0F0A10B5044634
:1038F000042104F079FA204610BD10B504460421D5
:1039000004F072FA204610BD10B504461C2104F0E4
:103910006BFA204610BD10B5044641F2380104F0A0
:1039200063FA204610BD10B5044641F2440104F08C
:103930005BFA204610BD10B50446042104F054FA89
:10394000204610BDF8B5079D0C4629B303B91DBB31
:1039500005F1100696421FD8104AE5802260BDF896
:103960001820A2802BB12A46194604F1080002F063
:1039700042FB083529462046FCF74AFE6FF0120349
:10398000671960513B716FF052037B710F23BB715C
:103990000A23FB713046F8BD0026FBE7BEBAAD1B1B
:1039A00010B50C4611680CB1072904D8BDE81040C9
:1039B000084801F06BBA084801F068FAE388A28869
:1039C0002168064801F0F2FFBDE81040044801F00C
:1039D0005DBA00BFAB9E0000E19E00000C9F00009E
:1039E0007DA6000070B50C46156801B12DB92946B9
:1039F000BDE870400B4801F049BA0B4801F046FAA7
:103A0000202D94BF661904F12006084D14F8011BFF
:103A1000284601F03BFAB442F8D1BDE870400448B2
:103A200001F034BA559F0000839F0000248B0000F2
:103A30007DA6000038B514461D46002100F58153CF
:103A4000C3E9044500F580544FF48052C4E90911DC
:103A5000A18184F821100C3002F0D2F994F82030C2
:103A60007BB1206903681B69984705462069036894
:103A70005B6998472946BDE838400246014801F095
:103A800005BA38BDB29F00002DE9F04F05464068E9
:103A900087B003689B6898470746002851D068683C
:103AA00005F580540368DB689847A289B2F5805F0A
:103AB0004BD2013292B2A2812A44D07294F82130C2
:103AC000D3B92069A68903681B699847864213D336
:103AD0002069A289036805F10C019E6805F58153F0
:103AE0000433B04740B194F8203013B1A14801F03D
:103AF000CDF9012384F821300023AB6094F8213004
:103B0000FBB12069B4F80C8003681B69984706462E
:103B1000206903685B6998470644B04511D3206962
:103B200005F10C0603683146D3F80C80A28905F133
:103B30000803C04794F8203008BB13B18E4801F049
:103B4000A5F9384607B0BDE8F08F94F8203005F1AC
:103B50000C061BB13146894801F098F9E069A28949
:103B6000036831465B69059205AA984705F58153BC
:103B700010332846D3E90023FFF75CFF9EE713B11B
:103B80007F4801F083F9206931460368A289D3F8A0
:103B90002080636AC04780462069B4F80CA003689F
:103BA0001B69984708EB0009206903685B6998471F
:103BB0008144CA453ED2B8F5805F18D820690368B1
:103BC000DB699847804512D894F82030002BB8D094
:103BD0002069A58903682A463146D3F82080636AA4
:103BE000C04729460246674801F050F9A9E794F812
:103BF000203073B12069B4F80C8003684246314626
:103C0000D3F82090636AC847414602465E4801F0F7
:103C10003DF9E069A289036831469B68059205AACF
:103C2000984705F5815310332846D3E90023FFF761
:103C300001FF86E72069AA6803680092D3F8248010
:103C40003146636AA289C04794F82030002800F00A
:103C5000EA8005F5815A0AF1100A83B1DAE9008990
:103C60002069626A03683146D3F82CB0AB68D84744
:103C70004246CDE900014B46444801F007F941F2C4
:103C80003008DAF8041055F80800626AB1F1FF3F15
:103C900008BFB0F1FF3FAB681BD14FF00009C84629
:103CA000A169626A8945AB6874D3B8F1000F38D155
:103CB00094F8201049B320690168D1F8308031466A
:103CC000C0470B46A16902460091314801F0DEF879
:103CD0001BE020690168D1F828903146C8470028C8
:103CE000DBD1206931460368626AD3F82CB0AB6837
:103CF00055F80890DAF80480D847884508BF814510
:103D0000CBD094F82030002B7BD1E069616A036846
:103D100005AAD3F80C80AB685B1A0C3105932944D3
:103D2000C047E069616A036805AAD3F81080AB68F0
:103D30005B1A0C3105932944C047002384F82130D5
:103D4000AA68A089131D98427FF66BAF05F10B019D
:103D5000C5F1FF25831A05F57F05043BF5350532CE
:103D600005EB010C63456BD81A46002190426CD8D4
:103D7000A381E6E630A0000061A00000DA9F000009
:103D800090A0000070A10000DAA0000031A20000A5
:103D90006CA200000C2101FB09FB6169206951F84C
:103DA0000B10D0F800C0CDE900311346DCF834A088
:103DB0003146A289D047824600B32069D4F82480D6
:103DC000036808F10C089B6998476369804403EB1A
:103DD0000B02206953F80B30926803930368314655
:103DE000D3F820B00292636AA289D847A844024659
:103DF000DDE902C041462B46E047D04609F1010902
:103E00004EE72069DAE900890368626AD3F82CA0DA
:103E10003146AB68D0474246CDE900014B460C48DD
:103E200001F034F871E713B10A4801F02FF8E069A6
:103E3000A289036831469B68059205AA98477CE7EA
:103E400011F802C001F801CF8AE7B15401328DE7C1
:103E5000A3A2000009A3000038B50024054D55F8C1
:103E6000040B10B103689B6898470134052CF6D108
:103E700038BD00BFD4AF000038B5044645B229466E
:103E80000448FFF78DFC29460348FFF789FC2046CC
:103E900038BD00BFC053002050530020F8B5054680
:103EA000406803689B689847002836D068680368B4
:103EB000DB689847072806462FDD05F580540D2856
:103EC00084F826002BD1012384F8273094F824307D
:103ED00033B1092E04D06868314603681B699847DE
:103EE00094F8253013B13046FFF7C6FF238CB3F5A5
:103EF000805F24BF40F6FF7323840A2E23D012DC98
:103F0000082E29D1238C0022013B9BB2B3F5805FA0
:103F100028BF002323842B441A72002017E00A28AC
:103F2000D4D10023D0E71B2E12D07F2EEAD0238CD1
:103F30001D4401339BB2B3F5805F28BF40F6FF7389
:103F40002E722384E9E70023208C05442B72F8BDF0
:103F5000002323842B72E0E74FF4805105F1080021
:103F600001F075FF83B218462384284490F9082095
:103F70006FF006070A2A04BF03F1FF332384238C62
:103F8000EE1DEA1892F908207F1B0D2A40F6FF72F9
:103F900004BF03F1FF332384238C934228BF1346CD
:103FA000002223842B441A72228CBB199A42B4D962
:103FB000686816F9011F03681B699847F4E72DE943
:103FC000F04300F580540546A06B87B003681B687A
:103FD0009847B0B1A269E3699A4212D0A269E36935
:103FE0009A4217BFA36900211B1993F908101FBF3C
:103FF000A369013303F00F03A361686803681B69B9
:1040000098472846FFF74AFF20B90026304607B0F8
:10401000BDE8F083238C0026B3F5805F24BF40F613
:10402000FF732384218C05F108006B181E7294F82D
:1040300042E0E76BB4F840C0D4E90B230495BEF12D
:10404000000F2DD0CDE902C60197009600F082FE48
:104050000023064623840028D7D0636B002BD5D0DD
:10406000984700F1FF39A0F10208638C0F2BCDD8DF
:1040700019F9017F002FC9D00D2F0ED094F82730E9
:1040800033B10A2F04D168680D2103681B69984772
:104090006868394603681B699847C145E5D1B5E7AB
:1040A0000126CDE902CE0197CFE700002DE9F74FB9
:1040B000774B784D1B68DFF8E08103F1440203F190
:1040C0004800C5E9020203F14C00C5E904027E2262
:1040D0002A76724A03F1500003F15406C2E90260E5
:1040E00003F15806C2E90460212003F1600610764E
:1040F00003F15C00C8E9026003F16406C8E90460EA
:104100004020674F88F8180003F16C0603F168003F
:10411000C7E9026003F17006C7E9046023200024A8
:10412000604E61493876296003F174001160C8F867
:1041300000103960316003F178017C33147188F824
:1041400004403C712C713471C6E904302423DFF83B
:104150005C913376564BDFF85CA1C9F80030564BC2
:10416000C6E90210CAF80030544B55481B7855492F
:10417000019342600160544A019900F5805341F275
:10418000300BC3E906195A614FF0FF314FF0FF328F
:10419000C3E909449C81C3F810A01C8400EB0B0305
:1041A000C3E9001213460A468460FFF743FC474800
:1041B000019A444900F58053C3E9062901604FF094
:1041C000FF324FF0FF31C0F80480DFF8FC80C3E914
:1041D00009449C81C3F810A0C3F814801C8400EB30
:1041E0000B03C3E9001213460A468460FFF722FC62
:1041F0003748019A334900F58053C3E90629016025
:104200004FF0FF324FF0FF31C3E904A8C3E909447E
:104210009C811C8400EB0B03C3E9001213460A4681
:1042200047608460FFF706FC01222A4BDFF8A8C034
:104230001F782A4B2A485E602A492B4EC3F800C0DB
:1042400003F580539C61C3E90E14DC61C3E90B677D
:104250001C625A6283F828205863A3F8404083F810
:104260004220224BC3E900C503F580539C61C3E99A
:104270000842C3E90B67C3E90D01DC6183F828201C
:10428000DC63A3F8404083F8422003B0BDE8F08F20
:1042900014000020C053002088530020A4530020A5
:1042A0006C530020505300202CAF00004C530020D2
:1042B00098AF00004853002054AF0000F8AE000053
:1042C0001043002004AF0000C0010020D8320020BD
:1042D000A0220020DEAE0000B8AF0000581200207F
:1042E0005538000010000020A0000020140200201B
:1042F000704710B50446902103F076FD204610BDAE
:1043000010B50446084603F07FF909A3D3E900235A
:1043100003F0E4F90022084B03F00AFBD4E9002380
:1043200003F0DCF9D4E9022303F022F810BD00BF4A
:10433000FCA9F1D24D62104000005E4138B5002466
:10434000094D2B6893F83C309B070AD401200134B7
:10435000FCF742F9642CF4D10448BDE8384000F081
:1043600095BD612CF8D838BD1400002036A300009C
:1043700070B54F4C4F480D4600F088FD61684E48BF
:10438000FFF7BEFF02460B464C4800F07FFDA168D8
:104390004B48FFF7B5FF02460B464A4800F076FD52
:1043A000E1684948FFF7ACFF02460B46474800F07A
:1043B0006DFD21694648FFF7A3FF02460B464548BD
:1043C00000F064FD61694448FFF79AFF02460B461E
:1043D000424800F05BFDA1694148FFF791FF0246AA
:1043E0000B46404800F052FDE1693F48FFF788FF67
:1043F00002460B463D4800F049FD216A3C48FFF764
:104400007FFF02460B463B4800F040FD616A3A4898
:10441000FFF776FF02460B46384800F037FDA16AE9
:104420003748FFF76DFF02460B46364800F02EFD79
:10443000E16A3548FFF764FF02460B46334800F057
:1044400025FD216B3248FFF75BFF324E02460B46DB
:10445000314800F01BFD616B3046FFF751FF02460B
:104460000B462E4800F012FDA16B3046FFF748FFC7
:1044700002460B462A4800F009FDE16B2948FFF788
:104480003FFF02460B46284800F000FD216C2748FC
:10449000FFF736FF02460B46254800F0F7FC25489B
:1044A00000F0F4FC284601F0B4FD40B270BD00BF3E
:1044B000E05400204EA30000D0540020BC9B00001C
:1044C000C0540020CC9B0000B0540020DC9B0000B6
:1044D000A0540020EC9B000080540020FC9B0000B6
:1044E000705400200B9C0000905400201A9C000087
:1044F000605400202B9C0000505400203B9C000086
:10450000405400204B9C0000305400205B9C000075
:1045100020540020105400208DA300009DA3000013
:10452000ADA30000F0530020BDA30000E053002025
:10453000D5A30000ECA3000038B52E4C2E480D4644
:1045400000F0A4FC62682D48114600F09FFCA268B0
:104550002B48114600F09AFCE2682A48114600F008
:1045600095FC22692848114600F090FC62692748B2
:10457000114600F08BFCA2692548114600F086FC2C
:10458000E2692448114600F081FC226A2248114663
:1045900000F07CFC626A2148114600F077FCA26AB8
:1045A0001F48114600F072FCE26A1E48114600F0F6
:1045B0006DFC226B1C48114600F068FC626B1B48C6
:1045C000114600F063FCA26B1948114600F05EFC36
:1045D000E26B1848114600F059FC226C164811464F
:1045E00000F054FC154800F051FC284601F011FD84
:1045F00040B238BDE054002011A4000050A40000D7
:1046000065A400007AA400008FA40000A4A4000008
:10461000B8A40000CCA40000E2A40000F7A40000AD
:104620000CA5000021A5000035A500004AA500004A
:104630005FA5000074A5000091A50000ADA50000D5
:104640002DE9F04F0D468DB09D492846924601F068
:104650000BFC9B490446002001F006FC984906909B
:10466000002001F001FC4FF0000800260027DFF8D1
:1046700054928346CDE90889CDE90A67002C79D0A8
:104680002346A244534503D093F9000000287BD170
:10469000069B002B7FD14FF0010ABBF1000F06D023
:1046A000584689490AAA01F0A5FA4FF0000A0822E3
:1046B0002046864901F0B9FB002874D1844B0022C2
:1046C000C3E90089C3E902674FF0804300208149B4
:1046D000814CC1E90023C1E902678049C4E902674E
:1046E000C4E900017E497F4CC1E90023C1E90267AA
:1046F00071A1D1E90001C4E90267C4E900017A4C63
:10470000C4E9000100207949C4E90267C1E9002336
:10471000C1E90267764B7749C3E90267C3E9000143
:10472000754B7648C3E90089C3E90267744BC3E956
:104730000089C3E90267734BC3E90089C3E90267D3
:10474000714BC3E90089C3E90267704BC3E9008973
:10475000C3E902676E4BC3E90089C3E902676D4B89
:10476000C3E90089C3E902676B4BC3E90089C3E968
:10477000026700E0694800F089FB284601F049FC27
:1047800040B20DB0BDE8F08F079300F087FF079BA4
:1047900003F8010B76E74C49069808AA01F02AFABB
:1047A0004FF0000A79E75E49204601F01AFC5D49A6
:1047B00000282046464E18BF002601F012FC454A4C
:1047C0005949002808BF1646204601F00AFC424A13
:1047D0005649002808BF1646204601F002FC404A10
:1047E0005349002808BF1646204601F0FAFB3D4A0F
:1047F0005049002808BF1646204601F0F2FB3A4A0D
:104800004D49002808BF1646204601F0EAFB374A0A
:104810004A49002808BF1646204601F0E2FB344A08
:104820004749002808BF1646204601F0DAFB324A05
:104830004449002808BF1646204601F0D2FB304A02
:104840004149002808BF1646204601F0CAFB2D4A00
:104850003E49002808BF1646204601F0C2FB2A4AFE
:104860003B49002808BF1646204601F0BAFB274AFC
:104870003849002808BF1646204601F0B2FB244AFA
:104880003549002808BF16460822204601F0CDFA17
:10489000204A3249002808BF16460822204601F067
:1048A000C4FA00285ED0002E5DD121462C4800F0CD
:1048B000EDFA75E0AFF30080E3A59BC420B0134090
:1048C000D2A500000000F03F3BA600003FA600007C
:1048D000D0540020C0540020B054002000003040CC
:1048E000A0540020805400207054002090540020D8
:1048F00060540020000008405054002048A60000EA
:104900004054002030540020205400201054002037
:1049100000540020F0530020E0530020D8A50000F0
:1049200080A6000085A600008AA600008FA60000D1
:1049300094A6000098A600009CA60000A2A6000075
:10494000A7A60000ACA60000B1A60000B5A6000016
:10495000BAA60000BFA60000C4A60000D1A60000B1
:104960004FA700000F4EBAF1000F10D1DDE90A0188
:10497000DDE90823C6E90201C6E90023CDE9020109
:1049800006990948CDF810B0009100F07FFAD6E9F9
:104990000223CDE900230548D6E9002300F076FA8A
:1049A0000348E8E6E0530020DDA6000021A7000050
:1049B0008CA7000010B504464FF47A70FBF70CFE8C
:1049C000FFF7BCFC00220121054B20461B6883F841
:1049D0003C1083F83D2083F83E2083F83F2010BD33
:1049E0001400002010B504460120FBF7F5FDFFF789
:1049F000A5FC0022074B4FF47A701B6883F83C201B
:104A000083F83D2083F83E2083F83F20FBF7E4FD48
:104A1000204610BD14000020F7B50C4600250646C0
:104A2000104F01A8FFF7C6FF2570FFF787FC3B6812
:104A300046F040069E63FFF781FC3B6883F83850E0
:104A400083F8395083F83A5083F83B50FFF776FCEF
:104A50003B6822789B6B01A813432370FFF7C2FFCA
:104A600003B0F0BD1400002073B504460D46094E96
:104A700001A8FFF79FFFFFF761FC336844F0600473
:104A80009C63FFF75BFC336801A89D63FFF7AAFFF7
:104A900002B070BD1400002073B50024404E42F2F5
:104AA000107033680D4683F83C4083F83D4083F82E
:104AB0003E4083F83F40FBF78FFD01A8FFF77AFFE8
:104AC000FFF73CFC6FF03F02336801A883F8382001
:104AD00083F8394083F83A4083F83B40FFF782FF80
:104AE0004FF47A70FBF778FD56212046FFF7BCFFA4
:104AF00070210120FFF7B8FF3D210620FFF7B4FF2A
:104B000029460720FFF7B0FF21460820FFF7ACFF3A
:104B100001A92046FFF780FF9DF80410562905D013
:104B20005622204800F0B2F920460CE001A90120ED
:104B3000FFF772FF9DF80410702906D070221A4802
:104B400000F0A4F9012002B070BD01A90620FFF712
:104B500063FF9DF804103D2905D03D22134800F065
:104B600095F90620EFE701A90720FFF755FF9DF80B
:104B70000410A94205D02A460D4800F087F9072005
:104B8000E1E701A90920FFF747FF9DF804108B29F1
:104B9000CAD08B22074800F079F90920D3E700BF7B
:104BA00014000020AEA70000EFA7000030A800000E
:104BB00071A80000B0A800002DE9F8430025464C7C
:104BC000464B2946A36404F158003FA3D3E90023D0
:104BD000C4E914237822C4E90055C4E90255C4E9A4
:104BE0000455C4E90655C4E90855C4E90A55C4E9A1
:104BF0000C55C4E90E55256401F002F9002200238A
:104C000000203749C4F8D050364C4FF08045C4E9F5
:104C10000001C4E9022300244FF00008324EDFF8FF
:104C2000CC90C6E90045C6E90223314EC6E90089A9
:104C3000C6E902232F4EC6E90045C6E902232E4EDF
:104C4000C6E900452D4CC6E9022321A7D7E9006734
:104C5000C4E90223C4E90067294CC4E900670026BF
:104C6000C4E90223274F284CC4E90067C4E90223A2
:104C7000264CC4E90001C4E90223254CC4E9000123
:104C8000C4E90223234CC4E90001C4E90223224CF5
:104C9000C4E90001C4E90223204CC4E90001C4E9CD
:104CA00002231F4CC4E90001C4E902231D4CC4E9DE
:104CB0000001C4E902231C4CC4E90001C4E9022339
:104CC000BDE8F883AFF30080FCA9F1D24D6210403B
:104CD000E3A59BC420B01340E0540020F0AF0000D7
:104CE0000000F03FD0540020C054002000003040AD
:104CF000B0540020A0540020905400208054002084
:104D000070540020000008406054002050540020DF
:104D10004054002030540020205400201054002023
:104D200000540020F0530020E0530020F8B50D4659
:104D300004460026064FAE4204F1100400D1F8BD2F
:104D4000384654E9041200F0A1F80136F3E700BF39
:104D5000EFA800002DE9F04F85B00F46DDE90FA167
:104D6000994604469DF838509DF84460019218B960
:104D7000002005B0BDE8F08F002FF9D0BAF1000F88
:104D80002DD1DFF8D8A05EB9202FBB46D04628BF72
:104D90004FF0200B5946204601F059F8B0422BD86D
:104DA0000026DDF804808AF81F604E4530D1002DC2
:104DB000DED12A492A4800F069F8284C294E3046AD
:104DC00014F9011B013500F061F80A2DF7D12648CE
:104DD00000F05CF849460198FFF7A8FFC8E70029F2
:104DE000CFD0504601F033F851460246204601F03C
:104DF0001CF80028C5D0BBE7A35DA157A3F1610053
:104E000019289CBF203B59B208F8011B0136C1E7A5
:104E100098F808B03A465F4528BF5A46D8F800A02F
:104E20000E485146CDF80880039200F0FEFF38B1DD
:104E300051462046039A00F0F8FF08F1100850B9D7
:104E4000029B5046DD68A7EB0B02129B04EB0B01A3
:104E5000A84701208DE70136A7E700BFB85500201D
:104E6000F7A8000012A900001AA9000070B50846B2
:104E7000154621B10C468E18B44201D1284670BDAA
:104E800014F9010BFEF7F8FFF6E700000FB407B5C1
:104E900004AB53F8042B002104480193FCF720F8DD
:104EA00003B05DF804EB04B0704700BF6D4E000026
:104EB0002DE9F04F1F4600F5805AADF5805D804624
:104EC000DAF8100083B00368CDE900170E469C6B3A
:104ED00002A913464FF48052A04702AC8146A34674
:104EE0000025A94513D19AF820305BB13A463146E6
:104EF0000F48FFF7CBFF00260E4FB54210D10E48EA
:104F000000F0BCFD0DF5805D03B0BDE8F08FD8F872
:104F100004001BF9011B036801351B699847E0E792
:104F2000384614F8011B00F041FD0136E5E700BFEB
:104F3000CB970000248B00007EA600002DE9F04FE7
:104F4000044691B03A48FFF7A1FFD4E9003AD4E90A
:104F50000476D4E9065BD4E902984FF0E0241946C0
:104F600034480193FFF792FF51463348FFF78EFF15
:104F700049463248FFF78AFF41463148FFF786FF2E
:104F800039463048FFF782FF31462F48FFF77EFF52
:104F900029462E48FFF77AFF59462D48FFF776FF3E
:104FA000D4F8381D2B48FFF771FFD4F8281D2A4884
:104FB000FFF76CFFD4F82C1D2848FFF767FFD4F8E3
:104FC000301D2748FFF762FFD4F83C1D2548FFF746
:104FD0005DFF019BCDE90776CDE9095BCDE9033A99
:104FE000CDE90598D4F8383D1F4D0B93D4F8283DF2
:104FF0000C93D4F82C3D0D93D4F8303D0E93D4F897
:105000003C3D00240F93194B1E78A64204D8002380
:10501000984711B0BDE8F08F55F8040B28B1342340
:1050200041F2040103AAFFF743FF0134EDE700BF9B
:1050300041A9000062A900006BA9000074A900004A
:105040007DA9000086A9000090A90000BFA900006A
:10505000DFA90000E9A90000F4A90000FFA90000F1
:105060000AAA000015AA0000C8AF0000C4AF0000E3
:10507000012390F888208B40134390F8892043EA5D
:10508000022390F88A2043EA024390F88B2043EAF7
:105090000263C0F88830704710B50446FFF74EF938
:1050A000014B1B689C6310BD1400002038B50446FA
:1050B000054DFFF743F92B689C63FFF73FF92B6819
:1050C000986BC0B238BD00BF140000202DE9F04F2E
:1050D0000378044685B0002B65D00027DFF8648193
:1050E00000F15806FEF7B8FE03A8FFF763FC302076
:1050F000FFF7D2FF0020FFF7D9FF05460020FFF79A
:10510000D5FF81460020FFF7D1FF82460020FFF740
:10511000CDFF834603A8FFF765FC05F01F031D2B99
:105120008DF80CB08DF80DA08DF80E908DF80F5005
:1051300005D8290642BF039A04EB83039A65D4F885
:10514000D030FB40DA0729D5FEF786FE7378357834
:10515000306845EA0325B37896F8039045EA03459D
:105160003B1D04EB830393F84B20029022F0800256
:1051700083F84B20FEF770FE9DF80B3009F01F09F5
:1051800069F30403DAB203F06003617845F31705AD
:1051900063B119B149464046FFF778FE01371E2F2B
:1051A00006F104069ED105B0BDE8F08F130641D587
:1051B00089B1284602F028FAD4E9142302F08EFAC5
:1051C0000022214B02F0B4FB009502460B461F481B
:1051D0004946FFF75BFEA9F10809B9F10F0FDDD8C9
:1051E000DFE809F00C080A182220140E161A101213
:1051F0001C241E266560D1E7A560CFE7E560CDE7FA
:105200002561CBE76561C9E7A561C7E7E561C5E74A
:105210002562C3E76562C1E7A562BFE7E562BDE756
:105220002563BBE76563B9E7A563B7E7E563B5E762
:105230002564B3E70029B1D049460548FFF726FEAB
:10524000ACE700BF20AA000000005E4147AA0000B2
:1052500078AA000073B50C460546002601A8FFF7A2
:10526000A9FB45F040002670FFF716FF3046FFF718
:105270001DFF23781843207001A8FFF7B3FB02B08D
:1052800070BD37B505460C4601A8FFF793FB45F006
:105290006000FFF701FF2046FFF7FEFE01A8FFF7C1
:1052A000A1FB03B030BD000013B5044690F8881090
:1052B0000320FFF7E6FF042094F88910FFF7E1FFD1
:1052C000052094F88A10FFF7DCFF062094F88B1075
:1052D000FFF7D7FF0DF107010320FFF7BBFF9DF894
:1052E000071094F888308B4202D01948FFF7CEFDA2
:1052F0000DF107010420FFF7ADFF9DF8071094F8AA
:1053000089308B4202D01348FFF7C0FD0DF1070131
:105310000520FFF79FFF9DF8071094F88A308B4215
:1053200002D00D48FFF7B2FD0DF107010620FFF78F
:1053300091FF9DF8071094F88B308B4205D00748F9
:1053400002B0BDE81040FFF7A1BD02B010BD00BF24
:10535000A5AA0000E1AA00001DAB000059AB0000A7
:10536000F7B504460A253F4F00F1480600213046B4
:10537000FFF792FB0246002862D10123237000252B
:105380003046C4F8D0500921FFF772FE0A21FFF71A
:105390006FFE0821FFF76CFE0F21FFF769FE122157
:1053A000FFF766FE1321FFF763FE0E21FFF760FE95
:1053B0001021FFF75DFE0B21FFF75AFE1121FFF7C9
:1053C00057FE1421FFF754FE1621FFF751FE0D2161
:1053D000FFF74EFE0C21FFF74BFE1521FFF748FEAD
:1053E0001721FFF745FEFFF75FFF42212846FFF731
:1053F00048FF01A8FFF7DEFA8020FFF74DFE01A865
:10540000FFF7F0FA80210820FFF73BFF01A8FFF724
:10541000D1FA4820FFF740FE2846FFF747FE044632
:1054200001A8FFF7DFFA224680210F48FFF72EFD83
:105430000E4B1B68986803B0BDE8F04000F0E0B97F
:105440000146013D3846FFF721FD15F0FF058DD1DE
:105450002378002B93D1064803B0BDE8F040FFF756
:1054600015BD00BF95AB0000C8AB00002C000020AC
:1054700017AC00001FB57C4B02221868002380681F
:10548000194600F003FB0A217848FEF789F90A2142
:105490007648FEF785F90A217448FEF781F90A215A
:1054A0007248FEF77DF90A217048FEF779F90A2162
:1054B0006E48FEF775F90A216C48FEF771F90A216A
:1054C0006A48FEF76DF90A216848FEF769F9482134
:1054D0006648FEF765F965216448FEF761F96C21BD
:1054E0006248FEF75DF96C216048FEF759F96F21BB
:1054F0005E48FEF755F92D215C48FEF751F945212C
:105500005A48FEF74DF953215848FEF749F943210F
:105510005648FEF745F92D215448FEF741F946213A
:105520005248FEF73DF957215048FEF739F90A2154
:105530004E48FEF735F90A214D48FEF731F90A21A8
:105540004B48FEF72DF90A214948FEF729F90A21AF
:105550004748FEF725F90A214548FEF721F90A21B7
:105560004348FEF71DF90A214148FEF719F90A21BF
:105570003F48FEF715F90A213D48FEF711F9482189
:105580003B48FEF70DF965213948FEF709F96C2112
:105590003748FEF705F96C213548FEF701F96F2110
:1055A0003348FEF7FDF82D213148FEF7F9F8452183
:1055B0002F48FEF7F5F853212D48FEF7F1F8432167
:1055C0002B48FEF7EDF82D212948FEF7E9F8462192
:1055D0002748FEF7E5F857212548FEF7E1F80A21AC
:1055E0002348FEF7DDF820232249234A009323486D
:1055F000FFF74CFCFBF720F80722214B21481B68E2
:1056000000241A62FFF742FC74221F481146FFF77C
:105610003DFC7C221D4E1E4D11461E48FFF736FCF8
:105620004FF480522146A6F6F870346200F0E8FB91
:10563000A5F6F8704FF480522146B4612C62F461F3
:1056400000F0DEFBAC6185F82440EC61124D86F879
:10565000244028466C70FFF783FE2846FFF736FD8E
:10566000FEF7FAFBF9E700BF2C00002050530020A2
:10567000C053002037AC000033AC000060AC000029
:1056800014000020AAAC0000CBAC0000582200207F
:1056900014120020FFAC0000E0540020034B1B5C00
:1056A00003F00303022B08BF20387047F5B0000059
:1056B000B1F90C20F8B5160705460C4654D44B68D2
:1056C000002B02DC0B6C002B48DDE66A002E45D077
:1056D000002312F480522F68216A2B6030D0626D53
:1056E000A389590705D56368D21A636B0BB1236C84
:1056F000D21A00232846E66A216AB047431CA389D0
:1057000006D129681D292BD8284ACA40D60727D593
:10571000002262602269D904226004D5421C01D1B2
:105720002B6803B96065616B2F60B9B104F1440364
:10573000994202D0284600F093FC002363630DE0F9
:1057400001232846B0470246501CC9D12B68002BC4
:10575000C6D01D2B01D0162B1DD12F60002021E0BB
:1057600043F040031BB21AE00F69002FF6D09307F5
:1057700018BF00230E6808BF4B69F61B0F608B60D3
:10578000002EEBDD33463A462846216AD4F828C07D
:10579000E047002807DCB4F90C3043F040034FF039
:1057A000FF30A381F8BD0744361AE9E70100402025
:1057B00038B50B6905460C4613B90025284638BD97
:1057C00018B1036A0BB900F0BBF8B4F90C30002B28
:1057D000F3D0626ED00704D4990502D4A06D00F016
:1057E000FEFB28462146FFF763FF636E0546DA0796
:1057F000E4D4A3899B05E1D4A06D00F0F1FBDDE7C3
:10580000014620B9044A0549054800F0B1B8054BE6
:105810001868FFF7CDBF00BF20000020B15700007F
:10582000300000202C000020002310B50446C0E901
:105830000033C0E90433836081814366C2818361A0
:10584000194608225C3000F0DBFA0D4B24626362DB
:105850000C4BA3620C4BE3620C4B23630C4B9C423E
:1058600006D003F16802944202D0D0339C4205D1A5
:1058700004F15800BDE8104000F0B0BB10BD00BFFF
:105880004D5C0000735C0000AB5C0000CF5C00006E
:10589000D8550020024A0349034800F069B800BF08
:1058A00020000020B15700003000002041680C4B60
:1058B00010B59942044601D0FFF77AFFA168094B61
:1058C000994202D02046FFF773FFE168064B9942E8
:1058D00004D02046BDE81040FFF76ABF10BD00BFEE
:1058E000D855002040560020A856002010B50B4B7C
:1058F0000B4C0C4A20461A6004210022FFF794FF4B
:1059000004F1680001220921FFF78EFF04F1D000A5
:105910000222BDE810401221FFF786BF1057002079
:10592000D855002095580000014800F058BB00BF32
:1059300019570020014800F053BB00BF1957002041
:1059400010B50446FFF7F0FF236A1BB1BDE8104015
:10595000FFF7F0BF044B2362044B1B68002BF5D10B
:10596000FFF7C4FFF2E700BFAD580000105700205A
:105970002DE9F8430746884614460026D4E90195E8
:10598000B9F1010905D52468002CF7D13046BDE8EE
:10599000F883AB89012B07D9B5F90E30013303D059
:1059A00029463846C04706436835E9E70FB407B5CE
:1059B000064904AB086853F8042B8168019300F092
:1059C0004BFE03B05DF804EB04B070472C000020E0
:1059D000036A70B505460E4684680BB9FFF7B0FF41
:1059E000636EDB0705D4A389980502D4A06D00F08F
:1059F000F6FAA389190702D52369002B35D1214670
:105A0000284600F0A7F980B34FF0FF35636EDA0740
:105A100005D4A3899B0502D4A06D00F0E1FA2846C5
:105A200070BD002B04DAA2699A4217DC0A2915D04E
:105A300023685A1C22601970A36816F8011F013BE5
:105A4000A3600029EDD1002B11DA22460A21284655
:105A500000F041F90130D7D00A25D7E72246284681
:105A600000F039F90130E7D1CEE7013EE4E72368E1
:105A70005A1C22600A221A70EEE70000024B01460F
:105A80001868FFF7A5BF00BF2C0000202DE9F743E1
:105A90001D46574B04461F680E46904627B13B6A89
:105AA00013B93846FFF74CFFB8F1020F06D0B8F132
:105AB000010F00F29A80002DC0F29780636ED90723
:105AC00005D4A3899A0502D4A06D00F088FA214676
:105AD0003846FFF76DFE616B41B104F14403994212
