:1000000000000120910100007F0300006105000055
:100010008303000073050000850500000000000058
:100020000000000000000000000000008903000044
:100030008B030000000000008D0300008F03000010
:100040009103000093030000950300009703000054
:10005000990300009B0300009D0300009F03000024
:10006000A1030000A3030000A5030000A7030000F4
:10007000A9030000AB030000AD030000AF030000C4
:10008000B1030000B3030000B5030000B703000094
:10009000B9030000BB030000BD030000BF03000064
:1000A000C1030000C3030000C5030000C703000034
:1000B000C9030000CB030000CD030000CF03000004
:1000C000D1030000D3030000D5030000D7030000D4
:1000D000D9030000DB030000DD030000DF030000A4
:1000E000E1030000E3030000E5030000E703000074
:1000F000E9030000EB030000ED030000EF03000044
:10010000F1030000F3030000F5030000F703000013
:10011000F9030000FB030000FD030000FF030000E3
:1001200001040000030400000504000007040000AF
:10013000090400000B0400000D0400000F0400007F
:10014000110400001304000015040000170400004F
:10015000190400001B0400001D0400001F0400001F
:1001600021040000230400002504000027040000EF
:10017000290400002B0400002D0400002F040000BF
:100180003104000033040000000000000000000003
:100190004FF0000BDFF8BE020068DFF8B612096806
:1001A00001F0030100F01C00142801D14BF0020BF8
:1001B000002901D04BF0010BBBF1000F05D0A7487F
:1001C000A749DFF8722200F09FF8A64880470BF09D
:1001D000020ABAF1000F0CD0DFF86E02DFF86E12DF
:1001E00002680B680FB44FF000024FF0FF0302608B
:1001F0000B609D484FF000024FF00103022808D128
:10020000DFF83A120A60DFF83E120A60DFF83212B5
:100210000B60012808D1DFF82A120A60DFF82612E5
:100220000A60DFF81A120B609048002809D1904844
:100230009049914A00F030F890489149914A00F075
:100240002BF891489149924A00F026F8914892493A
:10025000DFF8E22100F058F8BBF1000F10D08F4812
:100260008F49DFF8D62100F04FF80BF0020ABAF1FF
:10027000000F05D00FBC02600B6000BFAFF3008021
:10028000DFF820020FF2030E00474FF000004FF09E
:100290000001DFF814F2FEE72DE9F841884225D08D
:1002A000B2EB010200D5FEE740EA010313F00303BD
:1002B00002D000F01DF819E04FF000039046121133
:1002C000F7D09A421CBFF0C8F0C103F10103F8D186
:1002D00008F00F08B8F1000F08D004780C7000F196
:1002E000010001F10101B8F10108F6D1BDE8F88182
:1002F00008B54FF0000303780B7000F1010001F125
:100300000101013AF7D108BD884237D000F0030659
:10031000002E14D04FF00405A5EB06044FF008079B
:1003200007FB06F8914669FA08F9002C07D080F817
:10033000009069FA07F900F10100013CF5E74FF080
:1003400000060F46091A88460911914614461546BB
:10035000B14206D018BFA0E8340206F10106B1424E
:10036000F8D108F00F08B8F1000F07D002704FEA7B
:10037000322200F10100B8F10108F4E77047FEE70E
:10038000FEE7FEE7FEE7FEE7FEE7FEE7FEE7FEE745
:10039000FEE7FEE7FEE7FEE7FEE7FEE7FEE7FEE735
:1003A000FEE7FEE7FEE7FEE7FEE7FEE7FEE7FEE725
:1003B000FEE7FEE7FEE7FEE7FEE7FEE7FEE7FEE715
:1003C000FEE7FEE7FEE7FEE7FEE7FEE7FEE7FEE705
:1003D000FEE7FEE7FEE7FEE7FEE7FEE7FEE7FEE7F5
:1003E000FEE7FEE7FEE7FEE7FEE7FEE7FEE7FEE7E5
:1003F000FEE7FEE7FEE7FEE7FEE7FEE7FEE7FEE7D5
:10040000FEE7FEE7FEE7FEE7FEE7FEE7FEE7FEE7C4
:10041000FEE7FEE7FEE7FEE7FEE7FEE7FEE7FEE7B4
:10042000FEE7FEE7FEE7FEE7FEE7FEE7FEE7FEE7A4
:10043000FEE7FEE7704700000000A2A2A2A2008033
:100440000340088003401080034030800340348024
:1004500003403880034018080240000000F00020EC
:10046000000001209D0500000000000000000000C9
:10047000000000000000000090010000B004000037
:10048000B0040000A8830200B08302000000002036
:1004900070080020700800203063002030630020C6
:1004A00000F00020E5CC0000A9B200000000000030
:1004B00010B5054C237833B9044B13B10448AFF39E
:1004C00000800123237010BD700800200000000090
:1004D0002483020008B5034B1BB103490348AFF363
:1004E000008008BD00000000740800202483020082
:1004F000A3F5803A704700BF154B002B08BF114B86
:100500009D46FFF7F5FF00218B460F461148124A22
:10051000121A0CF01FFA0C4B002B00D098470B4B13
:10052000002B00D098470020002104000D000B484C
:100530000BF0F2FD0CF0D6FB200029000AF0B4FE0F
:100540000BF0F0FD000008000000000000000000BB
:1005500000000000700800203063002035CD00004E
:100560001EF0040F0CBFEFF30880EFF3098007F0D3
:1005700085BC1EF0040F0CBFEFF30880EFF3098079
:1005800007F0C6BC1EF0040F0CBFEFF30880EFF3BA
:10059000098007F0EDBC0138FDD1704780B500AF90
:1005A00000F0FAF8044B5B69034A43F400735361AB
:1005B000FFF740FF00BF80BD00ED00E080B588B0D0
:1005C00000AF314BD3F8983003F08063FB61FB69D7
:1005D000002B4ED12C4BD3F8983003F480537B6121
:1005E0007B69002B15D1294B294A1A60294B284ACF
:1005F0001A60294B264A1A60284B294A1A60294B4F
:10060000234A1A60284B224A1A60284B204A1A6053
:1006100036E0274A3B1D92E8030083E803001A4BAB
:10062000D3F89C309B0903F007033B613A1D3B69FB
:1006300013441B78FB73FB7B022B12D0022B14DCC0
:10064000002B02D0012B07D00FE000F035F8B86185
:10065000B86900F04FF813E04FF4004000F04AF89A
:100660000EE0144800F046F80AE0124800F042F8A4
:1006700006E000F021F8B861B86900F03BF8FFE748
:1006800000BF2037BD4680BD00800340040000202D
:1006900080651406080000200C00002010000020D7
:1006A0006019850114000020180000201C000020A3
:1006B00004CA010040420F0080B483B000AF0A4B6F
:1006C000D3F8503103F004033B603B68002B02D1A8
:1006D000064B7B6001E0064B7B607B6818460C375D
:1006E000BD4680BC704700BF0080034040787D015C
:1006F00080F0FA0280B483B000AF78600C4A7B6867
:1007000013600C4A7B6813600B4A7B6813600B4BC9
:100710000B4A1A600B4A7B6813600B4A7B681360B4
:100720000A4A7B68136000BF0C37BD4680BC704727
:1007300004000020080000200C0000201000002011
:100740006019850114000020180000201C00002002
:1007500080B483B000AF0E4BD3F84C313B603B68A4
:100760004FF60202934204D03B680A4A934203D0F8
:1007700005E001237B6005E002237B6002E00023AB
:100780007B6000BF7B6818460C37BD4680BC704755
:100790000080034002F8010080B582B000AFFFF78F
:1007A000D7FF78607B68012B02D100F007F800E0EA
:1007B00000BF00BF0837BD4680BD000080B400AF59
:1007C000094BD3F89830084A43F48073C2F8983044
:1007D000054BD3F89830044A23F08063C2F8983070
:1007E00000BFBD4680BC70470080034080B483B02A
:1007F00000AF78604FF0FF3318460C37BD4680BC21
:10080000704780B584B000AFF860B9607A600CF0D2
:1008100063FA03460C221A604FF0FF331846103774
:10082000BD4680BD80B483B000AF786000BFFDE7F7
:1008300080B500AF0CF050FA03460B221A604FF05F
:10084000FF33184680BD80B483B000AF7860396054
:100850003B684FF400525A60002318460C37BD46DF
:1008600080BC704780B400AF01231846BD4680BCF1
:10087000704780B483B000AF7860012318460C370E
:10088000BD4680BC704780B582B000AF78603960EB
:100890000CF022FA034616221A604FF0FF33184676
:1008A0000837BD4680BD80B582B000AF7860396042
:1008B0000CF012FA03461F221A604FF0FF3318465D
:1008C0000837BD4680BD80B485B000AFF860B96020
:1008D0007A60002318461437BD4680BC704780B448
:1008E00085B000AFF860B9607A604FF0FF3318460A
:1008F0001437BD4680BC704780B485B000AFF86047
:10090000B9607A60002318461437BD4680BC704732
:1009100080B485B000AFF860B9607A603B600023B6
:1009200018461437BD4680BC7047000080B586B0BD
:1009300000AF78601F4B1B68002B02D11D4B1E4A75
:100940001A601C4B1B687B61EFF308833B61194BFA
:100950001B683A699A420FD9164B1A687B68134490
:100960003A699A421AD21923144A01210020FFF74A
:10097000CFFF0120FFF756FF114BFB600D4B1A68AC
:100980007B681344FA689A4208D219230D4A012160
:100990000020FFF7BDFF0120FFF744FF054B1A6859
:1009A0007B681344034A13607B6918461837BD46B9
:1009B00080BD00BF90080020306300200CCA0100F9
:1009C00000F0002028CA010080B483B000AF786036
:1009D00039603B684FF400525A60002318460C37C8
:1009E000BD4680BC704780B483B000AF78604FF0E4
:1009F000FF3318460C37BD4680BC704780B582B0C7
:100A000000AF78600CF068F9034602221A604FF0DC
:100A1000FF3318460837BD4680BD80B582B000AFB1
:100A200078600CF059F903460A221A604FF0FF3340
:100A300018460837BD4680BD2DE9B04384B000AFED
:100A400078607B68002298469146104BD3E90023DA
:100A500002FB09F008FB03F10144A8FB02454B1916
:100A60001D460B4A4FF00003204629461BF00AFEA4
:100A700002460B4613460133FB60F868FFF78BFD17
:100A800000BF1037BD46BDE8B08300BF880000201E
:100A900040420F0080B582B000AF78607B684FF4B1
:100AA0007A7202FB03F31846FFF7C6FF00BF083750
:100AB000BD4680BD80B582B000AF78607B684FF4E2
:100AC0007A7202FB03F31846FFF7E4FF00BF083712
:100AD000BD4680BD80B485B000AF786039604FF00E
:100AE000FF33FB603B68BB6012E07B681B781A46F3
:100AF000FB681B0E53400B4A52F82320FB681B0275
:100B00005340FB607B6801337B60BB68013BBB608B
:100B1000BB68002BE9D1FB68DB4318461437BD46A0
:100B200080BC70473CCA010080B500AF304807F078
:100B300021FC304B1B6819462F4807F01BFC2F4B3C
:100B40001B6819462E4807F015FC2E4B1B681946EA
:100B50002D4807F00FFC2D4B1B6819462C4807F059
:100B600009FC2C4B1B6819462B4807F003FC2B4B48
:100B70001B6819462A4807F0FDFB2A4B1B681946DB
:100B8000294807F0F7FB294B1B681946284807F04E
:100B9000F1FB284B1B681946274807F0EBFB274B56
:100BA0001B681946264807F0E5FB264B1B681946CB
:100BB000254807F0DFFB254B1B681946244807F042
:100BC000D9FB244B1B681946234807F0D3FB234B62
:100BD0001B681946224807F0CDFB224B1B681946BB
:100BE000214807F0C7FB214807F0C4FB00BF80BDC8
:100BF0003CCE01000000000054CE01009001000036
:100C000074CE0100B004000090CE0100A883020061
:100C1000A8CE0100A0830200BCCE0100A883020080
:100C2000D4CE010000000020ECCE010070080020AE
:100C300004CF01007008002018CF010030630020AD
:100C400030CF01003063002040CF010000F00020D1
:100C50005CCF010000F0002070CF010000000120F7
:100C60008CCF010030630020A0CF0100B0CF010085
:100C700080B584B000AFF860B9607A603B603B68D3
:100C800018687B68BA68F968984702463B681A603A
:100C90003B681B68002B02D14FF0FF3300E00023BC
:100CA00018461037BD4680BD80B586B000AFF860ED
:100CB000B9607A603B6014E0BB68102B28BF10233A
:100CC0007B613B687A687969F868FFF7D1FF034672
:100CD000002B02DA4FF0FF3307E0BA687B69D31AC2
:100CE000BB60BB68002BE7D1002318461837BD4610
:100CF00080BD000080B586B000AFF860B9607A6052
:100D00003B6000237B617B68002B0BD0BB68FA68DB
:100D100079683048FFF7C8FF0346002B02DA4FF02E
:100D2000FF3353E07A697B6813447B613B68002B97
:100D300012D03B6A002B0FD0BB68FA68396A38685A
:100D4000FFF796FF0346002B02DA4FF0FF333DE03A
:100D50007A693B6A13447B617B6A002B0BD0BB68CA
:100D6000FA68796A1C48FFF79FFF0346002B02DAF6
:100D70004FF0FF332AE07A697B6A13447B61FB6A98
:100D8000002B0BD0BB68FA68F96AB86AFFF770FFEE
:100D90000346002B02DA4FF0FF3317E07A69FB6A53
:100DA00013447B613B6B002B0BD0BB68FA68396B3B
:100DB0000848FFF779FF0346002B02DA4FF0FF33B4
:100DC00004E07A693B6B13447B617B6918461837F2
:100DD000BD4680BDB4CF0100C8CF010080B489B04A
:100DE00000AFF860B9607A603B600023FB610023CC
:100DF000BB6100237B61FB689B681A46BB6893421A
:100E000005D2FB689B681A46BB68D31A7B61FB68F6
:100E10005B6803F00403002B02D07B69BB6101E037
:100E20007B69FB61FB685B6803F04003002B15D016
:100E3000FA69BB6913443B61FB685B6803F0040318
:100E4000002B0CBF01230023DBB21A463B6913447D
:100E50005B08FB613A69FB69D31ABB617B68002BB5
:100E600002D07B68FA691A603B68002B02D03B68AD
:100E7000BA691A6000BF2437BD4680BC70470000C5
:100E80002DE9B04FA0B000AFC7E912017A643B640E
:100E9000D7E91223C7E91C23D7E91C231446C3F35F
:100EA0001305C7E91845D7E91C234FF000004FF0A0
:100EB0000001180D00210346C3F30A03BB66D7E9FE
:100EC0001C234FF000004FF00001D80F0021034613
:100ED000FB66BA6E40F2FF739A4209D16FF000438D
:100EE000BB65FB6EFB65D7E91823C7E91423FFE058
:100EF000D7E9182313430DD1BB6E002B0AD1002371
:100F0000BB654FF000024FF00003C7E91423FB6EEE
:100F1000FB65EDE0FB6EFB65BB6E002B21D1012371
:100F2000BB664FF000024FF00003C7E91423002313
:100F3000BB650CE0D7E918239118B9615B41FB61EF
:100F4000D7E90623C7E91823BB6E013BBB66D7E987
:100F500018234FF0000A03F4002B5AEA0B03E9D0E0
:100F600006E075A3D3E90023C7E914230023BB657A
:100F700073A3D3E90023C7E91E23D7E918234FF051
:100F800000004FF00001190341EA12511003C7E9B4
:100F9000180131E0D7E91823002B0CDAD7E9140146
:100FA000D7E91E238418BC6341EB0303FB63D7E935
:100FB0000E34C7E91434D7E91823911839615B411D
:100FC0007B61D7E90423C7E91823D7E91E23511C05
:100FD000396343F100037B634FF000024FF00003DD
:100FE000D7E90C4521464A08204629460C4642EAE4
:100FF000C4724B08C7E91E23D7E918231343C9D18C
:10100000BB6EA3F2FF33BB6629E0D7E91423911826
:10101000B9605B41FB60D7E90223C7E91423D7E934
:10102000142341498A4241498B4115D3D7E91423FE
:10103000511DB96243F10003FB624FF00A024FF009
:101040000003D7E90A011BF01DFB02460B46C7E966
:101050001423BB6D0133BB65BB6E013BBB66BB6E2E
:10106000002BD2DC41E0D7E9142331498A423149CF
:101070008B4120D2D7E9144522462B464FF0000081
:101080004FF00001990041EA9271900002460B4630
:1010900012EB040843EB050918EB08033B6049EB2E
:1010A00009037B60D7E9008942464B46C7E9142310
:1010B000BB6D013BBB65D7E91423511C396243F179
:1010C00000037B624FF000024FF00003D7E90845B0
:1010D00021464A08204629460C4642EAC4724B087B
:1010E000C7E91423BB6E0133BB66BB6E002BBADBB2
:1010F0007B6C002B02D0FA6D7B6C1A603B6C002B72
:1011000004D0D7E91423396CC1E90023D7F8A03003
:10111000002B03D0BA6DD7F8A0301A6000BF80371B
:10112000BD46BDE8B08F00BF0000C16FF28623004E
:1011300000008D49FD1A07000080C6A47E8D0300C3
:1011400000406352BFC6010080B586B000AFF860B2
:10115000C7E900233A6A7B6AD31A7B610EE0D7E9BC
:1011600000014FF00A024FF000031BF08BFA024619
:101170000B46C7E900237B69013B7B617B69002B40
:10118000EDDC7B6A7B6122E0D7E900014FF00A02C7
:101190004FF000031BF076FA13463B613B69DBB26C
:1011A0003033D9B27B69013BFA6813444AB21A70F2
:1011B000D7E900014FF00A024FF000031BF062FA7A
:1011C00002460B46C7E900237B69013B7B617B69D3
:1011D000002BD9D17B6A18461837BD4680BD000068
:1011E00080B590B006AFF8607A603B600B46FB724A
:1011F00000237B6100233B613B6C6FF00042934214
:1012000015D1D7E90E23134311D097F90B30662B74
:1012100007D097F90B30652B03D097F90B30672B6C
:1012200002D12F4B3B6213E02E4B3B6210E097F94B
:101230000B30662B07D097F90B30652B03D097F94D
:101240000B30672B02D1284B3B6201E0274B3B62FE
:10125000386A0BF0EBFEF8613B6B002B02D0244B9D
:101260007B6219E03B6B002B08D1FB685B6803F0E5
:101270000203002B02D01F4B7B620DE03B6B002B67
:1012800008D1FB685B6803F00103002B02D01A4B06
:101290007B6201E0194B7B62786A0BF0C7FEB86194
:1012A000FA69BB69D11807F1100307F11402F86855
:1012B000FFF794FD7A693B690493FB6903933B6AEA
:1012C000029300230193BB6900937B6A39687868B5
:1012D000FFF710FD034618462837BD4680BD00BF06
:1012E000DCCF0100E0CF0100E4CF0100E8CF010036
:1012F000ECCF0100F0CF0100F4CF0100F8CF0100E6
:101300002DE9B0438AB000AFF860B9607A603B6005
:1013100048A3D3E90023C7E908230023FB61BB6886
:101320001B68BB617B6C002B21D0BA693E4B83FBF1
:101330000231D317C91A0B465B000B44D31ABB61A9
:10134000BB69002B02DABB690333BB613B68002B2E
:101350000DD0BB681B68002BB8BF5B427B617B690B
:10136000182B04DD7B69183BBA691344BB613B68E9
:10137000002B0AD1BB69002B02DABB690133BB61C8
:10138000BB69002BB8BF5B42BB61BA697B68134481
:101390000133FB61FB6923EAE373FB610BE0D7E9EF
:1013A00008014FF00A024FF000031BF06BF90246F0
:1013B0000B46C7E90823FB695A1EFA61002BEED1E0
:1013C000FB68D3E90001D7E90823841841EB030542
:1013D000FB68C3E90045FB68D3E9002313498A424F
:1013E00013498B4118D3FB68D3E9002312F1050898
:1013F00043F100094FF00A024FF00003404649460E
:101400001BF040F902460B46F968C1E90023BB68AE
:101410001B685A1CBB681A6000BF2837BD46BDE870
:10142000B08300BFAFF30080565555550000C16F23
:10143000F28623000080E03779C3110080B5AAB09E
:1014400006AFF8607A603B600B46FB720023C7F87A
:101450008C300023C7F884300023C7F88030002385
:10146000BB6100237B610023FB670023BB67002374
:101470007B6700233B670023FB660023BB660023DA
:10148000BB6500237B6500233B650023FB7497F954
:101490000B30672B03D097F90B30472B23D1012357
:1014A0007B65FB685B6823F02002FB685A60D7F815
:1014B000A83013F1040F05DBFB68DA68D7F8A83011
:1014C0009A4208DC97F90B30672B01D1652300E0C5
:1014D0004523FB7207E097F90B30672B01D1662398
:1014E00000E04623FB7297F90B30662B03D097F987
:1014F0000B30462B01D101233B65FB68DB68002BD9
:1015000002DAFB680622DA607B6D002B06D0FB68EE
:10151000DB68002B02D1FB680122DA60D7F8983033
:10152000002B03D0AB4BC7F888301EE0D7F89830BB
:10153000002B09D1FB685B6803F00203002B03D08A
:10154000A54BC7F8883010E0D7F89830002B09D1A8
:10155000FB685B6803F00103002B03D09F4BC7F8C7
:10156000883002E09E4BC7F88830D7F888000BF02F
:101570005DFD7863FB68DA68FB685B6803F0200355
:1015800007F1A80107F1A00001937B6D00933B6D6B
:10159000FFF7B6FED7E92823134324D01023C7F85A
:1015A0008C301AE0D7E928014FF00A024FF000030F
:1015B0001BF068F8134315D1D7F88C30013BC7F8FE
:1015C0008C30D7E928014FF00A024FF000031BF0DE
:1015D00059F802460B46C7E92823D7F88C30002B70
:1015E000E0D100E000BF3B6D002B37D0FB685B68AB
:1015F00003F02003002B2AD00823FB6419E0D7F85E
:10160000A830022B08DDFB6C0133FB64D7F8A8304F
:10161000033BC7F8A8300CE0D7F8A830002B0FDA4E
:10162000FB6C013BFB64D7F8A8300333C7F8A83044
:1016300000BFFB6C002B04DDFB6C0F2BDFD900E03F
:1016400000BF684AFB6C134493F90030FB74D7F871
:10165000A83043EAE37301337B6623E001237B6612
:10166000FB685B6803F02003002B1BD0D7F8A82091
:101670005D4B83FB0231D317C91A0B465B000B4449
:10168000D31ABB64BB6C002B02DABB6C0333BB64A4
:101690007A6EBB6C13447B66D7F8A820BB6CD31A58
:1016A000C7F8A830FB68DA68D7F88C107B6ECB1AC5
:1016B00023EAE3739342A8BF13463B663B6D002BBE
:1016C0003CD07B6D002B39D0D7E92823C7E9102304
:1016D000D7F88C30FB630EE0FB6B013BFB63D7E973
:1016E00010014FF00A024FF000031AF0CBFF024640
:1016F0000B46C7E910237A6E3B6E1344FA6B9A428D
:10170000EADC0EE0D7E910014FF00A024FF00003C7
:101710001AF0B8FF02460B46C7E910233B6E013BA7
:101720003B663B6E002B09DDD7E910014FF00A0242
:101730004FF000031AF0A6FF1343E3D07A6E7B6BE1
:101740001A443B6E1344C7F880303B6D002B38D0F1
:101750007B6E002B06D10123FB67D7F88030013365
:10176000C7F880307A6ED7F88C309A4204DD7A6EF2
:10177000D7F88C30D31ABB67D7F8A830B3F1FF3F46
:1017800015DAFB68DB68002B11DDD7F8A830DB43E6
:101790007B67FB68DB681A467B6F934228BF134662
:1017A0007B67D7F880207B6F1344C7F8803097F9A8
:1017B0001330002B34D0D7F880300133C7F8803095
:1017C0002EE0D7F8A830002BB8BF5B42FB650023A2
:1017D000BB6516E0ECCF0100F0CF0100F4CF0100B3
:1017E000F8CF01002400002056555555BB6D01333C
:1017F000BB65FB6D9C4A82FB03129210DB17D31A68
:10180000FB65FB6D002BF1DCBB6D022B38BF0223A7
:10181000BB65BA6DD7F8803013440233C7F8803007
:101820003A6E7B6F1344FA68D268934217D27B6D8D
:10183000002B05D0FB685B6803F00803002B0ED07B
:10184000FB68DB681A467B6FD21A3B6ED31A3B6784
:10185000D7F880203B6F1344C7F880301AE03B6D07
:10186000002B17D03A6E7B6F1344FA68D26893420C
:1018700010D93A6E7B6F1344FA68D2689B1A3B63A7
:101880003B6BD7F88020D31AC7F880303A6E3B6B99
:10189000D31A3B667B6F002B0BD13B6F002B08D11B
:1018A0003B6E002B05DCFB685B6803F00803002B34
:1018B00006D00123BB66D7F880300133C7F88030EB
:1018C00007F1140307F11802D7F88010F868FFF742
:1018D00085FAFB685B6803F01003002B05D0BB6939
:1018E000FA6F1344FB670023BB617B6E002B0ED0A5
:1018F000D7E92823786EB96F411A07F11C000191CE
:10190000D7F88C100091FFF71FFC034600E000237E
:10191000C7F88430D7F88C20D7F88430D31AC7F8AA
:101920008C30BA6900230493D7F88430039307F10D
:101930001C030293FB6F01937B6B0093D7F88830F5
:1019400039687868FFF7D6F9F862FB6AB3F1FF3FB0
:1019500001D1FB6AF4E0FA6EFB6A1344FB660023D4
:1019600004930023039300230293BB6F019300238E
:1019700000930023002239687868FFF7BBF9F8620A
:10198000FB6AB3F1FF3F01D1FB6AD9E0FA6EFB6A53
:101990001344FB663B6E002B0CD0D7E9282307F1DC
:1019A0001C00396E0191D7F88C100091FFF7CCFB29
:1019B000034600E00023C7F88430BB6E002B14BF41
:1019C00001230023DBB21A4600230493D7F88430A6
:1019D000039307F11C0302937B6F01930092234B47
:1019E000002239687868FFF785F9F862FB6AB3F17D
:1019F000FF3F01D1FB6AA3E0FA6EFB6A1344FB666A
:101A00000023049300230393002302933B6F01936D
:101A1000002300930023002239687868FFF76AF9F1
:101A2000F862FB6AB3F1FF3F01D1FB6A88E0FA6E0E
:101A3000FB6A1344FB66BB6D002B5DD0D7F8A83062
:101A4000002BB8BF5B42BB63FB7A3B74D7F8A8306E
:101A5000002B01DA2D2300E02B237B74BB6DFB658B
:101A60000023C7F8843025E067666666FCCF010076
:101A7000B96B354BA3FB0123DA0813469B001344D3
:101A80005B00CA1AD3B23033DAB2FB6D013B52B2FB
:101A900090333B4403F8742CFB6D013BFB65D7F896
:101AA00084300133C7F88430BB6B274AA2FB032381
:101AB000DB08BB63FB6D002BDADC07F110020023AF
:101AC0000493D7F88430039307F11C030293002397
:101AD0000193022300931346002239687868FFF7C8
:101AE00009F9F862FB6AB3F1FF3F01D1FB6A27E015
:101AF000FA6EFB6A1344FB6697F91330002B14BF90
:101B000001230023DBB21A467B690493039207F199
:101B10001303029300230193002300930023002268
:101B200039687868FFF7E6F8F862FB6AB3F1FF3FBF
:101B300001D1FB6A04E0FA6EFB6A1344FB66FB6E9C
:101B400018469037BD4680BDCDCCCCCC90B593B077
:101B500006AFF860B9603B601346FB71FB6893F910
:101B600014304C2B02D14FF0FF334DE0BB681B68A3
:101B7000073323F0070303F10801BA681160D3E9C2
:101B80000023C7E90A2307F1180107F1240207F12E
:101B9000140300930B46D7E90A01FFF771F97B693B
:101BA0006FF00042934203D1D7E90623134308D1D3
:101BB0007B696FF00042934215D1D7E906231343A6
:101BC00011D1796AD7E90623786997F9074004901B
:101BD000CDE9022300913B6C3A682146F868FFF793
:101BE000FFFA034610E0796AD7E90623786997F986
:101BF00007400490CDE9022300913B6C3A682146EE
:101C0000F868FFF71BFC034618463437BD4690BD05
:101C10002DE9B04FAAB006AFF865B9653B6513462C
:101C200087F85730FB6D1A6AFB6D5B6A1344C7F87F
:101C30008430D7F884300733DB08C7F880304FF0A2
:101C400000024FF00003C7E918234FF000024FF0E5
:101C50000003C7E91823D7F88030002B02D14FF0DA
:101C6000FF33EEE0D7F88030042B08D8BB6D19683D
:101C70000A1DBB6D1A600B68C7F88C3007E0BB6D9E
:101C800019680A1DBB6D1A600B68C7F88C30D7F84D
:101C90008C30002B0AD10023FB674FF000024FF07D
:101CA0000003C7E91C230023FB66BAE0D7F88430A1
:101CB0005A1E012303FA02F2D7F88C301340002B8E
:101CC00014BF01230023DBB2FB67FB6F002B04D0A2
:101CD000D7F88C305B42C7F88C30D7F884305A1E66
:101CE000012393405A1ED7F88C301340C7F88C302C
:101CF000D7F88C30DA17BB64FA64D7E91223C7E946
:101D00001C234FF0FF33C7F8883009E0D7F88C3038
:101D10005B10C7F88C30D7F888300133C7F88830AB
:101D2000D7F88C30002BF1D1D7F88820FB6D5B6A97
:101D3000D31AFB6609E0D7E91C23911839605B418F
:101D40007B60D7E90023C7E91C23D7E91C23B3F53F
:101D5000801FF0D3D7E9182300244FEA13554FEA28
:101D60000555D7E91C239246C3F3130B44EA0A0333
:101D70003B6445EA0B037B64D7E91034C7E91834A8
:101D8000D7E91823BA636FF31E53FB63FB6EDA17B0
:101D90003B637A633B6BC3F30A084FF0000940F2E0
:101DA000FF3318EB0303BB6249F10003FB624FF002
:101DB00000024FF00003B96A0B050022D7E90E01BB
:101DC000044614433C6219437962D7E90834C7E9F1
:101DD0001834D7E91823BA6123F00043FB61FB6F85
:101DE00000223B617A614FF000024FF00003396935
:101DF000CB070022D7E9060104461443BC6019430F
:101E0000F960D7E90234C7E91834D7E9180107F1B6
:101E1000700407F17C0207F16C0300932346FFF77F
:101E20002FF8F96FD7E91C23F86E0490CDE902234F
:101E30000091D7F8B0303A6D6621F86DFFF7FEFAE1
:101E4000034618469037BD46BDE8B08FB0B485B0A4
:101E500000AF786039603B681B68191D3A681160F3
:101E60001B68FB60FB68002B48D07B6893F914303B
:101E7000682B05D17B681B681AB2FB681A803DE0AD
:101E80007B6893F91430692B05D17B681B685AB2C3
:101E9000FB681A7032E07B6893F914306C2B05D123
:101EA0007B681B681A46FB681A6027E07B6893F919
:101EB00014306A2B08D17B681B6800221C4615462B
:101EC000FB68C3E9004519E07B6893F914307A2B6D
:101ED00004D17B681A68FB681A600FE07B6893F98D
:101EE0001430742B05D17B681B681A46FB681A6096
:101EF00004E07B681B681A46FB681A6000231846DA
:101F00001437BD46B0BC704780B58EB006AFF860E0
:101F1000B9603B601346FB710023FB6197F9073002
:101F2000632B08D1BB681B68191DBA6811601B6858
:101F30005BB2FB7403E0FB6893F91530FB74FB683C
:101F4000DB68002B02DAFB680122DA60FB68DB68E1
:101F5000012BB8BF0123BB611FE0002304930123C1
:101F6000039307F1130302930023019300230093CB
:101F700000230022B96A3868FEF7BCFE78617B69ED
:101F8000B3F1FF3F02D14FF0FF330AE0FA697B69FA
:101F90001344FB61BB69013BBB61BB69002BDCD116
:101FA000FB6918462037BD4680BD000080B58EB065
:101FB00006AFF860B9603B601346FB710023FB611C
:101FC00000237B6100233B61BB681B68191DBA6855
:101FD00011601B68BB61BB69002B01D1174BBB6152
:101FE000B8690BF023F8F861FB68DB68002B07DBAE
:101FF000FB68DB681A46FB69934228BF1346FB6106
:1020000007F1100307F11402F969F868FEF7E6FE1C
:102010007A693B690493FB690393BB6902930023CC
:102020000193002300930023B96A3868FEF762FE2B
:10203000034618462037BD4680BD00BF00D00100D2
:102040002DE9F043CBB006AF07F58876A6F582768A
:10205000306007F58870A0F584700160114607F5BF
:102060008872A2F58872136007F58873A3F20913CA
:102070000A461A700023C7F80C310023BB61002305
:102080007B610023C7F804310023C7F80031002327
:10209000C7F8FC300023C7F8F4300023C7F8F0304D
:1020A00007F58873A3F582731B685B6803F08003F0
:1020B000002B00F0EE8007F58873A3F582731B6890
:1020C00093F914306C2B10D107F58873A3F5847342
:1020D0001B681B68191D07F58872A2F584721268C7
:1020E00011601B68C7F8EC3063E007F58873A3F54F
:1020F00082731B6893F914306A2B16D107F5887325
:10210000A3F584731B681B68073323F0070303F1EF
:10211000080107F58872A2F5847212681160D3E98C
:1021200000231346C7F8EC3043E007F58873A3F5A6
:1021300082731B6893F914307A2B10D107F58873DA
:10214000A3F584731B681B68191D07F58872A2F537
:102150008472126811601B68C7F8EC3029E007F53B
:102160008873A3F582731B6893F91430742B10D114
:1021700007F58873A3F584731B681B68191D07F5A1
:102180008872A2F58472126811601B68C7F8EC307F
:102190000FE007F58873A3F584731B681B68191D8E
:1021A00007F58872A2F58472126811601B68C7F87F
:1021B000EC3007F58873A3F582731B6893F914302C
:1021C000682B04D1D7F8EC301BB2C7F8EC3007F518
:1021D0008873A3F582731B6893F91430692B04D1BB
:1021E000D7F8EC305BB2C7F8EC30D7F8EC30002B06
:1021F000B8BF5B42C7F8F83007F58873A3F5807362
:1022000000221A70D7F8EC30002B06DA07F5887335
:10221000A3F580732D221A7020E007F58873A3F5CB
:1022200082731B685B6803F00203002B06D007F57E
:102230008873A3F580732B221A700FE007F588735B
:10224000A3F582731B685B6803F00103002B05D0C4
:1022500007F58873A3F5807320221A7007F5887339
:10226000A3F5807393F90030002B00F0B2800123B6
:10227000C7F8F43007F58873A3F582731B685B68B1
:1022800043F0080207F58873A3F582731B685A6050
:102290009FE007F58873A3F582731B6893F91430E8
:1022A0006C2B10D107F58873A3F584731B681B682A
:1022B000191D07F58872A2F58472126811601B68F7
:1022C000C7F8F83063E007F58873A3F582731B68DD
:1022D00093F914306A2B16D107F58873A3F584732C
:1022E0001B681B68073323F0070303F1080107F598
:1022F0008872A2F5847212681160D3E90023134634
:10230000C7F8F83043E007F58873A3F582731B68BC
:1023100093F914307A2B10D107F58873A3F58473E1
:102320001B681B68191D07F58872A2F58472126874
:1023300011601B68C7F8F83029E007F58873A3F52A
:1023400082731B6893F91430742B10D107F58873CE
:10235000A3F584731B681B68191D07F58872A2F525
:102360008472126811601B68C7F8F8300FE007F537
:102370008873A3F584731B681B68191D07F58872A1
:10238000A2F58472126811601B68C7F8F83007F56F
:102390008873A3F582731B6893F91430682B04D1FA
:1023A000D7F8F8309BB2C7F8F83007F58873A3F573
:1023B00082731B6893F91430692B04D1D7F8F83075
:1023C000DBB2C7F8F83007F58873A3F580733022C5
:1023D0001A7007F58873A3F2091393F900306F2B75
:1023E00006D1D7F8F830002B02D00123C7F8F4301B
:1023F00007F58873A3F2091393F90030782B0FD0F7
:1024000007F58873A3F2091393F90030582B07D00E
:1024100007F58873A3F2091393F90030622B32D1C8
:1024200007F58873A3F582731B685B6803F02003CC
:10243000002B03D1D7F8F830002B0CD007F58873A8
:10244000A3F5807307F58872A2F2091212785A7008
:102450000223C7F8F43007F58873A3F582731B686D
:102460005B6803F02003002B0DD007F58873A3F5FC
:10247000807393F9013043F020035AB207F5887353
:10248000A3F580735A7007F58873A3F582731B68F0
:102490005B6803F00803002B0ED0D7F80C21D7F8A7
:1024A000F4301344C7F80C3107F11003C7F8FC30BF
:1024B000D7F8F430C7F80031D7F834310A2B50D1AF
:1024C0000023C7F8083147E0D7F8F83000229846D3
:1024D0009146AF4B03FB09F2002303FB08F31344BF
:1024E000AB4AA8FB02452B441D46C7E92C45C7E96A
:1024F0002C45D7E92C014FF000024FF00003CA0829
:1025000000231346C7F8AC30D7F8AC309B00D7F89F
:10251000AC201344C7F8A830D7F8A8305B00D7F830
:10252000F820D31AC7F8A430D7F808310133C7F818
:102530000831D7F8A430DBB23033DAB2D7F808313B
:10254000C3F1820352B203F588733B4403F8F42CC1
:10255000D7F8AC30C7F8F830D7F8F830002BB3D143
:10256000ACE0D7F83431022B07D0D7F83431082B40
:1025700003D0D7F83431102B5BD1D7F83431013B7D
:10258000C7F8C030D7F83431102B07D0D7F8343122
:10259000082B01D1032302E0012300E00423C7F844
:1025A000BC300023C7F808313EE0D7F8F820D7F850
:1025B000C0301340774AD35C87F8EB3007F5887357
:1025C000A3F2091393F90030782B0FD007F5887325
:1025D000A3F2091393F90030692B07D007F588732C
:1025E000A3F2091393F90030752B05D197F8EB305E
:1025F00043F0200387F8EB30D7F808310133C7F8F0
:102600000831D7F80831C3F1820303F588733B44DE
:1026100097F8EB2003F8F42CD7F8F820D7F8BC3063
:1026200022FA03F3C7F8F830D7F8F830002BBCD102
:1026300044E00023C7F808313CE0D7F8F830D7F879
:102640003421B3FBF2F2D7F8341101FB02F29B1AEA
:10265000504AD35C87F8EA3007F58873A3F2091370
:1026600093F90030692B07D007F58873A3F209139B
:1026700093F90030752B05D197F8EA3043F0200329
:1026800087F8EA30D7F808310133C7F80831D7F8AE
:102690000831C3F1820303F588733B4497F8EA20BD
:1026A00003F8F42CD7F8F820D7F83431B2FBF3F361
:1026B000C7F8F830D7F8F830002BBED107F588738B
:1026C000A3F582731B68DB69002B00F01C8107F502
:1026D0008873A3F582731B689B69C7F8E43007F51C
:1026E0008873A3F582731B68DB69C7F8E0300023A9
:1026F000C7F8D830D7F80831C7F8D030D7F8083144
:10270000C3F18203C7F8CC30D7F8E030013BD7F8EB
:10271000E4201344C7F8E430E6E0D7F8E030002BBB
:1027200000F08580D7F8E4301B7887F8DF3097F920
:10273000DF302D2B00F0DE8097F9DF302A2B1FD100
:1027400007F58873A3F584731B681B68191D07F5CB
:102750008872A2F58472126811601B68C7F8D830BD
:10276000D7F8D830002BC0F2C780D7F8E430013B4F
:10277000C7F8E430D7F8E030013BC7F8E03043E079
:102780000023C7F8D8300123C7F8D43023E000BFB6
:10279000CDCCCCCC10D0010097F9DF30303B1A46BD
:1027A000D7F8D43003FB02F2D7F8D8301344C7F877
:1027B000D830D7F8D42013469B0013445B00C7F8E9
:1027C000D430D7F8E430013BC7F8E430D7F8E03034
:1027D000013BC7F8E030D7F8E030002B14D0D7F831
:1027E000E4301B7887F8DF3097F9DF30002B0BD00F
:1027F00097F9DF300133874A134493F90030DBB295
:1028000003F00403002BC7D1D7F8E030002B75D0BC
:10281000D7F8E4301B7887F8DF30D7F8E430013B95
:10282000C7F8E430D7F8E030013BC7F8E030D7F81C
:10283000D830002B54D0D7F8D830D7F8D0209A42CF
:102840005ED9D7F8CC30C7F8C830D7F8D830D7F829
:10285000D020D31AC7F8C43018E0D7F8C830013BED
:1028600007F11C01D7F8C8200A4492F9002003F5AB
:1028700088733B4403F8F42CD7F8C430013BC7F805
:10288000C430D7F8C8300133C7F8C830D7F8C430DF
:10289000002BE2D1D7F8CC30013BC7F8CC30D7F8C9
:1028A000CC20D7F8D0301A44D7F8D830D31A03F553
:1028B00088733B4497F8DF2003F8F42CD7F80831ED
:1028C0000133C7F80831D7F8F0300133C7F8F030DA
:1028D000D7F8D830D7F8D020D31AC7F8D03003E0D3
:1028E000D7F8E030002B0DD0D7F8D030002B7FF494
:1028F00014AF08E000BF06E000BF04E000BF02E044
:1029000000BF00E000BFD7F80831C7F8A03007F5D6
:102910008873A3F582731B68DB68002B07DA07F561
:102920008873A3F582731B680122DA600DE007F556
:102930008873A3F582731B685B6823F0100207F5A8
:102940008873A3F582731B685A6007F58873A3F533
:1029500082731B68DB681A46D7F8F0301344D7F847
:102960000821934238BF1346C7F80831D7F80C2125
:10297000D7F808311344C7F80C3107F1140307F1F5
:10298000180207F58871A1F58270D7F80C1100685C
:10299000FEF724FAD7F80821D7F8A030D31AC7F8E1
:1029A000043107F58873A3F582731B685B6803F035
:1029B0001003002B07D0BB69D7F804211344C7F8D4
:1029C00004310023BB61B969D7F8A030C3F1820399
:1029D00007F11C0213447A6907F58870A0F5887026
:1029E0000492D7F8A02003920293D7F80431019300
:1029F000D7F800310093D7F8FC300A46D7F83011E9
:102A00000068FEF777F90346184607F58A77BD4652
:102A1000BDE8F083840E020080B58CB006AFF8608C
:102A2000B9603B601346FB7100237B6197F9073067
:102A30006E2B05D1B968F868FFF708FA0346DDE0A8
:102A400097F90730252B11D1002304930123039319
:102A5000FB1D029300230193002300930023002217
:102A6000396A3868FEF746F90346C7E097F9073038
:102A7000632B03D097F90730432B0AD197F907202E
:102A80003B6A00933B68B968F868FFF73DFA034674
:102A9000B4E097F90730732B0AD197F907203B6A06
:102AA00000933B68B968F868FFF780FA0346A5E031
:102AB00097F90730652B13D097F90730452B0FD0C6
:102AC00097F90730662B0BD097F90730462B07D0C4
:102AD00097F90730672B03D097F90730472B0AD1B6
:102AE00097F907203B6A00933B68B968F868FFF7DD
:102AF0002DF8034682E097F907306B2B0AD197F93E
:102B000007203B6A00933B68B968F868FFF780F8D4
:102B1000034673E097F90730702B0DD15823FB71F2
:102B2000FB6800221A75FB6828225A60FB6808229D
:102B30009A60FB680822DA6097F90730642B07D0A7
:102B400097F90730692B03D097F90730492B1CD12F
:102B5000FB685B6843F08002FB685A600A237B6174
:102B6000FB685B6823F00802FB685A6097F907303E
:102B7000692B03D097F90730492B06D1FB681B69F5
:102B8000002B02D0FB681B697B6197F90730782B1B
:102B900003D097F90730582B01D110237B6197F9A7
:102BA0000730752B03D097F90730552B08D1FB68F8
:102BB0001B69002B02D0FB681B6900E00A237B61C4
:102BC00097F907306F2B01D108237B6197F9073004
:102BD000622B01D102237B617B69012B0CD997F910
:102BE00007207B6901933B6A00933B68B968F868EA
:102BF000FFF726FA034601E04FF0FF331846183777
:102C0000BD4680BD80B59CB002AFF860B9607A6007
:102C10003B607B683B663B683B617B68002B00F058
:102C20008C8200237B617DE23B6EFB6502E0FB6DE5
:102C30000133FB65FB6D93F90030002B04D0FB6D75
:102C400093F90030252BF2D1FA6D3B6ED31AFB6459
:102C5000FB6C002B0ED007F10803FA68F96C386E94
:102C6000FEF706F80346002BC0F269827A69FB6C16
:102C700013447B61FB6D3B663B6E93F90030002B88
:102C800000F050823B6E01333B660023BB610BE0DA
:102C9000BA69BB6CA6495B1AA64951F823301343A5
:102CA000BB613B6E01333B663B6E1B7887F8673038
:102CB00097F96730002B09D097F9673019469C487F
:102CC00009F098FEB864BB6C002BE1D13B6E93F920
:102CD00000302A2B12D13B691A1D3A611B68FB6137
:102CE000FB69002B06DAFB695B42FB61BB6943F0C1
:102CF0000403BB613B6E01333B6628E00023FB61AC
:102D00000DE0FA6913469B0013445B001A4697F9DD
:102D100067301344303BFB613B6E01333B663B6ED7
:102D20001B7887F8673097F96730002B0FD097F939
:102D300067300133804A134493F90030DBB203F06B
:102D40000403002B03D0FB69B3F5FA7FD9DBFB69E1
:102D5000B3F5FA7F00F3F5813B6E93F900302E2B2B
:102D600003D04FF0FF333B6243E03B6E01333B66E1
:102D70003B6E93F900302A2B0DD13B691A1D3A6145
:102D80001B683B623B6AB3F5FA7F00F3DC813B6E64
:102D900001333B662DE000233B620DE03A6A1346A7
:102DA0009B0013445B001A4697F967301344303B8D
:102DB0003B623B6E01333B663B6E1B7887F86730A6
:102DC00097F96730002B0FD097F9673001335A4AD3
:102DD000134493F90030DBB203F00403002B03D05B
:102DE0003B6AB3F5FA7FD9DB3B6AB3F5FA7F00F3B0
:102DF000AC813B6E93F900303A2B02D000237B620A
:102E000048E03B6E01333B663B6E93F900302A2B62
:102E100014D13B691A1D3A611B687B647B6C002BE3
:102E200002DA00237B6205E07B6C242B00F38F81A8
:102E30007B6C7B623B6E01333B662BE000237B6245
:102E40000DE07A6A13469B0013445B001A4697F91B
:102E500067301344303B7B623B6E01333B663B6E15
:102E60001B7887F8673097F96730002B0ED097F9F9
:102E700067300133304A134493F90030DBB203F07A
:102E80000403002B02D07B6A232BDADD7B6A242B20
:102E900000F35F8110237B631023BB6300233B633C
:102EA0000023FB623B6E1B7887F8673097F9673029
:102EB0005B2B24D10023BB653B6E01333B663B6E2D
:102EC000FB6205E03B6E01333B66BB6D0133BB65C6
:102ED0003B6E1B7887F8673097F96730002B03D07B
:102EE00097F967305D2BEDD197F96730002B00F033
:102EF00032813B6E01333B66BB6D3B639CE097F9CF
:102F000067307B2B40F098803B6E01333B663B6E15
:102F100093F900302A2B08D13B691A1D3A611B68CE
:102F20007B653B6E01333B662DE000237B6513E040
:102F300038D0010040D00100840E02007A6D1346A3
:102F40009B0013445B001A4697F967301344303BEB
:102F50007B653B6E01333B663B6E1B7887F86730C1
:102F600097F96730002B0ED097F967300133844A08
:102F7000134493F90030DBB203F00403002B02D0BA
:102F80007B6D1F2BDAD97B6D202B00F2E6803B6E28
:102F900093F900302E2B40F0E2803B6E01333B660C
:102FA0003B6E93F900302A2B08D13B691A1D3A6118
:102FB0001B683B653B6E01333B6627E000233B65A6
:102FC0000DE03A6D13469B0013445B001A4697F9D7
:102FD00067301344303B3B653B6E01333B663B6ED1
:102FE0001B7887F8673097F96730002B0ED097F978
:102FF00067300133624A134493F90030DBB203F0C7
:103000000403002B02D03B6D1F2BDAD997F96730F0
:10301000002B00F0A6803B6E01333B663B6D202BFE
:1030200000F2A1807A6D3B6D13441F2B00F29D804E
:103030007B6D7B633B6DBB633B6E1B7887F86730B2
:1030400097F96730002B0ED097F9673019464D4835
:1030500009F0D0FC0346002B05D03B6E01333B66E4
:1030600097F9673000E0002387F8283097F9283077
:10307000002B17D03B6E1B7887F8673097F96730C5
:10308000002B0FD097F9283097F967209A4209D181
:1030900097F9283043F001035BB287F828303B6E84
:1030A00001333B663B6E1B7887F8673097F96730D2
:1030B000002B05D13B691A1D3A611B683B6631E064
:1030C00097F8673087F8433097F94330432B0FD197
:1030D0003B6E01333B663B6E1B7887F8673097F990
:1030E0006730002B43D097F8673087F8293002E02B
:1030F000002387F8293097F9432007F1100107F1E1
:10310000140007F108030093FB68FFF785FCF863E0
:10311000FB6B002B2DDB7A69FB6B13447B613B6EF1
:1031200001333B663B6E1B7887F8673097F9673051
:10313000002B7FF479AD7B691EE000BF1AE000BF71
:1031400018E000BF16E000BF14E000BF12E000BFAF
:1031500010E000BF0EE000BF0CE000BF0AE000BFBF
:1031600008E000BF06E000BF04E000BF02E000BFCF
:1031700000E000BF4FF0FF3318466837BD4680BD02
:10318000840E020008D0010080B483B000AF7860E4
:103190007B6800221A7000225A7000229A70002266
:1031A000DA707B6818460C37BD4680BC704780B427
:1031B00083B000AF78607B6800221A7000225A70DA
:1031C00000229A700022DA707B6818460C37BD46E0
:1031D00080BC704780B483B000AF78607B68002209
:1031E0001A7000225A7000229A700022DA707B68EE
:1031F00018460C37BD4680BC7047000080B582B0D1
:1032000000AF78607B681B681946304805F0B2F85B
:103210007B681B78C3F30003DBB219462C4805F02A
:10322000A9F87B681B78C3F34003DBB21946294831
:1032300005F0A0F87B681B78C3F38003DBB2194666
:10324000254805F097F87B681B78C3F3C003DBB211
:103250001946224805F08EF87B681B78C3F30013EB
:10326000DBB219461E4805F085F87B681B78C3F36E
:103270004013DBB219461B4805F07CF87B681B78CD
:10328000C3F38013DBB21946174805F073F87B6867
:103290001B78C3F3C013DBB21946144805F06AF873
:1032A0007B685B78C3F30303DBB21946104805F073
:1032B00061F87B685B78C3F30313DBB219460C48F3
:1032C00005F058F800BF0837BD4680BD60D001004A
:1032D0008CD00100A4D00100BCD00100D4D00100EA
:1032E000ECD0010004D101001CD1010034D1010057
:1032F0004CD1010080B584B000AF78607B68B3F931
:1033000000301BB2BB817B68B3F904301BB2FB8178
:1033100007F10E0207F10C031146184600F08AFF70
:103320000346B3F900309AB27B68B3F900301BB2A0
:1033300019467B68B3F904301BB2CB1A002BB8BF17
:103340005B42D90F0B445B109BB213449BB21BB280
:1033500018461037BD4680BD80B582B000AF78609A
:1033600079680A684B680F4805F004F87B68B3F980
:1033700000301BB219460C4804F0FCFF7B68B3F91F
:1033800004301BB21946094804F0F4FF7868FFF7CF
:10339000B1FF03461946064804F0ECFF00BF0837AA
:1033A000BD4680BD64D1010080D1010090D10100F3
:1033B000A0D1010080B586B000AF0023FB82A84BEE
:1033C0001A6807F10C038C321068516803C3A44BD0
:1033D0001A683B1DAC321068516803C3A14804F061
:1033E000C9FF07F10C031846FFF7B6FF9E4804F02B
:1033F000C1FF3B1D1846FFF7AFFFB7F90C30002B9C
:1034000005D0B7F91030002B01D0012300E00023D4
:103410007B75B7F90430002B05D0B7F90830002BC5
:1034200001D0012300E000233B75B7F90C20B7F968
:1034300010309A4201D100237B75B7F90420B7F907
:1034400008309A4201D100233B75B7F90C30874A06
:1034500082FB03121A445112DA178A1A40F2DA2157
:1034600001FB02F29A1A13B2BB81B7F910307F4AFE
:1034700082FB03121A445112DA178A1A40F2DA2137
:1034800001FB02F29A1A13B23B82B7F90430774A71
:1034900082FB03121A445112DA178A1A40F2DA2117
:1034A00001FB02F29A1A13B2BB80B7F908306F4AD7
:1034B00082FB03121A445112DA178A1A40F2DA21F7
:1034C00001FB02F29A1A13B23B81B7F90C30002BC0
:1034D00007DAB7F90C309BB203F2DA239BB21BB2C6
:1034E000BB81B7F91030002B07DAB7F910309BB267
:1034F00003F2DA239BB21BB23B82B7F90430002BF4
:1035000007DAB7F904309BB203F2DA239BB21BB29D
:10351000BB80B7F90830002B07DAB7F908309BB247
:1035200003F2DA239BB21BB23B81B7F90C301A4687
:10353000B7F91030D31A002BB8BF5B42B3F5B77F91
:1035400016DBB7F90C20B7F910309A4208DAB7F950
:103550000C309BB203F2DA239BB21BB2BB8107E0B3
:10356000B7F910309BB203F2DA239BB21BB23B8255
:10357000B7F904301A46B7F90830D31A002BB8BF90
:103580005B42B3F5B77F16DBB7F90420B7F9083013
:103590009A4208DAB7F904309BB203F2DA239BB2FD
:1035A0001BB2BB8007E0B7F908309BB203F2DA2305
:1035B0009BB21BB23B81B7F90C301A46B7F91030F9
:1035C000D31A002BB8BF5B42B3F5B77F01DB0023F2
:1035D0007B75B7F904301A46B7F90830D31A002BB7
:1035E000B8BF5B42B3F5B77F01DB00233B752048D2
:1035F00004F0C0FE07F10C031846FFF7ADFE1A48B1
:1036000004F0B8FE3B1D1846FFF7A6FE7B7D002B9D
:1036100006D007F10C031846FFF76CFE0346FB8249
:103620003B7D002B09D03B1D1846FFF763FE034688
:10363000FA8A9BB213449BB2FB827B7D002B08D09D
:103640003B7D002B05D0B7F91630DA0F13445B1021
:10365000FB82B7F9163018461837BD4680BD00BF4B
:103660004C000020B0D10100DCD10100B1F98CB3D5
:10367000E0D1010080B588B000AF0023FB6107F105
:1036800014031846FFF780FD3B7D43F001033B75B3
:103690003B7D43F002033B753B7D43F004033B75E8
:1036A000954B1B68203307F11402106818606420E2
:1036B000FDF7F0F907F110031846FFF778FD8E4B80
:1036C0001A6807F1100324321068186000233B8247
:1036D000894B1B68243307F110021068186000231F
:1036E000FB6112E0844B1A6807F110032432106862
:1036F0001860B7F91020B7F912309A420AD00120A9
:10370000FDF7C8F9FB690133FB61FB69B3F5FA6F9B
:10371000E8D300E000BF3B7D43F008033B75764BE8
:103720001B68203307F11402106818603B7D23F0FA
:1037300008033B75704B1B68203307F114021068B7
:10374000186040F2EE233B826B4B1B68243307F179
:103750001002106818600023FB6112E0664B1A68C3
:1037600007F11003243210681860B7F91020B7F978
:1037700012309A420AD00120FDF78CF9FB6901331F
:10378000FB61FB69B3F5FA6FE8D300E000BFFFF718
:1037900011FE03467B837B8B2D3B9BB21BB23B828E
:1037A000554B1B68243307F1100210681860B7F9F5
:1037B0001A302D3B1946514804F0DCFD0023FB6113
:1037C00013E04D4B1A6807F110032432106818609B
:1037D000B7F91A302D3BB7F9122093420AD00120D5
:1037E000FDF758F9FB690133FB61FB69B3F5FA6F2B
:1037F000E7D300E000BF7B8B3B823F4B1B68243349
:1038000007F1100210681860B7F91A3019463B48E2
:1038100004F0B0FD0023FB6112E0374B1A6807F19A
:103820001003243210681860B7F91230B7F91A2063
:103830009A420AD00120FDF72DF9FB690133FB61A3
:10384000FB69B3F5FA6FE8D300E000BFB7F91230B7
:10385000FA6919462A4804F08DFD3B7D43F00803C0
:103860003B75254B1B68203307F114021068186064
:103870003B7D23F008033B751F4B1B68203307F18A
:103880001402106818601C4B1A6807F108038C3288
:103890001068516803C3184B1A683B46AC32106875
:1038A000516803C3174804F065FD07F10803184683
:1038B000FFF752FD144804F05DFD3B461846FFF744
:1038C0004BFD124B01221A603B7D23F001033B7537
:1038D0003B7D23F002033B753B7D23F004033B75E6
:1038E000054B1B68203307F114021068186000BFF5
:1038F0002037BD4680BD00BF4C00002010D2010023
:103900003CD2010070D20100DCD10100380000205F
:1039100080B586B000AF786000237B6100237B8296
:103920007B68082B01D9FFF7A5FE5F4B1B687A68FF
:103930009A4200F0B4807B68002B02D187237B82FF
:103940000DE07B689BB21A4652001A449200134461
:103950001A46D200D31A9BB25B3B9BB27B8207F123
:103960000C031846FFF710FC3B7B43F001033B734D
:103970003B7B43F002033B733B7B43F004033B730D
:103980004A4B1B68203307F10C0210681860642052
:10399000FDF780F807F108031846FFF708FC434BD2
:1039A0001A6807F10803243210681860B7F912305A
:1039B0002D3B19463E4804F0DDFC7B8A2D3B9BB233
:1039C0001BB23B81394B1B68243307F10802106896
:1039D000186000237B6113E0344B1A6807F1080379
:1039E000243210681860B7F912302D3BB7F90A205D
:1039F00093420AD00120FDF74DF87B6901337B61CA
:103A00007B69B3F5FA6FE7D300E000BFB7F9123076
:103A10001946274804F0AEFC7B8A3B81234B1B6888
:103A2000243307F108021068186000237B6112E05C
:103A30001E4B1A6807F10803243210681860B7F9A2
:103A40000A30B7F912209A420AD00120FDF722F875
:103A50007B6901337B617B69B3F5FA6FE8D300E0E2
:103A600000BFB7F90A307A691946124804F082FC9F
:103A70000D4A7B6813603B7B23F001033B733B7B68
:103A800023F002033B733B7B23F004033B73074BA0
:103A90001B68203307F10C021068186000E000BFBB
:103AA0001837BD4680BD00BF380000204C00002004
:103AB00010D201003CD2010080B588B000AF194B94
:103AC0001B68082B01D9FFF7D5FD07F10C03184639
:103AD000FFF76DFB144B1A6807F10C0324321068D2
:103AE0001860B7F90C20B7F90E309A4201D00123C3
:103AF00099E30C4B1B68B7F90E2019460B4804F0EC
:103B000039FC084B1B68002B12D1B7F90E30852BFE
:103B100005DDB7F90E30882B01DC012383E3002398
:103B200081E300BF380000204C00002090D201004B
:103B300007F108031846FFF727FB3B7A43F0010320
:103B40003B723B7A43F002033B723B7A23F004035F
:103B50003B72A14B1B68203307F108021068186004
:103B60006420FCF797FF3B1D1846FFF733FB9A4B89
:103B70001A683B1D283210681860984804F0FAFB58
:103B80003B1D1846FFF73AFB3B7903F00103DBB21C
:103B9000002B0CBF01230023DAB23B7903F00203B0
:103BA000DBB2002B14BF01230023DBB21340DBB2D6
:103BB0001A463B7903F00403DBB2002B14BF012348
:103BC0000023DBB213403A7902F00802D2B2002A95
:103BD00014BF01220022D2B21340002B14BF0123D4
:103BE0000023FB773B7903F01003DBB2002B0CBF03
:103BF00001230023DAB23B7903F02003DBB2002B70
:103C000014BF01230023DBB21340DBB21A463B7919
:103C100003F04003DBB2002B14BF01230023DBB20F
:103C200013403A7922F07F02D2B2002A14BF012257
:103C30000022D2B21340002B14BF01230023BB7714
:103C40003B7903F00103DBB2002B14BF01230023F7
:103C5000DAB23B7903F00203DBB2002B0CBF012385
:103C60000023DBB21340DBB21A463B7903F00403B6
:103C7000DBB2002B14BF01230023DBB213403A79DF
:103C800002F00802D2B2002A14BF01220022D2B2EE
:103C90001340002B14BF012300237B773B7903F0F3
:103CA0001003DBB2002B14BF01230023DAB23B79EF
:103CB00003F02003DBB2002B0CBF01230023DBB297
:103CC0001340DBB21A463B7903F04003DBB2002B12
:103CD00014BF01230023DBB213403A7922F07F02A4
:103CE000D2B2002A14BF01220022D2B21340002B0C
:103CF00014BF012300233B773B7903F00103DBB2C0
:103D0000002B14BF01230023DAB23B7903F0020336
:103D1000DBB2002B14BF01230023DBB21340DBB264
:103D20001A463B7903F00403DBB2002B0CBF0123DE
:103D30000023DBB213403A7902F00802D2B2002A23
:103D400014BF01220022D2B21340002B14BF012362
:103D50000023FB763B7903F01003DBB2002B14BF8A
:103D600001230023DAB23B7903F02003DBB2002BFE
:103D700014BF01230023DBB21340DBB21A463B79A8
:103D800003F04003DBB2002B0CBF01230023DBB2A6
:103D900013403A7922F07F02D2B2002A14BF0122E6
:103DA0000022D2B21340002B14BF01230023BB76A4
:103DB0003B7903F00103DBB2002B14BF0123002386
:103DC000DAB23B7903F00203DBB2002B0CBF012314
:103DD0000023DBB204E000BF4C000020C8D2010089
:103DE0001340DBB21A463B7903F00403DBB2002B2D
:103DF0000CBF01230023DBB213403A7902F0080222
:103E0000D2B2002A14BF01220022D2B21340002BEA
:103E100014BF012300237B763B7903F01003DBB250
:103E2000002B14BF01230023DAB23B7903F02003F7
:103E3000DBB2002B0CBF01230023DBB21340DBB24B
:103E40001A463B7903F04003DBB2002B0CBF012381
:103E50000023DBB213403A7922F07F02D2B2002A6B
:103E600014BF01220022D2B21340002B14BF012341
:103E700000233B763B7903F00103DBB2002B14BF38
:103E800001230023DAB23B7903F00203DBB2002BFB
:103E900014BF01230023DBB21340DBB21A463B7987
:103EA00003F00403DBB2002B14BF01230023DBB2B9
:103EB00013403A7902F00802D2B2002A0CBF012264
:103EC0000022D2B21340002B14BF01230023FB7544
:103ED0003B7903F01003DBB2002B14BF0123002356
:103EE000DAB23B7903F02003DBB2002B14BF0123CD
:103EF0000023DBB21340DBB21A463B7903F04003E8
:103F0000DBB2002B14BF01230023DBB213403A794C
:103F100022F07F02D2B2002A0CBF01220022D2B2CC
:103F20001340002B14BF01230023BB753B7903F022
:103F30000103DBB2002B14BF01230023DAB23B796B
:103F400003F00203DBB2002B0CBF01230023DBB222
:103F50001340DBB21A463B7903F00403DBB2002BBB
:103F600014BF01230023DBB213403A7902F00802A8
:103F7000D2B2002A0CBF01220022D2B21340002B81
:103F800014BF012300237B753B7903F01003DBB2E0
:103F9000002B14BF01230023DAB23B7903F0200386
:103FA000DBB2002B0CBF01230023DBB21340DBB2DA
:103FB0001A463B7903F04003DBB2002B14BF012308
:103FC0000023DBB213403A7922F07F02D2B2002AFA
:103FD0000CBF01220022D2B21340002B14BF0123D8
:103FE00000233B753B7903F00103DBB2002B14BFC8
:103FF00001230023DAB23B7903F00203DBB2002B8A
:1040000014BF01230023DBB21340DBB21A463B7915
:1040100003F00403DBB2002B0CBF01230023DBB24F
:1040200013403A7902F00802D2B2002A0CBF0122F2
:104030000022D2B21340002B14BF01230023FB74D3
:104040003B7903F01003DBB2002B14BF01230023E4
:10405000DAB23B7903F02003DBB2002B14BF01235B
:104060000023DBB21340DBB21A463B7903F0400376
:10407000DBB2002B0CBF01230023DBB213403A79E3
:1040800022F07F02D2B2002A0CBF01220022D2B25B
:104090001340002B14BF01230023BB743B7903F0B2
:1040A0000103DBB2002B14BF01230023DAB23B79FA
:1040B00003F00203DBB2002B0CBF01230023DBB2B1
:1040C0001340DBB21A463B7903F00403DBB2002B4A
:1040D0000CBF01230023DBB213403A7902F008023F
:1040E000D2B2002A0CBF01220022D2B21340002B10
:1040F00014BF012300237B743B7903F01003DBB270
:10410000002B14BF01230023DAB23B7903F0200314
:10411000DBB2002B0CBF01230023DBB21340DBB268
:104120001A463B7903F04003DBB2002B0CBF01239E
:104130000023DBB213403A7922F07F02D2B2002A88
:104140000CBF01220022D2B21340002B14BF012366
:1041500000233B74364B1B68013B072B62D801A23E
:1041600052F823F08541000099410000AD41000064
:10417000C1410000D5410000E9410000FD410000BF
:1041800011420000FA7FBB7F1343DBB2002B14BF48
:1041900001230023DBB246E07A7F3B7F1343DBB28F
:1041A000002B14BF01230023DBB23CE0FA7EBB7E70
:1041B0001343DBB2002B14BF01230023DBB232E038
:1041C0007A7E3B7E1343DBB2002B14BF0123002316
:1041D000DBB228E0FA7DBB7D1343DBB2002B14BFBA
:1041E00001230023DBB21EE07A7D3B7D1343DBB26B
:1041F000002B14BF01230023DBB214E0FA7CBB7C4C
:104200001343DBB2002B14BF01230023DBB20AE00F
:104210007A7C3B7C1343DBB2002B14BF01230023C9
:10422000DBB200E0002318462037BD4680BD00BF4A
:104230003800002080B483B000AF786039603B68FC
:10424000B3F900207B68B3F900309A4201DA3B6889
:1042500000E07B6818460C37BD4680BC704780B5CF
:1042600084B000AFF860B9607A603B60FB68BA6800
:104270001A60FB687A685A60FB6800221A72FB6851
:104280003A68DA60FB681B68184608F0CFFE034600
:10429000DAB2FB681A72FB6818461037BD4680BD5B
:1042A00080B582B000AF786039607B681B681846C3
:1042B00017F0AAFD3B68D3E9002317F00FFE024672
:1042C0000B46104619464FF00002054B17F030FF21
:1042D00002460B46104619460837BD4680BD00BF52
:1042E00000005E4180B483B000AF786001231846BF
:1042F0000C37BD4680BC704780B483B000AF786097
:10430000044A7B681A607B6818460C37BD4680BC3F
:10431000704700BF50D3010080B582B000AF786015
:104320007868FFF7E9FF0421786818F055FB7B688F
:1043300018460837BD4680BD98B500AF3F4C404B8E
:10434000404A41492046FFF78AFF10343F4B404A1C
:1043500040492046FFF783FF10343F4B3F4A404916
:104360002046FFF77CFF1034384B3E4A3E4920463A
:10437000FFF775FF1034384B3C4A3D492046FFF7A4
:104380006EFF10343B4B3C4A3C492046FFF767FF29
:1043900010343B4B3B4A3C492046FFF760FF10344A
:1043A0003A4B3B4A3B492046FFF759FF10343A4B02
:1043B0003A4A3B492046FFF752FF1034394B3A4AFC
:1043C0003A492046FFF74BFF1034364B364A3849FE
:1043D0002046FFF744FF1034364B374A3749204612
:1043E000FFF73DFF1034334B334A35492046FFF782
:1043F00036FF1034334B344A34492046FFF72FFF41
:104400001034334B334A34492046FFF728FF103429
:10441000324B334A33492046FFF721FF1034324BE9
:10442000324A33492046FFF71AFF04F11000314B9E
:10443000314A3249FFF713FF00BF98BD9C080020A6
:10444000A94900005CD3010094D30100194A00007F
:104450009CD30100B0D30100D94A0000BCD30100B5
:10446000D8D30100E4D30100FCD3010000D4010043
:1044700020D40100654B000024D4010070D4010059
:104480005D4C00007CD40100CCD40100294F000019
:10449000D8D4010008D50100B150000010D50100AA
:1044A00094D50100CD6C000084FC010074FC010077
:1044B000A4D50100456E0000C8FC0100B8FC010055
:1044C000A8D501004970000008FD0100F4FC0100BE
:1044D000D9510000ACD50100E0D5010041520000E7
:1044E000E8D501004CD60100B95400005CD60100AB
:1044F0009CD6010011550000ACD60100F8D6010091
:1045000080B500AF0248FFF7F7FE00BF80BD00BFD7
:104510003C00002080B500AFFFF70EFF80BD80B5E6
:1045200000AFFFF7EDFF80BD80B483B000AF7860CF
:104530007B6800221A7000225A7000229A700022B2
:10454000DA707B6818460C37BD4680BC70470000A7
:1045500080B582B000AF78600F4803F00BFF7B6836
:104560001B6819460D4803F005FF7B685B68194618
:104570000B4803F0FFFE7B689B681946094803F06F
:10458000F9FE7B68DB681946074803F0F3FE00BFBD
:104590000837BD4680BD00BF0CD7010024D70100FD
:1045A0003CD7010054D7010070D7010080B582B01C
:1045B00000AF78607B681B681946664803F0DAFE36
:1045C0007B681B78C3F30003DBB21946624803F033
:1045D000D1FE7B681B78C3F34003DBB219465F480A
:1045E00003F0C8FE7B681B78C3F38003DBB2194677
:1045F0005B4803F0BFFE7B681B78C3F3C003DBB2EC
:104600001946584803F0B6FE7B681B78C3F30013C5
:10461000DBB21946544803F0ADFE7B681B78C3F348
:104620004013DBB21946514803F0A4FE7B681B78A7
:10463000C3F38013DBB219464D4803F09BFE7B6841
:104640001B78C3F3C013DBB219464A4803F092FE4D
:104650007B685B78C3F30003DBB21946464803F07E
:1046600089FE7B685B78C3F34003DBB2194643489D
:1046700003F080FE7B685B78C3F38003DBB21946EE
:104680003F4803F077FE7B685B78C3F3C003DBB27F
:1046900019463C4803F06EFE7B685B78C3F3001359
:1046A000DBB21946384803F065FE7B685B78C3F3DC
:1046B0004013DBB21946354803F05CFE7B685B783B
:1046C000C3F38013DBB21946314803F053FE7B6815
:1046D0005B78C3F3C013DBB219462E4803F04AFEE1
:1046E0007B689B78C3F30003DBB219462A4803F0CA
:1046F00041FE7B689B78C3F34003DBB21946274831
:1047000003F038FE7B689B78C3F38003DBB2194665
:10471000234803F02FFE7B689B78C3F3C003DBB212
:104720001946204803F026FE7B689B78C3F30013EC
:10473000DBB219461C4803F01DFE7B689B78C3F36F
:104740004013DBB21946194803F014FE00BF0837C6
:10475000BD4680BD84D70100B0D70100C4D7010099
:10476000D8D70100ECD7010000D8010014D801000F
:1047700028D801003CD8010050D8010060D80100C1
:1047800070D8010080D8010094D80100A8D8010099
:10479000B4D80100C0D80100CCD80100DCD8010099
:1047A000ECD80100FCD801000CD9010020D901008F
:1047B00080B582B000AF78607B681B6819460B48F3
:1047C00003F0D8FD7B68B3F900301BB219460848E6
:1047D00003F0D0FD7B68B3F902301BB219460548DF
:1047E00003F0C8FD00BF0837BD4680BD34D90100C5
:1047F00064D9010078D9010080B584B000AF786039
:104800007B6803F580539B8919467B6803F58053C9
:1048100093F82130002B01D0592200E04E227B6812
:1048200003F580535B6A104803F0A4FD0023FB608E
:104830000BE07A68FB6813440C331B7819460B486D
:1048400003F098FDFB680133FB607B6803F5805340
:104850009B891A46FB689342EBD3054803F08AFD17
:1048600000BF1037BD4680BDDCDA0100F8DA010078
:1048700000DB010080B582B000AF786039607B68F2
:104880001B68184617F0C0FA3B68D3E9002317F0FD
:1048900025FB02460B46104619464FF00002054B19
:1048A00017F046FC02460B46104619460837BD462F
:1048B00080BD00BF00005E4180B483B000AF78606F
:1048C0000B46FB707B68FA781A7100BF0C37BD4647
:1048D00080BC704780B483B000AF78607B681B7980
:1048E00018460C37BD4680BC7047000080B584B0C8
:1048F00000AF78607B685B681B6830331B687A6840
:104900005268104698477B689B681846FFF720FE60
:104910007B685B681B6824331B687A6852681046A2
:10492000984701467B6893F82130002B01D059222B
:1049300000E04E227B685B6A184803F01BFD0023F1
:10494000FB6012E07B685A687B685B681B68083311
:104950001B68F9681046984703461A46F9681048DC
:1049600003F008FDFB680133FB607B685B681B6834
:1049700024331B687A685268104698470246FB68E1
:10498000934234BF01230023DBB2002BDAD1054868
:1049900003F0F0FC00BF1037BD4680BD04DB010012
:1049A0002CDB010000DB010080B586B002AFF860AF
:1049B000B9607A603B60134B1B68002B14BF012366
:1049C0000023DBB2002B0ED00E4B1B6819680D4B79
:1049D0001B685B6801930C4B00936D230B4A0C48DA
:1049E00003F0C8FC05E0084B6D220849094803F0B4
:1049F000C1FCB86808F01AFB03465BB218461037D2
:104A0000BD4680BD4C000020A0E7010038DB01005E
:104A10003CDB01009CDB010080B588B000AFF86092
:104A2000B9607A603B6000237B6107F114031A468A
:104A30002049B86807F02AFE0346FB7797F91F3034
:104A4000002B16DC1C4803F095FC1C4B1A687B6994
:104A500013441B78BB617B69BA691946184803F097
:104A600089FCB969174803F085FC174803F082FCFC
:104A70001AE07B6923F003037B61104B1A687B69A2
:104A800013441B78BB610C4803F074FC7B69BA6962
:104A900019460E4803F06EFCB9690D4803F06AFC34
:104AA000B9690C4803F066FC7B685BB21846203796
:104AB000BD4680BDD8DB0100DCDB01004C000020DE
:104AC000F0DB010004DC010000DB01000CDC010074
:104AD00020DC010028DC010080B588B000AFF86060
:104AE000B9607A603B600023BB6100237B6107F102
:104AF000140307F118021649B86807F0C7FD03460A
:104B0000FB7797F91F30012B09DC97F91F301A4604
:104B1000B968104803F02EFC4FF0FF3313E07B69B7
:104B2000D9B20D4B1A68BB6913440A461A707B69E7
:104B300019460A4803F01EFCBB691946084803F0F1
:104B400019FC7B685BB218462037BD4680BD00BFAC
:104B500034DC01003CDC01004C00002098DC01004A
:104B6000BCDC010080B588B000AFF860B9607A6045
:104B70003B6007F11C031846FEF706FB07F118031C
:104B80001846FEF714FB07F114031846FEF722FB44
:104B90002B4B1B68002B0CBF01230023DBB2002B27
:104BA00005D0284803F0E6FB7B685BB243E0242293
:104BB0002421254803F0DEFB28222821234803F086
:104BC000D9FB20222021224803F0D4FB1C4B1A6879
:104BD00007F11C03203210681860194B1A6807F19E
:104BE0001803243210681860154B1A6807F1140373
:104BF000283210681860174803F0BCFB07F11C034B
:104C00001846FFF7D3FC144803F0B4FB07F1180370
:104C10001846FFF7CDFD104803F0ACFB07F1140375
:104C20001846FEF7EBFA0C4803F0A4FB0A4803F021
:104C3000A1FB7B685BB218462037BD4680BD00BF34
:104C40004C000020C8DC01001CDD01006CDD01000F
:104C5000B8DD010004DE010028DE010080B586B069
:104C600000AFF860B9607A603B60914B1B68002B25
:104C70000CBF01230023DBB2002B05D08D4803F0CD
:104C800079FB7B685BB20FE18C228C218A4803F0B0
:104C900071FB4FF4A4724FF4A271884803F06AFBD1
:104CA000874803F067FB874803F064FB804B1B6871
:104CB0008C331846FEF750FB834803F05BFB7C4BBC
:104CC0001B6894331846FEF747FB804803F052FBFD
:104CD000774B1B689C331846FEF73EFB7C4803F07D
:104CE00049FB734B1B68A4331846FEF735FB794824
:104CF00003F040FB6E4B1B68AC331846FEF72CFBF1
:104D0000754803F037FB6A4B1B68B4331846FEF74F
:104D100023FB724803F02EFB654B1B68BC3318461F
:104D2000FEF71AFB6E4803F025FB614B1B68C4338A
:104D30001846FEF711FB00237B6104E006F096FAAB
:104D40007B6901337B617B69B3F5805FF6D365488E
:104D500003F010FB644803F00DFB554B1B68CC338C
:104D60001846FEF7F9FA614803F004FB504B1B6844
:104D7000D4331846FEF7F0FA5D4803F0FBFA4C4BCB
:104D80001B68DC331846FEF7E7FA5A4803F0F2FADC
:104D9000474B1B68E4331846FEF7DEFA564803F02B
:104DA000E9FA434B1B68EC331846FEF7D5FA534833
:104DB00003F0E0FA3E4B1B68F4331846FEF7CCFADA
:104DC0004F4803F0D7FA3A4B1B68FC331846FEF7FE
:104DD000C3FA4C4803F0CEFA354B1B6803F58273D7
:104DE0001846FEF7B9FA00233B6104E006F03EFAEC
:104DF0003B6901333B613B69B3F5805FF6D33948CA
:104E000003F0B8FA404803F0B5FA294B1B6803F5E4
:104E100086731846FEF7A0FA3C4803F0ABFA244B21
:104E20001B6803F58A731846FEF796FA384803F0B4
:104E3000A1FA1F4B1B6803F58E731846FEF78CFA18
:104E4000344803F097FA1A4B1B6803F5927318461F
:104E5000FEF782FA304803F08DFA154B1B6803F514
:104E600096731846FEF778FA2C4803F083FA104B35
:104E70001B6803F59A731846FEF76EFA284803F08C
:104E800079FA0B4B1B6803F59E731846FEF764FA1C
:104E9000244803F06FFA064B1B6803F5A27318460B
:104EA000FEF75AFA7B685BB218461837BD4680BDDC
:104EB0004C0000202CDE010084DE0100D4DE010065
:104EC00024DF01004CDF01005CDF01006CDF01002A
:104ED0007CDF01008CDF01009CDF0100ACDF010002
:104EE000BCDF010028DE0100CCDF0100D8DF0100BB
:104EF000E4DF0100F0DF0100FCDF010008E0010059
:104F000014E0010020E001002CE0010038E0010085
:104F100044E0010050E001005CE0010068E00100B5
:104F200074E0010080E0010080B58AB000AFF86055
:104F3000B9607A603B6007F11C031846FEF737F949
:104F4000534B1B68002B0CBF01230023DBB2002B4B
:104F500005D0504803F00EFA7B685BB293E007F18E
:104F600018031A464C49B86807F090FB034687F8C7
:104F7000233097F92330002B71DD07F11403184615
:104F8000FEF702F93B7D43F001033B753B7D43F0A7
:104F900002033B753B7D43F004033B753C4B1B68B0
:104FA000203307F1140210681860BB691BB2BB8381
:104FB000374B1B68243307F11C021068186000236C
:104FC0007B622EE0324B1A6807F11C032432106812
:104FD0001860B7F91C20B7F91E309A4226D0B7F9ED
:104FE0001E202E4B83FB0213D910D317C91A0B4670
:104FF0009B000B4499000B44D31A1BB2002B0AD11F
:10500000274803F0B7F907F11C031846FFF7D0FB58
:10501000244803F0AFF90120FBF73CFD7B6A013324
:105020007B627B6AB3F5FA6FCCD300E000BFBB694B
:1050300019461D4803F09EF93B7D23F001033B75A3
:105040003B7D23F002033B753B7D23F004033B755E
:105050000F4B1B68203307F11402106818600C4BCB
:105060001A6807F11C032432106818600F4803F017
:1050700081F907F11C031846FFF79AFB094803F072
:1050800079F97B685BB218462837BD4680BD00BF02
:105090004C0000208CE00100DCE001001F85EB519A
:1050A000E0E0010028DE0100FCE001001CE101005D
:1050B00080B588B000AFF860B9607A603B600023CB
:1050C000BB6107F118031A463949B86807F0DEFAE0
:1050D0000346FB7797F91F30002B2FDDBB69082BA8
:1050E0000AD9BB6908221946324803F043F9FEF792
:1050F000C1FA7B685BB257E0BB6919462E4803F0E2
:1051000039F9BB691846FEF703FCFEF7D5FC0346E8
:1051100083F00103DBB2002B0DD0284803F02AF9FD
:10512000FEF7A8FABB691946234803F023F9BB69C7
:105130001846FEF7EDFB7B685BB235E0204803F0D4
:1051400019F907F114031846FEF731F81D4B1A68D8
:1051500007F11403243210681860B7F91420B7F966
:1051600016309A4208D0184B1B681946174803F0AE
:1051700001F97B685BB217E0FEF79EFC034683F003
:105180000103DBB2002B07D0114803F0F3F8FEF760
:1051900071FA7B685BB207E00B4B1B6819460D4840
:1051A00003F0E8F87B685BB218462037BD4680BD47
:1051B000DCE0010040E10100C4E10100ECE101009C
:1051C00014E201004C000020380000204CE20100F5
:1051D00090E20100D8E2010080B586B000AFF8602F
:1051E000B9607A603B60114803F0C4F800237B612A
:1051F00010E07A690E4B1B68C3F854210C4B1B68F6
:10520000D3F858313B6139690A4803F0B3F87B6938
:1052100001337B617B693F2BEBD9074803F0AAF888
:105220007B685BB218461837BD4680BD08E30100B5
:105230004C0000201CE3010000DB01000000000026
:1052400080B59CB002AFF860B9607A603B6007F14E
:1052500024031846FFF768F900233B620023FB6133
:105260000023BB6100237B61894B1B68002B0CBFB3
:1052700001230023DBB2002B05D0864803F07AF827
:105280007B685BB2F9E007F11C0107F1200207F12E
:105290001403019307F1180300930B467E49B86885
:1052A00007F0F4F9034687F8673097F96730032B66
:1052B00020DD3B6ADBB287F82430FB69DBB287F87C
:1052C0002530BB69DBB287F826307B69DBB287F813
:1052D0002730396AFA69B8697B69009303466F48D9
:1052E00003F048F86A4B1B68403307F1240210684A
:1052F000186023E097F96730002B1FDD3B6ADBB2B3
:1053000087F824303B6ADBB287F825303B6ADBB292
:1053100087F826303B6ADBB287F82730396A3A6A69
:10532000386A3B6A009303465C4803F023F8584B05
:105330001B68403307F1240210681860544B1A6848
:1053400007F1240340321068186097F824303B625C
:1053500097F82530FB6197F82630BB6197F8273026
:105360007B61396AFA69B8697B69009303464C48E6
:1053700003F000F844A3D3E90023C7E916233B6AEE
:1053800001337B65FB6901333B65BB690133FB641A
:105390007B690133BB64786D16F026FD02460B462F
:1053A000D7E9160116F0C4FE02460B461046194610
:1053B0004FF000023B4B16F0BBFE02460B46C7E91E
:1053C0001023386D16F010FD02460B46D7E9160182
:1053D00016F0AEFE02460B46104619464FF000028C
:1053E000304B16F0A5FE02460B46C7E90E23F86CBB
:1053F00016F0FAFC02460B46D7E9160116F098FEA5
:1054000002460B46104619464FF00002254B16F097
:105410008FFE02460B46C7E90C23B86C16F0E4FC7D
:1054200002460B46D7E9160116F082FE02460B46ED
:10543000104619464FF000021A4B16F079FE02464C
:105440000B46C7E90A23D7E91023796D164802F005
:1054500091FFD7E90E23396D144802F08BFFD7E98D
:105460000C23F96C124802F085FFD7E90A23B96CC6
:10547000104802F07FFF7B685BB218466837BD4674
:1054800080BD00BFAFF3008000000000965198413E
:105490004C00002024E3010074E3010084E30100D8
:1054A000B8E3010000003040E8E3010034E401000B
:1054B00080E40100D0E4010080B584B000AFF86062
:1054C000B9607A603B600C4802F054FF0B48FFF76C
:1054D00093F90B48FFF790F90A48FFF78DF90A484E
:1054E000FFF704FA094802F045FF7B685BB21846F3
:1054F0001037BD4680BD00BF20E50100C01C002064
:10550000002D0020403D0020B04D002000DB0100B8
:1055100080B58CB002AFF860B9607A603B60002360
:105520003B6207F1180107F1200207F1170300930E
:105530000B465449B86807F0A9F8034687F82630A7
:1055400097F92630032B5ADD002387F8273097F987
:105550001730592B0FD097F91730792B0BD097F9BB
:105560001730542B07D097F91730742B03D097F9C5
:105570001730312B02D1012387F82730396A97F889
:105580002730002B01D0592300E04E231A463E4815
:1055900002F0F0FE3B6A032B26D801A252F823F05A
:1055A000B1550000BF550000CD550000DB5500008F
:1055B00097F8273019463548FFF77EF919E097F834
:1055C000273019463248FFF777F912E097F827306D
:1055D00019463048FFF770F90BE097F82730194665
:1055E0002D48FFF769F904E03B6A19462B4802F0A1
:1055F000C1FEB86807F01AFD03465BB23EE097F9BA
:1056000026301946264802F0B5FE2048FFF762F919
:105610000346002B01D0592300E04E2319462148B0
:1056200002F0A8FE1A48FFF755F90346002B01D0F7
:10563000592300E04E2319461B4802F09BFE1548F3
:10564000FFF748F90346002B01D0592300E04E2311
:105650001946164802F08EFE0F48FFF73BF9034645
:10566000002B01D0592300E04E231946104802F0C8
:1056700081FEB86807F0DAFC03465BB218462837AB
:10568000BD4680BD48E5010058E50100341C0020FE
:10569000501C00206C1C0020881C00208CE50100A0
:1056A000C4E5010014E6010044E6010074E60100CF
:1056B000A4E6010080B500AF0248FEF71DFE00BF62
:1056C00080BD00BF4000002080B500AFFFF7F2FFB3
:1056D00080BD80B485B000AFF860B9607A603B608F
:1056E000FB68BA681A60FB687A685A60FB683A68B7
:1056F0009A60FB6818461437BD4680BC70470000AE
:1057000098B500AF1C4C1D4B1D4A41F201012046CB
:10571000FFF7DFFF0C341B4B1B4A44F2010120460C
:10572000FFF7D7FF0C34194B194A44F20201204607
:10573000FFF7CFFF0C34174B174A44F20301204602
:10574000FFF7C7FF0C34154B154A44F204012046FD
:10575000FFF7BFFF0C34134B134A44F205012046F8
:10576000FFF7B7FF04F10C00104B114A44F2060199
:10577000FFF7AFFF00BF98BDC4190020415A0000D9
:1057800008E80100C15A00002CE80100555B000048
:1057900060E80100E95B000094E80100495C00005A
:1057A000C0E8010089610000F0E801001163000019
:1057B00018E9010080B500AFFFF7A2FF80BD00002F
:1057C00080B582B000AF78607B681B6819467B6843
:1057D0005A687B689B68034806F062FE00BF083782
:1057E000BD4680BD9CE9010080B582B000AF786005
:1057F00039607B681B68184616F006FB3B68D3E9E6
:10580000002316F06BFB02460B46104619464FF07C
:105810000002054B16F08CFC02460B46104619465A
:105820000837BD4680BD00BF00005E41000000009B
:1058300080B584B000AF7860396011A3D3E900234C
:10584000C7E9022307F1080319463868FFF7CCFFC0
:105850007B68D3E9002316F041FB02460B46104655
:1058600019467B68D3E9022316F082F902460B46FB
:10587000104619461037BD4680BD00BFAFF300800B
:10588000FCA9F1D24D62104080B582B000AF7860C3
:105890007B68043319460548FFF7CAFF02460B46EA
:1058A000104619460837BD4680BD00BF001B0020CA
:1058B00080B582B000AF78607B6808331946054830
:1058C000FFF7B6FF02460B46104619460837BD469D
:1058D00080BD00BF101B002080B582B000AF786093
:1058E0007B680C3319460548FFF7A2FF02460B46BA
:1058F000104619460837BD4680BD00BF201B00205A
:1059000080B582B000AF78607B68103319460548D7
:10591000FFF78EFF02460B46104619460837BD4674
:1059200080BD00BF301B002080B582B000AF786022
:105930007B68143319460548FFF77AFF02460B4689
:10594000104619460837BD4680BD00BF501B0020D9
:1059500080B582B000AF78607B681833194605487F
:10596000FFF766FF02460B46104619460837BD464C
:1059700080BD00BF601B002080B582B000AF7860A2
:105980007B681C3319460548FFF752FF02460B4659
:10599000104619460837BD4680BD00BF401B002099
:1059A00080B582B000AF78607B6820331946054827
:1059B000FFF73EFF02460B46104619460837BD4624
:1059C00080BD00BF701B002080B582B000AF786042
:1059D0007B68243319460548FFF72AFF02460B4629
:1059E000104619460837BD4680BD00BF801B002009
:1059F00080B582B000AF78607B68283319460548CF
:105A0000FFF716FF02460B46104619460837BD46FB
:105A100080BD00BF901B002080B582B000AF7860D1
:105A20007B682C3319460548FFF702FF02460B46F8
:105A3000104619460837BD4680BD00BFA01B002098
:105A400080B58AB002AFF860B9607A603B6000232D
:105A50007B616D23BB610023FB61164B1B68002B30
:105A600014BF01230023DBB2002B07D0114B1B68AE
:105A70001B687B610F4B1B685B68FB610C210E4848
:105A800002F078FC07F114031846FFF799FE0B4863
:105A900002F070FC07F114030C220092002241F284
:105AA0000101386802F0D4FC7B685BB218462037ED
:105AB000BD4680BD4C00002058ED010090ED010076
:105AC00080B588B002AFF860B9607A603B607968F1
:105AD0001B4802F04FFCBB68002B13D07B68032BE4
